{
  "address": "0x76B17889D09ca15DfAd19eF41aE52385bEa9d302",
  "abi": [
    {
      "inputs": [
        {
          "internalType": "address",
          "name": "admin",
          "type": "address"
        },
        {
          "internalType": "address[]",
          "name": "initialAssets",
          "type": "address[]"
        }
      ],
      "stateMutability": "nonpayable",
      "type": "constructor"
    },
    {
      "inputs": [],
      "name": "AccessControlBadConfirmation",
      "type": "error"
    },
    {
      "inputs": [
        {
          "internalType": "address",
          "name": "account",
          "type": "address"
        },
        {
          "internalType": "bytes32",
          "name": "neededRole",
          "type": "bytes32"
        }
      ],
      "name": "AccessControlUnauthorizedAccount",
      "type": "error"
    },
    {
      "inputs": [
        {
          "internalType": "address",
          "name": "spender",
          "type": "address"
        },
        {
          "internalType": "uint256",
          "name": "allowance",
          "type": "uint256"
        },
        {
          "internalType": "uint256",
          "name": "needed",
          "type": "uint256"
        }
      ],
      "name": "ERC20InsufficientAllowance",
      "type": "error"
    },
    {
      "inputs": [
        {
          "internalType": "address",
          "name": "sender",
          "type": "address"
        },
        {
          "internalType": "uint256",
          "name": "balance",
          "type": "uint256"
        },
        {
          "internalType": "uint256",
          "name": "needed",
          "type": "uint256"
        }
      ],
      "name": "ERC20InsufficientBalance",
      "type": "error"
    },
    {
      "inputs": [
        {
          "internalType": "address",
          "name": "approver",
          "type": "address"
        }
      ],
      "name": "ERC20InvalidApprover",
      "type": "error"
    },
    {
      "inputs": [
        {
          "internalType": "address",
          "name": "receiver",
          "type": "address"
        }
      ],
      "name": "ERC20InvalidReceiver",
      "type": "error"
    },
    {
      "inputs": [
        {
          "internalType": "address",
          "name": "sender",
          "type": "address"
        }
      ],
      "name": "ERC20InvalidSender",
      "type": "error"
    },
    {
      "inputs": [
        {
          "internalType": "address",
          "name": "spender",
          "type": "address"
        }
      ],
      "name": "ERC20InvalidSpender",
      "type": "error"
    },
    {
      "inputs": [],
      "name": "InsufficientCollateral",
      "type": "error"
    },
    {
      "inputs": [],
      "name": "InvalidAmount",
      "type": "error"
    },
    {
      "inputs": [],
      "name": "InvalidAssetAddress",
      "type": "error"
    },
    {
      "inputs": [],
      "name": "ReentrancyGuardReentrantCall",
      "type": "error"
    },
    {
      "inputs": [
        {
          "internalType": "address",
          "name": "token",
          "type": "address"
        }
      ],
      "name": "SafeERC20FailedOperation",
      "type": "error"
    },
    {
      "inputs": [],
      "name": "UnsupportedAsset",
      "type": "error"
    },
    {
      "inputs": [],
      "name": "ZeroAddressException",
      "type": "error"
    },
    {
      "anonymous": false,
      "inputs": [
        {
          "indexed": true,
          "internalType": "address",
          "name": "owner",
          "type": "address"
        },
        {
          "indexed": true,
          "internalType": "address",
          "name": "spender",
          "type": "address"
        },
        {
          "indexed": false,
          "internalType": "uint256",
          "name": "value",
          "type": "uint256"
        }
      ],
      "name": "Approval",
      "type": "event"
    },
    {
      "anonymous": false,
      "inputs": [
        {
          "indexed": true,
          "internalType": "address",
          "name": "asset",
          "type": "address"
        }
      ],
      "name": "AssetAdded",
      "type": "event"
    },
    {
      "anonymous": false,
      "inputs": [
        {
          "indexed": true,
          "internalType": "address",
          "name": "asset",
          "type": "address"
        }
      ],
      "name": "AssetRemoved",
      "type": "event"
    },
    {
      "anonymous": false,
      "inputs": [
        {
          "indexed": true,
          "internalType": "address",
          "name": "asset",
          "type": "address"
        },
        {
          "indexed": false,
          "internalType": "uint256",
          "name": "amount",
          "type": "uint256"
        },
        {
          "indexed": true,
          "internalType": "address",
          "name": "to",
          "type": "address"
        }
      ],
      "name": "CollateralWithdrawn",
      "type": "event"
    },
    {
      "anonymous": false,
      "inputs": [
        {
          "indexed": true,
          "internalType": "address",
          "name": "beneficiary",
          "type": "address"
        },
        {
          "indexed": true,
          "internalType": "address",
          "name": "collateralAsset",
          "type": "address"
        },
        {
          "indexed": false,
          "internalType": "uint256",
          "name": "collateralAmount",
          "type": "uint256"
        },
        {
          "indexed": false,
          "internalType": "uint256",
          "name": "mctAmount",
          "type": "uint256"
        }
      ],
      "name": "Minted",
      "type": "event"
    },
    {
      "anonymous": false,
      "inputs": [
        {
          "indexed": true,
          "internalType": "address",
          "name": "beneficiary",
          "type": "address"
        },
        {
          "indexed": true,
          "internalType": "address",
          "name": "collateralAsset",
          "type": "address"
        },
        {
          "indexed": false,
          "internalType": "uint256",
          "name": "mctAmount",
          "type": "uint256"
        },
        {
          "indexed": false,
          "internalType": "uint256",
          "name": "collateralAmount",
          "type": "uint256"
        }
      ],
      "name": "Redeemed",
      "type": "event"
    },
    {
      "anonymous": false,
      "inputs": [
        {
          "indexed": true,
          "internalType": "bytes32",
          "name": "role",
          "type": "bytes32"
        },
        {
          "indexed": true,
          "internalType": "bytes32",
          "name": "previousAdminRole",
          "type": "bytes32"
        },
        {
          "indexed": true,
          "internalType": "bytes32",
          "name": "newAdminRole",
          "type": "bytes32"
        }
      ],
      "name": "RoleAdminChanged",
      "type": "event"
    },
    {
      "anonymous": false,
      "inputs": [
        {
          "indexed": true,
          "internalType": "bytes32",
          "name": "role",
          "type": "bytes32"
        },
        {
          "indexed": true,
          "internalType": "address",
          "name": "account",
          "type": "address"
        },
        {
          "indexed": true,
          "internalType": "address",
          "name": "sender",
          "type": "address"
        }
      ],
      "name": "RoleGranted",
      "type": "event"
    },
    {
      "anonymous": false,
      "inputs": [
        {
          "indexed": true,
          "internalType": "bytes32",
          "name": "role",
          "type": "bytes32"
        },
        {
          "indexed": true,
          "internalType": "address",
          "name": "account",
          "type": "address"
        },
        {
          "indexed": true,
          "internalType": "address",
          "name": "sender",
          "type": "address"
        }
      ],
      "name": "RoleRevoked",
      "type": "event"
    },
    {
      "anonymous": false,
      "inputs": [
        {
          "indexed": true,
          "internalType": "address",
          "name": "from",
          "type": "address"
        },
        {
          "indexed": true,
          "internalType": "address",
          "name": "to",
          "type": "address"
        },
        {
          "indexed": false,
          "internalType": "uint256",
          "name": "value",
          "type": "uint256"
        }
      ],
      "name": "Transfer",
      "type": "event"
    },
    {
      "anonymous": false,
      "inputs": [
        {
          "indexed": true,
          "internalType": "address",
          "name": "beneficiary",
          "type": "address"
        },
        {
          "indexed": false,
          "internalType": "uint256",
          "name": "mctAmount",
          "type": "uint256"
        }
      ],
      "name": "UnbackedMint",
      "type": "event"
    },
    {
      "inputs": [],
      "name": "COLLATERAL_MANAGER_ROLE",
      "outputs": [
        {
          "internalType": "bytes32",
          "name": "",
          "type": "bytes32"
        }
      ],
      "stateMutability": "view",
      "type": "function"
    },
    {
      "inputs": [],
      "name": "DEFAULT_ADMIN_ROLE",
      "outputs": [
        {
          "internalType": "bytes32",
          "name": "",
          "type": "bytes32"
        }
      ],
      "stateMutability": "view",
      "type": "function"
    },
    {
      "inputs": [],
      "name": "MINTER_ROLE",
      "outputs": [
        {
          "internalType": "bytes32",
          "name": "",
          "type": "bytes32"
        }
      ],
      "stateMutability": "view",
      "type": "function"
    },
    {
      "inputs": [
        {
          "internalType": "address",
          "name": "asset",
          "type": "address"
        }
      ],
      "name": "addSupportedAsset",
      "outputs": [],
      "stateMutability": "nonpayable",
      "type": "function"
    },
    {
      "inputs": [
        {
          "internalType": "address",
          "name": "owner",
          "type": "address"
        },
        {
          "internalType": "address",
          "name": "spender",
          "type": "address"
        }
      ],
      "name": "allowance",
      "outputs": [
        {
          "internalType": "uint256",
          "name": "",
          "type": "uint256"
        }
      ],
      "stateMutability": "view",
      "type": "function"
    },
    {
      "inputs": [
        {
          "internalType": "address",
          "name": "spender",
          "type": "address"
        },
        {
          "internalType": "uint256",
          "name": "value",
          "type": "uint256"
        }
      ],
      "name": "approve",
      "outputs": [
        {
          "internalType": "bool",
          "name": "",
          "type": "bool"
        }
      ],
      "stateMutability": "nonpayable",
      "type": "function"
    },
    {
      "inputs": [
        {
          "internalType": "address",
          "name": "account",
          "type": "address"
        }
      ],
      "name": "balanceOf",
      "outputs": [
        {
          "internalType": "uint256",
          "name": "",
          "type": "uint256"
        }
      ],
      "stateMutability": "view",
      "type": "function"
    },
    {
      "inputs": [
        {
          "internalType": "uint256",
          "name": "value",
          "type": "uint256"
        }
      ],
      "name": "burn",
      "outputs": [],
      "stateMutability": "nonpayable",
      "type": "function"
    },
    {
      "inputs": [
        {
          "internalType": "address",
          "name": "account",
          "type": "address"
        },
        {
          "internalType": "uint256",
          "name": "value",
          "type": "uint256"
        }
      ],
      "name": "burnFrom",
      "outputs": [],
      "stateMutability": "nonpayable",
      "type": "function"
    },
    {
      "inputs": [
        {
          "internalType": "address",
          "name": "",
          "type": "address"
        }
      ],
      "name": "collateralBalance",
      "outputs": [
        {
          "internalType": "uint256",
          "name": "",
          "type": "uint256"
        }
      ],
      "stateMutability": "view",
      "type": "function"
    },
    {
      "inputs": [],
      "name": "decimals",
      "outputs": [
        {
          "internalType": "uint8",
          "name": "",
          "type": "uint8"
        }
      ],
      "stateMutability": "view",
      "type": "function"
    },
    {
      "inputs": [
        {
          "internalType": "address",
          "name": "asset",
          "type": "address"
        },
        {
          "internalType": "uint256",
          "name": "amount",
          "type": "uint256"
        }
      ],
      "name": "depositCollateral",
      "outputs": [],
      "stateMutability": "nonpayable",
      "type": "function"
    },
    {
      "inputs": [
        {
          "internalType": "bytes32",
          "name": "role",
          "type": "bytes32"
        }
      ],
      "name": "getRoleAdmin",
      "outputs": [
        {
          "internalType": "bytes32",
          "name": "",
          "type": "bytes32"
        }
      ],
      "stateMutability": "view",
      "type": "function"
    },
    {
      "inputs": [],
      "name": "getSupportedAssets",
      "outputs": [
        {
          "internalType": "address[]",
          "name": "",
          "type": "address[]"
        }
      ],
      "stateMutability": "view",
      "type": "function"
    },
    {
      "inputs": [
        {
          "internalType": "bytes32",
          "name": "role",
          "type": "bytes32"
        },
        {
          "internalType": "address",
          "name": "account",
          "type": "address"
        }
      ],
      "name": "grantRole",
      "outputs": [],
      "stateMutability": "nonpayable",
      "type": "function"
    },
    {
      "inputs": [
        {
          "internalType": "bytes32",
          "name": "role",
          "type": "bytes32"
        },
        {
          "internalType": "address",
          "name": "account",
          "type": "address"
        }
      ],
      "name": "hasRole",
      "outputs": [
        {
          "internalType": "bool",
          "name": "",
          "type": "bool"
        }
      ],
      "stateMutability": "view",
      "type": "function"
    },
    {
      "inputs": [
        {
          "internalType": "address",
          "name": "asset",
          "type": "address"
        }
      ],
      "name": "isSupportedAsset",
      "outputs": [
        {
          "internalType": "bool",
          "name": "",
          "type": "bool"
        }
      ],
      "stateMutability": "view",
      "type": "function"
    },
    {
      "inputs": [
        {
          "internalType": "address",
          "name": "collateralAsset",
          "type": "address"
        },
        {
          "internalType": "uint256",
          "name": "collateralAmount",
          "type": "uint256"
        },
        {
          "internalType": "address",
          "name": "beneficiary",
          "type": "address"
        }
      ],
      "name": "mint",
      "outputs": [
        {
          "internalType": "uint256",
          "name": "mctAmount",
          "type": "uint256"
        }
      ],
      "stateMutability": "nonpayable",
      "type": "function"
    },
    {
      "inputs": [
        {
          "internalType": "address",
          "name": "beneficiary",
          "type": "address"
        },
        {
          "internalType": "uint256",
          "name": "mctAmount",
          "type": "uint256"
        }
      ],
      "name": "mintWithoutCollateral",
      "outputs": [],
      "stateMutability": "nonpayable",
      "type": "function"
    },
    {
      "inputs": [],
      "name": "name",
      "outputs": [
        {
          "internalType": "string",
          "name": "",
          "type": "string"
        }
      ],
      "stateMutability": "view",
      "type": "function"
    },
    {
      "inputs": [
        {
          "internalType": "address",
          "name": "collateralAsset",
          "type": "address"
        },
        {
          "internalType": "uint256",
          "name": "mctAmount",
          "type": "uint256"
        },
        {
          "internalType": "address",
          "name": "beneficiary",
          "type": "address"
        }
      ],
      "name": "redeem",
      "outputs": [
        {
          "internalType": "uint256",
          "name": "collateralAmount",
          "type": "uint256"
        }
      ],
      "stateMutability": "nonpayable",
      "type": "function"
    },
    {
      "inputs": [
        {
          "internalType": "address",
          "name": "asset",
          "type": "address"
        }
      ],
      "name": "removeSupportedAsset",
      "outputs": [],
      "stateMutability": "nonpayable",
      "type": "function"
    },
    {
      "inputs": [
        {
          "internalType": "bytes32",
          "name": "role",
          "type": "bytes32"
        },
        {
          "internalType": "address",
          "name": "callerConfirmation",
          "type": "address"
        }
      ],
      "name": "renounceRole",
      "outputs": [],
      "stateMutability": "nonpayable",
      "type": "function"
    },
    {
      "inputs": [
        {
          "internalType": "bytes32",
          "name": "role",
          "type": "bytes32"
        },
        {
          "internalType": "address",
          "name": "account",
          "type": "address"
        }
      ],
      "name": "revokeRole",
      "outputs": [],
      "stateMutability": "nonpayable",
      "type": "function"
    },
    {
      "inputs": [
        {
          "internalType": "bytes4",
          "name": "interfaceId",
          "type": "bytes4"
        }
      ],
      "name": "supportsInterface",
      "outputs": [
        {
          "internalType": "bool",
          "name": "",
          "type": "bool"
        }
      ],
      "stateMutability": "view",
      "type": "function"
    },
    {
      "inputs": [],
      "name": "symbol",
      "outputs": [
        {
          "internalType": "string",
          "name": "",
          "type": "string"
        }
      ],
      "stateMutability": "view",
      "type": "function"
    },
    {
      "inputs": [],
      "name": "totalSupply",
      "outputs": [
        {
          "internalType": "uint256",
          "name": "",
          "type": "uint256"
        }
      ],
      "stateMutability": "view",
      "type": "function"
    },
    {
      "inputs": [
        {
          "internalType": "address",
          "name": "to",
          "type": "address"
        },
        {
          "internalType": "uint256",
          "name": "value",
          "type": "uint256"
        }
      ],
      "name": "transfer",
      "outputs": [
        {
          "internalType": "bool",
          "name": "",
          "type": "bool"
        }
      ],
      "stateMutability": "nonpayable",
      "type": "function"
    },
    {
      "inputs": [
        {
          "internalType": "address",
          "name": "from",
          "type": "address"
        },
        {
          "internalType": "address",
          "name": "to",
          "type": "address"
        },
        {
          "internalType": "uint256",
          "name": "value",
          "type": "uint256"
        }
      ],
      "name": "transferFrom",
      "outputs": [
        {
          "internalType": "bool",
          "name": "",
          "type": "bool"
        }
      ],
      "stateMutability": "nonpayable",
      "type": "function"
    },
    {
      "inputs": [
        {
          "internalType": "address",
          "name": "asset",
          "type": "address"
        },
        {
          "internalType": "uint256",
          "name": "amount",
          "type": "uint256"
        },
        {
          "internalType": "address",
          "name": "to",
          "type": "address"
        }
      ],
      "name": "withdrawCollateral",
      "outputs": [],
      "stateMutability": "nonpayable",
      "type": "function"
    }
  ],
  "transactionHash": "0x53209a4bbfad2f768a05d7605336408dcdcf2784624c26b6ef215c875bd5bf7d",
  "args": [
    "0xfd8b2FC9b759Db3bCb8f713224e17119Dd9d3671",
    [
      "0x3253a335E7bFfB4790Aa4C25C4250d206E9b9773"
    ]
  ],
  "numDeployments": 1,
  "solcInputHash": "997a8c40cfae69fdcd7b4cb6fd12ef2d",
  "bytecode": "0x60806040523480156200001157600080fd5b50604051620021483803806200214883398101604081905262000034916200034a565b6040518060400160405280601481526020017f4d756c7469436f6c6c61746572616c546f6b656e000000000000000000000000815250604051806040016040528060038152602001621350d560ea1b8152508160039081620000979190620004c4565b506004620000a68282620004c4565b50506001600655506001600160a01b038216620000d657604051635919af9760e11b815260040160405180910390fd5b620000e36000836200015d565b50620001107f85e8f2d6819d6b24108062d87ea08f54651bcb8960d98062d3faf96e7873b8b9836200015d565b5060005b815181101562000154576200014b82828151811062000137576200013762000590565b60200260200101516200021060201b60201c565b60010162000114565b505050620005a6565b60008281526005602090815260408083206001600160a01b038516845290915281205460ff16620002065760008381526005602090815260408083206001600160a01b03861684529091529020805460ff19166001179055620001bd3390565b6001600160a01b0316826001600160a01b0316847f2f8788117e7eff1d82e926ec794901d17c78024a50270940304540a733656f0d60405160405180910390a45060016200020a565b5060005b92915050565b6001600160a01b03811615806200022f57506001600160a01b03811630145b156200024e57604051630ccd248560e21b815260040160405180910390fd5b6200025b600782620002b0565b6200027957604051630ccd248560e21b815260040160405180910390fd5b6040516001600160a01b038216907f0e3c58ebfb2e7465fbb1c32e6b4f40c3c4f5ca77e8218a386aff8617831260d790600090a250565b6000620002c7836001600160a01b038416620002ce565b9392505050565b600081815260018301602052604081205462000206575081546001818101845560008481526020808220909301849055845484825282860190935260409020919091556200020a565b80516001600160a01b03811681146200032f57600080fd5b919050565b634e487b7160e01b600052604160045260246000fd5b600080604083850312156200035e57600080fd5b620003698362000317565b602084810151919350906001600160401b03808211156200038957600080fd5b818601915086601f8301126200039e57600080fd5b815181811115620003b357620003b362000334565b8060051b604051601f19603f83011681018181108582111715620003db57620003db62000334565b604052918252848201925083810185019189831115620003fa57600080fd5b938501935b828510156200042357620004138562000317565b84529385019392850192620003ff565b8096505050505050509250929050565b600181811c908216806200044857607f821691505b6020821081036200046957634e487b7160e01b600052602260045260246000fd5b50919050565b601f821115620004bf576000816000526020600020601f850160051c810160208610156200049a5750805b601f850160051c820191505b81811015620004bb57828155600101620004a6565b5050505b505050565b81516001600160401b03811115620004e057620004e062000334565b620004f881620004f1845462000433565b846200046f565b602080601f831160018114620005305760008415620005175750858301515b600019600386901b1c1916600185901b178555620004bb565b600085815260208120601f198616915b82811015620005615788860151825594840194600190910190840162000540565b5085821015620005805787850151600019600388901b60f8161c191681555b5050505050600190811b01905550565b634e487b7160e01b600052603260045260246000fd5b611b9280620005b66000396000f3fe608060405234801561001057600080fd5b50600436106101da5760003560e01c80635c833bfd11610104578063a217fddf116100a2578063d547741f11610071578063d547741f14610418578063dd62ed3e1461042b578063e5406dbf14610464578063fac09e871461047957600080fd5b8063a217fddf146103d5578063a5d5db0c146103dd578063a9059cbb146103f0578063d53913931461040357600080fd5b806391d14854116100de57806391d148541461038757806395d89b411461039a5780639be918e6146103a2578063a1bf2840146103b557600080fd5b80635c833bfd1461033857806370a082311461034b57806379cc67901461037457600080fd5b806323b872dd1161017c578063313ce5671161014b578063313ce567146102f057806336568abe146102ff57806342966c681461031257806355313a7b1461032557600080fd5b806323b872dd14610280578063248a9ca3146102935780632e718ab7146102b65780632f2ff15d146102dd57600080fd5b80630d4d1513116101b85780630d4d15131461022f57806318160ddd146102505780631c46bc6f146102585780631f1088a01461026d57600080fd5b806301ffc9a7146101df57806306fdde0314610207578063095ea7b31461021c575b600080fd5b6101f26101ed36600461170e565b61048c565b60405190151581526020015b60405180910390f35b61020f6104c3565b6040516101fe9190611738565b6101f261022a3660046117a3565b610555565b61024261023d3660046117cd565b61056d565b6040519081526020016101fe565b600254610242565b61026b610266366004611809565b6106c0565b005b61026b61027b3660046117cd565b61072b565b6101f261028e366004611824565b6108a5565b6102426102a1366004611860565b60009081526005602052604090206001015490565b6102427f85e8f2d6819d6b24108062d87ea08f54651bcb8960d98062d3faf96e7873b8b981565b61026b6102eb366004611879565b6108c9565b604051601281526020016101fe565b61026b61030d366004611879565b6108f4565b61026b610320366004611860565b610927565b61026b6103333660046117a3565b610934565b6102426103463660046117cd565b6109e6565b610242610359366004611809565b6001600160a01b031660009081526020819052604090205490565b61026b6103823660046117a3565b610b58565b6101f2610395366004611879565b610b71565b61020f610b9c565b6101f26103b0366004611809565b610bab565b6102426103c3366004611809565b60096020526000908152604090205481565b610242600081565b61026b6103eb3660046117a3565b610bb8565b6101f26103fe3660046117a3565b610c7f565b610242600080516020611b3d83398151915281565b61026b610426366004611879565b610c8d565b6102426104393660046118a5565b6001600160a01b03918216600090815260016020908152604080832093909416825291909152205490565b61046c610cb2565b6040516101fe91906118cf565b61026b610487366004611809565b610d58565b60006001600160e01b03198216637965db0b60e01b14806104bd57506301ffc9a760e01b6001600160e01b03198316145b92915050565b6060600380546104d29061191c565b80601f01602080910402602001604051908101604052809291908181526020018280546104fe9061191c565b801561054b5780601f106105205761010080835404028352916020019161054b565b820191906000526020600020905b81548152906001019060200180831161052e57829003601f168201915b5050505050905090565b600033610563818585610d6c565b5060019392505050565b6000610577610d79565b600080516020611b3d83398151915261058f81610da3565b836000036105b05760405163162908e360e11b815260040160405180910390fd5b6105bb600786610dad565b6105d857604051630928045160e21b815260040160405180910390fd5b6001600160a01b0383166105ff57604051635919af9760e11b815260040160405180910390fd5b6106098585610dcf565b91506106206001600160a01b038616333087610e9e565b6001600160a01b0385166000908152600960205260408120805486929061064890849061196c565b9091555061065890508383610f05565b846001600160a01b0316836001600160a01b03167f03f17d66ad3bf18e9412eb06582908831508cdb9b8da9cddb1431f645a5b863286856040516106a6929190918252602082015260400190565b60405180910390a3506106b96001600655565b9392505050565b60006106cb81610da3565b6106d6600783610f40565b6106f357604051630ccd248560e21b815260040160405180910390fd5b6040516001600160a01b038316907f37803e2125c48ee96c38ddf04e826daf335b0e1603579040fd275aba6d06b6fc90600090a25050565b610733610d79565b7f85e8f2d6819d6b24108062d87ea08f54651bcb8960d98062d3faf96e7873b8b961075d81610da3565b8260000361077e5760405163162908e360e11b815260040160405180910390fd5b610789600785610dad565b6107a657604051630928045160e21b815260040160405180910390fd5b6001600160a01b0382166107cd57604051635919af9760e11b815260040160405180910390fd5b6001600160a01b03841660009081526009602052604090205483111561080657604051633a23d82560e01b815260040160405180910390fd5b6001600160a01b0384166000908152600960205260408120805485929061082e90849061197f565b9091555061084890506001600160a01b0385168385610f55565b816001600160a01b0316846001600160a01b03167f5c582f045c0b9365cea3be0c0ad7deef76a1c4fe20ef1f84c153043ec35985038560405161088d91815260200190565b60405180910390a3506108a06001600655565b505050565b6000336108b3858285610f86565b6108be858585610fff565b506001949350505050565b6000828152600560205260409020600101546108e481610da3565b6108ee838361105e565b50505050565b6001600160a01b038116331461091d5760405163334bd91960e11b815260040160405180910390fd5b6108a082826110f2565b610931338261115f565b50565b600080516020611b3d83398151915261094c81610da3565b8160000361096d5760405163162908e360e11b815260040160405180910390fd5b6001600160a01b03831661099457604051635919af9760e11b815260040160405180910390fd5b61099e8383610f05565b826001600160a01b03167fc0be09cd95289084155cfc55698efdd1b14de7a59d4d1d5eb3e097a0a76ef700836040516109d991815260200190565b60405180910390a2505050565b60006109f0610d79565b600080516020611b3d833981519152610a0881610da3565b83600003610a295760405163162908e360e11b815260040160405180910390fd5b610a34600786610dad565b610a5157604051630928045160e21b815260040160405180910390fd5b6001600160a01b038316610a7857604051635919af9760e11b815260040160405180910390fd5b610a828585611195565b6001600160a01b038616600090815260096020526040902054909250821115610abe57604051633a23d82560e01b815260040160405180910390fd5b610ac8338561115f565b6001600160a01b03851660009081526009602052604081208054849290610af090849061197f565b90915550610b0a90506001600160a01b0386168484610f55565b846001600160a01b0316836001600160a01b03167f5cdf07ad0fc222442720b108e3ed4c4640f0fadc2ab2253e66f259a0fea8348086856040516106a6929190918252602082015260400190565b610b63823383610f86565b610b6d828261115f565b5050565b60009182526005602090815260408084206001600160a01b0393909316845291905290205460ff1690565b6060600480546104d29061191c565b60006104bd600783610dad565b610bc0610d79565b7f85e8f2d6819d6b24108062d87ea08f54651bcb8960d98062d3faf96e7873b8b9610bea81610da3565b81600003610c0b5760405163162908e360e11b815260040160405180910390fd5b610c16600784610dad565b610c3357604051630928045160e21b815260040160405180910390fd5b610c486001600160a01b038416333085610e9e565b6001600160a01b03831660009081526009602052604081208054849290610c7090849061196c565b90915550506001600655505050565b600033610563818585610fff565b600082815260056020526040902060010154610ca881610da3565b6108ee83836110f2565b60606000610cc06007611232565b905060008167ffffffffffffffff811115610cdd57610cdd611992565b604051908082528060200260200182016040528015610d06578160200160208202803683370190505b50905060005b82811015610d5157610d1f60078261123c565b828281518110610d3157610d316119a8565b6001600160a01b0390921660209283029190910190910152600101610d0c565b5092915050565b6000610d6381610da3565b610b6d82611248565b6108a083838360016112e3565b600260065403610d9c57604051633ee5aeb560e01b815260040160405180910390fd5b6002600655565b61093181336113b8565b6001600160a01b038116600090815260018301602052604081205415156106b9565b600080836001600160a01b031663313ce5676040518163ffffffff1660e01b8152600401602060405180830381865afa158015610e10573d6000803e3d6000fd5b505050506040513d601f19601f82011682018060405250810190610e3491906119be565b90508060ff16601203610e4a57829150506104bd565b60128160ff161015610e7e57610e618160126119e1565b610e6c90600a611ade565b610e769084611aed565b9150506104bd565b610e896012826119e1565b610e9490600a611ade565b610e769084611b04565b6040516001600160a01b0384811660248301528381166044830152606482018390526108ee9186918216906323b872dd906084015b604051602081830303815290604052915060e01b6020820180516001600160e01b0383818316178352505050506113f1565b6001600160a01b038216610f345760405163ec442f0560e01b8152600060048201526024015b60405180910390fd5b610b6d60008383611462565b60006106b9836001600160a01b03841661158c565b6040516001600160a01b038381166024830152604482018390526108a091859182169063a9059cbb90606401610ed3565b6001600160a01b038381166000908152600160209081526040808320938616835292905220546000198110156108ee5781811015610ff057604051637dc7a0d960e11b81526001600160a01b03841660048201526024810182905260448101839052606401610f2b565b6108ee848484840360006112e3565b6001600160a01b03831661102957604051634b637e8f60e11b815260006004820152602401610f2b565b6001600160a01b0382166110535760405163ec442f0560e01b815260006004820152602401610f2b565b6108a0838383611462565b600061106a8383610b71565b6110ea5760008381526005602090815260408083206001600160a01b03861684529091529020805460ff191660011790556110a23390565b6001600160a01b0316826001600160a01b0316847f2f8788117e7eff1d82e926ec794901d17c78024a50270940304540a733656f0d60405160405180910390a45060016104bd565b5060006104bd565b60006110fe8383610b71565b156110ea5760008381526005602090815260408083206001600160a01b0386168085529252808320805460ff1916905551339286917ff6391f5c32d9c69d2a47ea670b442974b53935d1edc7fd64eb21e047a839171b9190a45060016104bd565b6001600160a01b03821661118957604051634b637e8f60e11b815260006004820152602401610f2b565b610b6d82600083611462565b600080836001600160a01b031663313ce5676040518163ffffffff1660e01b8152600401602060405180830381865afa1580156111d6573d6000803e3d6000fd5b505050506040513d601f19601f820116820180604052508101906111fa91906119be565b90508060ff1660120361121057829150506104bd565b60128160ff16101561122757610e898160126119e1565b610e616012826119e1565b60006104bd825490565b60006106b9838361167f565b6001600160a01b038116158061126657506001600160a01b03811630145b1561128457604051630ccd248560e21b815260040160405180910390fd5b61128f6007826116a9565b6112ac57604051630ccd248560e21b815260040160405180910390fd5b6040516001600160a01b038216907f0e3c58ebfb2e7465fbb1c32e6b4f40c3c4f5ca77e8218a386aff8617831260d790600090a250565b6001600160a01b03841661130d5760405163e602df0560e01b815260006004820152602401610f2b565b6001600160a01b03831661133757604051634a1406b160e11b815260006004820152602401610f2b565b6001600160a01b03808516600090815260016020908152604080832093871683529290522082905580156108ee57826001600160a01b0316846001600160a01b03167f8c5be1e5ebec7d5bd14f71427d1e84f3dd0314c0f7b2291e5b200ac8c7c3b925846040516113aa91815260200190565b60405180910390a350505050565b6113c28282610b71565b610b6d5760405163e2517d3f60e01b81526001600160a01b038216600482015260248101839052604401610f2b565b600080602060008451602086016000885af180611414576040513d6000823e3d81fd5b50506000513d9150811561142c578060011415611439565b6001600160a01b0384163b155b156108ee57604051635274afe760e01b81526001600160a01b0385166004820152602401610f2b565b6001600160a01b03831661148d578060026000828254611482919061196c565b909155506114ff9050565b6001600160a01b038316600090815260208190526040902054818110156114e05760405163391434e360e21b81526001600160a01b03851660048201526024810182905260448101839052606401610f2b565b6001600160a01b03841660009081526020819052604090209082900390555b6001600160a01b03821661151b5760028054829003905561153a565b6001600160a01b03821660009081526020819052604090208054820190555b816001600160a01b0316836001600160a01b03167fddf252ad1be2c89b69c2b068fc378daa952ba7f163c4a11628f55a4df523b3ef8360405161157f91815260200190565b60405180910390a3505050565b600081815260018301602052604081205480156116755760006115b060018361197f565b85549091506000906115c49060019061197f565b90508082146116295760008660000182815481106115e4576115e46119a8565b9060005260206000200154905080876000018481548110611607576116076119a8565b6000918252602080832090910192909255918252600188019052604090208390555b855486908061163a5761163a611b26565b6001900381819060005260206000200160009055905585600101600086815260200190815260200160002060009055600193505050506104bd565b60009150506104bd565b6000826000018281548110611696576116966119a8565b9060005260206000200154905092915050565b60006106b9836001600160a01b03841660006116d8838360009081526001919091016020526040902054151590565b6110ea575081546001818101845560008481526020808220909301849055845484825282860190935260409020919091556104bd565b60006020828403121561172057600080fd5b81356001600160e01b0319811681146106b957600080fd5b60006020808352835180602085015260005b818110156117665785810183015185820160400152820161174a565b506000604082860101526040601f19601f8301168501019250505092915050565b80356001600160a01b038116811461179e57600080fd5b919050565b600080604083850312156117b657600080fd5b6117bf83611787565b946020939093013593505050565b6000806000606084860312156117e257600080fd5b6117eb84611787565b92506020840135915061180060408501611787565b90509250925092565b60006020828403121561181b57600080fd5b6106b982611787565b60008060006060848603121561183957600080fd5b61184284611787565b925061185060208501611787565b9150604084013590509250925092565b60006020828403121561187257600080fd5b5035919050565b6000806040838503121561188c57600080fd5b8235915061189c60208401611787565b90509250929050565b600080604083850312156118b857600080fd5b6118c183611787565b915061189c60208401611787565b6020808252825182820181905260009190848201906040850190845b818110156119105783516001600160a01b0316835292840192918401916001016118eb565b50909695505050505050565b600181811c9082168061193057607f821691505b60208210810361195057634e487b7160e01b600052602260045260246000fd5b50919050565b634e487b7160e01b600052601160045260246000fd5b808201808211156104bd576104bd611956565b818103818111156104bd576104bd611956565b634e487b7160e01b600052604160045260246000fd5b634e487b7160e01b600052603260045260246000fd5b6000602082840312156119d057600080fd5b815160ff811681146106b957600080fd5b60ff82811682821603908111156104bd576104bd611956565b600181815b80851115611a35578160001904821115611a1b57611a1b611956565b80851615611a2857918102915b93841c93908002906119ff565b509250929050565b600082611a4c575060016104bd565b81611a59575060006104bd565b8160018114611a6f5760028114611a7957611a95565b60019150506104bd565b60ff841115611a8a57611a8a611956565b50506001821b6104bd565b5060208310610133831016604e8410600b8410161715611ab8575081810a6104bd565b611ac283836119fa565b8060001904821115611ad657611ad6611956565b029392505050565b60006106b960ff841683611a3d565b80820281158282048414176104bd576104bd611956565b600082611b2157634e487b7160e01b600052601260045260246000fd5b500490565b634e487b7160e01b600052603160045260246000fdfe9f2df0fed2c77648de5860a4cc508cd0818c85b8b8a1ab4ceeef8d981c8956a6a26469706673582212206b0947b89d1cdddcd87eafbf18de9773370541b9dcf1351e5fe5bc494457a1c564736f6c63430008160033",
  "devdoc": {
    "details": "This token serves as the underlying asset for nUSD OVault",
    "errors": {
      "AccessControlBadConfirmation()": [
        {
          "details": "The caller of a function is not the expected one. NOTE: Don't confuse with {AccessControlUnauthorizedAccount}."
        }
      ],
      "AccessControlUnauthorizedAccount(address,bytes32)": [
        {
          "details": "The `account` is missing a role."
        }
      ],
      "ERC20InsufficientAllowance(address,uint256,uint256)": [
        {
          "details": "Indicates a failure with the `spender`s `allowance`. Used in transfers.",
          "params": {
            "allowance": "Amount of tokens a `spender` is allowed to operate with.",
            "needed": "Minimum amount required to perform a transfer.",
            "spender": "Address that may be allowed to operate on tokens without being their owner."
          }
        }
      ],
      "ERC20InsufficientBalance(address,uint256,uint256)": [
        {
          "details": "Indicates an error related to the current `balance` of a `sender`. Used in transfers.",
          "params": {
            "balance": "Current balance for the interacting account.",
            "needed": "Minimum amount required to perform a transfer.",
            "sender": "Address whose tokens are being transferred."
          }
        }
      ],
      "ERC20InvalidApprover(address)": [
        {
          "details": "Indicates a failure with the `approver` of a token to be approved. Used in approvals.",
          "params": {
            "approver": "Address initiating an approval operation."
          }
        }
      ],
      "ERC20InvalidReceiver(address)": [
        {
          "details": "Indicates a failure with the token `receiver`. Used in transfers.",
          "params": {
            "receiver": "Address to which tokens are being transferred."
          }
        }
      ],
      "ERC20InvalidSender(address)": [
        {
          "details": "Indicates a failure with the token `sender`. Used in transfers.",
          "params": {
            "sender": "Address whose tokens are being transferred."
          }
        }
      ],
      "ERC20InvalidSpender(address)": [
        {
          "details": "Indicates a failure with the `spender` to be approved. Used in approvals.",
          "params": {
            "spender": "Address that may be allowed to operate on tokens without being their owner."
          }
        }
      ],
      "ReentrancyGuardReentrantCall()": [
        {
          "details": "Unauthorized reentrant call."
        }
      ],
      "SafeERC20FailedOperation(address)": [
        {
          "details": "An operation with an ERC-20 token failed."
        }
      ]
    },
    "events": {
      "Approval(address,address,uint256)": {
        "details": "Emitted when the allowance of a `spender` for an `owner` is set by a call to {approve}. `value` is the new allowance."
      },
      "RoleAdminChanged(bytes32,bytes32,bytes32)": {
        "details": "Emitted when `newAdminRole` is set as ``role``'s admin role, replacing `previousAdminRole` `DEFAULT_ADMIN_ROLE` is the starting admin for all roles, despite {RoleAdminChanged} not being emitted to signal this."
      },
      "RoleGranted(bytes32,address,address)": {
        "details": "Emitted when `account` is granted `role`. `sender` is the account that originated the contract call. This account bears the admin role (for the granted role). Expected in cases where the role was granted using the internal {AccessControl-_grantRole}."
      },
      "RoleRevoked(bytes32,address,address)": {
        "details": "Emitted when `account` is revoked `role`. `sender` is the account that originated the contract call:   - if using `revokeRole`, it is the admin role bearer   - if using `renounceRole`, it is the role bearer (i.e. `account`)"
      },
      "Transfer(address,address,uint256)": {
        "details": "Emitted when `value` tokens are moved from one account (`from`) to another (`to`). Note that `value` may be zero."
      }
    },
    "kind": "dev",
    "methods": {
      "addSupportedAsset(address)": {
        "params": {
          "asset": "The asset address to add"
        }
      },
      "allowance(address,address)": {
        "details": "Returns the remaining number of tokens that `spender` will be allowed to spend on behalf of `owner` through {transferFrom}. This is zero by default. This value changes when {approve} or {transferFrom} are called."
      },
      "approve(address,uint256)": {
        "details": "See {IERC20-approve}. NOTE: If `value` is the maximum `uint256`, the allowance is not updated on `transferFrom`. This is semantically equivalent to an infinite approval. Requirements: - `spender` cannot be the zero address."
      },
      "balanceOf(address)": {
        "details": "Returns the value of tokens owned by `account`."
      },
      "burn(uint256)": {
        "details": "Destroys a `value` amount of tokens from the caller. See {ERC20-_burn}."
      },
      "burnFrom(address,uint256)": {
        "details": "Destroys a `value` amount of tokens from `account`, deducting from the caller's allowance. See {ERC20-_burn} and {ERC20-allowance}. Requirements: - the caller must have allowance for ``accounts``'s tokens of at least `value`."
      },
      "decimals()": {
        "details": "Returns the number of decimals used to get its user representation. For example, if `decimals` equals `2`, a balance of `505` tokens should be displayed to a user as `5.05` (`505 / 10 ** 2`). Tokens usually opt for a value of 18, imitating the relationship between Ether and Wei. This is the default value returned by this function, unless it's overridden. NOTE: This information is only used for _display_ purposes: it in no way affects any of the arithmetic of the contract, including {IERC20-balanceOf} and {IERC20-transfer}."
      },
      "depositCollateral(address,uint256)": {
        "params": {
          "amount": "The amount to deposit",
          "asset": "The asset to deposit"
        }
      },
      "getRoleAdmin(bytes32)": {
        "details": "Returns the admin role that controls `role`. See {grantRole} and {revokeRole}. To change a role's admin, use {_setRoleAdmin}."
      },
      "getSupportedAssets()": {
        "returns": {
          "_0": "address[] Array of supported asset addresses"
        }
      },
      "grantRole(bytes32,address)": {
        "details": "Grants `role` to `account`. If `account` had not been already granted `role`, emits a {RoleGranted} event. Requirements: - the caller must have ``role``'s admin role. May emit a {RoleGranted} event."
      },
      "hasRole(bytes32,address)": {
        "details": "Returns `true` if `account` has been granted `role`."
      },
      "isSupportedAsset(address)": {
        "params": {
          "asset": "The asset address to check"
        },
        "returns": {
          "_0": "bool True if asset is supported"
        }
      },
      "mint(address,uint256,address)": {
        "params": {
          "beneficiary": "The address to receive minted MCT",
          "collateralAmount": "The amount of collateral to deposit",
          "collateralAsset": "The asset to deposit as collateral"
        },
        "returns": {
          "mctAmount": "The amount of MCT minted"
        }
      },
      "mintWithoutCollateral(address,uint256)": {
        "params": {
          "beneficiary": "The address to receive minted MCT",
          "mctAmount": "The amount of MCT to mint"
        }
      },
      "name()": {
        "details": "Returns the name of the token."
      },
      "redeem(address,uint256,address)": {
        "params": {
          "beneficiary": "The address to receive collateral",
          "collateralAsset": "The asset to receive",
          "mctAmount": "The amount of MCT to burn"
        },
        "returns": {
          "collateralAmount": "The amount of collateral returned"
        }
      },
      "removeSupportedAsset(address)": {
        "params": {
          "asset": "The asset address to remove"
        }
      },
      "renounceRole(bytes32,address)": {
        "details": "Revokes `role` from the calling account. Roles are often managed via {grantRole} and {revokeRole}: this function's purpose is to provide a mechanism for accounts to lose their privileges if they are compromised (such as when a trusted device is misplaced). If the calling account had been revoked `role`, emits a {RoleRevoked} event. Requirements: - the caller must be `callerConfirmation`. May emit a {RoleRevoked} event."
      },
      "revokeRole(bytes32,address)": {
        "details": "Revokes `role` from `account`. If `account` had been granted `role`, emits a {RoleRevoked} event. Requirements: - the caller must have ``role``'s admin role. May emit a {RoleRevoked} event."
      },
      "supportsInterface(bytes4)": {
        "details": "Returns true if this contract implements the interface defined by `interfaceId`. See the corresponding https://eips.ethereum.org/EIPS/eip-165#how-interfaces-are-identified[ERC section] to learn more about how these ids are created. This function call must use less than 30 000 gas."
      },
      "symbol()": {
        "details": "Returns the symbol of the token, usually a shorter version of the name."
      },
      "totalSupply()": {
        "details": "Returns the value of tokens in existence."
      },
      "transfer(address,uint256)": {
        "details": "See {IERC20-transfer}. Requirements: - `to` cannot be the zero address. - the caller must have a balance of at least `value`."
      },
      "transferFrom(address,address,uint256)": {
        "details": "See {IERC20-transferFrom}. Skips emitting an {Approval} event indicating an allowance update. This is not required by the ERC. See {xref-ERC20-_approve-address-address-uint256-bool-}[_approve]. NOTE: Does not update the allowance if the current allowance is the maximum `uint256`. Requirements: - `from` and `to` cannot be the zero address. - `from` must have a balance of at least `value`. - the caller must have allowance for ``from``'s tokens of at least `value`."
      },
      "withdrawCollateral(address,uint256,address)": {
        "params": {
          "amount": "The amount to withdraw",
          "asset": "The asset to withdraw",
          "to": "The address to send the collateral to"
        }
      }
    },
    "title": "MultiCollateralToken (MCT)",
    "version": 1
  },
  "userdoc": {
    "kind": "user",
    "methods": {
      "COLLATERAL_MANAGER_ROLE()": {
        "notice": "Role for managing collateral"
      },
      "MINTER_ROLE()": {
        "notice": "Role for minting MCT"
      },
      "addSupportedAsset(address)": {
        "notice": "Add a new supported asset"
      },
      "collateralBalance(address)": {
        "notice": "Total collateral value tracked per asset"
      },
      "depositCollateral(address,uint256)": {
        "notice": "Deposit collateral back from team management"
      },
      "getSupportedAssets()": {
        "notice": "Get all supported assets"
      },
      "isSupportedAsset(address)": {
        "notice": "Check if an asset is supported"
      },
      "mint(address,uint256,address)": {
        "notice": "Mint MCT by depositing collateral"
      },
      "mintWithoutCollateral(address,uint256)": {
        "notice": "Mint MCT without depositing collateral (admin-controlled)"
      },
      "redeem(address,uint256,address)": {
        "notice": "Redeem MCT for collateral"
      },
      "removeSupportedAsset(address)": {
        "notice": "Remove a supported asset"
      },
      "withdrawCollateral(address,uint256,address)": {
        "notice": "Withdraw collateral for team management"
      }
    },
    "notice": "Multi-collateral token that can accept various assets and mint MCT tokens",
    "version": 1
  },
  "storageLayout": {
    "storage": [
      {
        "astId": 6078,
        "contract": "contracts/mct/MultiCollateralToken.sol:MultiCollateralToken",
        "label": "_balances",
        "offset": 0,
        "slot": "0",
        "type": "t_mapping(t_address,t_uint256)"
      },
      {
        "astId": 6084,
        "contract": "contracts/mct/MultiCollateralToken.sol:MultiCollateralToken",
        "label": "_allowances",
        "offset": 0,
        "slot": "1",
        "type": "t_mapping(t_address,t_mapping(t_address,t_uint256))"
      },
      {
        "astId": 6086,
        "contract": "contracts/mct/MultiCollateralToken.sol:MultiCollateralToken",
        "label": "_totalSupply",
        "offset": 0,
        "slot": "2",
        "type": "t_uint256"
      },
      {
        "astId": 6088,
        "contract": "contracts/mct/MultiCollateralToken.sol:MultiCollateralToken",
        "label": "_name",
        "offset": 0,
        "slot": "3",
        "type": "t_string_storage"
      },
      {
        "astId": 6090,
        "contract": "contracts/mct/MultiCollateralToken.sol:MultiCollateralToken",
        "label": "_symbol",
        "offset": 0,
        "slot": "4",
        "type": "t_string_storage"
      },
      {
        "astId": 5047,
        "contract": "contracts/mct/MultiCollateralToken.sol:MultiCollateralToken",
        "label": "_roles",
        "offset": 0,
        "slot": "5",
        "type": "t_mapping(t_bytes32,t_struct(RoleData)5042_storage)"
      },
      {
        "astId": 9347,
        "contract": "contracts/mct/MultiCollateralToken.sol:MultiCollateralToken",
        "label": "_status",
        "offset": 0,
        "slot": "6",
        "type": "t_uint256"
      },
      {
        "astId": 17521,
        "contract": "contracts/mct/MultiCollateralToken.sol:MultiCollateralToken",
        "label": "_supportedAssets",
        "offset": 0,
        "slot": "7",
        "type": "t_struct(AddressSet)16006_storage"
      },
      {
        "astId": 17526,
        "contract": "contracts/mct/MultiCollateralToken.sol:MultiCollateralToken",
        "label": "collateralBalance",
        "offset": 0,
        "slot": "9",
        "type": "t_mapping(t_address,t_uint256)"
      }
    ],
    "types": {
      "t_address": {
        "encoding": "inplace",
        "label": "address",
        "numberOfBytes": "20"
      },
      "t_array(t_bytes32)dyn_storage": {
        "base": "t_bytes32",
        "encoding": "dynamic_array",
        "label": "bytes32[]",
        "numberOfBytes": "32"
      },
      "t_bool": {
        "encoding": "inplace",
        "label": "bool",
        "numberOfBytes": "1"
      },
      "t_bytes32": {
        "encoding": "inplace",
        "label": "bytes32",
        "numberOfBytes": "32"
      },
      "t_mapping(t_address,t_bool)": {
        "encoding": "mapping",
        "key": "t_address",
        "label": "mapping(address => bool)",
        "numberOfBytes": "32",
        "value": "t_bool"
      },
      "t_mapping(t_address,t_mapping(t_address,t_uint256))": {
        "encoding": "mapping",
        "key": "t_address",
        "label": "mapping(address => mapping(address => uint256))",
        "numberOfBytes": "32",
        "value": "t_mapping(t_address,t_uint256)"
      },
      "t_mapping(t_address,t_uint256)": {
        "encoding": "mapping",
        "key": "t_address",
        "label": "mapping(address => uint256)",
        "numberOfBytes": "32",
        "value": "t_uint256"
      },
      "t_mapping(t_bytes32,t_struct(RoleData)5042_storage)": {
        "encoding": "mapping",
        "key": "t_bytes32",
        "label": "mapping(bytes32 => struct AccessControl.RoleData)",
        "numberOfBytes": "32",
        "value": "t_struct(RoleData)5042_storage"
      },
      "t_mapping(t_bytes32,t_uint256)": {
        "encoding": "mapping",
        "key": "t_bytes32",
        "label": "mapping(bytes32 => uint256)",
        "numberOfBytes": "32",
        "value": "t_uint256"
      },
      "t_string_storage": {
        "encoding": "bytes",
        "label": "string",
        "numberOfBytes": "32"
      },
      "t_struct(AddressSet)16006_storage": {
        "encoding": "inplace",
        "label": "struct EnumerableSet.AddressSet",
        "members": [
          {
            "astId": 16005,
            "contract": "contracts/mct/MultiCollateralToken.sol:MultiCollateralToken",
            "label": "_inner",
            "offset": 0,
            "slot": "0",
            "type": "t_struct(Set)15520_storage"
          }
        ],
        "numberOfBytes": "64"
      },
      "t_struct(RoleData)5042_storage": {
        "encoding": "inplace",
        "label": "struct AccessControl.RoleData",
        "members": [
          {
            "astId": 5039,
            "contract": "contracts/mct/MultiCollateralToken.sol:MultiCollateralToken",
            "label": "hasRole",
            "offset": 0,
            "slot": "0",
            "type": "t_mapping(t_address,t_bool)"
          },
          {
            "astId": 5041,
            "contract": "contracts/mct/MultiCollateralToken.sol:MultiCollateralToken",
            "label": "adminRole",
            "offset": 0,
            "slot": "1",
            "type": "t_bytes32"
          }
        ],
        "numberOfBytes": "64"
      },
      "t_struct(Set)15520_storage": {
        "encoding": "inplace",
        "label": "struct EnumerableSet.Set",
        "members": [
          {
            "astId": 15515,
            "contract": "contracts/mct/MultiCollateralToken.sol:MultiCollateralToken",
            "label": "_values",
            "offset": 0,
            "slot": "0",
            "type": "t_array(t_bytes32)dyn_storage"
          },
          {
            "astId": 15519,
            "contract": "contracts/mct/MultiCollateralToken.sol:MultiCollateralToken",
            "label": "_positions",
            "offset": 0,
            "slot": "1",
            "type": "t_mapping(t_bytes32,t_uint256)"
          }
        ],
        "numberOfBytes": "64"
      },
      "t_uint256": {
        "encoding": "inplace",
        "label": "uint256",
        "numberOfBytes": "32"
      }
    }
  }
}