{
  "address": "0xcb733277F7671eb6b9dcf669E47848AFad6278a6",
  "abi": [
    {
      "inputs": [
        {
          "internalType": "address",
          "name": "_vault",
          "type": "address"
        },
        {
          "internalType": "address",
          "name": "_assetOFT",
          "type": "address"
        },
        {
          "internalType": "address",
          "name": "_shareOFT",
          "type": "address"
        },
        {
          "internalType": "address",
          "name": "_collateralAsset",
          "type": "address"
        },
        {
          "internalType": "address",
          "name": "_collateralAssetOFT",
          "type": "address"
        }
      ],
      "stateMutability": "nonpayable",
      "type": "constructor"
    },
    {
      "inputs": [
        {
          "internalType": "address",
          "name": "assetERC20",
          "type": "address"
        },
        {
          "internalType": "address",
          "name": "vaultAsset",
          "type": "address"
        }
      ],
      "name": "AssetTokenNotVaultAsset",
      "type": "error"
    },
    {
      "inputs": [
        {
          "internalType": "address",
          "name": "receiver",
          "type": "address"
        },
        {
          "internalType": "uint256",
          "name": "assets",
          "type": "uint256"
        },
        {
          "internalType": "uint256",
          "name": "max",
          "type": "uint256"
        }
      ],
      "name": "ERC4626ExceededMaxDeposit",
      "type": "error"
    },
    {
      "inputs": [
        {
          "internalType": "address",
          "name": "owner",
          "type": "address"
        },
        {
          "internalType": "uint256",
          "name": "shares",
          "type": "uint256"
        },
        {
          "internalType": "uint256",
          "name": "max",
          "type": "uint256"
        }
      ],
      "name": "ERC4626ExceededMaxRedeem",
      "type": "error"
    },
    {
      "inputs": [
        {
          "internalType": "uint256",
          "name": "expectedMsgValue",
          "type": "uint256"
        },
        {
          "internalType": "uint256",
          "name": "actualMsgValue",
          "type": "uint256"
        }
      ],
      "name": "InsufficientMsgValue",
      "type": "error"
    },
    {
      "inputs": [],
      "name": "NoMsgValueExpected",
      "type": "error"
    },
    {
      "inputs": [
        {
          "internalType": "address",
          "name": "caller",
          "type": "address"
        }
      ],
      "name": "OnlyEndpoint",
      "type": "error"
    },
    {
      "inputs": [
        {
          "internalType": "address",
          "name": "caller",
          "type": "address"
        }
      ],
      "name": "OnlySelf",
      "type": "error"
    },
    {
      "inputs": [
        {
          "internalType": "address",
          "name": "caller",
          "type": "address"
        }
      ],
      "name": "OnlyValidComposeCaller",
      "type": "error"
    },
    {
      "inputs": [],
      "name": "ReentrancyGuardReentrantCall",
      "type": "error"
    },
    {
      "inputs": [
        {
          "internalType": "address",
          "name": "token",
          "type": "address"
        }
      ],
      "name": "SafeERC20FailedOperation",
      "type": "error"
    },
    {
      "inputs": [
        {
          "internalType": "address",
          "name": "shareOFT",
          "type": "address"
        }
      ],
      "name": "ShareOFTNotAdapter",
      "type": "error"
    },
    {
      "inputs": [
        {
          "internalType": "address",
          "name": "shareERC20",
          "type": "address"
        },
        {
          "internalType": "address",
          "name": "vault",
          "type": "address"
        }
      ],
      "name": "ShareTokenNotVault",
      "type": "error"
    },
    {
      "inputs": [
        {
          "internalType": "uint256",
          "name": "amountLD",
          "type": "uint256"
        },
        {
          "internalType": "uint256",
          "name": "minAmountLD",
          "type": "uint256"
        }
      ],
      "name": "SlippageExceeded",
      "type": "error"
    },
    {
      "inputs": [
        {
          "internalType": "address",
          "name": "sender",
          "type": "address"
        }
      ],
      "name": "UnauthorizedSender",
      "type": "error"
    },
    {
      "anonymous": false,
      "inputs": [
        {
          "indexed": false,
          "internalType": "uint256",
          "name": "shareAmount",
          "type": "uint256"
        }
      ],
      "name": "DebugDepositCollateralAndSendComplete",
      "type": "event"
    },
    {
      "anonymous": false,
      "inputs": [
        {
          "indexed": false,
          "internalType": "uint256",
          "name": "assetAmount",
          "type": "uint256"
        }
      ],
      "name": "DebugDepositCollateralAndSendStart",
      "type": "event"
    },
    {
      "anonymous": false,
      "inputs": [
        {
          "indexed": false,
          "internalType": "bytes",
          "name": "errorData",
          "type": "bytes"
        }
      ],
      "name": "DebugError",
      "type": "event"
    },
    {
      "anonymous": false,
      "inputs": [],
      "name": "DebugHandleComposeComplete",
      "type": "event"
    },
    {
      "anonymous": false,
      "inputs": [
        {
          "indexed": false,
          "internalType": "address",
          "name": "oftIn",
          "type": "address"
        },
        {
          "indexed": false,
          "internalType": "bytes32",
          "name": "composeFrom",
          "type": "bytes32"
        },
        {
          "indexed": false,
          "internalType": "uint256",
          "name": "amount",
          "type": "uint256"
        }
      ],
      "name": "DebugHandleComposeStart",
      "type": "event"
    },
    {
      "anonymous": false,
      "inputs": [],
      "name": "DebugLzComposeComplete",
      "type": "event"
    },
    {
      "anonymous": false,
      "inputs": [
        {
          "indexed": false,
          "internalType": "address",
          "name": "composeSender",
          "type": "address"
        },
        {
          "indexed": false,
          "internalType": "bytes32",
          "name": "guid",
          "type": "bytes32"
        },
        {
          "indexed": false,
          "internalType": "uint256",
          "name": "msgValue",
          "type": "uint256"
        }
      ],
      "name": "DebugLzComposeStart",
      "type": "event"
    },
    {
      "anonymous": false,
      "inputs": [
        {
          "indexed": false,
          "internalType": "bytes32",
          "name": "composeFrom",
          "type": "bytes32"
        },
        {
          "indexed": false,
          "internalType": "uint256",
          "name": "amount",
          "type": "uint256"
        },
        {
          "indexed": false,
          "internalType": "uint256",
          "name": "composeMsgLength",
          "type": "uint256"
        }
      ],
      "name": "DebugMessageDecoded",
      "type": "event"
    },
    {
      "anonymous": false,
      "inputs": [
        {
          "indexed": false,
          "internalType": "uint256",
          "name": "minMsgValue",
          "type": "uint256"
        },
        {
          "indexed": false,
          "internalType": "uint256",
          "name": "actualMsgValue",
          "type": "uint256"
        }
      ],
      "name": "DebugMsgValueCheck",
      "type": "event"
    },
    {
      "anonymous": false,
      "inputs": [],
      "name": "DebugProcessingAssetOFT",
      "type": "event"
    },
    {
      "anonymous": false,
      "inputs": [],
      "name": "DebugProcessingCollateralAsset",
      "type": "event"
    },
    {
      "anonymous": false,
      "inputs": [],
      "name": "DebugProcessingShareOFT",
      "type": "event"
    },
    {
      "anonymous": false,
      "inputs": [
        {
          "indexed": false,
          "internalType": "address",
          "name": "oft",
          "type": "address"
        },
        {
          "indexed": false,
          "internalType": "uint32",
          "name": "dstEid",
          "type": "uint32"
        },
        {
          "indexed": false,
          "internalType": "bytes32",
          "name": "to",
          "type": "bytes32"
        },
        {
          "indexed": false,
          "internalType": "uint256",
          "name": "amount",
          "type": "uint256"
        },
        {
          "indexed": false,
          "internalType": "address",
          "name": "refundAddress",
          "type": "address"
        }
      ],
      "name": "DebugRefund",
      "type": "event"
    },
    {
      "anonymous": false,
      "inputs": [
        {
          "indexed": false,
          "internalType": "uint32",
          "name": "dstEid",
          "type": "uint32"
        },
        {
          "indexed": false,
          "internalType": "bytes32",
          "name": "to",
          "type": "bytes32"
        },
        {
          "indexed": false,
          "internalType": "uint256",
          "name": "amountLD",
          "type": "uint256"
        },
        {
          "indexed": false,
          "internalType": "uint256",
          "name": "minAmountLD",
          "type": "uint256"
        }
      ],
      "name": "DebugSendParamDecoded",
      "type": "event"
    },
    {
      "anonymous": false,
      "inputs": [
        {
          "indexed": false,
          "internalType": "uint256",
          "name": "amountLD",
          "type": "uint256"
        },
        {
          "indexed": false,
          "internalType": "uint256",
          "name": "minAmountLD",
          "type": "uint256"
        }
      ],
      "name": "DebugSlippage",
      "type": "event"
    },
    {
      "anonymous": false,
      "inputs": [],
      "name": "DebugValidationPassed",
      "type": "event"
    },
    {
      "anonymous": false,
      "inputs": [
        {
          "indexed": false,
          "internalType": "bytes32",
          "name": "sender",
          "type": "bytes32"
        },
        {
          "indexed": false,
          "internalType": "bytes32",
          "name": "recipient",
          "type": "bytes32"
        },
        {
          "indexed": false,
          "internalType": "uint32",
          "name": "dstEid",
          "type": "uint32"
        },
        {
          "indexed": false,
          "internalType": "uint256",
          "name": "assetAmt",
          "type": "uint256"
        },
        {
          "indexed": false,
          "internalType": "uint256",
          "name": "shareAmt",
          "type": "uint256"
        }
      ],
      "name": "Deposited",
      "type": "event"
    },
    {
      "anonymous": false,
      "inputs": [
        {
          "indexed": false,
          "internalType": "address",
          "name": "share",
          "type": "address"
        },
        {
          "indexed": false,
          "internalType": "address",
          "name": "recipient",
          "type": "address"
        },
        {
          "indexed": false,
          "internalType": "uint32",
          "name": "dstEid",
          "type": "uint32"
        },
        {
          "indexed": false,
          "internalType": "bytes32",
          "name": "to",
          "type": "bytes32"
        },
        {
          "indexed": false,
          "internalType": "uint256",
          "name": "amountLD",
          "type": "uint256"
        },
        {
          "indexed": false,
          "internalType": "uint256",
          "name": "minAmountLD",
          "type": "uint256"
        },
        {
          "indexed": false,
          "internalType": "bytes",
          "name": "extraOptions",
          "type": "bytes"
        },
        {
          "indexed": false,
          "internalType": "bytes",
          "name": "composeMsg",
          "type": "bytes"
        },
        {
          "indexed": false,
          "internalType": "bytes",
          "name": "oftCmd",
          "type": "bytes"
        }
      ],
      "name": "DepositednUSD",
      "type": "event"
    },
    {
      "anonymous": false,
      "inputs": [
        {
          "indexed": false,
          "internalType": "bytes32",
          "name": "sender",
          "type": "bytes32"
        },
        {
          "indexed": false,
          "internalType": "bytes32",
          "name": "recipient",
          "type": "bytes32"
        },
        {
          "indexed": false,
          "internalType": "uint32",
          "name": "dstEid",
          "type": "uint32"
        },
        {
          "indexed": false,
          "internalType": "uint256",
          "name": "shareAmt",
          "type": "uint256"
        },
        {
          "indexed": false,
          "internalType": "uint256",
          "name": "assetAmt",
          "type": "uint256"
        }
      ],
      "name": "Redeemed",
      "type": "event"
    },
    {
      "anonymous": false,
      "inputs": [
        {
          "indexed": true,
          "internalType": "bytes32",
          "name": "guid",
          "type": "bytes32"
        }
      ],
      "name": "Refunded",
      "type": "event"
    },
    {
      "anonymous": false,
      "inputs": [
        {
          "indexed": true,
          "internalType": "bytes32",
          "name": "guid",
          "type": "bytes32"
        }
      ],
      "name": "Sent",
      "type": "event"
    },
    {
      "inputs": [],
      "name": "ASSET_ERC20",
      "outputs": [
        {
          "internalType": "address",
          "name": "",
          "type": "address"
        }
      ],
      "stateMutability": "view",
      "type": "function"
    },
    {
      "inputs": [],
      "name": "ASSET_OFT",
      "outputs": [
        {
          "internalType": "address",
          "name": "",
          "type": "address"
        }
      ],
      "stateMutability": "view",
      "type": "function"
    },
    {
      "inputs": [],
      "name": "ENDPOINT",
      "outputs": [
        {
          "internalType": "address",
          "name": "",
          "type": "address"
        }
      ],
      "stateMutability": "view",
      "type": "function"
    },
    {
      "inputs": [],
      "name": "SHARE_ERC20",
      "outputs": [
        {
          "internalType": "address",
          "name": "",
          "type": "address"
        }
      ],
      "stateMutability": "view",
      "type": "function"
    },
    {
      "inputs": [],
      "name": "SHARE_OFT",
      "outputs": [
        {
          "internalType": "address",
          "name": "",
          "type": "address"
        }
      ],
      "stateMutability": "view",
      "type": "function"
    },
    {
      "inputs": [],
      "name": "VAULT",
      "outputs": [
        {
          "internalType": "contract IERC4626",
          "name": "",
          "type": "address"
        }
      ],
      "stateMutability": "view",
      "type": "function"
    },
    {
      "inputs": [],
      "name": "VAULT_EID",
      "outputs": [
        {
          "internalType": "uint32",
          "name": "",
          "type": "uint32"
        }
      ],
      "stateMutability": "view",
      "type": "function"
    },
    {
      "inputs": [
        {
          "internalType": "address",
          "name": "_oftIn",
          "type": "address"
        },
        {
          "internalType": "bytes32",
          "name": "_composeFrom",
          "type": "bytes32"
        },
        {
          "internalType": "bytes",
          "name": "_composeMsg",
          "type": "bytes"
        },
        {
          "internalType": "uint256",
          "name": "_amount",
          "type": "uint256"
        }
      ],
      "name": "_handleComposeInternal",
      "outputs": [],
      "stateMutability": "payable",
      "type": "function"
    },
    {
      "inputs": [],
      "name": "collateralAsset",
      "outputs": [
        {
          "internalType": "address",
          "name": "",
          "type": "address"
        }
      ],
      "stateMutability": "view",
      "type": "function"
    },
    {
      "inputs": [],
      "name": "collateralAssetOFT",
      "outputs": [
        {
          "internalType": "address",
          "name": "",
          "type": "address"
        }
      ],
      "stateMutability": "view",
      "type": "function"
    },
    {
      "inputs": [
        {
          "internalType": "uint256",
          "name": "_assetAmount",
          "type": "uint256"
        },
        {
          "components": [
            {
              "internalType": "uint32",
              "name": "dstEid",
              "type": "uint32"
            },
            {
              "internalType": "bytes32",
              "name": "to",
              "type": "bytes32"
            },
            {
              "internalType": "uint256",
              "name": "amountLD",
              "type": "uint256"
            },
            {
              "internalType": "uint256",
              "name": "minAmountLD",
              "type": "uint256"
            },
            {
              "internalType": "bytes",
              "name": "extraOptions",
              "type": "bytes"
            },
            {
              "internalType": "bytes",
              "name": "composeMsg",
              "type": "bytes"
            },
            {
              "internalType": "bytes",
              "name": "oftCmd",
              "type": "bytes"
            }
          ],
          "internalType": "struct SendParam",
          "name": "_sendParam",
          "type": "tuple"
        },
        {
          "internalType": "address",
          "name": "_refundAddress",
          "type": "address"
        }
      ],
      "name": "depositAndSend",
      "outputs": [],
      "stateMutability": "payable",
      "type": "function"
    },
    {
      "inputs": [
        {
          "internalType": "address",
          "name": "_oftIn",
          "type": "address"
        },
        {
          "internalType": "bytes32",
          "name": "_composeFrom",
          "type": "bytes32"
        },
        {
          "internalType": "bytes",
          "name": "_composeMsg",
          "type": "bytes"
        },
        {
          "internalType": "uint256",
          "name": "_amount",
          "type": "uint256"
        }
      ],
      "name": "handleCompose",
      "outputs": [],
      "stateMutability": "payable",
      "type": "function"
    },
    {
      "inputs": [
        {
          "internalType": "address",
          "name": "_composeSender",
          "type": "address"
        },
        {
          "internalType": "bytes32",
          "name": "_guid",
          "type": "bytes32"
        },
        {
          "internalType": "bytes",
          "name": "_message",
          "type": "bytes"
        },
        {
          "internalType": "address",
          "name": "",
          "type": "address"
        },
        {
          "internalType": "bytes",
          "name": "",
          "type": "bytes"
        }
      ],
      "name": "lzCompose",
      "outputs": [],
      "stateMutability": "payable",
      "type": "function"
    },
    {
      "inputs": [
        {
          "internalType": "address",
          "name": "_from",
          "type": "address"
        },
        {
          "internalType": "address",
          "name": "_targetOFT",
          "type": "address"
        },
        {
          "internalType": "uint256",
          "name": "_vaultInAmount",
          "type": "uint256"
        },
        {
          "components": [
            {
              "internalType": "uint32",
              "name": "dstEid",
              "type": "uint32"
            },
            {
              "internalType": "bytes32",
              "name": "to",
              "type": "bytes32"
            },
            {
              "internalType": "uint256",
              "name": "amountLD",
              "type": "uint256"
            },
            {
              "internalType": "uint256",
              "name": "minAmountLD",
              "type": "uint256"
            },
            {
              "internalType": "bytes",
              "name": "extraOptions",
              "type": "bytes"
            },
            {
              "internalType": "bytes",
              "name": "composeMsg",
              "type": "bytes"
            },
            {
              "internalType": "bytes",
              "name": "oftCmd",
              "type": "bytes"
            }
          ],
          "internalType": "struct SendParam",
          "name": "_sendParam",
          "type": "tuple"
        }
      ],
      "name": "quoteSend",
      "outputs": [
        {
          "components": [
            {
              "internalType": "uint256",
              "name": "nativeFee",
              "type": "uint256"
            },
            {
              "internalType": "uint256",
              "name": "lzTokenFee",
              "type": "uint256"
            }
          ],
          "internalType": "struct MessagingFee",
          "name": "",
          "type": "tuple"
        }
      ],
      "stateMutability": "view",
      "type": "function"
    },
    {
      "inputs": [
        {
          "internalType": "uint256",
          "name": "_shareAmount",
          "type": "uint256"
        },
        {
          "components": [
            {
              "internalType": "uint32",
              "name": "dstEid",
              "type": "uint32"
            },
            {
              "internalType": "bytes32",
              "name": "to",
              "type": "bytes32"
            },
            {
              "internalType": "uint256",
              "name": "amountLD",
              "type": "uint256"
            },
            {
              "internalType": "uint256",
              "name": "minAmountLD",
              "type": "uint256"
            },
            {
              "internalType": "bytes",
              "name": "extraOptions",
              "type": "bytes"
            },
            {
              "internalType": "bytes",
              "name": "composeMsg",
              "type": "bytes"
            },
            {
              "internalType": "bytes",
              "name": "oftCmd",
              "type": "bytes"
            }
          ],
          "internalType": "struct SendParam",
          "name": "_sendParam",
          "type": "tuple"
        },
        {
          "internalType": "address",
          "name": "_refundAddress",
          "type": "address"
        }
      ],
      "name": "redeemAndSend",
      "outputs": [],
      "stateMutability": "payable",
      "type": "function"
    },
    {
      "stateMutability": "payable",
      "type": "receive"
    }
  ],
  "transactionHash": "0x4edd8528d00a488d44e3e3e666132b58d66b5062811eec286e8ffe534f65cf3c",
  "args": [
    "0xA36D633DE8dcE8f3A3d2E4c59e2950E41384d675",
    "0xEd4692767aD0166B7e41D92e19FB06629eb3F400",
    "0xe1471ABDeadcb511B83A795762d54F6BeA33D841",
    "0x3253a335E7bFfB4790Aa4C25C4250d206E9b9773",
    "0x543BdA7c6cA4384FE90B1F5929bb851F52888983"
  ],
  "numDeployments": 1,
  "solcInputHash": "d5276097bcd5c72413cfaf58a06fc2f4",
  "bytecode": "0x6101a06040523480156200001257600080fd5b5060405162002e1e38038062002e1e8339810160408190526200003591620006b9565b60016000556001600160a01b03808616608052841660a081905260408051637e062a3560e11b8152905187928792879263fc0c546a916004808201926020929091908290030181865afa15801562000091573d6000803e3d6000fd5b505050506040513d601f19601f82011682018060405250810190620000b7919062000739565b6001600160a01b0390811660c052811660e081905260408051637e062a3560e11b8152905163fc0c546a916004808201926020929091908290030181865afa15801562000108573d6000803e3d6000fd5b505050506040513d601f19601f820116820180604052508101906200012e919062000739565b6001600160a01b0316610100816001600160a01b03168152505060a0516001600160a01b0316635e280f116040518163ffffffff1660e01b8152600401602060405180830381865afa15801562000189573d6000803e3d6000fd5b505050506040513d601f19601f82011682018060405250810190620001af919062000739565b6001600160a01b03166101208190526040805163416ecebf60e01b8152905163416ecebf916004808201926020929091908290030181865afa158015620001fa573d6000803e3d6000fd5b505050506040513d601f19601f8201168201806040525081019062000220919062000760565b63ffffffff1661014052608051610100516001600160a01b039081169116146200027c576101005160805160405163070bc55b60e11b81526001600160a01b039283166004820152911660248201526044015b60405180910390fd5b6080516001600160a01b03166338d52e0f6040518163ffffffff1660e01b8152600401602060405180830381865afa158015620002bd573d6000803e3d6000fd5b505050506040513d601f19601f82011682018060405250810190620002e3919062000739565b6001600160a01b031660c0516001600160a01b031614620003955760c0516080516001600160a01b03166338d52e0f6040518163ffffffff1660e01b8152600401602060405180830381865afa15801562000342573d6000803e3d6000fd5b505050506040513d601f19601f8201168201806040525081019062000368919062000739565b60405163ba9d665f60e01b81526001600160a01b0392831660048201529116602482015260440162000273565b60e0516001600160a01b0316639f68b9646040518163ffffffff1660e01b8152600401602060405180830381865afa158015620003d6573d6000803e3d6000fd5b505050506040513d601f19601f82011682018060405250810190620003fc919062000788565b6200042a5760e051604051637e0a8a5760e11b81526001600160a01b03909116600482015260240162000273565b60c05160405163095ea7b360e01b81526001600160a01b03858116600483015260001960248301529091169063095ea7b3906044016020604051808303816000875af11580156200047f573d6000803e3d6000fd5b505050506040513d601f19601f82011682018060405250810190620004a5919062000788565b506101005160405163095ea7b360e01b81526001600160a01b03838116600483015260001960248301529091169063095ea7b3906044016020604051808303816000875af1158015620004fc573d6000803e3d6000fd5b505050506040513d601f19601f8201168201806040525081019062000522919062000788565b50816001600160a01b0316639f68b9646040518163ffffffff1660e01b8152600401602060405180830381865afa15801562000562573d6000803e3d6000fd5b505050506040513d601f19601f8201168201806040525081019062000588919062000788565b156200060b5760c05160405163095ea7b360e01b81526001600160a01b03848116600483015260001960248301529091169063095ea7b3906044016020604051808303816000875af1158015620005e3573d6000803e3d6000fd5b505050506040513d601f19601f8201168201806040525081019062000609919062000788565b505b5050506001600160a01b0382811661016081905290821661018081905260405163095ea7b360e01b81526004810191909152600019602482015263095ea7b3906044016020604051808303816000875af11580156200066e573d6000803e3d6000fd5b505050506040513d601f19601f8201168201806040525081019062000694919062000788565b505050505050620007ac565b6001600160a01b0381168114620006b657600080fd5b50565b600080600080600060a08688031215620006d257600080fd5b8551620006df81620006a0565b6020870151909550620006f281620006a0565b60408701519094506200070581620006a0565b60608701519093506200071881620006a0565b60808701519092506200072b81620006a0565b809150509295509295909350565b6000602082840312156200074c57600080fd5b81516200075981620006a0565b9392505050565b6000602082840312156200077357600080fd5b815163ffffffff811681146200075957600080fd5b6000602082840312156200079b57600080fd5b815180151581146200075957600080fd5b60805160a05160c05160e051610100516101205161014051610160516101805161251a62000904600039600081816102660152818161060101528181610c69015281816114a4015261159c01526000818161035701528181610c2b015281816111d9015261123701526000818161030e01526117720152600081816102320152610b6e0152600081816102da015281816106d701526117d70152600081816101b70152818161059301528181610bed01528181610fad01528181611341015261138a015260008181610170015281816103a101526117fd01526000818161010a015281816105200152818161072101528181610acc01528181610bb001528181611065015261179e0152600081816101eb0152818161077a01528181610826015281816108c60152818161097201528181611137015281816111fb01528181611269015281816116c4015261190e015261251a6000f3fe6080604052600436106100ec5760003560e01c80636fad06f51161008a578063a99ecc5411610059578063a99ecc54146102c8578063aa72fe3f146102fc578063aabaecd614610345578063d0a102601461037957600080fd5b80636fad06f51461022057806373e03205146102545780637e6e1e10146102885780639a6b198c146102b557600080fd5b806328630c0d116100c657806328630c0d14610192578063369caf83146101a5578063411557d1146101d957806353174fa41461020d57600080fd5b80630bfec755146100f857806319197ec6146101495780631df34fa31461015e57600080fd5b366100f357005b600080fd5b34801561010457600080fd5b5061012c7f000000000000000000000000000000000000000000000000000000000000000081565b6040516001600160a01b0390911681526020015b60405180910390f35b61015c610157366004611d70565b61038c565b005b34801561016a57600080fd5b5061012c7f000000000000000000000000000000000000000000000000000000000000000081565b61015c6101a0366004611dc7565b6103e4565b3480156101b157600080fd5b5061012c7f000000000000000000000000000000000000000000000000000000000000000081565b3480156101e557600080fd5b5061012c7f000000000000000000000000000000000000000000000000000000000000000081565b61015c61021b366004611d70565b6106c2565b34801561022c57600080fd5b5061012c7f000000000000000000000000000000000000000000000000000000000000000081565b34801561026057600080fd5b5061012c7f000000000000000000000000000000000000000000000000000000000000000081565b34801561029457600080fd5b506102a86102a3366004611e26565b61070b565b6040516101409190611e8e565b61015c6102c3366004611dc7565b610a64565b3480156102d457600080fd5b5061012c7f000000000000000000000000000000000000000000000000000000000000000081565b34801561030857600080fd5b506103307f000000000000000000000000000000000000000000000000000000000000000081565b60405163ffffffff9091168152602001610140565b34801561035157600080fd5b5061012c7f000000000000000000000000000000000000000000000000000000000000000081565b61015c610387366004611eee565b610b28565b610394610ee7565b6103c96001600160a01b037f000000000000000000000000000000000000000000000000000000000000000016333086610f11565b6103d533848484610f7e565b6103df6001600055565b505050565b7f8a6129d5db4f660c605430f614ca20aa02a3d82286fc9643fd93f979cc6aae9484848360405161041793929190611f8c565b60405180910390a13330146104455760405162a19dbf60e81b81523360048201526024015b60405180910390fd5b6000808380602001905181019061045c9190612029565b8151602080840151604080860151606080880151835163ffffffff9097168752948601939093529084015282015291935091507f10c41bb4cbd471355413934aa6ec4745460c1b56b28df48d3fa5550290ef70149060800160405180910390a1604080518281523460208201527f064230cd2f3e37431c68e0f1f184b61df1f47a3b6817b71c447b1b5411ed73b6910160405180910390a18034101561051e57604051631f2dda7760e21b81526004810182905234602482015260440161043c565b7f00000000000000000000000000000000000000000000000000000000000000006001600160a01b0316866001600160a01b031603610591576040517fd570283d2d7b1ef8c5c22cae646bb37652586f178a7121a7afeef30fb28ba09390600090a161058c85848432610f7e565b610691565b7f00000000000000000000000000000000000000000000000000000000000000006001600160a01b0316866001600160a01b0316036105ff576040517fc2b615039706f1c22485461b73989004e9618e151bf29f97f31570156e52160090600090a161058c85848432611036565b7f00000000000000000000000000000000000000000000000000000000000000006001600160a01b0316866001600160a01b03160361066d576040517f250d5ff926376d582d17f2b90ba9481306e8bb655177fcf9f420101da0bf299390600090a161058c858484326110e3565b6040516384fb3f0d60e01b81526001600160a01b038716600482015260240161043c565b6040517fe5b568ef1c0a0cb5bb5e39b68696fc054a2983a607d3aa02a6c3589532c54fc190600090a1505050505050565b6106ca610ee7565b6106ff6001600160a01b037f000000000000000000000000000000000000000000000000000000000000000016333086610f11565b6103d533848484611036565b60408051808201909152600080825260208201527f00000000000000000000000000000000000000000000000000000000000000006001600160a01b0316846001600160a01b0316036108a457604051636c82bbbf60e11b81526001600160a01b0386811660048301526000917f00000000000000000000000000000000000000000000000000000000000000009091169063d905777e90602401602060405180830381865afa1580156107c3573d6000803e3d6000fd5b505050506040513d601f19601f820116820180604052508101906107e79190612117565b90508084111561081057858482604051632e52afbb60e21b815260040161043c93929190611f8c565b60405163266d6a8360e11b8152600481018590527f00000000000000000000000000000000000000000000000000000000000000006001600160a01b031690634cdad50690602401602060405180830381865afa158015610875573d6000803e3d6000fd5b505050506040513d601f19601f820116820180604052508101906108999190612117565b6040840152506109ec565b60405163402d267d60e01b81526001600160a01b0386811660048301526000917f00000000000000000000000000000000000000000000000000000000000000009091169063402d267d90602401602060405180830381865afa15801561090f573d6000803e3d6000fd5b505050506040513d601f19601f820116820180604052508101906109339190612117565b90508084111561095c57858482604051633c8097d960e11b815260040161043c93929190611f8c565b60405163ef8b30f760e01b8152600481018590527f00000000000000000000000000000000000000000000000000000000000000006001600160a01b03169063ef8b30f790602401602060405180830381865afa1580156109c1573d6000803e3d6000fd5b505050506040513d601f19601f820116820180604052508101906109e59190612117565b6040840152505b604051633b6f743b60e01b81526001600160a01b03851690633b6f743b90610a1b9085906000906004016121d2565b6040805180830381865afa158015610a37573d6000803e3d6000fd5b505050506040513d601f19601f82011682018060405250810190610a5b9190612245565b95945050505050565b333014610a855760405162a19dbf60e81b815233600482015260240161043c565b60008083806020019051810190610a9c9190612029565b9150915080341015610aca57604051631f2dda7760e21b81526004810182905234602482015260440161043c565b7f00000000000000000000000000000000000000000000000000000000000000006001600160a01b0316866001600160a01b031603610b1457610b0f85848432610f7e565b610b20565b610b2085848432611036565b505050505050565b7ffb2071dc664ded2d43e4746010851df1fc7fe2609cf64164f6fa31fba28ff07f878734604051610b5b93929190611f8c565b60405180910390a1336001600160a01b037f00000000000000000000000000000000000000000000000000000000000000001614610bae576040516391ac5e4f60e01b815233600482015260240161043c565b7f00000000000000000000000000000000000000000000000000000000000000006001600160a01b0316876001600160a01b031614158015610c2257507f00000000000000000000000000000000000000000000000000000000000000006001600160a01b0316876001600160a01b031614155b8015610c6057507f00000000000000000000000000000000000000000000000000000000000000006001600160a01b0316876001600160a01b031614155b8015610c9e57507f00000000000000000000000000000000000000000000000000000000000000006001600160a01b0316876001600160a01b031614155b15610cc7576040516384fb3f0d60e01b81526001600160a01b038816600482015260240161043c565b6040517f5bb3cd0106adebde26932a5d307adc77109f0fd46d05114a8f7b0f87d5fe29d090600090a16000610cfc8686611425565b90506000610d0a8787611447565b90506000610d188888611457565b80516040805186815260208101869052908101919091529091507f64abe07ce35ac42c697dd45e9316c4690805030b0aa5ea562b0752f81c51413d9060600160405180910390a16040516328630c0d60e01b815230906328630c0d903490610d8a908e90889087908990600401612261565b6000604051808303818588803b158015610da357600080fd5b505af193505050508015610db5575060015b610e86573d808015610de3576040519150601f19603f3d011682016040523d82523d6000602084013e610de8565b606091505b507f6a221ecf0f07c559647252e04719fe1678af1c3cb557be2baf4f85aa741be84981604051610e189190612299565b60405180910390a1631f2dda7760e21b610e31826122ac565b6001600160e01b03191603610e4857805181602001fd5b610e558b8a8a86326114a2565b6040518a907ffe509803c09416b28ff3d8f690c8b0c61462a892c46d5430c8fb20abe472daf090600090a250610edb565b60405189907f27b5aea9f5736c02241d8a0272e9ec988ea44cf85c4b4760329431aa1967839490600090a26040517f8f7cf1f89a1ea1a058b42a2a3ca216cc306e132bd000851c480510d2a4bc16d890600090a15b50505050505050505050565b600260005403610f0a57604051633ee5aeb560e01b815260040160405180910390fd5b6002600055565b6040516001600160a01b038481166024830152838116604483015260648201839052610f789186918216906323b872dd906084015b604051602081830303815290604052915060e01b6020820180516001600160e01b038381831617835250505050611634565b50505050565b6000610f8a85856116a5565b9050610f9a81846060015161173a565b6040830181905260006060840152610fd37f00000000000000000000000000000000000000000000000000000000000000008484611769565b6020838101518451604080518981529384019290925263ffffffff169082015260608101859052608081018290527fa53b96f27930f89fac6e5802f6b77fcad303dde855a10e5ef076e730d1f43afa9060a0015b60405180910390a15050505050565b600061104285856118e8565b905061105281846060015161173a565b604083018190526000606084015261108b7f00000000000000000000000000000000000000000000000000000000000000008484611769565b6020838101518451604080518981529384019290925263ffffffff169082015260608101859052608081018290527f57e232f18448926c8d7554dfd1851d4a4cd10d6b804aabcd714b1f1c067e50ee9060a001611027565b6040518381527f810ec3ee1260acc2d1b7c803e676fd8fa301e6a5d3f0eb0c067a23adc9fa9e309060200160405180910390a16040516344f37ae560e11b81526001600160a01b03808616600483015285917f0000000000000000000000000000000000000000000000000000000000000000909116906389e6f5ca90602401602060405180830381865afa158015611180573d6000803e3d6000fd5b505050506040513d601f19601f820116820180604052508101906111a491906122e3565b6111cc57604051633fcc3f1760e01b81526001600160a01b038216600482015260240161043c565b6112206001600160a01b037f0000000000000000000000000000000000000000000000000000000000000000167f000000000000000000000000000000000000000000000000000000000000000086611945565b604051634f5e612960e11b81526001600160a01b037f000000000000000000000000000000000000000000000000000000000000000081166004830152602482018690526000917f000000000000000000000000000000000000000000000000000000000000000090911690639ebcc252906044016020604051808303816000875af11580156112b4573d6000803e3d6000fd5b505050506040513d601f19601f820116820180604052508101906112d89190612117565b90507fb275772163128f27a711ed36699593b5d15983fccb1ecdd3ddba26b373bbbeb8818560600151604051611318929190918252602082015260400190565b60405180910390a161132e81856060015161173a565b60408401819052600060608501526113677f00000000000000000000000000000000000000000000000000000000000000008585611769565b7f1f6173a568434d4ee9c991f3ac610898de6015f5d0af0268c4212170c25947e97f00000000000000000000000000000000000000000000000000000000000000008486600001518760200151886040015189606001518a608001518b60a001518c60c001516040516113e29998979695949392919061230c565b60405180910390a16040518181527f52113d4fb57d8d529b1bdb6d1187d39fe0ab35ea02d45cf32109ccbf2dd8ca3a9060200160405180910390a1505050505050565b6000611435604c602c8486612393565b61143e916123bd565b90505b92915050565b6000611435602c600c8486612393565b606061146682604c8186612393565b8080601f016020809104026020016040519081016040528093929190818152602001838380828437600092019190915250929695505050505050565b7f00000000000000000000000000000000000000000000000000000000000000006001600160a01b0316856001600160a01b031603611620576114e3611b3d565b6114ed85856119d5565b63ffffffff1681526114ff8585611425565b60208281018290526040808401869052835181516001600160a01b03808c16825263ffffffff90921693810193909352908201929092526060810185905290831660808201527f508df1268574f0c395de41d2d677d8363f585193fc3c9291cfa1ec01e7096b4c9060a00160405180910390a16040805180820182523480825260006020830152915163c7c7f5b360e01b81526001600160a01b037f0000000000000000000000000000000000000000000000000000000000000000169263c7c7f5b39290916115d591869188906004016123db565b60c06040518083038185885af11580156115f3573d6000803e3d6000fd5b50505050506040513d601f19601f820116820180604052508101906116189190612420565b50505061162d565b61162d85858585856119f8565b5050505050565b600080602060008451602086016000885af180611657576040513d6000823e3d81fd5b50506000513d9150811561166f57806001141561167c565b6001600160a01b0384163b155b15610f7857604051635274afe760e01b81526001600160a01b038516600482015260240161043c565b604051636e553f6560e01b8152600481018290523060248201526000907f00000000000000000000000000000000000000000000000000000000000000006001600160a01b031690636e553f65906044015b6020604051808303816000875af1158015611716573d6000803e3d6000fd5b505050506040513d601f19601f8201168201806040525081019061143e9190612117565b80821015611765576040516371c4efed60e01b8152600481018390526024810182905260440161043c565b5050565b815163ffffffff7f000000000000000000000000000000000000000000000000000000000000000081169116036118625760007f00000000000000000000000000000000000000000000000000000000000000006001600160a01b0316846001600160a01b0316146117fb577f000000000000000000000000000000000000000000000000000000000000000061181d565b7f00000000000000000000000000000000000000000000000000000000000000005b9050341561183e57604051637578d2bd60e01b815260040160405180910390fd5b610f7861184c846020015190565b60408501516001600160a01b0384169190611abd565b6040805180820182523480825260006020830152915163c7c7f5b360e01b81526001600160a01b0386169263c7c7f5b39290916118a591879187906004016123db565b60c06040518083038185885af11580156118c3573d6000803e3d6000fd5b50505050506040513d601f19601f8201168201806040525081019061162d9190612420565b604051635d043b2960e11b815260048101829052306024820181905260448201526000907f00000000000000000000000000000000000000000000000000000000000000006001600160a01b03169063ba087652906064016116f7565b604080516001600160a01b038416602482015260448082018490528251808303909101815260649091019091526020810180516001600160e01b031663095ea7b360e01b1790526119968482611aee565b610f78576040516001600160a01b038481166024830152600060448301526119cb91869182169063095ea7b390606401610f46565b610f788482611634565b60006119e5600c60088486612393565b6119ee916124b4565b60e01c9392505050565b611a00611b3d565b611a0a85856119d5565b63ffffffff168152611a1c8585611425565b60208083019190915260408083018590528051808201825234808252600093820193909352905163c7c7f5b360e01b81526001600160a01b0389169263c7c7f5b3929091611a7091869188906004016123db565b60c06040518083038185885af1158015611a8e573d6000803e3d6000fd5b50505050506040513d601f19601f82011682018060405250810190611ab39190612420565b5050505050505050565b6040516001600160a01b038381166024830152604482018390526103df91859182169063a9059cbb90606401610f46565b6000806000806020600086516020880160008a5af192503d91506000519050828015611b3357508115611b245780600114611b33565b6000866001600160a01b03163b115b9695505050505050565b6040518060e00160405280600063ffffffff1681526020016000801916815260200160008152602001600081526020016060815260200160608152602001606081525090565b634e487b7160e01b600052604160045260246000fd5b60405160e0810167ffffffffffffffff81118282101715611bbc57611bbc611b83565b60405290565b604051601f8201601f1916810167ffffffffffffffff81118282101715611beb57611beb611b83565b604052919050565b63ffffffff81168114611c0557600080fd5b50565b8035611c1381611bf3565b919050565b600067ffffffffffffffff821115611c3257611c32611b83565b50601f01601f191660200190565b600082601f830112611c5157600080fd5b8135611c64611c5f82611c18565b611bc2565b818152846020838601011115611c7957600080fd5b816020850160208301376000918101602001919091529392505050565b600060e08284031215611ca857600080fd5b611cb0611b99565b9050611cbb82611c08565b8152602082013560208201526040820135604082015260608201356060820152608082013567ffffffffffffffff80821115611cf657600080fd5b611d0285838601611c40565b608084015260a0840135915080821115611d1b57600080fd5b611d2785838601611c40565b60a084015260c0840135915080821115611d4057600080fd5b50611d4d84828501611c40565b60c08301525092915050565b80356001600160a01b0381168114611c1357600080fd5b600080600060608486031215611d8557600080fd5b83359250602084013567ffffffffffffffff811115611da357600080fd5b611daf86828701611c96565b925050611dbe60408501611d59565b90509250925092565b60008060008060808587031215611ddd57600080fd5b611de685611d59565b935060208501359250604085013567ffffffffffffffff811115611e0957600080fd5b611e1587828801611c40565b949793965093946060013593505050565b60008060008060808587031215611e3c57600080fd5b611e4585611d59565b9350611e5360208601611d59565b925060408501359150606085013567ffffffffffffffff811115611e7657600080fd5b611e8287828801611c96565b91505092959194509250565b815181526020808301519082015260408101611441565b60008083601f840112611eb757600080fd5b50813567ffffffffffffffff811115611ecf57600080fd5b602083019150836020828501011115611ee757600080fd5b9250929050565b600080600080600080600060a0888a031215611f0957600080fd5b611f1288611d59565b965060208801359550604088013567ffffffffffffffff80821115611f3657600080fd5b611f428b838c01611ea5565b9097509550859150611f5660608b01611d59565b945060808a0135915080821115611f6c57600080fd5b50611f798a828b01611ea5565b989b979a50959850939692959293505050565b6001600160a01b039390931683526020830191909152604082015260600190565b8051611c1381611bf3565b60005b83811015611fd3578181015183820152602001611fbb565b50506000910152565b600082601f830112611fed57600080fd5b8151611ffb611c5f82611c18565b81815284602083860101111561201057600080fd5b612021826020830160208701611fb8565b949350505050565b6000806040838503121561203c57600080fd5b825167ffffffffffffffff8082111561205457600080fd5b9084019060e0828703121561206857600080fd5b612070611b99565b61207983611fad565b81526020830151602082015260408301516040820152606083015160608201526080830151828111156120ab57600080fd5b6120b788828601611fdc565b60808301525060a0830151828111156120cf57600080fd5b6120db88828601611fdc565b60a08301525060c0830151828111156120f357600080fd5b6120ff88828601611fdc565b60c08301525060209590950151949694955050505050565b60006020828403121561212957600080fd5b5051919050565b60008151808452612148816020860160208601611fb8565b601f01601f19169290920160200192915050565b63ffffffff81511682526020810151602083015260408101516040830152606081015160608301526000608082015160e0608085015261219f60e0850182612130565b905060a083015184820360a08601526121b88282612130565b91505060c083015184820360c0860152610a5b8282612130565b6040815260006121e5604083018561215c565b905082151560208301529392505050565b60006040828403121561220857600080fd5b6040516040810181811067ffffffffffffffff8211171561222b5761222b611b83565b604052825181526020928301519281019290925250919050565b60006040828403121561225757600080fd5b61143e83836121f6565b60018060a01b03851681528360208201526080604082015260006122886080830185612130565b905082606083015295945050505050565b60208152600061143e6020830184612130565b805160208201516001600160e01b031980821692919060048310156122db5780818460040360031b1b83161693505b505050919050565b6000602082840312156122f557600080fd5b8151801515811461230557600080fd5b9392505050565b6001600160a01b038a811682528916602082015263ffffffff88166040820152606081018790526080810186905260a0810185905261012060c0820181905260009061235a83820187612130565b905082810360e084015261236e8186612130565b90508281036101008401526123838185612130565b9c9b505050505050505050505050565b600080858511156123a357600080fd5b838611156123b057600080fd5b5050820193919092039150565b8035602083101561144157600019602084900360031b1b1692915050565b6080815260006123ee608083018661215c565b9050612407602083018580518252602090810151910152565b6001600160a01b03929092166060919091015292915050565b60008082840360c081121561243457600080fd5b608081121561244257600080fd5b506040516060810167ffffffffffffffff828210818311171561246757612467611b83565b816040528551835260208601519150808216821461248457600080fd5b50602082015261249785604086016121f6565b604082015291506124ab84608085016121f6565b90509250929050565b6001600160e01b031981358181169160048510156124dc5780818660040360031b1b83161692505b50509291505056fea26469706673582212201505c16a298892173c232adb5eb5d2b29e9ad0562204ddfae0e1a00a1d5137e264736f6c63430008160033",
  "devdoc": {
    "custom:note": "See MCTOFTAdapter.sol and WHY_MCTOFT_ADAPTER_EXISTS.md for details",
    "custom:security": "MCT stays on hub chain only, ASSET_OFT is not used for cross-chain",
    "details": "Overview: This composer allows users to deposit collateral (USDC/USDT) on any chain and receive nUSD shares on any destination chain in a single transaction. User Flow: 1. User sends collateral (USDC) from spoke chain via Stargate/collateral OFT 2. nUSDComposer receives collateral on hub chain via lzCompose 3. Composer calls nUSD.mintWithCollateral(collateralAsset, amount) 4. nUSD internally manages MCT (MultiCollateralToken) - user never sees it 5. Composer sends nUSD shares cross-chain via SHARE_OFT (nUSDOFTAdapter) 6. User receives nUSD on destination chainIMPORTANT - ASSET_OFT Parameter (Validation Only): This contract inherits from VaultComposerSync which requires an ASSET_OFT parameter that must satisfy: ASSET_OFT.token() == VAULT.asset() For nUSD vault: - VAULT.asset() = MCT (MultiCollateralToken) - Therefore ASSET_OFT must be MCTOFTAdapter - BUT: MCT NEVER goes cross-chain! It's hub-only and invisible to users. The ASSET_OFT (MCTOFTAdapter) exists ONLY to pass constructor validation. It is NEVER used in the actual compose flow! Actual Flow Uses:  collateralAsset - What users actually deposit (USDC/USDT)  collateralAssetOFT - For cross-chain collateral (Stargate USDC OFT)  SHARE_OFT - For sending nUSD cross-chain (nUSDOFTAdapter)  ASSET_OFT - Only for validation, never used in operations See _depositCollateralAndSend() for the actual deposit logic that uses collateralAsset, not ASSET_OFT.",
    "errors": {
      "ERC4626ExceededMaxDeposit(address,uint256,uint256)": [
        {
          "details": "Attempted to deposit more assets than the max amount for `receiver`."
        }
      ],
      "ERC4626ExceededMaxRedeem(address,uint256,uint256)": [
        {
          "details": "Attempted to redeem more shares than the max amount for `receiver`."
        }
      ],
      "ReentrancyGuardReentrantCall()": [
        {
          "details": "Unauthorized reentrant call."
        }
      ],
      "SafeERC20FailedOperation(address)": [
        {
          "details": "An operation with an ERC-20 token failed."
        }
      ]
    },
    "kind": "dev",
    "methods": {
      "_handleComposeInternal(address,bytes32,bytes,uint256)": {
        "details": "This function can only be called by self (self-call restriction)"
      },
      "constructor": {
        "details": "Key Point: _assetOFT (MCT) is required by base class but never used.      The actual flow uses _collateralAsset and _shareOFT.",
        "params": {
          "_assetOFT": "VALIDATION ONLY - MCTOFTAdapter that satisfies vault.asset() check                  This is NEVER used for actual cross-chain operations!                  MCT (vault's underlying asset) stays on hub chain only.                  Passed only to satisfy VaultComposerSync constructor validation.                  See contract-level documentation for detailed explanation.",
          "_collateralAsset": "The collateral token users deposit (e.g., USDC, USDT)                         This is what users actually send and deposit.",
          "_collateralAssetOFT": "The OFT for cross-chain collateral (e.g., Stargate USDC OFT)                            This is how users send collateral cross-chain.",
          "_shareOFT": "The nUSD OFT adapter for cross-chain share transfers (ACTUALLY USED)                  This is what sends nUSD cross-chain to users.",
          "_vault": "The nUSD vault contract implementing ERC4626"
        }
      },
      "depositAndSend(uint256,(uint32,bytes32,uint256,uint256,bytes,bytes,bytes),address)": {
        "params": {
          "_assetAmount": "The number of ERC20 tokens to deposit and send",
          "_refundAddress": "Address to receive excess `msg.value`",
          "_sendParam": "Parameters on how to send the shares to the recipient"
        }
      },
      "handleCompose(address,bytes32,bytes,uint256)": {
        "details": "This function can only be called by the contract itself (self-call restriction)      Decodes the compose message to extract SendParam and minimum message value      Routes to either deposit or redeem flow based on the input OFT token type",
        "params": {
          "_amount": "The amount of tokens received in the lzReceive associated with this lzTx",
          "_composeFrom": "The bytes32 identifier of the compose sender",
          "_composeMsg": "The encoded message containing SendParam and minMsgValue",
          "_oftIn": "The OFT token whose funds have been received in the lzReceive associated with this lzTx"
        }
      },
      "lzCompose(address,bytes32,bytes,address,bytes)": {
        "details": "This allows the composer to handle cross-chain deposits of collateral assets (e.g., USDC)",
        "params": {
          "_composeSender": "The OFT contract address used for refunds, can be ASSET_OFT, SHARE_OFT, or collateralAsset",
          "_guid": "LayerZero's unique tx id (created on the source tx)",
          "_message": "Decomposable bytes object into [composeHeader][composeMessage]"
        }
      },
      "quoteSend(address,address,uint256,(uint32,bytes32,uint256,uint256,bytes,bytes,bytes))": {
        "details": "Revert on slippage will be thrown by the OFT and not _assertSlippageThis function can be overridden to implement custom quoting logic",
        "params": {
          "_from": "The \"sender address\" used for the quote",
          "_sendParam": "The parameters for the send operation",
          "_targetOFT": "The OFT contract address to quote",
          "_vaultInAmount": "The amount of tokens to send to the vault"
        },
        "returns": {
          "_0": "MessagingFee The estimated fee for the send operation"
        }
      },
      "redeemAndSend(uint256,(uint32,bytes32,uint256,uint256,bytes,bytes,bytes),address)": {
        "params": {
          "_refundAddress": "Address to receive excess payment of the LZ fees",
          "_sendParam": "Parameter that defines how to send the assets",
          "_shareAmount": "The number of vault shares to redeem"
        }
      }
    },
    "title": "nUSDComposer",
    "version": 1
  },
  "userdoc": {
    "errors": {
      "ShareOFTNotAdapter(address)": [
        {
          "notice": "========================== Error Messages ====================================="
        }
      ],
      "UnauthorizedSender(address)": [
        {
          "notice": "Error thrown when sender does not have valid Keyring credentials"
        }
      ]
    },
    "events": {
      "Sent(bytes32)": {
        "notice": "========================== EVENTS ====================================="
      }
    },
    "kind": "user",
    "methods": {
      "_handleComposeInternal(address,bytes32,bytes,uint256)": {
        "notice": "Internal function to handle compose operations"
      },
      "collateralAsset()": {
        "notice": "Collateral asset to use for minting (e.g., USDC)"
      },
      "collateralAssetOFT()": {
        "notice": "OFT contract for the collateral asset (e.g., Stargate USDC OFT)"
      },
      "constructor": {
        "notice": "Creates a new nUSDComposer for cross-chain nUSD minting"
      },
      "depositAndSend(uint256,(uint32,bytes32,uint256,uint256,bytes,bytes,bytes),address)": {
        "notice": "Deposits ERC20 assets from the caller into the vault and sends them to the recipient"
      },
      "handleCompose(address,bytes32,bytes,uint256)": {
        "notice": "Handles the compose operation for OFT (Omnichain Fungible Token) transactions"
      },
      "lzCompose(address,bytes32,bytes,address,bytes)": {
        "notice": "Override lzCompose to accept collateralAsset as a valid compose sender"
      },
      "quoteSend(address,address,uint256,(uint32,bytes32,uint256,uint256,bytes,bytes,bytes))": {
        "notice": "Quotes the send operation for the given OFT and SendParam"
      },
      "redeemAndSend(uint256,(uint32,bytes32,uint256,uint256,bytes,bytes,bytes),address)": {
        "notice": "Redeems vault shares and sends the resulting assets to the user"
      }
    },
    "notice": "Composer that enables cross-chain nUSD minting via collateral deposits",
    "version": 1
  },
  "storageLayout": {
    "storage": [
      {
        "astId": 6659,
        "contract": "contracts/nusd/nUSDComposer.sol:nUSDComposer",
        "label": "_status",
        "offset": 0,
        "slot": "0",
        "type": "t_uint256"
      }
    ],
    "types": {
      "t_uint256": {
        "encoding": "inplace",
        "label": "uint256",
        "numberOfBytes": "32"
      }
    }
  }
}