{
  "address": "0x90183784bD1ceB7A8026CA9dFb7d447390451f28",
  "abi": [
    {
      "inputs": [
        {
          "internalType": "contract MultiCollateralToken",
          "name": "_mct",
          "type": "address"
        },
        {
          "internalType": "address",
          "name": "admin",
          "type": "address"
        },
        {
          "internalType": "uint256",
          "name": "_maxMintPerBlock",
          "type": "uint256"
        },
        {
          "internalType": "uint256",
          "name": "_maxRedeemPerBlock",
          "type": "uint256"
        }
      ],
      "stateMutability": "nonpayable",
      "type": "constructor"
    },
    {
      "inputs": [],
      "name": "AccessControlBadConfirmation",
      "type": "error"
    },
    {
      "inputs": [
        {
          "internalType": "address",
          "name": "account",
          "type": "address"
        },
        {
          "internalType": "bytes32",
          "name": "neededRole",
          "type": "bytes32"
        }
      ],
      "name": "AccessControlUnauthorizedAccount",
      "type": "error"
    },
    {
      "inputs": [],
      "name": "BelowMinimumAmount",
      "type": "error"
    },
    {
      "inputs": [],
      "name": "CantBlacklistOwner",
      "type": "error"
    },
    {
      "inputs": [],
      "name": "CantRenounceOwnership",
      "type": "error"
    },
    {
      "inputs": [],
      "name": "CooldownNotFinished",
      "type": "error"
    },
    {
      "inputs": [],
      "name": "DelegationNotInitiated",
      "type": "error"
    },
    {
      "inputs": [],
      "name": "ECDSAInvalidSignature",
      "type": "error"
    },
    {
      "inputs": [
        {
          "internalType": "uint256",
          "name": "length",
          "type": "uint256"
        }
      ],
      "name": "ECDSAInvalidSignatureLength",
      "type": "error"
    },
    {
      "inputs": [
        {
          "internalType": "bytes32",
          "name": "s",
          "type": "bytes32"
        }
      ],
      "name": "ECDSAInvalidSignatureS",
      "type": "error"
    },
    {
      "inputs": [
        {
          "internalType": "address",
          "name": "spender",
          "type": "address"
        },
        {
          "internalType": "uint256",
          "name": "allowance",
          "type": "uint256"
        },
        {
          "internalType": "uint256",
          "name": "needed",
          "type": "uint256"
        }
      ],
      "name": "ERC20InsufficientAllowance",
      "type": "error"
    },
    {
      "inputs": [
        {
          "internalType": "address",
          "name": "sender",
          "type": "address"
        },
        {
          "internalType": "uint256",
          "name": "balance",
          "type": "uint256"
        },
        {
          "internalType": "uint256",
          "name": "needed",
          "type": "uint256"
        }
      ],
      "name": "ERC20InsufficientBalance",
      "type": "error"
    },
    {
      "inputs": [
        {
          "internalType": "address",
          "name": "approver",
          "type": "address"
        }
      ],
      "name": "ERC20InvalidApprover",
      "type": "error"
    },
    {
      "inputs": [
        {
          "internalType": "address",
          "name": "receiver",
          "type": "address"
        }
      ],
      "name": "ERC20InvalidReceiver",
      "type": "error"
    },
    {
      "inputs": [
        {
          "internalType": "address",
          "name": "sender",
          "type": "address"
        }
      ],
      "name": "ERC20InvalidSender",
      "type": "error"
    },
    {
      "inputs": [
        {
          "internalType": "address",
          "name": "spender",
          "type": "address"
        }
      ],
      "name": "ERC20InvalidSpender",
      "type": "error"
    },
    {
      "inputs": [
        {
          "internalType": "uint256",
          "name": "deadline",
          "type": "uint256"
        }
      ],
      "name": "ERC2612ExpiredSignature",
      "type": "error"
    },
    {
      "inputs": [
        {
          "internalType": "address",
          "name": "signer",
          "type": "address"
        },
        {
          "internalType": "address",
          "name": "owner",
          "type": "address"
        }
      ],
      "name": "ERC2612InvalidSigner",
      "type": "error"
    },
    {
      "inputs": [
        {
          "internalType": "address",
          "name": "receiver",
          "type": "address"
        },
        {
          "internalType": "uint256",
          "name": "assets",
          "type": "uint256"
        },
        {
          "internalType": "uint256",
          "name": "max",
          "type": "uint256"
        }
      ],
      "name": "ERC4626ExceededMaxDeposit",
      "type": "error"
    },
    {
      "inputs": [
        {
          "internalType": "address",
          "name": "receiver",
          "type": "address"
        },
        {
          "internalType": "uint256",
          "name": "shares",
          "type": "uint256"
        },
        {
          "internalType": "uint256",
          "name": "max",
          "type": "uint256"
        }
      ],
      "name": "ERC4626ExceededMaxMint",
      "type": "error"
    },
    {
      "inputs": [
        {
          "internalType": "address",
          "name": "owner",
          "type": "address"
        },
        {
          "internalType": "uint256",
          "name": "shares",
          "type": "uint256"
        },
        {
          "internalType": "uint256",
          "name": "max",
          "type": "uint256"
        }
      ],
      "name": "ERC4626ExceededMaxRedeem",
      "type": "error"
    },
    {
      "inputs": [
        {
          "internalType": "address",
          "name": "owner",
          "type": "address"
        },
        {
          "internalType": "uint256",
          "name": "assets",
          "type": "uint256"
        },
        {
          "internalType": "uint256",
          "name": "max",
          "type": "uint256"
        }
      ],
      "name": "ERC4626ExceededMaxWithdraw",
      "type": "error"
    },
    {
      "inputs": [],
      "name": "EnforcedPause",
      "type": "error"
    },
    {
      "inputs": [],
      "name": "ExistingRedemptionRequest",
      "type": "error"
    },
    {
      "inputs": [],
      "name": "ExpectedPause",
      "type": "error"
    },
    {
      "inputs": [
        {
          "internalType": "address",
          "name": "account",
          "type": "address"
        },
        {
          "internalType": "uint256",
          "name": "currentNonce",
          "type": "uint256"
        }
      ],
      "name": "InvalidAccountNonce",
      "type": "error"
    },
    {
      "inputs": [],
      "name": "InvalidAmount",
      "type": "error"
    },
    {
      "inputs": [],
      "name": "InvalidCooldown",
      "type": "error"
    },
    {
      "inputs": [],
      "name": "InvalidFee",
      "type": "error"
    },
    {
      "inputs": [],
      "name": "InvalidShortString",
      "type": "error"
    },
    {
      "inputs": [],
      "name": "InvalidSignature",
      "type": "error"
    },
    {
      "inputs": [
        {
          "internalType": "address",
          "name": "account",
          "type": "address"
        }
      ],
      "name": "KeyringCredentialInvalid",
      "type": "error"
    },
    {
      "inputs": [],
      "name": "MaxMintPerBlockExceeded",
      "type": "error"
    },
    {
      "inputs": [],
      "name": "MaxRedeemPerBlockExceeded",
      "type": "error"
    },
    {
      "inputs": [],
      "name": "NoRedemptionRequest",
      "type": "error"
    },
    {
      "inputs": [],
      "name": "OperationNotAllowed",
      "type": "error"
    },
    {
      "inputs": [],
      "name": "ReentrancyGuardReentrantCall",
      "type": "error"
    },
    {
      "inputs": [
        {
          "internalType": "address",
          "name": "token",
          "type": "address"
        }
      ],
      "name": "SafeERC20FailedOperation",
      "type": "error"
    },
    {
      "inputs": [
        {
          "internalType": "string",
          "name": "str",
          "type": "string"
        }
      ],
      "name": "StringTooLong",
      "type": "error"
    },
    {
      "inputs": [],
      "name": "UnsupportedAsset",
      "type": "error"
    },
    {
      "inputs": [],
      "name": "ZeroAddressException",
      "type": "error"
    },
    {
      "anonymous": false,
      "inputs": [
        {
          "indexed": true,
          "internalType": "address",
          "name": "owner",
          "type": "address"
        },
        {
          "indexed": true,
          "internalType": "address",
          "name": "spender",
          "type": "address"
        },
        {
          "indexed": false,
          "internalType": "uint256",
          "name": "value",
          "type": "uint256"
        }
      ],
      "name": "Approval",
      "type": "event"
    },
    {
      "anonymous": false,
      "inputs": [
        {
          "indexed": false,
          "internalType": "uint24",
          "name": "previousDuration",
          "type": "uint24"
        },
        {
          "indexed": false,
          "internalType": "uint24",
          "name": "newDuration",
          "type": "uint24"
        }
      ],
      "name": "CooldownDurationUpdated",
      "type": "event"
    },
    {
      "anonymous": false,
      "inputs": [
        {
          "indexed": true,
          "internalType": "address",
          "name": "signer",
          "type": "address"
        },
        {
          "indexed": true,
          "internalType": "address",
          "name": "delegatedBy",
          "type": "address"
        }
      ],
      "name": "DelegatedSignerAdded",
      "type": "event"
    },
    {
      "anonymous": false,
      "inputs": [
        {
          "indexed": true,
          "internalType": "address",
          "name": "delegateTo",
          "type": "address"
        },
        {
          "indexed": true,
          "internalType": "address",
          "name": "delegatedBy",
          "type": "address"
        }
      ],
      "name": "DelegatedSignerInitiated",
      "type": "event"
    },
    {
      "anonymous": false,
      "inputs": [
        {
          "indexed": true,
          "internalType": "address",
          "name": "signer",
          "type": "address"
        },
        {
          "indexed": true,
          "internalType": "address",
          "name": "delegatedBy",
          "type": "address"
        }
      ],
      "name": "DelegatedSignerRemoved",
      "type": "event"
    },
    {
      "anonymous": false,
      "inputs": [
        {
          "indexed": true,
          "internalType": "address",
          "name": "sender",
          "type": "address"
        },
        {
          "indexed": true,
          "internalType": "address",
          "name": "owner",
          "type": "address"
        },
        {
          "indexed": false,
          "internalType": "uint256",
          "name": "assets",
          "type": "uint256"
        },
        {
          "indexed": false,
          "internalType": "uint256",
          "name": "shares",
          "type": "uint256"
        }
      ],
      "name": "Deposit",
      "type": "event"
    },
    {
      "anonymous": false,
      "inputs": [],
      "name": "EIP712DomainChanged",
      "type": "event"
    },
    {
      "anonymous": false,
      "inputs": [
        {
          "indexed": true,
          "internalType": "address",
          "name": "treasury",
          "type": "address"
        },
        {
          "indexed": false,
          "internalType": "uint256",
          "name": "feeAmount",
          "type": "uint256"
        },
        {
          "indexed": false,
          "internalType": "bool",
          "name": "isMintFee",
          "type": "bool"
        }
      ],
      "name": "FeeCollected",
      "type": "event"
    },
    {
      "anonymous": false,
      "inputs": [
        {
          "indexed": true,
          "internalType": "address",
          "name": "oldTreasury",
          "type": "address"
        },
        {
          "indexed": true,
          "internalType": "address",
          "name": "newTreasury",
          "type": "address"
        }
      ],
      "name": "FeeTreasuryUpdated",
      "type": "event"
    },
    {
      "anonymous": false,
      "inputs": [
        {
          "indexed": true,
          "internalType": "address",
          "name": "keyringAddress",
          "type": "address"
        },
        {
          "indexed": false,
          "internalType": "uint256",
          "name": "policyId",
          "type": "uint256"
        }
      ],
      "name": "KeyringConfigUpdated",
      "type": "event"
    },
    {
      "anonymous": false,
      "inputs": [
        {
          "indexed": true,
          "internalType": "address",
          "name": "account",
          "type": "address"
        },
        {
          "indexed": false,
          "internalType": "bool",
          "name": "status",
          "type": "bool"
        }
      ],
      "name": "KeyringWhitelistUpdated",
      "type": "event"
    },
    {
      "anonymous": false,
      "inputs": [
        {
          "indexed": true,
          "internalType": "address",
          "name": "from",
          "type": "address"
        },
        {
          "indexed": true,
          "internalType": "address",
          "name": "to",
          "type": "address"
        },
        {
          "indexed": false,
          "internalType": "uint256",
          "name": "amount",
          "type": "uint256"
        }
      ],
      "name": "LockedAmountRedistributed",
      "type": "event"
    },
    {
      "anonymous": false,
      "inputs": [
        {
          "indexed": false,
          "internalType": "uint256",
          "name": "oldMax",
          "type": "uint256"
        },
        {
          "indexed": false,
          "internalType": "uint256",
          "name": "newMax",
          "type": "uint256"
        }
      ],
      "name": "MaxMintPerBlockChanged",
      "type": "event"
    },
    {
      "anonymous": false,
      "inputs": [
        {
          "indexed": false,
          "internalType": "uint256",
          "name": "oldMax",
          "type": "uint256"
        },
        {
          "indexed": false,
          "internalType": "uint256",
          "name": "newMax",
          "type": "uint256"
        }
      ],
      "name": "MaxRedeemPerBlockChanged",
      "type": "event"
    },
    {
      "anonymous": false,
      "inputs": [
        {
          "indexed": false,
          "internalType": "uint256",
          "name": "oldAmount",
          "type": "uint256"
        },
        {
          "indexed": false,
          "internalType": "uint256",
          "name": "newAmount",
          "type": "uint256"
        }
      ],
      "name": "MinMintAmountUpdated",
      "type": "event"
    },
    {
      "anonymous": false,
      "inputs": [
        {
          "indexed": false,
          "internalType": "uint256",
          "name": "oldAmount",
          "type": "uint256"
        },
        {
          "indexed": false,
          "internalType": "uint256",
          "name": "newAmount",
          "type": "uint256"
        }
      ],
      "name": "MinRedeemAmountUpdated",
      "type": "event"
    },
    {
      "anonymous": false,
      "inputs": [
        {
          "indexed": true,
          "internalType": "address",
          "name": "beneficiary",
          "type": "address"
        },
        {
          "indexed": true,
          "internalType": "address",
          "name": "collateralAsset",
          "type": "address"
        },
        {
          "indexed": false,
          "internalType": "uint256",
          "name": "collateralAmount",
          "type": "uint256"
        },
        {
          "indexed": false,
          "internalType": "uint256",
          "name": "nUSDAmount",
          "type": "uint256"
        }
      ],
      "name": "Mint",
      "type": "event"
    },
    {
      "anonymous": false,
      "inputs": [
        {
          "indexed": false,
          "internalType": "uint16",
          "name": "oldFeeBps",
          "type": "uint16"
        },
        {
          "indexed": false,
          "internalType": "uint16",
          "name": "newFeeBps",
          "type": "uint16"
        }
      ],
      "name": "MintFeeUpdated",
      "type": "event"
    },
    {
      "anonymous": false,
      "inputs": [
        {
          "indexed": false,
          "internalType": "address",
          "name": "account",
          "type": "address"
        }
      ],
      "name": "Paused",
      "type": "event"
    },
    {
      "anonymous": false,
      "inputs": [
        {
          "indexed": true,
          "internalType": "address",
          "name": "beneficiary",
          "type": "address"
        },
        {
          "indexed": true,
          "internalType": "address",
          "name": "collateralAsset",
          "type": "address"
        },
        {
          "indexed": false,
          "internalType": "uint256",
          "name": "nUSDAmount",
          "type": "uint256"
        },
        {
          "indexed": false,
          "internalType": "uint256",
          "name": "collateralAmount",
          "type": "uint256"
        }
      ],
      "name": "Redeem",
      "type": "event"
    },
    {
      "anonymous": false,
      "inputs": [
        {
          "indexed": false,
          "internalType": "uint16",
          "name": "oldFeeBps",
          "type": "uint16"
        },
        {
          "indexed": false,
          "internalType": "uint16",
          "name": "newFeeBps",
          "type": "uint16"
        }
      ],
      "name": "RedeemFeeUpdated",
      "type": "event"
    },
    {
      "anonymous": false,
      "inputs": [
        {
          "indexed": true,
          "internalType": "address",
          "name": "user",
          "type": "address"
        },
        {
          "indexed": false,
          "internalType": "uint256",
          "name": "nUSDAmount",
          "type": "uint256"
        }
      ],
      "name": "RedemptionCancelled",
      "type": "event"
    },
    {
      "anonymous": false,
      "inputs": [
        {
          "indexed": true,
          "internalType": "address",
          "name": "user",
          "type": "address"
        },
        {
          "indexed": false,
          "internalType": "uint256",
          "name": "nUSDAmount",
          "type": "uint256"
        },
        {
          "indexed": true,
          "internalType": "address",
          "name": "collateralAsset",
          "type": "address"
        },
        {
          "indexed": false,
          "internalType": "uint256",
          "name": "collateralAmount",
          "type": "uint256"
        }
      ],
      "name": "RedemptionCompleted",
      "type": "event"
    },
    {
      "anonymous": false,
      "inputs": [
        {
          "indexed": true,
          "internalType": "address",
          "name": "user",
          "type": "address"
        },
        {
          "indexed": false,
          "internalType": "uint256",
          "name": "nUSDAmount",
          "type": "uint256"
        },
        {
          "indexed": true,
          "internalType": "address",
          "name": "collateralAsset",
          "type": "address"
        },
        {
          "indexed": false,
          "internalType": "uint256",
          "name": "cooldownEnd",
          "type": "uint256"
        }
      ],
      "name": "RedemptionRequested",
      "type": "event"
    },
    {
      "anonymous": false,
      "inputs": [
        {
          "indexed": true,
          "internalType": "bytes32",
          "name": "role",
          "type": "bytes32"
        },
        {
          "indexed": true,
          "internalType": "bytes32",
          "name": "previousAdminRole",
          "type": "bytes32"
        },
        {
          "indexed": true,
          "internalType": "bytes32",
          "name": "newAdminRole",
          "type": "bytes32"
        }
      ],
      "name": "RoleAdminChanged",
      "type": "event"
    },
    {
      "anonymous": false,
      "inputs": [
        {
          "indexed": true,
          "internalType": "bytes32",
          "name": "role",
          "type": "bytes32"
        },
        {
          "indexed": true,
          "internalType": "address",
          "name": "account",
          "type": "address"
        },
        {
          "indexed": true,
          "internalType": "address",
          "name": "sender",
          "type": "address"
        }
      ],
      "name": "RoleGranted",
      "type": "event"
    },
    {
      "anonymous": false,
      "inputs": [
        {
          "indexed": true,
          "internalType": "bytes32",
          "name": "role",
          "type": "bytes32"
        },
        {
          "indexed": true,
          "internalType": "address",
          "name": "account",
          "type": "address"
        },
        {
          "indexed": true,
          "internalType": "address",
          "name": "sender",
          "type": "address"
        }
      ],
      "name": "RoleRevoked",
      "type": "event"
    },
    {
      "anonymous": false,
      "inputs": [
        {
          "indexed": true,
          "internalType": "address",
          "name": "from",
          "type": "address"
        },
        {
          "indexed": true,
          "internalType": "address",
          "name": "to",
          "type": "address"
        },
        {
          "indexed": false,
          "internalType": "uint256",
          "name": "value",
          "type": "uint256"
        }
      ],
      "name": "Transfer",
      "type": "event"
    },
    {
      "anonymous": false,
      "inputs": [
        {
          "indexed": false,
          "internalType": "address",
          "name": "account",
          "type": "address"
        }
      ],
      "name": "Unpaused",
      "type": "event"
    },
    {
      "anonymous": false,
      "inputs": [
        {
          "indexed": true,
          "internalType": "address",
          "name": "sender",
          "type": "address"
        },
        {
          "indexed": true,
          "internalType": "address",
          "name": "receiver",
          "type": "address"
        },
        {
          "indexed": true,
          "internalType": "address",
          "name": "owner",
          "type": "address"
        },
        {
          "indexed": false,
          "internalType": "uint256",
          "name": "assets",
          "type": "uint256"
        },
        {
          "indexed": false,
          "internalType": "uint256",
          "name": "shares",
          "type": "uint256"
        }
      ],
      "name": "Withdraw",
      "type": "event"
    },
    {
      "inputs": [],
      "name": "BLACKLIST_MANAGER_ROLE",
      "outputs": [
        {
          "internalType": "bytes32",
          "name": "",
          "type": "bytes32"
        }
      ],
      "stateMutability": "view",
      "type": "function"
    },
    {
      "inputs": [],
      "name": "BPS_DENOMINATOR",
      "outputs": [
        {
          "internalType": "uint16",
          "name": "",
          "type": "uint16"
        }
      ],
      "stateMutability": "view",
      "type": "function"
    },
    {
      "inputs": [],
      "name": "COLLATERAL_MANAGER_ROLE",
      "outputs": [
        {
          "internalType": "bytes32",
          "name": "",
          "type": "bytes32"
        }
      ],
      "stateMutability": "view",
      "type": "function"
    },
    {
      "inputs": [],
      "name": "DEFAULT_ADMIN_ROLE",
      "outputs": [
        {
          "internalType": "bytes32",
          "name": "",
          "type": "bytes32"
        }
      ],
      "stateMutability": "view",
      "type": "function"
    },
    {
      "inputs": [],
      "name": "DOMAIN_SEPARATOR",
      "outputs": [
        {
          "internalType": "bytes32",
          "name": "",
          "type": "bytes32"
        }
      ],
      "stateMutability": "view",
      "type": "function"
    },
    {
      "inputs": [],
      "name": "FULL_RESTRICTED_ROLE",
      "outputs": [
        {
          "internalType": "bytes32",
          "name": "",
          "type": "bytes32"
        }
      ],
      "stateMutability": "view",
      "type": "function"
    },
    {
      "inputs": [],
      "name": "GATEKEEPER_ROLE",
      "outputs": [
        {
          "internalType": "bytes32",
          "name": "",
          "type": "bytes32"
        }
      ],
      "stateMutability": "view",
      "type": "function"
    },
    {
      "inputs": [],
      "name": "MAX_COOLDOWN_DURATION",
      "outputs": [
        {
          "internalType": "uint24",
          "name": "",
          "type": "uint24"
        }
      ],
      "stateMutability": "view",
      "type": "function"
    },
    {
      "inputs": [],
      "name": "MAX_FEE_BPS",
      "outputs": [
        {
          "internalType": "uint16",
          "name": "",
          "type": "uint16"
        }
      ],
      "stateMutability": "view",
      "type": "function"
    },
    {
      "inputs": [],
      "name": "MINTER_ROLE",
      "outputs": [
        {
          "internalType": "bytes32",
          "name": "",
          "type": "bytes32"
        }
      ],
      "stateMutability": "view",
      "type": "function"
    },
    {
      "inputs": [],
      "name": "SOFT_RESTRICTED_ROLE",
      "outputs": [
        {
          "internalType": "bytes32",
          "name": "",
          "type": "bytes32"
        }
      ],
      "stateMutability": "view",
      "type": "function"
    },
    {
      "inputs": [
        {
          "internalType": "address",
          "name": "target",
          "type": "address"
        },
        {
          "internalType": "bool",
          "name": "isFullBlacklisting",
          "type": "bool"
        }
      ],
      "name": "addToBlacklist",
      "outputs": [],
      "stateMutability": "nonpayable",
      "type": "function"
    },
    {
      "inputs": [
        {
          "internalType": "address",
          "name": "owner",
          "type": "address"
        },
        {
          "internalType": "address",
          "name": "spender",
          "type": "address"
        }
      ],
      "name": "allowance",
      "outputs": [
        {
          "internalType": "uint256",
          "name": "",
          "type": "uint256"
        }
      ],
      "stateMutability": "view",
      "type": "function"
    },
    {
      "inputs": [
        {
          "internalType": "address",
          "name": "spender",
          "type": "address"
        },
        {
          "internalType": "uint256",
          "name": "value",
          "type": "uint256"
        }
      ],
      "name": "approve",
      "outputs": [
        {
          "internalType": "bool",
          "name": "",
          "type": "bool"
        }
      ],
      "stateMutability": "nonpayable",
      "type": "function"
    },
    {
      "inputs": [],
      "name": "asset",
      "outputs": [
        {
          "internalType": "address",
          "name": "",
          "type": "address"
        }
      ],
      "stateMutability": "view",
      "type": "function"
    },
    {
      "inputs": [
        {
          "internalType": "address",
          "name": "account",
          "type": "address"
        }
      ],
      "name": "balanceOf",
      "outputs": [
        {
          "internalType": "uint256",
          "name": "",
          "type": "uint256"
        }
      ],
      "stateMutability": "view",
      "type": "function"
    },
    {
      "inputs": [
        {
          "internalType": "uint256",
          "name": "amount",
          "type": "uint256"
        }
      ],
      "name": "burn",
      "outputs": [],
      "stateMutability": "nonpayable",
      "type": "function"
    },
    {
      "inputs": [],
      "name": "cancelRedeem",
      "outputs": [],
      "stateMutability": "nonpayable",
      "type": "function"
    },
    {
      "inputs": [],
      "name": "completeRedeem",
      "outputs": [
        {
          "internalType": "uint256",
          "name": "collateralAmount",
          "type": "uint256"
        }
      ],
      "stateMutability": "nonpayable",
      "type": "function"
    },
    {
      "inputs": [
        {
          "internalType": "address",
          "name": "_delegatedBy",
          "type": "address"
        }
      ],
      "name": "confirmDelegatedSigner",
      "outputs": [],
      "stateMutability": "nonpayable",
      "type": "function"
    },
    {
      "inputs": [
        {
          "internalType": "uint256",
          "name": "shares",
          "type": "uint256"
        }
      ],
      "name": "convertToAssets",
      "outputs": [
        {
          "internalType": "uint256",
          "name": "",
          "type": "uint256"
        }
      ],
      "stateMutability": "view",
      "type": "function"
    },
    {
      "inputs": [
        {
          "internalType": "uint256",
          "name": "assets",
          "type": "uint256"
        }
      ],
      "name": "convertToShares",
      "outputs": [
        {
          "internalType": "uint256",
          "name": "",
          "type": "uint256"
        }
      ],
      "stateMutability": "view",
      "type": "function"
    },
    {
      "inputs": [],
      "name": "cooldownDuration",
      "outputs": [
        {
          "internalType": "uint24",
          "name": "",
          "type": "uint24"
        }
      ],
      "stateMutability": "view",
      "type": "function"
    },
    {
      "inputs": [
        {
          "internalType": "address",
          "name": "collateralAsset",
          "type": "address"
        },
        {
          "internalType": "uint256",
          "name": "nUSDAmount",
          "type": "uint256"
        }
      ],
      "name": "cooldownRedeem",
      "outputs": [],
      "stateMutability": "nonpayable",
      "type": "function"
    },
    {
      "inputs": [],
      "name": "decimals",
      "outputs": [
        {
          "internalType": "uint8",
          "name": "",
          "type": "uint8"
        }
      ],
      "stateMutability": "pure",
      "type": "function"
    },
    {
      "inputs": [
        {
          "internalType": "address",
          "name": "",
          "type": "address"
        },
        {
          "internalType": "address",
          "name": "",
          "type": "address"
        }
      ],
      "name": "delegatedSigner",
      "outputs": [
        {
          "internalType": "enum nUSD.DelegatedSignerStatus",
          "name": "",
          "type": "uint8"
        }
      ],
      "stateMutability": "view",
      "type": "function"
    },
    {
      "inputs": [
        {
          "internalType": "uint256",
          "name": "assets",
          "type": "uint256"
        },
        {
          "internalType": "address",
          "name": "receiver",
          "type": "address"
        }
      ],
      "name": "deposit",
      "outputs": [
        {
          "internalType": "uint256",
          "name": "",
          "type": "uint256"
        }
      ],
      "stateMutability": "nonpayable",
      "type": "function"
    },
    {
      "inputs": [],
      "name": "disableMintRedeem",
      "outputs": [],
      "stateMutability": "nonpayable",
      "type": "function"
    },
    {
      "inputs": [],
      "name": "eip712Domain",
      "outputs": [
        {
          "internalType": "bytes1",
          "name": "fields",
          "type": "bytes1"
        },
        {
          "internalType": "string",
          "name": "name",
          "type": "string"
        },
        {
          "internalType": "string",
          "name": "version",
          "type": "string"
        },
        {
          "internalType": "uint256",
          "name": "chainId",
          "type": "uint256"
        },
        {
          "internalType": "address",
          "name": "verifyingContract",
          "type": "address"
        },
        {
          "internalType": "bytes32",
          "name": "salt",
          "type": "bytes32"
        },
        {
          "internalType": "uint256[]",
          "name": "extensions",
          "type": "uint256[]"
        }
      ],
      "stateMutability": "view",
      "type": "function"
    },
    {
      "inputs": [],
      "name": "feeTreasury",
      "outputs": [
        {
          "internalType": "address",
          "name": "",
          "type": "address"
        }
      ],
      "stateMutability": "view",
      "type": "function"
    },
    {
      "inputs": [
        {
          "internalType": "bytes32",
          "name": "role",
          "type": "bytes32"
        }
      ],
      "name": "getRoleAdmin",
      "outputs": [
        {
          "internalType": "bytes32",
          "name": "",
          "type": "bytes32"
        }
      ],
      "stateMutability": "view",
      "type": "function"
    },
    {
      "inputs": [
        {
          "internalType": "bytes32",
          "name": "role",
          "type": "bytes32"
        },
        {
          "internalType": "address",
          "name": "account",
          "type": "address"
        }
      ],
      "name": "grantRole",
      "outputs": [],
      "stateMutability": "nonpayable",
      "type": "function"
    },
    {
      "inputs": [
        {
          "internalType": "bytes32",
          "name": "role",
          "type": "bytes32"
        },
        {
          "internalType": "address",
          "name": "account",
          "type": "address"
        }
      ],
      "name": "hasRole",
      "outputs": [
        {
          "internalType": "bool",
          "name": "",
          "type": "bool"
        }
      ],
      "stateMutability": "view",
      "type": "function"
    },
    {
      "inputs": [
        {
          "internalType": "address",
          "name": "account",
          "type": "address"
        }
      ],
      "name": "hasValidCredentials",
      "outputs": [
        {
          "internalType": "bool",
          "name": "",
          "type": "bool"
        }
      ],
      "stateMutability": "view",
      "type": "function"
    },
    {
      "inputs": [],
      "name": "keyringAddress",
      "outputs": [
        {
          "internalType": "address",
          "name": "",
          "type": "address"
        }
      ],
      "stateMutability": "view",
      "type": "function"
    },
    {
      "inputs": [],
      "name": "keyringPolicyId",
      "outputs": [
        {
          "internalType": "uint256",
          "name": "",
          "type": "uint256"
        }
      ],
      "stateMutability": "view",
      "type": "function"
    },
    {
      "inputs": [
        {
          "internalType": "address",
          "name": "",
          "type": "address"
        }
      ],
      "name": "keyringWhitelist",
      "outputs": [
        {
          "internalType": "bool",
          "name": "",
          "type": "bool"
        }
      ],
      "stateMutability": "view",
      "type": "function"
    },
    {
      "inputs": [
        {
          "internalType": "address",
          "name": "",
          "type": "address"
        }
      ],
      "name": "maxDeposit",
      "outputs": [
        {
          "internalType": "uint256",
          "name": "",
          "type": "uint256"
        }
      ],
      "stateMutability": "view",
      "type": "function"
    },
    {
      "inputs": [
        {
          "internalType": "address",
          "name": "",
          "type": "address"
        }
      ],
      "name": "maxMint",
      "outputs": [
        {
          "internalType": "uint256",
          "name": "",
          "type": "uint256"
        }
      ],
      "stateMutability": "view",
      "type": "function"
    },
    {
      "inputs": [],
      "name": "maxMintPerBlock",
      "outputs": [
        {
          "internalType": "uint256",
          "name": "",
          "type": "uint256"
        }
      ],
      "stateMutability": "view",
      "type": "function"
    },
    {
      "inputs": [
        {
          "internalType": "address",
          "name": "owner",
          "type": "address"
        }
      ],
      "name": "maxRedeem",
      "outputs": [
        {
          "internalType": "uint256",
          "name": "",
          "type": "uint256"
        }
      ],
      "stateMutability": "view",
      "type": "function"
    },
    {
      "inputs": [],
      "name": "maxRedeemPerBlock",
      "outputs": [
        {
          "internalType": "uint256",
          "name": "",
          "type": "uint256"
        }
      ],
      "stateMutability": "view",
      "type": "function"
    },
    {
      "inputs": [
        {
          "internalType": "address",
          "name": "owner",
          "type": "address"
        }
      ],
      "name": "maxWithdraw",
      "outputs": [
        {
          "internalType": "uint256",
          "name": "",
          "type": "uint256"
        }
      ],
      "stateMutability": "view",
      "type": "function"
    },
    {
      "inputs": [],
      "name": "mct",
      "outputs": [
        {
          "internalType": "contract MultiCollateralToken",
          "name": "",
          "type": "address"
        }
      ],
      "stateMutability": "view",
      "type": "function"
    },
    {
      "inputs": [],
      "name": "minMintAmount",
      "outputs": [
        {
          "internalType": "uint256",
          "name": "",
          "type": "uint256"
        }
      ],
      "stateMutability": "view",
      "type": "function"
    },
    {
      "inputs": [],
      "name": "minRedeemAmount",
      "outputs": [
        {
          "internalType": "uint256",
          "name": "",
          "type": "uint256"
        }
      ],
      "stateMutability": "view",
      "type": "function"
    },
    {
      "inputs": [
        {
          "internalType": "address",
          "name": "to",
          "type": "address"
        },
        {
          "internalType": "uint256",
          "name": "amount",
          "type": "uint256"
        }
      ],
      "name": "mint",
      "outputs": [],
      "stateMutability": "nonpayable",
      "type": "function"
    },
    {
      "inputs": [
        {
          "internalType": "uint256",
          "name": "shares",
          "type": "uint256"
        },
        {
          "internalType": "address",
          "name": "receiver",
          "type": "address"
        }
      ],
      "name": "mint",
      "outputs": [
        {
          "internalType": "uint256",
          "name": "",
          "type": "uint256"
        }
      ],
      "stateMutability": "nonpayable",
      "type": "function"
    },
    {
      "inputs": [],
      "name": "mintFeeBps",
      "outputs": [
        {
          "internalType": "uint16",
          "name": "",
          "type": "uint16"
        }
      ],
      "stateMutability": "view",
      "type": "function"
    },
    {
      "inputs": [
        {
          "internalType": "address",
          "name": "collateralAsset",
          "type": "address"
        },
        {
          "internalType": "uint256",
          "name": "collateralAmount",
          "type": "uint256"
        }
      ],
      "name": "mintWithCollateral",
      "outputs": [
        {
          "internalType": "uint256",
          "name": "nUSDAmount",
          "type": "uint256"
        }
      ],
      "stateMutability": "nonpayable",
      "type": "function"
    },
    {
      "inputs": [
        {
          "internalType": "address",
          "name": "collateralAsset",
          "type": "address"
        },
        {
          "internalType": "uint256",
          "name": "collateralAmount",
          "type": "uint256"
        },
        {
          "internalType": "address",
          "name": "beneficiary",
          "type": "address"
        }
      ],
      "name": "mintWithCollateralFor",
      "outputs": [
        {
          "internalType": "uint256",
          "name": "nUSDAmount",
          "type": "uint256"
        }
      ],
      "stateMutability": "nonpayable",
      "type": "function"
    },
    {
      "inputs": [
        {
          "internalType": "uint256",
          "name": "",
          "type": "uint256"
        }
      ],
      "name": "mintedPerBlock",
      "outputs": [
        {
          "internalType": "uint256",
          "name": "",
          "type": "uint256"
        }
      ],
      "stateMutability": "view",
      "type": "function"
    },
    {
      "inputs": [],
      "name": "name",
      "outputs": [
        {
          "internalType": "string",
          "name": "",
          "type": "string"
        }
      ],
      "stateMutability": "view",
      "type": "function"
    },
    {
      "inputs": [
        {
          "internalType": "address",
          "name": "owner",
          "type": "address"
        }
      ],
      "name": "nonces",
      "outputs": [
        {
          "internalType": "uint256",
          "name": "",
          "type": "uint256"
        }
      ],
      "stateMutability": "view",
      "type": "function"
    },
    {
      "inputs": [],
      "name": "pause",
      "outputs": [],
      "stateMutability": "nonpayable",
      "type": "function"
    },
    {
      "inputs": [],
      "name": "paused",
      "outputs": [
        {
          "internalType": "bool",
          "name": "",
          "type": "bool"
        }
      ],
      "stateMutability": "view",
      "type": "function"
    },
    {
      "inputs": [
        {
          "internalType": "address",
          "name": "owner",
          "type": "address"
        },
        {
          "internalType": "address",
          "name": "spender",
          "type": "address"
        },
        {
          "internalType": "uint256",
          "name": "value",
          "type": "uint256"
        },
        {
          "internalType": "uint256",
          "name": "deadline",
          "type": "uint256"
        },
        {
          "internalType": "uint8",
          "name": "v",
          "type": "uint8"
        },
        {
          "internalType": "bytes32",
          "name": "r",
          "type": "bytes32"
        },
        {
          "internalType": "bytes32",
          "name": "s",
          "type": "bytes32"
        }
      ],
      "name": "permit",
      "outputs": [],
      "stateMutability": "nonpayable",
      "type": "function"
    },
    {
      "inputs": [
        {
          "internalType": "uint256",
          "name": "assets",
          "type": "uint256"
        }
      ],
      "name": "previewDeposit",
      "outputs": [
        {
          "internalType": "uint256",
          "name": "",
          "type": "uint256"
        }
      ],
      "stateMutability": "view",
      "type": "function"
    },
    {
      "inputs": [
        {
          "internalType": "uint256",
          "name": "shares",
          "type": "uint256"
        }
      ],
      "name": "previewMint",
      "outputs": [
        {
          "internalType": "uint256",
          "name": "",
          "type": "uint256"
        }
      ],
      "stateMutability": "view",
      "type": "function"
    },
    {
      "inputs": [
        {
          "internalType": "uint256",
          "name": "shares",
          "type": "uint256"
        }
      ],
      "name": "previewRedeem",
      "outputs": [
        {
          "internalType": "uint256",
          "name": "",
          "type": "uint256"
        }
      ],
      "stateMutability": "view",
      "type": "function"
    },
    {
      "inputs": [
        {
          "internalType": "uint256",
          "name": "assets",
          "type": "uint256"
        }
      ],
      "name": "previewWithdraw",
      "outputs": [
        {
          "internalType": "uint256",
          "name": "",
          "type": "uint256"
        }
      ],
      "stateMutability": "view",
      "type": "function"
    },
    {
      "inputs": [
        {
          "internalType": "uint256",
          "name": "",
          "type": "uint256"
        },
        {
          "internalType": "address",
          "name": "",
          "type": "address"
        },
        {
          "internalType": "address",
          "name": "",
          "type": "address"
        }
      ],
      "name": "redeem",
      "outputs": [
        {
          "internalType": "uint256",
          "name": "",
          "type": "uint256"
        }
      ],
      "stateMutability": "pure",
      "type": "function"
    },
    {
      "inputs": [],
      "name": "redeemFeeBps",
      "outputs": [
        {
          "internalType": "uint16",
          "name": "",
          "type": "uint16"
        }
      ],
      "stateMutability": "view",
      "type": "function"
    },
    {
      "inputs": [],
      "name": "redeemSilo",
      "outputs": [
        {
          "internalType": "contract nUSDRedeemSilo",
          "name": "",
          "type": "address"
        }
      ],
      "stateMutability": "view",
      "type": "function"
    },
    {
      "inputs": [
        {
          "internalType": "uint256",
          "name": "",
          "type": "uint256"
        }
      ],
      "name": "redeemedPerBlock",
      "outputs": [
        {
          "internalType": "uint256",
          "name": "",
          "type": "uint256"
        }
      ],
      "stateMutability": "view",
      "type": "function"
    },
    {
      "inputs": [
        {
          "internalType": "address",
          "name": "",
          "type": "address"
        }
      ],
      "name": "redemptionRequests",
      "outputs": [
        {
          "internalType": "uint104",
          "name": "cooldownEnd",
          "type": "uint104"
        },
        {
          "internalType": "uint152",
          "name": "nUSDAmount",
          "type": "uint152"
        },
        {
          "internalType": "address",
          "name": "collateralAsset",
          "type": "address"
        }
      ],
      "stateMutability": "view",
      "type": "function"
    },
    {
      "inputs": [
        {
          "internalType": "address",
          "name": "from",
          "type": "address"
        },
        {
          "internalType": "address",
          "name": "to",
          "type": "address"
        }
      ],
      "name": "redistributeLockedAmount",
      "outputs": [],
      "stateMutability": "nonpayable",
      "type": "function"
    },
    {
      "inputs": [
        {
          "internalType": "address",
          "name": "_removedSigner",
          "type": "address"
        }
      ],
      "name": "removeDelegatedSigner",
      "outputs": [],
      "stateMutability": "nonpayable",
      "type": "function"
    },
    {
      "inputs": [
        {
          "internalType": "address",
          "name": "target",
          "type": "address"
        },
        {
          "internalType": "bool",
          "name": "isFullBlacklisting",
          "type": "bool"
        }
      ],
      "name": "removeFromBlacklist",
      "outputs": [],
      "stateMutability": "nonpayable",
      "type": "function"
    },
    {
      "inputs": [
        {
          "internalType": "bytes32",
          "name": "role",
          "type": "bytes32"
        },
        {
          "internalType": "address",
          "name": "account",
          "type": "address"
        }
      ],
      "name": "renounceRole",
      "outputs": [],
      "stateMutability": "nonpayable",
      "type": "function"
    },
    {
      "inputs": [
        {
          "internalType": "bytes32",
          "name": "role",
          "type": "bytes32"
        },
        {
          "internalType": "address",
          "name": "account",
          "type": "address"
        }
      ],
      "name": "revokeRole",
      "outputs": [],
      "stateMutability": "nonpayable",
      "type": "function"
    },
    {
      "inputs": [
        {
          "internalType": "uint24",
          "name": "duration",
          "type": "uint24"
        }
      ],
      "name": "setCooldownDuration",
      "outputs": [],
      "stateMutability": "nonpayable",
      "type": "function"
    },
    {
      "inputs": [
        {
          "internalType": "address",
          "name": "_delegateTo",
          "type": "address"
        }
      ],
      "name": "setDelegatedSigner",
      "outputs": [],
      "stateMutability": "nonpayable",
      "type": "function"
    },
    {
      "inputs": [
        {
          "internalType": "address",
          "name": "_feeTreasury",
          "type": "address"
        }
      ],
      "name": "setFeeTreasury",
      "outputs": [],
      "stateMutability": "nonpayable",
      "type": "function"
    },
    {
      "inputs": [
        {
          "internalType": "address",
          "name": "_keyringAddress",
          "type": "address"
        },
        {
          "internalType": "uint256",
          "name": "_policyId",
          "type": "uint256"
        }
      ],
      "name": "setKeyringConfig",
      "outputs": [],
      "stateMutability": "nonpayable",
      "type": "function"
    },
    {
      "inputs": [
        {
          "internalType": "address",
          "name": "account",
          "type": "address"
        },
        {
          "internalType": "bool",
          "name": "status",
          "type": "bool"
        }
      ],
      "name": "setKeyringWhitelist",
      "outputs": [],
      "stateMutability": "nonpayable",
      "type": "function"
    },
    {
      "inputs": [
        {
          "internalType": "uint256",
          "name": "_maxMintPerBlock",
          "type": "uint256"
        }
      ],
      "name": "setMaxMintPerBlock",
      "outputs": [],
      "stateMutability": "nonpayable",
      "type": "function"
    },
    {
      "inputs": [
        {
          "internalType": "uint256",
          "name": "_maxRedeemPerBlock",
          "type": "uint256"
        }
      ],
      "name": "setMaxRedeemPerBlock",
      "outputs": [],
      "stateMutability": "nonpayable",
      "type": "function"
    },
    {
      "inputs": [
        {
          "internalType": "uint256",
          "name": "_minMintAmount",
          "type": "uint256"
        }
      ],
      "name": "setMinMintAmount",
      "outputs": [],
      "stateMutability": "nonpayable",
      "type": "function"
    },
    {
      "inputs": [
        {
          "internalType": "uint256",
          "name": "_minRedeemAmount",
          "type": "uint256"
        }
      ],
      "name": "setMinRedeemAmount",
      "outputs": [],
      "stateMutability": "nonpayable",
      "type": "function"
    },
    {
      "inputs": [
        {
          "internalType": "uint16",
          "name": "_mintFeeBps",
          "type": "uint16"
        }
      ],
      "name": "setMintFee",
      "outputs": [],
      "stateMutability": "nonpayable",
      "type": "function"
    },
    {
      "inputs": [
        {
          "internalType": "uint16",
          "name": "_redeemFeeBps",
          "type": "uint16"
        }
      ],
      "name": "setRedeemFee",
      "outputs": [],
      "stateMutability": "nonpayable",
      "type": "function"
    },
    {
      "inputs": [
        {
          "internalType": "bytes4",
          "name": "interfaceId",
          "type": "bytes4"
        }
      ],
      "name": "supportsInterface",
      "outputs": [
        {
          "internalType": "bool",
          "name": "",
          "type": "bool"
        }
      ],
      "stateMutability": "view",
      "type": "function"
    },
    {
      "inputs": [],
      "name": "symbol",
      "outputs": [
        {
          "internalType": "string",
          "name": "",
          "type": "string"
        }
      ],
      "stateMutability": "view",
      "type": "function"
    },
    {
      "inputs": [],
      "name": "totalAssets",
      "outputs": [
        {
          "internalType": "uint256",
          "name": "",
          "type": "uint256"
        }
      ],
      "stateMutability": "view",
      "type": "function"
    },
    {
      "inputs": [],
      "name": "totalSupply",
      "outputs": [
        {
          "internalType": "uint256",
          "name": "",
          "type": "uint256"
        }
      ],
      "stateMutability": "view",
      "type": "function"
    },
    {
      "inputs": [
        {
          "internalType": "address",
          "name": "to",
          "type": "address"
        },
        {
          "internalType": "uint256",
          "name": "value",
          "type": "uint256"
        }
      ],
      "name": "transfer",
      "outputs": [
        {
          "internalType": "bool",
          "name": "",
          "type": "bool"
        }
      ],
      "stateMutability": "nonpayable",
      "type": "function"
    },
    {
      "inputs": [
        {
          "internalType": "address",
          "name": "from",
          "type": "address"
        },
        {
          "internalType": "address",
          "name": "to",
          "type": "address"
        },
        {
          "internalType": "uint256",
          "name": "value",
          "type": "uint256"
        }
      ],
      "name": "transferFrom",
      "outputs": [
        {
          "internalType": "bool",
          "name": "",
          "type": "bool"
        }
      ],
      "stateMutability": "nonpayable",
      "type": "function"
    },
    {
      "inputs": [],
      "name": "unpause",
      "outputs": [],
      "stateMutability": "nonpayable",
      "type": "function"
    },
    {
      "inputs": [
        {
          "internalType": "uint256",
          "name": "",
          "type": "uint256"
        },
        {
          "internalType": "address",
          "name": "",
          "type": "address"
        },
        {
          "internalType": "address",
          "name": "",
          "type": "address"
        }
      ],
      "name": "withdraw",
      "outputs": [
        {
          "internalType": "uint256",
          "name": "",
          "type": "uint256"
        }
      ],
      "stateMutability": "pure",
      "type": "function"
    }
  ],
  "transactionHash": "0xba03ab4c361204c938c91d9e764804da1880ea4b44cffd2d257e2427d97889f7",
  "args": [
    "0xaadf74F8B93df357A94Ed726bADfB2d848d96F24",
    "0xfd8b2FC9b759Db3bCb8f713224e17119Dd9d3671",
    "1000000000000000000000000",
    "1000000000000000000000000"
  ],
  "numDeployments": 1,
  "solcInputHash": "790354e975bab344618765984adde8bb",
  "bytecode": "0x6101e06040523480156200001257600080fd5b5060405162004c5938038062004c59833981016040819052620000359162000631565b604051806040016040528060048152602001631b9554d160e21b81525080604051806040016040528060018152602001603160f81b81525086604051806040016040528060048152602001631b9554d160e21b815250604051806040016040528060048152602001631b9554d160e21b8152508160039081620000b9919062000725565b506004620000c8828262000725565b505050600080620000df836200036960201b60201c565b9150915081620000f1576012620000f3565b805b60ff1660a05250506001600160a01b0316608052620001148260056200044e565b61016052620001258160066200044e565b61018052815160208084019190912061012052815190820120610140524660e052620001b56101205161014051604080517f8b73c3c69bb8fe3d512ecc4cf759cc79239f7b179b0ffacaa9a75d522b39400f60208201529081019290925260608201524660808201523060a082015260009060c00160405160208183030381529060405280519060200120905090565b60c052505030610100525060016009556001600160a01b038416620001ed57604051635919af9760e11b815260040160405180910390fd5b6001600160a01b0383166200021557604051635919af9760e11b815260040160405180910390fd5b6001600160a01b0384166101a0526200023060008462000487565b506200025d7f3c63e605be3290ab6b04cfc46c6e1516e626d43236b034f09d7ede1d017beb0c8462000487565b506200028a7f85e8f2d6819d6b24108062d87ea08f54651bcb8960d98062d3faf96e7873b8b98462000487565b50620002b77f9f2df0fed2c77648de5860a4cc508cd0818c85b8b8a1ab4ceeef8d981c8956a68462000487565b50620002e47ff988e4fb62b8e14f4820fed03192306ddf4d7dbfa215595ba1c6ba4b76b369ee8462000487565b50620002f08262000539565b620002fb816200057f565b30306040516200030b906200060a565b6001600160a01b03928316815291166020820152604001604051809103906000f0801580156200033f573d6000803e3d6000fd5b506001600160a01b03166101c05250506012805462ffffff191662093a8017905550620008a99050565b60408051600481526024810182526020810180516001600160e01b031663313ce56760e01b17905290516000918291829182916001600160a01b03871691620003b29162000817565b600060405180830381855afa9150503d8060008114620003ef576040519150601f19603f3d011682016040523d82523d6000602084013e620003f4565b606091505b50915091508180156200040957506020815110155b15620004415760008180602001905181019062000427919062000835565b905060ff81116200043f576001969095509350505050565b505b5060009485945092505050565b60006020835110156200046e576200046683620005be565b905062000481565b816200047b848262000725565b5060ff90505b92915050565b60008281526008602090815260408083206001600160a01b038516845290915281205460ff16620005305760008381526008602090815260408083206001600160a01b03861684529091529020805460ff19166001179055620004e73390565b6001600160a01b0316826001600160a01b0316847f2f8788117e7eff1d82e926ec794901d17c78024a50270940304540a733656f0d60405160405180910390a450600162000481565b50600062000481565b600d80549082905560408051828152602081018490527fb4a832eb73ba0066dc45acd0d1f4454cdee155b17bdb1ccbabb428cc39750ad191015b60405180910390a15050565b600e80549082905560408051828152602081018490527f6fd3eacad9328fdc902c323518cfef3a2f6a9da89c40a7b82428adc2370114c3910162000573565b600080829050601f81511115620005f5578260405163305a27a960e01b8152600401620005ec91906200084f565b60405180910390fd5b8051620006028262000884565b179392505050565b61027580620049e483390190565b6001600160a01b03811681146200062e57600080fd5b50565b600080600080608085870312156200064857600080fd5b8451620006558162000618565b6020860151909450620006688162000618565b6040860151606090960151949790965092505050565b634e487b7160e01b600052604160045260246000fd5b600181811c90821680620006a957607f821691505b602082108103620006ca57634e487b7160e01b600052602260045260246000fd5b50919050565b601f82111562000720576000816000526020600020601f850160051c81016020861015620006fb5750805b601f850160051c820191505b818110156200071c5782815560010162000707565b5050505b505050565b81516001600160401b038111156200074157620007416200067e565b620007598162000752845462000694565b84620006d0565b602080601f831160018114620007915760008415620007785750858301515b600019600386901b1c1916600185901b1785556200071c565b600085815260208120601f198616915b82811015620007c257888601518255948401946001909101908401620007a1565b5085821015620007e15787850151600019600388901b60f8161c191681555b5050505050600190811b01905550565b60005b838110156200080e578181015183820152602001620007f4565b50506000910152565b600082516200082b818460208701620007f1565b9190910192915050565b6000602082840312156200084857600080fd5b5051919050565b602081526000825180602084015262000870816040850160208701620007f1565b601f01601f19169190910160400192915050565b80516020808301519190811015620006ca5760001960209190910360031b1b16919050565b60805160a05160c05160e05161010051610120516101405161016051610180516101a0516101c05161406362000981600039600081816109290152818161143301528181611fac015261223a0152600081816109f60152818161112601528181611226015281816114d4015281816120fe01528181612ac501528181612c570152612cab01526000612ec301526000612e96015260006126b20152600061268a015260006125e50152600061260f01526000612639015260005050600081816106e401528181610c8501526129b701526140636000f3fe608060405234801561001057600080fd5b50600436106104ee5760003560e01c806384b0196e1161028e578063bfa37e3711610167578063d55be8c6116100d9578063e1a4521811610092578063e1a4521814610c37578063e6a2966614610c40578063e6dee91014610c48578063e77b4c0f14610c5b578063ef8b30f714610af0578063f298f42c14610c6e57600080fd5b8063d55be8c614610bb1578063d636b05f14610bba578063d6fd317514610bc3578063d8369d7514610bd8578063d905777e14610beb578063dd62ed3e14610bfe57600080fd5b8063ce23eb3c1161012b578063ce23eb3c14610b03578063ce96cb7714610b16578063cf9cc76614610b29578063d505accf14610b64578063d539139314610b77578063d547741f14610b9e57600080fd5b8063bfa37e3714610ac2578063c336a08414610ad5578063c5ff38bd14610ae8578063c63d75b614610737578063c6e6f59214610af057600080fd5b80639ebcc25211610200578063acea6c1a116101c4578063acea6c1a14610a46578063b3d7f6b914610a69578063b460af9414610a7c578063b6c7806314610a8f578063ba08765214610a7c578063bd0d9cbd14610aaf57600080fd5b80639ebcc252146109de578063a0580fee146109f1578063a0776b8214610a18578063a217fddf14610a2b578063a9059cbb14610a3357600080fd5b8063928907dd11610252578063928907dd1461098457806394bf804d1461098d57806395d89b41146109a057806397c8bcc1146109a857806398ba8434146109b65780639cd29136146109cb57600080fd5b806384b0196e1461090957806384be50e61461092457806389e6f5ca1461094b57806391c022a51461095e57806391d148541461097157600080fd5b806336568abe116103cb57806353f77ed11161033d5780636e553f65116102f65780636e553f651461089657806370a08231146108a95780637c77a6e2146108d25780637ecebe00146108e5578063844452fa146108f85780638456cb591461090157600080fd5b806353f77ed1146107bf5780635c975abb146107d25780635d24f1f4146107dd5780635e4a9a65146107f257806360dc234014610874578063695ae07d1461088e57600080fd5b806340c10f191161038f57806340c10f191461074c57806340e492161461075f578063410b24241461077257806342966c68146107995780634cdad5061461054f57806353863613146107ac57600080fd5b806336568abe146106cf57806338d52e0f146106e25780633e3679d31461071c5780633f4ba83a1461072f578063402d267d1461073757600080fd5b80631d85d796116104645780632ba32991116104285780632ba329911461064f5780632e718ab71461066f5780632f2ff15d14610696578063313ce567146106a957806335269315146106b85780633644e515146106c757600080fd5b80631d85d796146105d55780631e9049cf146105e857806323b872dd14610606578063248a9ca31461061957806329b6320d1461063c57600080fd5b80630912ae6d116104b65780630912ae6d14610562578063095ea7b31461056b57806309f6442c1461057e5780630a28a477146105a5578063157a4028146105b857806318160ddd146105cd57600080fd5b806301e1d114146104f357806301e9d7571461050e57806301ffc9a71461051757806306fdde031461053a57806307a2d13a1461054f575b600080fd5b6104fb610c81565b6040519081526020015b60405180910390f35b6104fb600f5481565b61052a6105253660046139b6565b610d13565b6040519015158152602001610505565b610542610d4a565b6040516105059190613a26565b6104fb61055d366004613a39565b610ddc565b6104fb60105481565b61052a610579366004613a6e565b610de9565b6014546105929062010000900461ffff1681565b60405161ffff9091168152602001610505565b6104fb6105b3366004613a39565b610e01565b6105cb6105c6366004613a98565b610e0e565b005b6002546104fb565b6105cb6105e3366004613a39565b610ebf565b6105f26276a70081565b60405162ffffff9091168152602001610505565b61052a610614366004613ab3565b610f11565b6104fb610627366004613a39565b60009081526008602052604090206001015490565b6105cb61064a366004613aef565b610f37565b6104fb61065d366004613a39565b600b6020526000908152604090205481565b6104fb7f85e8f2d6819d6b24108062d87ea08f54651bcb8960d98062d3faf96e7873b8b981565b6105cb6106a4366004613b13565b610fb9565b60405160128152602001610505565b6012546105f29062ffffff1681565b6104fb610fe4565b6105cb6106dd366004613b13565b610fee565b7f00000000000000000000000000000000000000000000000000000000000000005b6040516001600160a01b039091168152602001610505565b6105cb61072a366004613a39565b61101a565b6105cb611063565b6104fb610745366004613a98565b5060001990565b6105cb61075a366004613a6e565b611086565b6105cb61076d366004613a98565b61118f565b6104fb7ff988e4fb62b8e14f4820fed03192306ddf4d7dbfa215595ba1c6ba4b76b369ee81565b6105cb6107a7366004613a39565b6111e5565b6105cb6107ba366004613a98565b61128d565b601554610704906001600160a01b031681565b600a5460ff1661052a565b6104fb600080516020613fee83398151915281565b61083e610800366004613a98565b601360205260009081526040902080546001909101546001600160681b03821691600160681b90046001600160981b0316906001600160a01b031683565b604080516001600160681b0390941684526001600160981b0390921660208401526001600160a01b031690820152606001610505565b60145461070490600160201b90046001600160a01b031681565b6104fb6112e6565b6104fb6108a4366004613b13565b61168e565b6104fb6108b7366004613a98565b6001600160a01b031660009081526020819052604090205490565b6104fb6108e0366004613b3f565b6116c2565b6104fb6108f3366004613a98565b611743565b6104fb600e5481565b6105cb611761565b610911611781565b6040516105059796959493929190613b7b565b6107047f000000000000000000000000000000000000000000000000000000000000000081565b61052a610959366004613a98565b6117c7565b6105cb61096c366004613aef565b611886565b61052a61097f366004613b13565b611914565b6104fb600d5481565b6104fb61099b366004613b13565b61193f565b61054261195d565b6014546105929061ffff1681565b6104fb600080516020613fce83398151915281565b6105cb6109d9366004613a39565b61196c565b6104fb6109ec366004613a6e565b611980565b6107047f000000000000000000000000000000000000000000000000000000000000000081565b6105cb610a26366004613c14565b6119a9565b6104fb600081565b61052a610a41366004613a6e565b611aad565b61052a610a54366004613a98565b60176020526000908152604090205460ff1681565b6104fb610a77366004613a39565b611abb565b6104fb610a8a366004613c3e565b611ac8565b6104fb610a9d366004613a39565b600c6020526000908152604090205481565b6105cb610abd366004613a6e565b611b08565b6105cb610ad0366004613a98565b611b6f565b6105cb610ae3366004613c7f565b611c01565b6105cb611c62565b6104fb610afe366004613a39565b611c8e565b6105cb610b11366004613cb6565b611c9b565b6104fb610b24366004613a98565b611d21565b610b57610b37366004613c14565b601160209081526000928352604080842090915290825290205460ff1681565b6040516105059190613cf1565b6105cb610b72366004613d28565b611d45565b6104fb7f9f2df0fed2c77648de5860a4cc508cd0818c85b8b8a1ab4ceeef8d981c8956a681565b6105cb610bac366004613b13565b611e7f565b6105926103e881565b6104fb60165481565b6104fb60008051602061400e83398151915281565b6105cb610be6366004613a39565b611ea4565b6104fb610bf9366004613a98565b611eb8565b6104fb610c0c366004613c14565b6001600160a01b03918216600090815260016020908152604080832093909416825291909152205490565b61059261271081565b6105cb611ed6565b6105cb610c56366004613c7f565b61204b565b6105cb610c69366004613a6e565b6120ae565b6105cb610c7c366004613c7f565b612353565b60007f00000000000000000000000000000000000000000000000000000000000000006040516370a0823160e01b81523060048201526001600160a01b0391909116906370a0823190602401602060405180830381865afa158015610cea573d6000803e3d6000fd5b505050506040513d601f19601f82011682018060405250810190610d0e9190613d95565b905090565b60006001600160e01b03198216637965db0b60e01b1480610d4457506301ffc9a760e01b6001600160e01b03198316145b92915050565b606060038054610d5990613dae565b80601f0160208091040260200160405190810160405280929190818152602001828054610d8590613dae565b8015610dd25780601f10610da757610100808354040283529160200191610dd2565b820191906000526020600020905b815481529060010190602001808311610db557829003601f168201915b5050505050905090565b6000610d448260006123e6565b600033610df7818585612420565b5060019392505050565b6000610d44826001612432565b60013360009081526011602090815260408083206001600160a01b038616845290915290205460ff166002811115610e4857610e48613cdb565b14610e6657604051631ed6bf0360e21b815260040160405180910390fd5b3360008181526011602090815260408083206001600160a01b0386168085529252808320805460ff19166002179055519092917fed6a1f03e365a374bf7e9fe68b09cf74960528af699108cb461241efc5ded90991a350565b6000610eca81612462565b600f80549083905560408051828152602081018590527fa9d547bad523b2016561d73c8b6f0de927b53e678d07b339173ea7b469ec896991015b60405180910390a1505050565b600033610f1f85828561246c565b610f2a8585856124e5565b60019150505b9392505050565b6000610f4281612462565b6103e861ffff83161115610f69576040516358d620b360e01b815260040160405180910390fd5b6014805461ffff84811661ffff1983168117909355604080519190921680825260208201939093527f3819eecd18a690739c45cc31dd950f987f756141913ef399a6319f6e232c44919101610f04565b600082815260086020526040902060010154610fd481612462565b610fde8383612544565b50505050565b6000610d0e6125d8565b8161100c5760405163185b73b160e01b815260040160405180910390fd5b6110168282612703565b5050565b600061102581612462565b601080549083905560408051828152602081018590527f4907c47f25fae2d61aebd707efafc14370bd6a07453c1c215ef0399c6b7866ed9101610f04565b60008051602061400e83398151915261107b81612462565b611083612736565b50565b7f9f2df0fed2c77648de5860a4cc508cd0818c85b8b8a1ab4ceeef8d981c8956a66110b081612462565b6110b8612788565b6001600160a01b0383166110df57604051635919af9760e11b815260040160405180910390fd5b816000036111005760405163162908e360e11b815260040160405180910390fd5b61110a83836127ac565b6040516355313a7b60e01b8152306004820152602481018390527f00000000000000000000000000000000000000000000000000000000000000006001600160a01b0316906355313a7b90604401600060405180830381600087803b15801561117257600080fd5b505af1158015611186573d6000803e3d6000fd5b50505050505050565b6001600160a01b0381166000818152601160209081526040808320338085529252808320805460ff19169055519092917f97b59d736dc70ae61c6b68295c19a1311cc4a48cbb9eb25c4dabf18c7f650a8a91a350565b806000036112065760405163162908e360e11b815260040160405180910390fd5b61121033826127e2565b604051630852cd8d60e31b8152600481018290527f00000000000000000000000000000000000000000000000000000000000000006001600160a01b0316906342966c6890602401600060405180830381600087803b15801561127257600080fd5b505af1158015611286573d6000803e3d6000fd5b5050505050565b6001600160a01b0381166000818152601160209081526040808320338085529252808320805460ff19166001179055519092917f769c75d94dacde64c18415b5a72f6d26e7f62b356387f8da812c4b0aa66a0f2591a350565b60006112f0612818565b6112f8612788565b336000908152601360209081526040808320815160608101835281546001600160681b0381168252600160681b90046001600160981b03169381018490526001909101546001600160a01b031691810191909152910361136b5760405163302d029360e01b815260040160405180910390fd5b80516001600160681b03164210156113955760405162ea2d0d60e51b815260040160405180910390fd5b6113ad600080516020613fce83398151915233611914565b156113cb57604051637a851da960e11b815260040160405180910390fd5b6113d433612842565b6020818101516040808401513360009081526013909452818420938455600190930180546001600160a01b03191690555163f3fef3a360e01b81523060048201526001600160981b039091166024820181905291906001600160a01b037f0000000000000000000000000000000000000000000000000000000000000000169063f3fef3a390604401600060405180830381600087803b15801561147757600080fd5b505af115801561148b573d6000803e3d6000fd5b505050506114998183612884565b93506114a530836127e2565b604051635c833bfd60e01b81526001600160a01b038281166004830152602482018490523060448301526000917f000000000000000000000000000000000000000000000000000000000000000090911690635c833bfd906064016020604051808303816000875af115801561151f573d6000803e3d6000fd5b505050506040513d601f19601f820116820180604052508101906115439190613d95565b601454909150600090829062010000900461ffff16158015906115775750601454600160201b90046001600160a01b031615155b1561162057601454612710906115979062010000900461ffff1685613dfe565b6115a19190613e2b565b91506115ad8284613e3f565b6014549091506115d1906001600160a01b0386811691600160201b90041684612953565b6014546040805184815260006020820152600160201b9092046001600160a01b0316917f050d44233876ac1dc2b309a53c450bc5e76aa2cdd273ca707147c242f0cad6c6910160405180910390a25b6116346001600160a01b0385163383612953565b60408051868152602081018390526001600160a01b0386169133917ffd418381fd385fa40c54005e4745aac73c2bc925bdbcf3ace12712373c8674a7910160405180910390a39550505050505061168b6001600955565b90565b60006000196116a1565b60405180910390fd5b60006116ac85611c8e565b90506116ba338587846129b2565b949350505050565b60006116cc612818565b6116d4612788565b60023360009081526011602090815260408083206001600160a01b038716845290915290205460ff16600281111561170e5761170e613cdb565b1461172c57604051638baa579f60e01b815260040160405180910390fd5b611737848484612a44565b9050610f306001600955565b6001600160a01b038116600090815260076020526040812054610d44565b60008051602061400e83398151915261177981612462565b611083612e52565b600060608060008060006060611795612e8f565b61179d612ebc565b60408051600080825260208201909252600f60f81b9b939a50919850469750309650945092509050565b6015546000906001600160a01b03166117e257506001919050565b6001600160a01b03821660009081526017602052604090205460ff161561180b57506001919050565b60155460165460405163043bb58960e51b815260048101919091526001600160a01b038481166024830152909116908190638776b12090604401602060405180830381865afa158015611862573d6000803e3d6000fd5b505050506040513d601f19601f82011682018060405250810190610f309190613e52565b600061189181612462565b6103e861ffff831611156118b8576040516358d620b360e01b815260040160405180910390fd5b6014805461ffff8481166201000081810263ffff00001985161790945560408051949093049091168084526020840191909152917f16593e74d00085e90c98de5e8f055f08527ac848f1f8ef1d3b3ec7c4f4e819ff9101610f04565b60009182526008602090815260408084206001600160a01b0393909316845291905290205460ff1690565b6000600019600061194f85611abb565b90506116ba338583886129b2565b606060048054610d5990613dae565b600061197781612462565b61101682612ee9565b600061198a612818565b611992612788565b61199d838333612a44565b9050610d446001600955565b6119b1612818565b60006119bc81612462565b6119d4600080516020613fce83398151915284611914565b80156119f557506119f3600080516020613fce83398151915283611914565b155b15611a89576001600160a01b038316600090815260208190526040902054611a1d84826127e2565b6001600160a01b03831615611a3657611a3683826127ac565b826001600160a01b0316846001600160a01b03167fb8ef21f2b52f8ca740012254a6b10f17d2fd6e589f97ebf401fde0e8b921893783604051611a7b91815260200190565b60405180910390a350611aa2565b604051637a851da960e11b815260040160405180910390fd5b506110166001600955565b600033610df78185856124e5565b6000610d448260016123e6565b60405162461bcd60e51b815260206004820152601260248201527155736520636f6f6c646f776e52656465656d60701b6044820152600090606401611698565b6000611b1381612462565b601580546001600160a01b0319166001600160a01b03851690811790915560168390556040518381527fdd311e842d0dd0d276250faf64c7c9bed12bf94d1e4c1e33b304102684994fc8906020015b60405180910390a2505050565b6000611b7a81612462565b6001600160a01b038216611ba157604051635919af9760e11b815260040160405180910390fd5b601480546001600160a01b03848116600160201b818102640100000000600160c01b031985161790945560405193909204169182907fb213ad27ce6db647182439e573968415546e6db3ebfb04b3e84d6b0412025d4190600090a3505050565b7ff988e4fb62b8e14f4820fed03192306ddf4d7dbfa215595ba1c6ba4b76b369ee611c2b81612462565b600082611c4657600080516020613fee833981519152611c56565b600080516020613fce8339815191525b90506112868185612f2f565b60008051602061400e833981519152611c7a81612462565b611c846000612ee9565b6110836000612f9c565b6000610d44826000612432565b6000611ca681612462565b6276a70062ffffff83161115611ccf57604051637475d84d60e11b815260040160405180910390fd5b6012805462ffffff84811662ffffff1983168117909355604080519190921680825260208201939093527f180eacdf7dbaeecaa983d93173b4285db2f2c0de0044697e1f932bbbb73dcaa69101610f04565b6001600160a01b038116600090815260208190526040812054610d449060006123e6565b83421115611d695760405163313c898160e11b815260048101859052602401611698565b60007f6e71edae12b1b97f4d1f60370fef10105fa2faae0126114a169c64845d6126c9888888611db68c6001600160a01b0316600090815260076020526040902080546001810190915590565b6040805160208101969096526001600160a01b0394851690860152929091166060840152608083015260a082015260c0810186905260e0016040516020818303038152906040528051906020012090506000611e1182612fda565b90506000611e2182878787613007565b9050896001600160a01b0316816001600160a01b031614611e68576040516325c0072360e11b81526001600160a01b0380831660048301528b166024820152604401611698565b611e738a8a8a612420565b50505050505050505050565b600082815260086020526040902060010154611e9a81612462565b610fde8383612f2f565b6000611eaf81612462565b61101682612f9c565b6001600160a01b038116600090815260208190526040812054610d44565b611ede612818565b336000908152601360209081526040808320815160608101835281546001600160681b0381168252600160681b90046001600160981b03169381018490526001909101546001600160a01b0316918101919091529103611f515760405163302d029360e01b815260040160405180910390fd5b60208181015133600081815260139093526040808420938455600190930180546001600160a01b0319169055915163f3fef3a360e01b815260048101929092526001600160981b031660248201819052906001600160a01b037f0000000000000000000000000000000000000000000000000000000000000000169063f3fef3a390604401600060405180830381600087803b158015611ff057600080fd5b505af1158015612004573d6000803e3d6000fd5b50506040518381523392507f9aec5cafc1451c1485e4a0099bd4dfb4c9d2bb972b4e5c798da07db8323deaa3915060200160405180910390a250506120496001600955565b565b600061205681612462565b6001600160a01b038316600081815260176020908152604091829020805460ff191686151590811790915591519182527f8c3adfde14eadcbc1e3834471b73f01eeff0dd863c272b46a8bc3d1b9491479b9101611b62565b6120b6612818565b6120be612788565b806000036120df5760405163162908e360e11b815260040160405180910390fd5b604051634df48c7360e11b81526001600160a01b0383811660048301527f00000000000000000000000000000000000000000000000000000000000000001690639be918e690602401602060405180830381865afa158015612145573d6000803e3d6000fd5b505050506040513d601f19601f820116820180604052508101906121699190613e52565b61218657604051630928045160e21b815260040160405180910390fd5b33600090815260136020526040902054600160681b90046001600160981b0316156121c457604051631d761c8160e01b815260040160405180910390fd5b60006010541180156121d7575060105481105b156121f55760405163839e718d60e01b815260040160405180910390fd5b61220d600080516020613fce83398151915233611914565b1561222b57604051637a851da960e11b815260040160405180910390fd5b61223433612842565b61225f337f0000000000000000000000000000000000000000000000000000000000000000836124e5565b6040805160608101909152601254819061227e9062ffffff1642613e6f565b6001600160681b0390811682526001600160981b038085166020808501919091526001600160a01b03808816604095860181905233600081815260138552879020885194890151909516600160681b0293909516929092178355949093015160019091018054919094166001600160a01b0319909116179092556012549091907fc036344f1c9bf874056dda112ca8fe6bcdaf77b9be2ef53968905f8391734dff9084906123319062ffffff1642613e6f565b6040805192835260208301919091520160405180910390a36110166001600955565b7ff988e4fb62b8e14f4820fed03192306ddf4d7dbfa215595ba1c6ba4b76b369ee61237d81612462565b82612389600082611914565b156123a7576040516303f9f15d60e61b815260040160405180910390fd5b6000836123c257600080516020613fee8339815191526123d2565b600080516020613fce8339815191525b90506123de8186612544565b505050505050565b6000610f306123f3610c81565b6123fe906001613e6f565b61240a6000600a613f66565b6002546124179190613e6f565b85919085613035565b61242d8383836001613082565b505050565b6000610f3061244282600a613f66565b60025461244f9190613e6f565b612457610c81565b612417906001613e6f565b6110838133613149565b6001600160a01b03838116600090815260016020908152604080832093861683529290522054600019811015610fde57818110156124d657604051637dc7a0d960e11b81526001600160a01b03841660048201526024810182905260448101839052606401611698565b610fde84848484036000613082565b6001600160a01b03831661250f57604051634b637e8f60e11b815260006004820152602401611698565b6001600160a01b0382166125395760405163ec442f0560e01b815260006004820152602401611698565b61242d838383613182565b60006125508383611914565b6125d05760008381526008602090815260408083206001600160a01b03861684529091529020805460ff191660011790556125883390565b6001600160a01b0316826001600160a01b0316847f2f8788117e7eff1d82e926ec794901d17c78024a50270940304540a733656f0d60405160405180910390a4506001610d44565b506000610d44565b6000306001600160a01b037f00000000000000000000000000000000000000000000000000000000000000001614801561263157507f000000000000000000000000000000000000000000000000000000000000000046145b1561265b57507f000000000000000000000000000000000000000000000000000000000000000090565b610d0e604080517f8b73c3c69bb8fe3d512ecc4cf759cc79239f7b179b0ffacaa9a75d522b39400f60208201527f0000000000000000000000000000000000000000000000000000000000000000918101919091527f000000000000000000000000000000000000000000000000000000000000000060608201524660808201523060a082015260009060c00160405160208183030381529060405280519060200120905090565b6001600160a01b038116331461272c5760405163334bd91960e11b815260040160405180910390fd5b61242d8282612f2f565b61273e61320d565b600a805460ff191690557f5db9ee0a495bf2e6ff9c91a7834c1ba4fdd244a5e8aa4e537bd38aeae4b073aa335b6040516001600160a01b03909116815260200160405180910390a1565b600a5460ff16156120495760405163d93c066560e01b815260040160405180910390fd5b6001600160a01b0382166127d65760405163ec442f0560e01b815260006004820152602401611698565b61101660008383613182565b6001600160a01b03821661280c57604051634b637e8f60e11b815260006004820152602401611698565b61101682600083613182565b60026009540361283b57604051633ee5aeb560e01b815260040160405180910390fd5b6002600955565b6001600160a01b0381166128535750565b61285c816117c7565b61108357604051637eba2cb760e11b81526001600160a01b0382166004820152602401611698565b600080836001600160a01b031663313ce5676040518163ffffffff1660e01b8152600401602060405180830381865afa1580156128c5573d6000803e3d6000fd5b505050506040513d601f19601f820116820180604052508101906128e99190613f75565b90508060ff166012036128ff5782915050610d44565b60128160ff16101561293357612916816012613f92565b61292190600a613f66565b61292b9084613e2b565b915050610d44565b61293e601282613f92565b61294990600a613f66565b61292b9084613dfe565b6040516001600160a01b0383811660248301526044820183905261242d91859182169063a9059cbb906064015b604051602081830303815290604052915060e01b6020820180516001600160e01b038381831617835250505050613230565b6129de7f00000000000000000000000000000000000000000000000000000000000000008530856132a1565b6129e883826127ac565b826001600160a01b0316846001600160a01b03167fdcbc1c05240f31ff3ad067ef1ee35ce4997762752e3a095284754544f4c709d78484604051612a36929190918252602082015260400190565b60405180910390a350505050565b600d54436000908152600b602052604081205490918491612a66908390613e6f565b1115612a8557604051630fbf0bc960e01b815260040160405180910390fd5b83600003612aa65760405163162908e360e11b815260040160405180910390fd5b604051634df48c7360e11b81526001600160a01b0386811660048301527f00000000000000000000000000000000000000000000000000000000000000001690639be918e690602401602060405180830381865afa158015612b0c573d6000803e3d6000fd5b505050506040513d601f19601f82011682018060405250810190612b309190613e52565b612b4d57604051630928045160e21b815260040160405180910390fd5b6001600160a01b038316612b7457604051635919af9760e11b815260040160405180910390fd5b612b8c600080516020613fee83398151915233611914565b80612baa5750612baa600080516020613fee83398151915284611914565b15612bc857604051637a851da960e11b815260040160405180910390fd5b612bd133612842565b612bdb85856132da565b91506000600f54118015612bf05750600f5482105b15612c0e5760405163839e718d60e01b815260040160405180910390fd5b436000908152600b602052604081208054849290612c2d908490613e6f565b90915550612c4890506001600160a01b0386168430876132a1565b612c7c6001600160a01b0386167f000000000000000000000000000000000000000000000000000000000000000086613377565b604051630d4d151360e01b81526001600160a01b038681166004830152602482018690523060448301526000917f000000000000000000000000000000000000000000000000000000000000000090911690630d4d1513906064016020604051808303816000875af1158015612cf6573d6000803e3d6000fd5b505050506040513d601f19601f82011682018060405250810190612d1a9190613d95565b601454909150600090829061ffff1615801590612d485750601454600160201b90046001600160a01b031615155b15612de75760145461271090612d629061ffff1685613dfe565b612d6c9190613e2b565b9150612d788284613e3f565b601454909150612d9890600160201b90046001600160a01b0316836127ac565b6014546040805184815260016020820152600160201b9092046001600160a01b0316917f050d44233876ac1dc2b309a53c450bc5e76aa2cdd273ca707147c242f0cad6c6910160405180910390a25b612df186826127ac565b876001600160a01b0316866001600160a01b03167f2f00e3cdd69a77be7ed215ec7b2a36784dd158f921fca79ac29deffa353fe6ee8984604051612e3f929190918252602082015260400190565b60405180910390a3979650505050505050565b612e5a612788565b600a805460ff191660011790557f62e78cea01bee320cd4e420270b5ea74000d11b0c9f74754ebdbfc544b05a25861276b3390565b6060610d0e7f00000000000000000000000000000000000000000000000000000000000000006005613401565b6060610d0e7f00000000000000000000000000000000000000000000000000000000000000006006613401565b600d80549082905560408051828152602081018490527fb4a832eb73ba0066dc45acd0d1f4454cdee155b17bdb1ccbabb428cc39750ad191015b60405180910390a15050565b6000612f3b8383611914565b156125d05760008381526008602090815260408083206001600160a01b0386168085529252808320805460ff1916905551339286917ff6391f5c32d9c69d2a47ea670b442974b53935d1edc7fd64eb21e047a839171b9190a4506001610d44565b600e80549082905560408051828152602081018490527f6fd3eacad9328fdc902c323518cfef3a2f6a9da89c40a7b82428adc2370114c39101612f23565b6000610d44612fe76125d8565b8360405161190160f01b8152600281019290925260228201526042902090565b600080600080613019888888886134ac565b925092509250613029828261357b565b50909695505050505050565b600061306461304383613634565b801561305f57506000848061305a5761305a613e15565b868809115b151590565b61306f868686613661565b6130799190613e6f565b95945050505050565b6001600160a01b0384166130ac5760405163e602df0560e01b815260006004820152602401611698565b6001600160a01b0383166130d657604051634a1406b160e11b815260006004820152602401611698565b6001600160a01b0380851660009081526001602090815260408083209387168352929052208290558015610fde57826001600160a01b0316846001600160a01b03167f8c5be1e5ebec7d5bd14f71427d1e84f3dd0314c0f7b2291e5b200ac8c7c3b92584604051612a3691815260200190565b6131538282611914565b6110165760405163e2517d3f60e01b81526001600160a01b038216600482015260248101839052604401611698565b61319a600080516020613fce83398151915284611914565b80156131ae57506001600160a01b03821615155b156131cc57604051637a851da960e11b815260040160405180910390fd5b6131e4600080516020613fce83398151915283611914565b1561320257604051637a851da960e11b815260040160405180910390fd5b61242d838383613716565b600a5460ff1661204957604051638dfc202b60e01b815260040160405180910390fd5b600080602060008451602086016000885af180613253576040513d6000823e3d81fd5b50506000513d9150811561326b578060011415613278565b6001600160a01b0384163b155b15610fde57604051635274afe760e01b81526001600160a01b0385166004820152602401611698565b6040516001600160a01b038481166024830152838116604483015260648201839052610fde9186918216906323b872dd90608401612980565b600080836001600160a01b031663313ce5676040518163ffffffff1660e01b8152600401602060405180830381865afa15801561331b573d6000803e3d6000fd5b505050506040513d601f19601f8201168201806040525081019061333f9190613f75565b90508060ff166012036133555782915050610d44565b60128160ff16101561336c5761293e816012613f92565b612916601282613f92565b604051636eb1769f60e11b81523060048201526001600160a01b0383811660248301526000919085169063dd62ed3e90604401602060405180830381865afa1580156133c7573d6000803e3d6000fd5b505050506040513d601f19601f820116820180604052508101906133eb9190613d95565b9050610fde84846133fc8585613e6f565b613840565b606060ff831461341b57613414836138d0565b9050610d44565b81805461342790613dae565b80601f016020809104026020016040519081016040528092919081815260200182805461345390613dae565b80156134a05780601f10613475576101008083540402835291602001916134a0565b820191906000526020600020905b81548152906001019060200180831161348357829003601f168201915b50505050509050610d44565b600080807f7fffffffffffffffffffffffffffffff5d576e7357a4501ddfe92f46681b20a08411156134e75750600091506003905082613571565b604080516000808252602082018084528a905260ff891692820192909252606081018790526080810186905260019060a0016020604051602081039080840390855afa15801561353b573d6000803e3d6000fd5b5050604051601f1901519150506001600160a01b03811661356757506000925060019150829050613571565b9250600091508190505b9450945094915050565b600082600381111561358f5761358f613cdb565b03613598575050565b60018260038111156135ac576135ac613cdb565b036135ca5760405163f645eedf60e01b815260040160405180910390fd5b60028260038111156135de576135de613cdb565b036135ff5760405163fce698f760e01b815260048101829052602401611698565b600382600381111561361357613613613cdb565b03611016576040516335e2f38360e21b815260048101829052602401611698565b6000600282600381111561364a5761364a613cdb565b6136549190613fab565b60ff166001149050919050565b6000806000613670868661390f565b91509150816000036136955783818161368b5761368b613e15565b0492505050610f30565b8184116136ac576136ac600385150260111861392d565b6000848688096000868103871696879004966002600389028118808a02820302808a02820302808a02820302808a02820302808a02820302808a02909103029181900381900460010185841190960395909502919093039390930492909217029150509392505050565b6001600160a01b0383166137415780600260008282546137369190613e6f565b909155506137b39050565b6001600160a01b038316600090815260208190526040902054818110156137945760405163391434e360e21b81526001600160a01b03851660048201526024810182905260448101839052606401611698565b6001600160a01b03841660009081526020819052604090209082900390555b6001600160a01b0382166137cf576002805482900390556137ee565b6001600160a01b03821660009081526020819052604090208054820190555b816001600160a01b0316836001600160a01b03167fddf252ad1be2c89b69c2b068fc378daa952ba7f163c4a11628f55a4df523b3ef8360405161383391815260200190565b60405180910390a3505050565b604080516001600160a01b038416602482015260448082018490528251808303909101815260649091019091526020810180516001600160e01b031663095ea7b360e01b179052613891848261393f565b610fde576040516001600160a01b038481166024830152600060448301526138c691869182169063095ea7b390606401612980565b610fde8482613230565b606060006138dd8361398e565b604080516020808252818301909252919250600091906020820181803683375050509182525060208101929092525090565b60008060001983850993909202808410938190039390930393915050565b634e487b71600052806020526024601cfd5b6000806000806020600086516020880160008a5af192503d91506000519050828015613984575081156139755780600114613984565b6000866001600160a01b03163b115b9695505050505050565b600060ff8216601f811115610d4457604051632cd44ac360e21b815260040160405180910390fd5b6000602082840312156139c857600080fd5b81356001600160e01b031981168114610f3057600080fd5b6000815180845260005b81811015613a06576020818501810151868301820152016139ea565b506000602082860101526020601f19601f83011685010191505092915050565b602081526000610f3060208301846139e0565b600060208284031215613a4b57600080fd5b5035919050565b80356001600160a01b0381168114613a6957600080fd5b919050565b60008060408385031215613a8157600080fd5b613a8a83613a52565b946020939093013593505050565b600060208284031215613aaa57600080fd5b610f3082613a52565b600080600060608486031215613ac857600080fd5b613ad184613a52565b9250613adf60208501613a52565b9150604084013590509250925092565b600060208284031215613b0157600080fd5b813561ffff81168114610f3057600080fd5b60008060408385031215613b2657600080fd5b82359150613b3660208401613a52565b90509250929050565b600080600060608486031215613b5457600080fd5b613b5d84613a52565b925060208401359150613b7260408501613a52565b90509250925092565b60ff60f81b881681526000602060e06020840152613b9c60e084018a6139e0565b8381036040850152613bae818a6139e0565b606085018990526001600160a01b038816608086015260a0850187905284810360c08601528551808252602080880193509091019060005b81811015613c0257835183529284019291840191600101613be6565b50909c9b505050505050505050505050565b60008060408385031215613c2757600080fd5b613c3083613a52565b9150613b3660208401613a52565b600080600060608486031215613c5357600080fd5b83359250613c6360208501613a52565b9150613b7260408501613a52565b801515811461108357600080fd5b60008060408385031215613c9257600080fd5b613c9b83613a52565b91506020830135613cab81613c71565b809150509250929050565b600060208284031215613cc857600080fd5b813562ffffff81168114610f3057600080fd5b634e487b7160e01b600052602160045260246000fd5b6020810160038310613d1357634e487b7160e01b600052602160045260246000fd5b91905290565b60ff8116811461108357600080fd5b600080600080600080600060e0888a031215613d4357600080fd5b613d4c88613a52565b9650613d5a60208901613a52565b955060408801359450606088013593506080880135613d7881613d19565b9699959850939692959460a0840135945060c09093013592915050565b600060208284031215613da757600080fd5b5051919050565b600181811c90821680613dc257607f821691505b602082108103613de257634e487b7160e01b600052602260045260246000fd5b50919050565b634e487b7160e01b600052601160045260246000fd5b8082028115828204841417610d4457610d44613de8565b634e487b7160e01b600052601260045260246000fd5b600082613e3a57613e3a613e15565b500490565b81810381811115610d4457610d44613de8565b600060208284031215613e6457600080fd5b8151610f3081613c71565b80820180821115610d4457610d44613de8565b600181815b80851115613ebd578160001904821115613ea357613ea3613de8565b80851615613eb057918102915b93841c9390800290613e87565b509250929050565b600082613ed457506001610d44565b81613ee157506000610d44565b8160018114613ef75760028114613f0157613f1d565b6001915050610d44565b60ff841115613f1257613f12613de8565b50506001821b610d44565b5060208310610133831016604e8410600b8410161715613f40575081810a610d44565b613f4a8383613e82565b8060001904821115613f5e57613f5e613de8565b029392505050565b6000610f3060ff841683613ec5565b600060208284031215613f8757600080fd5b8151610f3081613d19565b60ff8281168282160390811115610d4457610d44613de8565b600060ff831680613fbe57613fbe613e15565b8060ff8416069150509291505056fefc196a27c7414e5845212a78cf1a68bfb0b8fdeac0072e3066ecccd5b30fbd35a7ad62efb24fe4b2a4e01d145e27bd71d0083c0a0b23adb426c8c9f74f6e4ff03c63e605be3290ab6b04cfc46c6e1516e626d43236b034f09d7ede1d017beb0ca2646970667358221220dea723f598aaeaf55d4a081343cd0eb29d8b31a099b036a62effe1a6b19ab73264736f6c6343000816003360c060405234801561001057600080fd5b5060405161027538038061027583398101604081905261002f91610062565b6001600160a01b039182166080521660a052610095565b80516001600160a01b038116811461005d57600080fd5b919050565b6000806040838503121561007557600080fd5b61007e83610046565b915061008c60208401610046565b90509250929050565b60805160a0516101bd6100b8600039600060b401526000605001526101bd6000f3fe608060405234801561001057600080fd5b506004361061002b5760003560e01c8063f3fef3a314610030575b600080fd5b61004361003e366004610126565b610045565b005b336001600160a01b037f0000000000000000000000000000000000000000000000000000000000000000161461008e57604051638d1af8bd60e01b815260040160405180910390fd5b60405163a9059cbb60e01b81526001600160a01b038381166004830152602482018390527f0000000000000000000000000000000000000000000000000000000000000000169063a9059cbb906044016020604051808303816000875af11580156100fd573d6000803e3d6000fd5b505050506040513d601f19601f82011682018060405250810190610121919061015e565b505050565b6000806040838503121561013957600080fd5b82356001600160a01b038116811461015057600080fd5b946020939093013593505050565b60006020828403121561017057600080fd5b8151801515811461018057600080fd5b939250505056fea264697066735822122023e6e827d0a7921f615488fd56e1c24703367704045be2ebd06930150c9e980f64736f6c63430008160033",
  "devdoc": {
    "details": "This contract combines ERC4626 vault with direct collateral minting - Underlying asset: MCT (MultiCollateralToken) - Exchange rate: 1:1 with MCT - Users can mint by depositing collateral (USDC, etc.) - Collateral is converted to MCT, then nUSD shares are minted - Redemptions require cooldown: lock nUSD  wait X days  redeem to collateral  release - Users can cancel redemption requests during cooldown period",
    "errors": {
      "AccessControlBadConfirmation()": [
        {
          "details": "The caller of a function is not the expected one. NOTE: Don't confuse with {AccessControlUnauthorizedAccount}."
        }
      ],
      "AccessControlUnauthorizedAccount(address,bytes32)": [
        {
          "details": "The `account` is missing a role."
        }
      ],
      "ECDSAInvalidSignature()": [
        {
          "details": "The signature derives the `address(0)`."
        }
      ],
      "ECDSAInvalidSignatureLength(uint256)": [
        {
          "details": "The signature has an invalid length."
        }
      ],
      "ECDSAInvalidSignatureS(bytes32)": [
        {
          "details": "The signature has an S value that is in the upper half order."
        }
      ],
      "ERC20InsufficientAllowance(address,uint256,uint256)": [
        {
          "details": "Indicates a failure with the `spender`s `allowance`. Used in transfers.",
          "params": {
            "allowance": "Amount of tokens a `spender` is allowed to operate with.",
            "needed": "Minimum amount required to perform a transfer.",
            "spender": "Address that may be allowed to operate on tokens without being their owner."
          }
        }
      ],
      "ERC20InsufficientBalance(address,uint256,uint256)": [
        {
          "details": "Indicates an error related to the current `balance` of a `sender`. Used in transfers.",
          "params": {
            "balance": "Current balance for the interacting account.",
            "needed": "Minimum amount required to perform a transfer.",
            "sender": "Address whose tokens are being transferred."
          }
        }
      ],
      "ERC20InvalidApprover(address)": [
        {
          "details": "Indicates a failure with the `approver` of a token to be approved. Used in approvals.",
          "params": {
            "approver": "Address initiating an approval operation."
          }
        }
      ],
      "ERC20InvalidReceiver(address)": [
        {
          "details": "Indicates a failure with the token `receiver`. Used in transfers.",
          "params": {
            "receiver": "Address to which tokens are being transferred."
          }
        }
      ],
      "ERC20InvalidSender(address)": [
        {
          "details": "Indicates a failure with the token `sender`. Used in transfers.",
          "params": {
            "sender": "Address whose tokens are being transferred."
          }
        }
      ],
      "ERC20InvalidSpender(address)": [
        {
          "details": "Indicates a failure with the `spender` to be approved. Used in approvals.",
          "params": {
            "spender": "Address that may be allowed to operate on tokens without being their owner."
          }
        }
      ],
      "ERC2612ExpiredSignature(uint256)": [
        {
          "details": "Permit deadline has expired."
        }
      ],
      "ERC2612InvalidSigner(address,address)": [
        {
          "details": "Mismatched signature."
        }
      ],
      "ERC4626ExceededMaxDeposit(address,uint256,uint256)": [
        {
          "details": "Attempted to deposit more assets than the max amount for `receiver`."
        }
      ],
      "ERC4626ExceededMaxMint(address,uint256,uint256)": [
        {
          "details": "Attempted to mint more shares than the max amount for `receiver`."
        }
      ],
      "ERC4626ExceededMaxRedeem(address,uint256,uint256)": [
        {
          "details": "Attempted to redeem more shares than the max amount for `receiver`."
        }
      ],
      "ERC4626ExceededMaxWithdraw(address,uint256,uint256)": [
        {
          "details": "Attempted to withdraw more assets than the max amount for `receiver`."
        }
      ],
      "EnforcedPause()": [
        {
          "details": "The operation failed because the contract is paused."
        }
      ],
      "ExpectedPause()": [
        {
          "details": "The operation failed because the contract is not paused."
        }
      ],
      "InvalidAccountNonce(address,uint256)": [
        {
          "details": "The nonce used for an `account` is not the expected current nonce."
        }
      ],
      "ReentrancyGuardReentrantCall()": [
        {
          "details": "Unauthorized reentrant call."
        }
      ],
      "SafeERC20FailedOperation(address)": [
        {
          "details": "An operation with an ERC-20 token failed."
        }
      ]
    },
    "events": {
      "Approval(address,address,uint256)": {
        "details": "Emitted when the allowance of a `spender` for an `owner` is set by a call to {approve}. `value` is the new allowance."
      },
      "EIP712DomainChanged()": {
        "details": "MAY be emitted to signal that the domain could have changed."
      },
      "Paused(address)": {
        "details": "Emitted when the pause is triggered by `account`."
      },
      "RoleAdminChanged(bytes32,bytes32,bytes32)": {
        "details": "Emitted when `newAdminRole` is set as ``role``'s admin role, replacing `previousAdminRole` `DEFAULT_ADMIN_ROLE` is the starting admin for all roles, despite {RoleAdminChanged} not being emitted to signal this."
      },
      "RoleGranted(bytes32,address,address)": {
        "details": "Emitted when `account` is granted `role`. `sender` is the account that originated the contract call. This account bears the admin role (for the granted role). Expected in cases where the role was granted using the internal {AccessControl-_grantRole}."
      },
      "RoleRevoked(bytes32,address,address)": {
        "details": "Emitted when `account` is revoked `role`. `sender` is the account that originated the contract call:   - if using `revokeRole`, it is the admin role bearer   - if using `renounceRole`, it is the role bearer (i.e. `account`)"
      },
      "Transfer(address,address,uint256)": {
        "details": "Emitted when `value` tokens are moved from one account (`from`) to another (`to`). Note that `value` may be zero."
      },
      "Unpaused(address)": {
        "details": "Emitted when the pause is lifted by `account`."
      }
    },
    "kind": "dev",
    "methods": {
      "DOMAIN_SEPARATOR()": {
        "details": "Returns the domain separator used in the encoding of the signature for {permit}, as defined by {EIP712}."
      },
      "addToBlacklist(address,bool)": {
        "params": {
          "isFullBlacklisting": "Soft or full blacklisting level",
          "target": "The address to blacklist"
        }
      },
      "allowance(address,address)": {
        "details": "Returns the remaining number of tokens that `spender` will be allowed to spend on behalf of `owner` through {transferFrom}. This is zero by default. This value changes when {approve} or {transferFrom} are called."
      },
      "approve(address,uint256)": {
        "details": "See {IERC20-approve}. NOTE: If `value` is the maximum `uint256`, the allowance is not updated on `transferFrom`. This is semantically equivalent to an infinite approval. Requirements: - `spender` cannot be the zero address."
      },
      "asset()": {
        "details": "Returns the address of the underlying token used for the Vault for accounting, depositing, and withdrawing. - MUST be an ERC-20 token contract. - MUST NOT revert."
      },
      "balanceOf(address)": {
        "details": "Returns the value of tokens owned by `account`."
      },
      "burn(uint256)": {
        "details": "This creates a deflationary effect: burns both nUSD and MCT while keeping collateral in MCTBurns tokens from msg.sender only (caller must own the tokens)",
        "params": {
          "amount": "The amount of nUSD to burn"
        }
      },
      "confirmDelegatedSigner(address)": {
        "params": {
          "_delegatedBy": "The address that initiated delegation"
        }
      },
      "convertToAssets(uint256)": {
        "details": "Returns the amount of assets that the Vault would exchange for the amount of shares provided, in an ideal scenario where all the conditions are met. - MUST NOT be inclusive of any fees that are charged against assets in the Vault. - MUST NOT show any variations depending on the caller. - MUST NOT reflect slippage or other on-chain conditions, when performing the actual exchange. - MUST NOT revert. NOTE: This calculation MAY NOT reflect the per-user price-per-share, and instead should reflect the average-users price-per-share, meaning what the average user should expect to see when exchanging to and from."
      },
      "convertToShares(uint256)": {
        "details": "Returns the amount of shares that the Vault would exchange for the amount of assets provided, in an ideal scenario where all the conditions are met. - MUST NOT be inclusive of any fees that are charged against assets in the Vault. - MUST NOT show any variations depending on the caller. - MUST NOT reflect slippage or other on-chain conditions, when performing the actual exchange. - MUST NOT revert. NOTE: This calculation MAY NOT reflect the per-user price-per-share, and instead should reflect the average-users price-per-share, meaning what the average user should expect to see when exchanging to and from."
      },
      "cooldownRedeem(address,uint256)": {
        "params": {
          "collateralAsset": "The collateral asset to receive after cooldown",
          "nUSDAmount": "The amount of nUSD to lock for redemption"
        }
      },
      "decimals()": {
        "details": "Override decimals to ensure 18 decimals"
      },
      "deposit(uint256,address)": {
        "details": "Mints shares Vault shares to receiver by depositing exactly amount of underlying tokens. - MUST emit the Deposit event. - MAY support an additional flow in which the underlying tokens are owned by the Vault contract before the   deposit execution, and are accounted for during deposit. - MUST revert if all of assets cannot be deposited (due to deposit limit being reached, slippage, the user not   approving enough underlying tokens to the Vault contract, etc). NOTE: most implementations will require pre-approval of the Vault with the Vaults underlying asset token."
      },
      "eip712Domain()": {
        "details": "returns the fields and values that describe the domain separator used by this contract for EIP-712 signature."
      },
      "getRoleAdmin(bytes32)": {
        "details": "Returns the admin role that controls `role`. See {grantRole} and {revokeRole}. To change a role's admin, use {_setRoleAdmin}."
      },
      "grantRole(bytes32,address)": {
        "details": "Grants `role` to `account`. If `account` had not been already granted `role`, emits a {RoleGranted} event. Requirements: - the caller must have ``role``'s admin role. May emit a {RoleGranted} event."
      },
      "hasRole(bytes32,address)": {
        "details": "Returns `true` if `account` has been granted `role`."
      },
      "hasValidCredentials(address)": {
        "details": "Returns true if:      - Keyring is not configured (keyringAddress == address(0))      - Account is whitelisted      - Account has valid credentials in Keyring",
        "params": {
          "account": "The address to check"
        },
        "returns": {
          "_0": "bool True if account has credentials or Keyring is disabled"
        }
      },
      "maxDeposit(address)": {
        "details": "Returns the maximum amount of the underlying asset that can be deposited into the Vault for the receiver, through a deposit call. - MUST return a limited value if receiver is subject to some deposit limit. - MUST return 2 ** 256 - 1 if there is no limit on the maximum amount of assets that may be deposited. - MUST NOT revert."
      },
      "maxMint(address)": {
        "details": "Returns the maximum amount of the Vault shares that can be minted for the receiver, through a mint call. - MUST return a limited value if receiver is subject to some mint limit. - MUST return 2 ** 256 - 1 if there is no limit on the maximum amount of shares that may be minted. - MUST NOT revert."
      },
      "maxRedeem(address)": {
        "details": "Returns the maximum amount of Vault shares that can be redeemed from the owner balance in the Vault, through a redeem call. - MUST return a limited value if owner is subject to some withdrawal limit or timelock. - MUST return balanceOf(owner) if owner is not subject to any withdrawal limit or timelock. - MUST NOT revert."
      },
      "maxWithdraw(address)": {
        "details": "Returns the maximum amount of the underlying asset that can be withdrawn from the owner balance in the Vault, through a withdraw call. - MUST return a limited value if owner is subject to some withdrawal limit or timelock. - MUST NOT revert."
      },
      "mint(address,uint256)": {
        "details": "Intended for protocol-controlled operations such as incentive programs",
        "params": {
          "amount": "The amount of nUSD to mint",
          "to": "The address to receive freshly minted nUSD"
        }
      },
      "mint(uint256,address)": {
        "details": "Mints exactly shares Vault shares to receiver by depositing amount of underlying tokens. - MUST emit the Deposit event. - MAY support an additional flow in which the underlying tokens are owned by the Vault contract before the mint   execution, and are accounted for during mint. - MUST revert if all of shares cannot be minted (due to deposit limit being reached, slippage, the user not   approving enough underlying tokens to the Vault contract, etc). NOTE: most implementations will require pre-approval of the Vault with the Vaults underlying asset token."
      },
      "mintWithCollateral(address,uint256)": {
        "params": {
          "collateralAmount": "The amount of collateral to deposit",
          "collateralAsset": "The collateral asset to deposit"
        },
        "returns": {
          "nUSDAmount": "The amount of nUSD minted"
        }
      },
      "mintWithCollateralFor(address,uint256,address)": {
        "params": {
          "beneficiary": "The address to receive minted nUSD",
          "collateralAmount": "The amount of collateral to deposit",
          "collateralAsset": "The collateral asset to deposit"
        },
        "returns": {
          "nUSDAmount": "The amount of nUSD minted"
        }
      },
      "name()": {
        "details": "Returns the name of the token."
      },
      "nonces(address)": {
        "details": "Returns the current nonce for `owner`. This value must be included whenever a signature is generated for {permit}. Every successful call to {permit} increases ``owner``'s nonce by one. This prevents a signature from being used multiple times."
      },
      "paused()": {
        "details": "Returns true if the contract is paused, and false otherwise."
      },
      "permit(address,address,uint256,uint256,uint8,bytes32,bytes32)": {
        "details": "Sets `value` as the allowance of `spender` over ``owner``'s tokens, given ``owner``'s signed approval. IMPORTANT: The same issues {IERC20-approve} has related to transaction ordering also apply here. Emits an {Approval} event. Requirements: - `spender` cannot be the zero address. - `deadline` must be a timestamp in the future. - `v`, `r` and `s` must be a valid `secp256k1` signature from `owner` over the EIP712-formatted function arguments. - the signature must use ``owner``'s current nonce (see {nonces}). For more information on the signature format, see the https://eips.ethereum.org/EIPS/eip-2612#specification[relevant EIP section]. CAUTION: See Security Considerations above."
      },
      "previewDeposit(uint256)": {
        "details": "Allows an on-chain or off-chain user to simulate the effects of their deposit at the current block, given current on-chain conditions. - MUST return as close to and no more than the exact amount of Vault shares that would be minted in a deposit   call in the same transaction. I.e. deposit should return the same or more shares as previewDeposit if called   in the same transaction. - MUST NOT account for deposit limits like those returned from maxDeposit and should always act as though the   deposit would be accepted, regardless if the user has enough tokens approved, etc. - MUST be inclusive of deposit fees. Integrators should be aware of the existence of deposit fees. - MUST NOT revert. NOTE: any unfavorable discrepancy between convertToShares and previewDeposit SHOULD be considered slippage in share price or some other type of condition, meaning the depositor will lose assets by depositing."
      },
      "previewMint(uint256)": {
        "details": "Allows an on-chain or off-chain user to simulate the effects of their mint at the current block, given current on-chain conditions. - MUST return as close to and no fewer than the exact amount of assets that would be deposited in a mint call   in the same transaction. I.e. mint should return the same or fewer assets as previewMint if called in the   same transaction. - MUST NOT account for mint limits like those returned from maxMint and should always act as though the mint   would be accepted, regardless if the user has enough tokens approved, etc. - MUST be inclusive of deposit fees. Integrators should be aware of the existence of deposit fees. - MUST NOT revert. NOTE: any unfavorable discrepancy between convertToAssets and previewMint SHOULD be considered slippage in share price or some other type of condition, meaning the depositor will lose assets by minting."
      },
      "previewRedeem(uint256)": {
        "details": "Allows an on-chain or off-chain user to simulate the effects of their redemption at the current block, given current on-chain conditions. - MUST return as close to and no more than the exact amount of assets that would be withdrawn in a redeem call   in the same transaction. I.e. redeem should return the same or more assets as previewRedeem if called in the   same transaction. - MUST NOT account for redemption limits like those returned from maxRedeem and should always act as though the   redemption would be accepted, regardless if the user has enough shares, etc. - MUST be inclusive of withdrawal fees. Integrators should be aware of the existence of withdrawal fees. - MUST NOT revert. NOTE: any unfavorable discrepancy between convertToAssets and previewRedeem SHOULD be considered slippage in share price or some other type of condition, meaning the depositor will lose assets by redeeming."
      },
      "previewWithdraw(uint256)": {
        "details": "Allows an on-chain or off-chain user to simulate the effects of their withdrawal at the current block, given current on-chain conditions. - MUST return as close to and no fewer than the exact amount of Vault shares that would be burned in a withdraw   call in the same transaction. I.e. withdraw should return the same or fewer shares as previewWithdraw if   called   in the same transaction. - MUST NOT account for withdrawal limits like those returned from maxWithdraw and should always act as though   the withdrawal would be accepted, regardless if the user has enough shares, etc. - MUST be inclusive of withdrawal fees. Integrators should be aware of the existence of withdrawal fees. - MUST NOT revert. NOTE: any unfavorable discrepancy between convertToShares and previewWithdraw SHOULD be considered slippage in share price or some other type of condition, meaning the depositor will lose assets by depositing."
      },
      "redeem(uint256,address,address)": {
        "details": "Use cooldownRedeem/completeRedeem instead"
      },
      "redistributeLockedAmount(address,address)": {
        "params": {
          "from": "The address to burn the entire balance from (must have FULL_RESTRICTED_ROLE)",
          "to": "The address to mint the entire balance to (or address(0) to burn)"
        }
      },
      "removeDelegatedSigner(address)": {
        "params": {
          "_removedSigner": "The address to remove"
        }
      },
      "removeFromBlacklist(address,bool)": {
        "params": {
          "isFullBlacklisting": "Soft or full blacklisting level",
          "target": "The address to un-blacklist"
        }
      },
      "revokeRole(bytes32,address)": {
        "details": "Revokes `role` from `account`. If `account` had been granted `role`, emits a {RoleRevoked} event. Requirements: - the caller must have ``role``'s admin role. May emit a {RoleRevoked} event."
      },
      "setCooldownDuration(uint24)": {
        "params": {
          "duration": "New cooldown duration (max 90 days)"
        }
      },
      "setDelegatedSigner(address)": {
        "params": {
          "_delegateTo": "The address to delegate to"
        }
      },
      "setFeeTreasury(address)": {
        "params": {
          "_feeTreasury": "New treasury address"
        }
      },
      "setKeyringConfig(address,uint256)": {
        "params": {
          "_keyringAddress": "Address of the Keyring contract (set to address(0) to disable)",
          "_policyId": "The policy ID to check credentials against"
        }
      },
      "setKeyringWhitelist(address,bool)": {
        "details": "Whitelisted addresses bypass Keyring checks (useful for AMM pools, smart contracts)",
        "params": {
          "account": "The address to update whitelist status for",
          "status": "True to whitelist, false to remove from whitelist"
        }
      },
      "setMaxMintPerBlock(uint256)": {
        "params": {
          "_maxMintPerBlock": "New max mint per block"
        }
      },
      "setMaxRedeemPerBlock(uint256)": {
        "params": {
          "_maxRedeemPerBlock": "New max redeem per block"
        }
      },
      "setMinMintAmount(uint256)": {
        "params": {
          "_minMintAmount": "New minimum mint amount (18 decimals)"
        }
      },
      "setMinRedeemAmount(uint256)": {
        "params": {
          "_minRedeemAmount": "New minimum redeem amount (18 decimals)"
        }
      },
      "setMintFee(uint16)": {
        "params": {
          "_mintFeeBps": "New mint fee in basis points (max 10%)"
        }
      },
      "setRedeemFee(uint16)": {
        "params": {
          "_redeemFeeBps": "New redeem fee in basis points (max 10%)"
        }
      },
      "supportsInterface(bytes4)": {
        "details": "Returns true if this contract implements the interface defined by `interfaceId`. See the corresponding https://eips.ethereum.org/EIPS/eip-165#how-interfaces-are-identified[ERC section] to learn more about how these ids are created. This function call must use less than 30 000 gas."
      },
      "symbol()": {
        "details": "Returns the symbol of the token, usually a shorter version of the name."
      },
      "totalAssets()": {
        "details": "Returns the total amount of the underlying asset that is managed by Vault. - SHOULD include any compounding that occurs from yield. - MUST be inclusive of any fees that are charged against assets in the Vault. - MUST NOT revert."
      },
      "totalSupply()": {
        "details": "Returns the value of tokens in existence."
      },
      "transfer(address,uint256)": {
        "details": "See {IERC20-transfer}. Requirements: - `to` cannot be the zero address. - the caller must have a balance of at least `value`."
      },
      "transferFrom(address,address,uint256)": {
        "details": "See {IERC20-transferFrom}. Skips emitting an {Approval} event indicating an allowance update. This is not required by the ERC. See {xref-ERC20-_approve-address-address-uint256-bool-}[_approve]. NOTE: Does not update the allowance if the current allowance is the maximum `uint256`. Requirements: - `from` and `to` cannot be the zero address. - `from` must have a balance of at least `value`. - the caller must have allowance for ``from``'s tokens of at least `value`."
      },
      "withdraw(uint256,address,address)": {
        "details": "Use cooldownRedeem/completeRedeem instead"
      }
    },
    "title": "nUSD",
    "version": 1
  },
  "userdoc": {
    "kind": "user",
    "methods": {
      "BLACKLIST_MANAGER_ROLE()": {
        "notice": "Role that can blacklist and un-blacklist addresses"
      },
      "BPS_DENOMINATOR()": {
        "notice": "Basis points denominator (100% = 10000 bps)"
      },
      "COLLATERAL_MANAGER_ROLE()": {
        "notice": "Role for managing collateral operations"
      },
      "FULL_RESTRICTED_ROLE()": {
        "notice": "Role that prevents an address from transferring, minting, or redeeming"
      },
      "GATEKEEPER_ROLE()": {
        "notice": "Role for emergency actions"
      },
      "MAX_COOLDOWN_DURATION()": {
        "notice": "Maximum cooldown duration (90 days)"
      },
      "MAX_FEE_BPS()": {
        "notice": "Maximum fee in basis points (10% = 1000 bps)"
      },
      "MINTER_ROLE()": {
        "notice": "Role allowed to mint nUSD without collateral backing"
      },
      "SOFT_RESTRICTED_ROLE()": {
        "notice": "Role that prevents an address from minting"
      },
      "addToBlacklist(address,bool)": {
        "notice": "Add an address to blacklist"
      },
      "burn(uint256)": {
        "notice": "Burn nUSD tokens and underlying MCT without withdrawing collateral"
      },
      "cancelRedeem()": {
        "notice": "Cancel redemption request and return locked nUSD to user"
      },
      "completeRedeem()": {
        "notice": "Complete redemption after cooldown period - redeems nUSD for collateral"
      },
      "confirmDelegatedSigner(address)": {
        "notice": "Confirm delegation"
      },
      "cooldownDuration()": {
        "notice": "Cooldown duration in seconds for redemptions"
      },
      "cooldownRedeem(address,uint256)": {
        "notice": "Request redemption with cooldown - locks nUSD and starts cooldown timer"
      },
      "delegatedSigner(address,address)": {
        "notice": "Delegated signer status for smart contracts"
      },
      "disableMintRedeem()": {
        "notice": "Disable mint and redeem in emergency"
      },
      "feeTreasury()": {
        "notice": "Treasury address to receive fees"
      },
      "hasValidCredentials(address)": {
        "notice": "Check if an address has valid Keyring credentials (public view)"
      },
      "keyringAddress()": {
        "notice": "Address of the Keyring contract for credential checking"
      },
      "keyringPolicyId()": {
        "notice": "ID of the Keyring policy to check against"
      },
      "keyringWhitelist(address)": {
        "notice": "Mapping to track whitelist status of addresses (for contracts like AMM pools)"
      },
      "maxMintPerBlock()": {
        "notice": "Max minted nUSD allowed per block"
      },
      "maxRedeemPerBlock()": {
        "notice": "Max redeemed nUSD allowed per block"
      },
      "mct()": {
        "notice": "The MCT token (underlying asset)"
      },
      "minMintAmount()": {
        "notice": "Minimum nUSD amount required for minting (18 decimals)"
      },
      "minRedeemAmount()": {
        "notice": "Minimum nUSD amount required for redemption (18 decimals)"
      },
      "mint(address,uint256)": {
        "notice": "Mint nUSD without collateral backing (admin-controlled)"
      },
      "mintFeeBps()": {
        "notice": "Mint fee in basis points (e.g., 10 = 0.1%)"
      },
      "mintWithCollateral(address,uint256)": {
        "notice": "Mint nUSD by depositing collateral"
      },
      "mintWithCollateralFor(address,uint256,address)": {
        "notice": "Mint nUSD on behalf of a beneficiary"
      },
      "mintedPerBlock(uint256)": {
        "notice": "nUSD minted per block"
      },
      "pause()": {
        "notice": "Pause all mint and redeem operations"
      },
      "redeem(uint256,address,address)": {
        "notice": "Override ERC4626 redeem to enforce cooldown - disabled"
      },
      "redeemFeeBps()": {
        "notice": "Redeem fee in basis points (e.g., 10 = 0.1%)"
      },
      "redeemSilo()": {
        "notice": "Silo contract for holding locked nUSD during cooldown"
      },
      "redeemedPerBlock(uint256)": {
        "notice": "nUSD redeemed per block"
      },
      "redemptionRequests(address)": {
        "notice": "Mapping of user addresses to their redemption requests"
      },
      "redistributeLockedAmount(address,address)": {
        "notice": "Redistribute locked amount from full restricted user"
      },
      "removeDelegatedSigner(address)": {
        "notice": "Remove delegated signer"
      },
      "removeFromBlacklist(address,bool)": {
        "notice": "Remove an address from blacklist"
      },
      "renounceRole(bytes32,address)": {
        "notice": "Prevent renouncing ownership"
      },
      "setCooldownDuration(uint24)": {
        "notice": "Set cooldown duration for redemptions"
      },
      "setDelegatedSigner(address)": {
        "notice": "Enable smart contracts to delegate signing"
      },
      "setFeeTreasury(address)": {
        "notice": "Set fee treasury address"
      },
      "setKeyringConfig(address,uint256)": {
        "notice": "Set Keyring contract address and policy ID"
      },
      "setKeyringWhitelist(address,bool)": {
        "notice": "Add or remove an address from the Keyring whitelist"
      },
      "setMaxMintPerBlock(uint256)": {
        "notice": "Set max mint per block"
      },
      "setMaxRedeemPerBlock(uint256)": {
        "notice": "Set max redeem per block"
      },
      "setMinMintAmount(uint256)": {
        "notice": "Set minimum mint amount"
      },
      "setMinRedeemAmount(uint256)": {
        "notice": "Set minimum redeem amount"
      },
      "setMintFee(uint16)": {
        "notice": "Set mint fee"
      },
      "setRedeemFee(uint16)": {
        "notice": "Set redeem fee"
      },
      "unpause()": {
        "notice": "Unpause all mint and redeem operations"
      },
      "withdraw(uint256,address,address)": {
        "notice": "Override ERC4626 withdraw to enforce cooldown - disabled"
      }
    },
    "notice": "Omnichain vault version of nUSD with integrated minting functionality and redemption cooldown",
    "version": 1
  },
  "storageLayout": {
    "storage": [
      {
        "astId": 3390,
        "contract": "contracts/nusd/nUSD.sol:nUSD",
        "label": "_balances",
        "offset": 0,
        "slot": "0",
        "type": "t_mapping(t_address,t_uint256)"
      },
      {
        "astId": 3396,
        "contract": "contracts/nusd/nUSD.sol:nUSD",
        "label": "_allowances",
        "offset": 0,
        "slot": "1",
        "type": "t_mapping(t_address,t_mapping(t_address,t_uint256))"
      },
      {
        "astId": 3398,
        "contract": "contracts/nusd/nUSD.sol:nUSD",
        "label": "_totalSupply",
        "offset": 0,
        "slot": "2",
        "type": "t_uint256"
      },
      {
        "astId": 3400,
        "contract": "contracts/nusd/nUSD.sol:nUSD",
        "label": "_name",
        "offset": 0,
        "slot": "3",
        "type": "t_string_storage"
      },
      {
        "astId": 3402,
        "contract": "contracts/nusd/nUSD.sol:nUSD",
        "label": "_symbol",
        "offset": 0,
        "slot": "4",
        "type": "t_string_storage"
      },
      {
        "astId": 8975,
        "contract": "contracts/nusd/nUSD.sol:nUSD",
        "label": "_nameFallback",
        "offset": 0,
        "slot": "5",
        "type": "t_string_storage"
      },
      {
        "astId": 8977,
        "contract": "contracts/nusd/nUSD.sol:nUSD",
        "label": "_versionFallback",
        "offset": 0,
        "slot": "6",
        "type": "t_string_storage"
      },
      {
        "astId": 6434,
        "contract": "contracts/nusd/nUSD.sol:nUSD",
        "label": "_nonces",
        "offset": 0,
        "slot": "7",
        "type": "t_mapping(t_address,t_uint256)"
      },
      {
        "astId": 2445,
        "contract": "contracts/nusd/nUSD.sol:nUSD",
        "label": "_roles",
        "offset": 0,
        "slot": "8",
        "type": "t_mapping(t_bytes32,t_struct(RoleData)2440_storage)"
      },
      {
        "astId": 6659,
        "contract": "contracts/nusd/nUSD.sol:nUSD",
        "label": "_status",
        "offset": 0,
        "slot": "9",
        "type": "t_uint256"
      },
      {
        "astId": 6549,
        "contract": "contracts/nusd/nUSD.sol:nUSD",
        "label": "_paused",
        "offset": 0,
        "slot": "10",
        "type": "t_bool"
      },
      {
        "astId": 15170,
        "contract": "contracts/nusd/nUSD.sol:nUSD",
        "label": "mintedPerBlock",
        "offset": 0,
        "slot": "11",
        "type": "t_mapping(t_uint256,t_uint256)"
      },
      {
        "astId": 15175,
        "contract": "contracts/nusd/nUSD.sol:nUSD",
        "label": "redeemedPerBlock",
        "offset": 0,
        "slot": "12",
        "type": "t_mapping(t_uint256,t_uint256)"
      },
      {
        "astId": 15178,
        "contract": "contracts/nusd/nUSD.sol:nUSD",
        "label": "maxMintPerBlock",
        "offset": 0,
        "slot": "13",
        "type": "t_uint256"
      },
      {
        "astId": 15181,
        "contract": "contracts/nusd/nUSD.sol:nUSD",
        "label": "maxRedeemPerBlock",
        "offset": 0,
        "slot": "14",
        "type": "t_uint256"
      },
      {
        "astId": 15184,
        "contract": "contracts/nusd/nUSD.sol:nUSD",
        "label": "minMintAmount",
        "offset": 0,
        "slot": "15",
        "type": "t_uint256"
      },
      {
        "astId": 15187,
        "contract": "contracts/nusd/nUSD.sol:nUSD",
        "label": "minRedeemAmount",
        "offset": 0,
        "slot": "16",
        "type": "t_uint256"
      },
      {
        "astId": 15195,
        "contract": "contracts/nusd/nUSD.sol:nUSD",
        "label": "delegatedSigner",
        "offset": 0,
        "slot": "17",
        "type": "t_mapping(t_address,t_mapping(t_address,t_enum(DelegatedSignerStatus)15232))"
      },
      {
        "astId": 15198,
        "contract": "contracts/nusd/nUSD.sol:nUSD",
        "label": "cooldownDuration",
        "offset": 0,
        "slot": "18",
        "type": "t_uint24"
      },
      {
        "astId": 15204,
        "contract": "contracts/nusd/nUSD.sol:nUSD",
        "label": "redemptionRequests",
        "offset": 0,
        "slot": "19",
        "type": "t_mapping(t_address,t_struct(RedemptionRequest)15161_storage)"
      },
      {
        "astId": 15211,
        "contract": "contracts/nusd/nUSD.sol:nUSD",
        "label": "mintFeeBps",
        "offset": 0,
        "slot": "20",
        "type": "t_uint16"
      },
      {
        "astId": 15214,
        "contract": "contracts/nusd/nUSD.sol:nUSD",
        "label": "redeemFeeBps",
        "offset": 2,
        "slot": "20",
        "type": "t_uint16"
      },
      {
        "astId": 15217,
        "contract": "contracts/nusd/nUSD.sol:nUSD",
        "label": "feeTreasury",
        "offset": 4,
        "slot": "20",
        "type": "t_address"
      },
      {
        "astId": 15220,
        "contract": "contracts/nusd/nUSD.sol:nUSD",
        "label": "keyringAddress",
        "offset": 0,
        "slot": "21",
        "type": "t_address"
      },
      {
        "astId": 15223,
        "contract": "contracts/nusd/nUSD.sol:nUSD",
        "label": "keyringPolicyId",
        "offset": 0,
        "slot": "22",
        "type": "t_uint256"
      },
      {
        "astId": 15228,
        "contract": "contracts/nusd/nUSD.sol:nUSD",
        "label": "keyringWhitelist",
        "offset": 0,
        "slot": "23",
        "type": "t_mapping(t_address,t_bool)"
      }
    ],
    "types": {
      "t_address": {
        "encoding": "inplace",
        "label": "address",
        "numberOfBytes": "20"
      },
      "t_bool": {
        "encoding": "inplace",
        "label": "bool",
        "numberOfBytes": "1"
      },
      "t_bytes32": {
        "encoding": "inplace",
        "label": "bytes32",
        "numberOfBytes": "32"
      },
      "t_enum(DelegatedSignerStatus)15232": {
        "encoding": "inplace",
        "label": "enum nUSD.DelegatedSignerStatus",
        "numberOfBytes": "1"
      },
      "t_mapping(t_address,t_bool)": {
        "encoding": "mapping",
        "key": "t_address",
        "label": "mapping(address => bool)",
        "numberOfBytes": "32",
        "value": "t_bool"
      },
      "t_mapping(t_address,t_enum(DelegatedSignerStatus)15232)": {
        "encoding": "mapping",
        "key": "t_address",
        "label": "mapping(address => enum nUSD.DelegatedSignerStatus)",
        "numberOfBytes": "32",
        "value": "t_enum(DelegatedSignerStatus)15232"
      },
      "t_mapping(t_address,t_mapping(t_address,t_enum(DelegatedSignerStatus)15232))": {
        "encoding": "mapping",
        "key": "t_address",
        "label": "mapping(address => mapping(address => enum nUSD.DelegatedSignerStatus))",
        "numberOfBytes": "32",
        "value": "t_mapping(t_address,t_enum(DelegatedSignerStatus)15232)"
      },
      "t_mapping(t_address,t_mapping(t_address,t_uint256))": {
        "encoding": "mapping",
        "key": "t_address",
        "label": "mapping(address => mapping(address => uint256))",
        "numberOfBytes": "32",
        "value": "t_mapping(t_address,t_uint256)"
      },
      "t_mapping(t_address,t_struct(RedemptionRequest)15161_storage)": {
        "encoding": "mapping",
        "key": "t_address",
        "label": "mapping(address => struct nUSD.RedemptionRequest)",
        "numberOfBytes": "32",
        "value": "t_struct(RedemptionRequest)15161_storage"
      },
      "t_mapping(t_address,t_uint256)": {
        "encoding": "mapping",
        "key": "t_address",
        "label": "mapping(address => uint256)",
        "numberOfBytes": "32",
        "value": "t_uint256"
      },
      "t_mapping(t_bytes32,t_struct(RoleData)2440_storage)": {
        "encoding": "mapping",
        "key": "t_bytes32",
        "label": "mapping(bytes32 => struct AccessControl.RoleData)",
        "numberOfBytes": "32",
        "value": "t_struct(RoleData)2440_storage"
      },
      "t_mapping(t_uint256,t_uint256)": {
        "encoding": "mapping",
        "key": "t_uint256",
        "label": "mapping(uint256 => uint256)",
        "numberOfBytes": "32",
        "value": "t_uint256"
      },
      "t_string_storage": {
        "encoding": "bytes",
        "label": "string",
        "numberOfBytes": "32"
      },
      "t_struct(RedemptionRequest)15161_storage": {
        "encoding": "inplace",
        "label": "struct nUSD.RedemptionRequest",
        "members": [
          {
            "astId": 15156,
            "contract": "contracts/nusd/nUSD.sol:nUSD",
            "label": "cooldownEnd",
            "offset": 0,
            "slot": "0",
            "type": "t_uint104"
          },
          {
            "astId": 15158,
            "contract": "contracts/nusd/nUSD.sol:nUSD",
            "label": "nUSDAmount",
            "offset": 13,
            "slot": "0",
            "type": "t_uint152"
          },
          {
            "astId": 15160,
            "contract": "contracts/nusd/nUSD.sol:nUSD",
            "label": "collateralAsset",
            "offset": 0,
            "slot": "1",
            "type": "t_address"
          }
        ],
        "numberOfBytes": "64"
      },
      "t_struct(RoleData)2440_storage": {
        "encoding": "inplace",
        "label": "struct AccessControl.RoleData",
        "members": [
          {
            "astId": 2437,
            "contract": "contracts/nusd/nUSD.sol:nUSD",
            "label": "hasRole",
            "offset": 0,
            "slot": "0",
            "type": "t_mapping(t_address,t_bool)"
          },
          {
            "astId": 2439,
            "contract": "contracts/nusd/nUSD.sol:nUSD",
            "label": "adminRole",
            "offset": 0,
            "slot": "1",
            "type": "t_bytes32"
          }
        ],
        "numberOfBytes": "64"
      },
      "t_uint104": {
        "encoding": "inplace",
        "label": "uint104",
        "numberOfBytes": "13"
      },
      "t_uint152": {
        "encoding": "inplace",
        "label": "uint152",
        "numberOfBytes": "19"
      },
      "t_uint16": {
        "encoding": "inplace",
        "label": "uint16",
        "numberOfBytes": "2"
      },
      "t_uint24": {
        "encoding": "inplace",
        "label": "uint24",
        "numberOfBytes": "3"
      },
      "t_uint256": {
        "encoding": "inplace",
        "label": "uint256",
        "numberOfBytes": "32"
      }
    }
  }
}