{
  "address": "0xc7f1ccCF178fa6fAa3317db4f898db946e1130ec",
  "abi": [
    {
      "inputs": [
        {
          "internalType": "contract IERC20",
          "name": "_asset",
          "type": "address"
        },
        {
          "internalType": "address",
          "name": "_initialRewarder",
          "type": "address"
        },
        {
          "internalType": "address",
          "name": "_admin",
          "type": "address"
        }
      ],
      "stateMutability": "nonpayable",
      "type": "constructor"
    },
    {
      "inputs": [],
      "name": "AccessControlBadConfirmation",
      "type": "error"
    },
    {
      "inputs": [
        {
          "internalType": "address",
          "name": "account",
          "type": "address"
        },
        {
          "internalType": "bytes32",
          "name": "neededRole",
          "type": "bytes32"
        }
      ],
      "name": "AccessControlUnauthorizedAccount",
      "type": "error"
    },
    {
      "inputs": [],
      "name": "CantBlacklistOwner",
      "type": "error"
    },
    {
      "inputs": [],
      "name": "CantRenounceOwnership",
      "type": "error"
    },
    {
      "inputs": [],
      "name": "ECDSAInvalidSignature",
      "type": "error"
    },
    {
      "inputs": [
        {
          "internalType": "uint256",
          "name": "length",
          "type": "uint256"
        }
      ],
      "name": "ECDSAInvalidSignatureLength",
      "type": "error"
    },
    {
      "inputs": [
        {
          "internalType": "bytes32",
          "name": "s",
          "type": "bytes32"
        }
      ],
      "name": "ECDSAInvalidSignatureS",
      "type": "error"
    },
    {
      "inputs": [
        {
          "internalType": "address",
          "name": "spender",
          "type": "address"
        },
        {
          "internalType": "uint256",
          "name": "allowance",
          "type": "uint256"
        },
        {
          "internalType": "uint256",
          "name": "needed",
          "type": "uint256"
        }
      ],
      "name": "ERC20InsufficientAllowance",
      "type": "error"
    },
    {
      "inputs": [
        {
          "internalType": "address",
          "name": "sender",
          "type": "address"
        },
        {
          "internalType": "uint256",
          "name": "balance",
          "type": "uint256"
        },
        {
          "internalType": "uint256",
          "name": "needed",
          "type": "uint256"
        }
      ],
      "name": "ERC20InsufficientBalance",
      "type": "error"
    },
    {
      "inputs": [
        {
          "internalType": "address",
          "name": "approver",
          "type": "address"
        }
      ],
      "name": "ERC20InvalidApprover",
      "type": "error"
    },
    {
      "inputs": [
        {
          "internalType": "address",
          "name": "receiver",
          "type": "address"
        }
      ],
      "name": "ERC20InvalidReceiver",
      "type": "error"
    },
    {
      "inputs": [
        {
          "internalType": "address",
          "name": "sender",
          "type": "address"
        }
      ],
      "name": "ERC20InvalidSender",
      "type": "error"
    },
    {
      "inputs": [
        {
          "internalType": "address",
          "name": "spender",
          "type": "address"
        }
      ],
      "name": "ERC20InvalidSpender",
      "type": "error"
    },
    {
      "inputs": [
        {
          "internalType": "uint256",
          "name": "deadline",
          "type": "uint256"
        }
      ],
      "name": "ERC2612ExpiredSignature",
      "type": "error"
    },
    {
      "inputs": [
        {
          "internalType": "address",
          "name": "signer",
          "type": "address"
        },
        {
          "internalType": "address",
          "name": "owner",
          "type": "address"
        }
      ],
      "name": "ERC2612InvalidSigner",
      "type": "error"
    },
    {
      "inputs": [
        {
          "internalType": "address",
          "name": "receiver",
          "type": "address"
        },
        {
          "internalType": "uint256",
          "name": "assets",
          "type": "uint256"
        },
        {
          "internalType": "uint256",
          "name": "max",
          "type": "uint256"
        }
      ],
      "name": "ERC4626ExceededMaxDeposit",
      "type": "error"
    },
    {
      "inputs": [
        {
          "internalType": "address",
          "name": "receiver",
          "type": "address"
        },
        {
          "internalType": "uint256",
          "name": "shares",
          "type": "uint256"
        },
        {
          "internalType": "uint256",
          "name": "max",
          "type": "uint256"
        }
      ],
      "name": "ERC4626ExceededMaxMint",
      "type": "error"
    },
    {
      "inputs": [
        {
          "internalType": "address",
          "name": "owner",
          "type": "address"
        },
        {
          "internalType": "uint256",
          "name": "shares",
          "type": "uint256"
        },
        {
          "internalType": "uint256",
          "name": "max",
          "type": "uint256"
        }
      ],
      "name": "ERC4626ExceededMaxRedeem",
      "type": "error"
    },
    {
      "inputs": [
        {
          "internalType": "address",
          "name": "owner",
          "type": "address"
        },
        {
          "internalType": "uint256",
          "name": "assets",
          "type": "uint256"
        },
        {
          "internalType": "uint256",
          "name": "max",
          "type": "uint256"
        }
      ],
      "name": "ERC4626ExceededMaxWithdraw",
      "type": "error"
    },
    {
      "inputs": [],
      "name": "EnforcedPause",
      "type": "error"
    },
    {
      "inputs": [],
      "name": "ExcessiveRedeemAmount",
      "type": "error"
    },
    {
      "inputs": [],
      "name": "ExcessiveWithdrawAmount",
      "type": "error"
    },
    {
      "inputs": [],
      "name": "ExpectedPause",
      "type": "error"
    },
    {
      "inputs": [
        {
          "internalType": "address",
          "name": "account",
          "type": "address"
        },
        {
          "internalType": "uint256",
          "name": "currentNonce",
          "type": "uint256"
        }
      ],
      "name": "InvalidAccountNonce",
      "type": "error"
    },
    {
      "inputs": [],
      "name": "InvalidAmount",
      "type": "error"
    },
    {
      "inputs": [],
      "name": "InvalidCooldown",
      "type": "error"
    },
    {
      "inputs": [],
      "name": "InvalidShortString",
      "type": "error"
    },
    {
      "inputs": [],
      "name": "InvalidToken",
      "type": "error"
    },
    {
      "inputs": [],
      "name": "InvalidZeroAddress",
      "type": "error"
    },
    {
      "inputs": [],
      "name": "MinSharesViolation",
      "type": "error"
    },
    {
      "inputs": [],
      "name": "OperationNotAllowed",
      "type": "error"
    },
    {
      "inputs": [],
      "name": "ReentrancyGuardReentrantCall",
      "type": "error"
    },
    {
      "inputs": [],
      "name": "ReserveTooLowAfterBurn",
      "type": "error"
    },
    {
      "inputs": [
        {
          "internalType": "address",
          "name": "token",
          "type": "address"
        }
      ],
      "name": "SafeERC20FailedOperation",
      "type": "error"
    },
    {
      "inputs": [],
      "name": "StillVesting",
      "type": "error"
    },
    {
      "inputs": [
        {
          "internalType": "string",
          "name": "str",
          "type": "string"
        }
      ],
      "name": "StringTooLong",
      "type": "error"
    },
    {
      "anonymous": false,
      "inputs": [
        {
          "indexed": true,
          "internalType": "address",
          "name": "owner",
          "type": "address"
        },
        {
          "indexed": true,
          "internalType": "address",
          "name": "spender",
          "type": "address"
        },
        {
          "indexed": false,
          "internalType": "uint256",
          "name": "value",
          "type": "uint256"
        }
      ],
      "name": "Approval",
      "type": "event"
    },
    {
      "anonymous": false,
      "inputs": [
        {
          "indexed": false,
          "internalType": "uint256",
          "name": "amount",
          "type": "uint256"
        }
      ],
      "name": "AssetsBurned",
      "type": "event"
    },
    {
      "anonymous": false,
      "inputs": [
        {
          "indexed": false,
          "internalType": "uint24",
          "name": "previousDuration",
          "type": "uint24"
        },
        {
          "indexed": false,
          "internalType": "uint24",
          "name": "newDuration",
          "type": "uint24"
        }
      ],
      "name": "CooldownDurationUpdated",
      "type": "event"
    },
    {
      "anonymous": false,
      "inputs": [
        {
          "indexed": true,
          "internalType": "address",
          "name": "sender",
          "type": "address"
        },
        {
          "indexed": true,
          "internalType": "address",
          "name": "owner",
          "type": "address"
        },
        {
          "indexed": false,
          "internalType": "uint256",
          "name": "assets",
          "type": "uint256"
        },
        {
          "indexed": false,
          "internalType": "uint256",
          "name": "shares",
          "type": "uint256"
        }
      ],
      "name": "Deposit",
      "type": "event"
    },
    {
      "anonymous": false,
      "inputs": [],
      "name": "EIP712DomainChanged",
      "type": "event"
    },
    {
      "anonymous": false,
      "inputs": [
        {
          "indexed": true,
          "internalType": "address",
          "name": "from",
          "type": "address"
        },
        {
          "indexed": true,
          "internalType": "address",
          "name": "to",
          "type": "address"
        },
        {
          "indexed": false,
          "internalType": "uint256",
          "name": "amount",
          "type": "uint256"
        }
      ],
      "name": "LockedAmountRedistributed",
      "type": "event"
    },
    {
      "anonymous": false,
      "inputs": [
        {
          "indexed": false,
          "internalType": "address",
          "name": "account",
          "type": "address"
        }
      ],
      "name": "Paused",
      "type": "event"
    },
    {
      "anonymous": false,
      "inputs": [
        {
          "indexed": false,
          "internalType": "uint256",
          "name": "amount",
          "type": "uint256"
        }
      ],
      "name": "RewardsReceived",
      "type": "event"
    },
    {
      "anonymous": false,
      "inputs": [
        {
          "indexed": true,
          "internalType": "bytes32",
          "name": "role",
          "type": "bytes32"
        },
        {
          "indexed": true,
          "internalType": "bytes32",
          "name": "previousAdminRole",
          "type": "bytes32"
        },
        {
          "indexed": true,
          "internalType": "bytes32",
          "name": "newAdminRole",
          "type": "bytes32"
        }
      ],
      "name": "RoleAdminChanged",
      "type": "event"
    },
    {
      "anonymous": false,
      "inputs": [
        {
          "indexed": true,
          "internalType": "bytes32",
          "name": "role",
          "type": "bytes32"
        },
        {
          "indexed": true,
          "internalType": "address",
          "name": "account",
          "type": "address"
        },
        {
          "indexed": true,
          "internalType": "address",
          "name": "sender",
          "type": "address"
        }
      ],
      "name": "RoleGranted",
      "type": "event"
    },
    {
      "anonymous": false,
      "inputs": [
        {
          "indexed": true,
          "internalType": "bytes32",
          "name": "role",
          "type": "bytes32"
        },
        {
          "indexed": true,
          "internalType": "address",
          "name": "account",
          "type": "address"
        },
        {
          "indexed": true,
          "internalType": "address",
          "name": "sender",
          "type": "address"
        }
      ],
      "name": "RoleRevoked",
      "type": "event"
    },
    {
      "anonymous": false,
      "inputs": [
        {
          "indexed": true,
          "internalType": "address",
          "name": "from",
          "type": "address"
        },
        {
          "indexed": true,
          "internalType": "address",
          "name": "to",
          "type": "address"
        },
        {
          "indexed": false,
          "internalType": "uint256",
          "name": "value",
          "type": "uint256"
        }
      ],
      "name": "Transfer",
      "type": "event"
    },
    {
      "anonymous": false,
      "inputs": [
        {
          "indexed": false,
          "internalType": "address",
          "name": "account",
          "type": "address"
        }
      ],
      "name": "Unpaused",
      "type": "event"
    },
    {
      "anonymous": false,
      "inputs": [
        {
          "indexed": true,
          "internalType": "address",
          "name": "sender",
          "type": "address"
        },
        {
          "indexed": true,
          "internalType": "address",
          "name": "receiver",
          "type": "address"
        },
        {
          "indexed": true,
          "internalType": "address",
          "name": "owner",
          "type": "address"
        },
        {
          "indexed": false,
          "internalType": "uint256",
          "name": "assets",
          "type": "uint256"
        },
        {
          "indexed": false,
          "internalType": "uint256",
          "name": "shares",
          "type": "uint256"
        }
      ],
      "name": "Withdraw",
      "type": "event"
    },
    {
      "inputs": [],
      "name": "BLACKLIST_MANAGER_ROLE",
      "outputs": [
        {
          "internalType": "bytes32",
          "name": "",
          "type": "bytes32"
        }
      ],
      "stateMutability": "view",
      "type": "function"
    },
    {
      "inputs": [],
      "name": "DEFAULT_ADMIN_ROLE",
      "outputs": [
        {
          "internalType": "bytes32",
          "name": "",
          "type": "bytes32"
        }
      ],
      "stateMutability": "view",
      "type": "function"
    },
    {
      "inputs": [],
      "name": "DOMAIN_SEPARATOR",
      "outputs": [
        {
          "internalType": "bytes32",
          "name": "",
          "type": "bytes32"
        }
      ],
      "stateMutability": "view",
      "type": "function"
    },
    {
      "inputs": [],
      "name": "FULL_RESTRICTED_STAKER_ROLE",
      "outputs": [
        {
          "internalType": "bytes32",
          "name": "",
          "type": "bytes32"
        }
      ],
      "stateMutability": "view",
      "type": "function"
    },
    {
      "inputs": [],
      "name": "MAX_COOLDOWN_DURATION",
      "outputs": [
        {
          "internalType": "uint24",
          "name": "",
          "type": "uint24"
        }
      ],
      "stateMutability": "view",
      "type": "function"
    },
    {
      "inputs": [],
      "name": "MIN_SHARES",
      "outputs": [
        {
          "internalType": "uint256",
          "name": "",
          "type": "uint256"
        }
      ],
      "stateMutability": "view",
      "type": "function"
    },
    {
      "inputs": [],
      "name": "REWARDER_ROLE",
      "outputs": [
        {
          "internalType": "bytes32",
          "name": "",
          "type": "bytes32"
        }
      ],
      "stateMutability": "view",
      "type": "function"
    },
    {
      "inputs": [],
      "name": "SOFT_RESTRICTED_STAKER_ROLE",
      "outputs": [
        {
          "internalType": "bytes32",
          "name": "",
          "type": "bytes32"
        }
      ],
      "stateMutability": "view",
      "type": "function"
    },
    {
      "inputs": [],
      "name": "VESTING_PERIOD",
      "outputs": [
        {
          "internalType": "uint256",
          "name": "",
          "type": "uint256"
        }
      ],
      "stateMutability": "view",
      "type": "function"
    },
    {
      "inputs": [
        {
          "internalType": "address",
          "name": "target",
          "type": "address"
        },
        {
          "internalType": "bool",
          "name": "isFullBlacklisting",
          "type": "bool"
        }
      ],
      "name": "addToBlacklist",
      "outputs": [],
      "stateMutability": "nonpayable",
      "type": "function"
    },
    {
      "inputs": [
        {
          "internalType": "address",
          "name": "owner",
          "type": "address"
        },
        {
          "internalType": "address",
          "name": "spender",
          "type": "address"
        }
      ],
      "name": "allowance",
      "outputs": [
        {
          "internalType": "uint256",
          "name": "",
          "type": "uint256"
        }
      ],
      "stateMutability": "view",
      "type": "function"
    },
    {
      "inputs": [
        {
          "internalType": "address",
          "name": "spender",
          "type": "address"
        },
        {
          "internalType": "uint256",
          "name": "value",
          "type": "uint256"
        }
      ],
      "name": "approve",
      "outputs": [
        {
          "internalType": "bool",
          "name": "",
          "type": "bool"
        }
      ],
      "stateMutability": "nonpayable",
      "type": "function"
    },
    {
      "inputs": [],
      "name": "asset",
      "outputs": [
        {
          "internalType": "address",
          "name": "",
          "type": "address"
        }
      ],
      "stateMutability": "view",
      "type": "function"
    },
    {
      "inputs": [
        {
          "internalType": "address",
          "name": "account",
          "type": "address"
        }
      ],
      "name": "balanceOf",
      "outputs": [
        {
          "internalType": "uint256",
          "name": "",
          "type": "uint256"
        }
      ],
      "stateMutability": "view",
      "type": "function"
    },
    {
      "inputs": [
        {
          "internalType": "uint256",
          "name": "amount",
          "type": "uint256"
        }
      ],
      "name": "burnAssets",
      "outputs": [],
      "stateMutability": "nonpayable",
      "type": "function"
    },
    {
      "inputs": [
        {
          "internalType": "uint256",
          "name": "shares",
          "type": "uint256"
        }
      ],
      "name": "convertToAssets",
      "outputs": [
        {
          "internalType": "uint256",
          "name": "",
          "type": "uint256"
        }
      ],
      "stateMutability": "view",
      "type": "function"
    },
    {
      "inputs": [
        {
          "internalType": "uint256",
          "name": "assets",
          "type": "uint256"
        }
      ],
      "name": "convertToShares",
      "outputs": [
        {
          "internalType": "uint256",
          "name": "",
          "type": "uint256"
        }
      ],
      "stateMutability": "view",
      "type": "function"
    },
    {
      "inputs": [
        {
          "internalType": "uint256",
          "name": "assets",
          "type": "uint256"
        }
      ],
      "name": "cooldownAssets",
      "outputs": [
        {
          "internalType": "uint256",
          "name": "shares",
          "type": "uint256"
        }
      ],
      "stateMutability": "nonpayable",
      "type": "function"
    },
    {
      "inputs": [],
      "name": "cooldownDuration",
      "outputs": [
        {
          "internalType": "uint24",
          "name": "",
          "type": "uint24"
        }
      ],
      "stateMutability": "view",
      "type": "function"
    },
    {
      "inputs": [
        {
          "internalType": "uint256",
          "name": "shares",
          "type": "uint256"
        }
      ],
      "name": "cooldownShares",
      "outputs": [
        {
          "internalType": "uint256",
          "name": "assets",
          "type": "uint256"
        }
      ],
      "stateMutability": "nonpayable",
      "type": "function"
    },
    {
      "inputs": [
        {
          "internalType": "address",
          "name": "",
          "type": "address"
        }
      ],
      "name": "cooldowns",
      "outputs": [
        {
          "internalType": "uint104",
          "name": "cooldownEnd",
          "type": "uint104"
        },
        {
          "internalType": "uint152",
          "name": "underlyingAmount",
          "type": "uint152"
        }
      ],
      "stateMutability": "view",
      "type": "function"
    },
    {
      "inputs": [],
      "name": "decimals",
      "outputs": [
        {
          "internalType": "uint8",
          "name": "",
          "type": "uint8"
        }
      ],
      "stateMutability": "pure",
      "type": "function"
    },
    {
      "inputs": [
        {
          "internalType": "uint256",
          "name": "assets",
          "type": "uint256"
        },
        {
          "internalType": "address",
          "name": "receiver",
          "type": "address"
        }
      ],
      "name": "deposit",
      "outputs": [
        {
          "internalType": "uint256",
          "name": "",
          "type": "uint256"
        }
      ],
      "stateMutability": "nonpayable",
      "type": "function"
    },
    {
      "inputs": [],
      "name": "eip712Domain",
      "outputs": [
        {
          "internalType": "bytes1",
          "name": "fields",
          "type": "bytes1"
        },
        {
          "internalType": "string",
          "name": "name",
          "type": "string"
        },
        {
          "internalType": "string",
          "name": "version",
          "type": "string"
        },
        {
          "internalType": "uint256",
          "name": "chainId",
          "type": "uint256"
        },
        {
          "internalType": "address",
          "name": "verifyingContract",
          "type": "address"
        },
        {
          "internalType": "bytes32",
          "name": "salt",
          "type": "bytes32"
        },
        {
          "internalType": "uint256[]",
          "name": "extensions",
          "type": "uint256[]"
        }
      ],
      "stateMutability": "view",
      "type": "function"
    },
    {
      "inputs": [
        {
          "internalType": "bytes32",
          "name": "role",
          "type": "bytes32"
        }
      ],
      "name": "getRoleAdmin",
      "outputs": [
        {
          "internalType": "bytes32",
          "name": "",
          "type": "bytes32"
        }
      ],
      "stateMutability": "view",
      "type": "function"
    },
    {
      "inputs": [],
      "name": "getUnvestedAmount",
      "outputs": [
        {
          "internalType": "uint256",
          "name": "",
          "type": "uint256"
        }
      ],
      "stateMutability": "view",
      "type": "function"
    },
    {
      "inputs": [
        {
          "internalType": "bytes32",
          "name": "role",
          "type": "bytes32"
        },
        {
          "internalType": "address",
          "name": "account",
          "type": "address"
        }
      ],
      "name": "grantRole",
      "outputs": [],
      "stateMutability": "nonpayable",
      "type": "function"
    },
    {
      "inputs": [
        {
          "internalType": "bytes32",
          "name": "role",
          "type": "bytes32"
        },
        {
          "internalType": "address",
          "name": "account",
          "type": "address"
        }
      ],
      "name": "hasRole",
      "outputs": [
        {
          "internalType": "bool",
          "name": "",
          "type": "bool"
        }
      ],
      "stateMutability": "view",
      "type": "function"
    },
    {
      "inputs": [],
      "name": "lastDistributionTimestamp",
      "outputs": [
        {
          "internalType": "uint256",
          "name": "",
          "type": "uint256"
        }
      ],
      "stateMutability": "view",
      "type": "function"
    },
    {
      "inputs": [
        {
          "internalType": "address",
          "name": "",
          "type": "address"
        }
      ],
      "name": "maxDeposit",
      "outputs": [
        {
          "internalType": "uint256",
          "name": "",
          "type": "uint256"
        }
      ],
      "stateMutability": "view",
      "type": "function"
    },
    {
      "inputs": [
        {
          "internalType": "address",
          "name": "",
          "type": "address"
        }
      ],
      "name": "maxMint",
      "outputs": [
        {
          "internalType": "uint256",
          "name": "",
          "type": "uint256"
        }
      ],
      "stateMutability": "view",
      "type": "function"
    },
    {
      "inputs": [
        {
          "internalType": "address",
          "name": "owner",
          "type": "address"
        }
      ],
      "name": "maxRedeem",
      "outputs": [
        {
          "internalType": "uint256",
          "name": "",
          "type": "uint256"
        }
      ],
      "stateMutability": "view",
      "type": "function"
    },
    {
      "inputs": [
        {
          "internalType": "address",
          "name": "owner",
          "type": "address"
        }
      ],
      "name": "maxWithdraw",
      "outputs": [
        {
          "internalType": "uint256",
          "name": "",
          "type": "uint256"
        }
      ],
      "stateMutability": "view",
      "type": "function"
    },
    {
      "inputs": [
        {
          "internalType": "uint256",
          "name": "shares",
          "type": "uint256"
        },
        {
          "internalType": "address",
          "name": "receiver",
          "type": "address"
        }
      ],
      "name": "mint",
      "outputs": [
        {
          "internalType": "uint256",
          "name": "",
          "type": "uint256"
        }
      ],
      "stateMutability": "nonpayable",
      "type": "function"
    },
    {
      "inputs": [],
      "name": "name",
      "outputs": [
        {
          "internalType": "string",
          "name": "",
          "type": "string"
        }
      ],
      "stateMutability": "view",
      "type": "function"
    },
    {
      "inputs": [
        {
          "internalType": "address",
          "name": "owner",
          "type": "address"
        }
      ],
      "name": "nonces",
      "outputs": [
        {
          "internalType": "uint256",
          "name": "",
          "type": "uint256"
        }
      ],
      "stateMutability": "view",
      "type": "function"
    },
    {
      "inputs": [],
      "name": "pause",
      "outputs": [],
      "stateMutability": "nonpayable",
      "type": "function"
    },
    {
      "inputs": [],
      "name": "paused",
      "outputs": [
        {
          "internalType": "bool",
          "name": "",
          "type": "bool"
        }
      ],
      "stateMutability": "view",
      "type": "function"
    },
    {
      "inputs": [
        {
          "internalType": "address",
          "name": "owner",
          "type": "address"
        },
        {
          "internalType": "address",
          "name": "spender",
          "type": "address"
        },
        {
          "internalType": "uint256",
          "name": "value",
          "type": "uint256"
        },
        {
          "internalType": "uint256",
          "name": "deadline",
          "type": "uint256"
        },
        {
          "internalType": "uint8",
          "name": "v",
          "type": "uint8"
        },
        {
          "internalType": "bytes32",
          "name": "r",
          "type": "bytes32"
        },
        {
          "internalType": "bytes32",
          "name": "s",
          "type": "bytes32"
        }
      ],
      "name": "permit",
      "outputs": [],
      "stateMutability": "nonpayable",
      "type": "function"
    },
    {
      "inputs": [
        {
          "internalType": "uint256",
          "name": "assets",
          "type": "uint256"
        }
      ],
      "name": "previewDeposit",
      "outputs": [
        {
          "internalType": "uint256",
          "name": "",
          "type": "uint256"
        }
      ],
      "stateMutability": "view",
      "type": "function"
    },
    {
      "inputs": [
        {
          "internalType": "uint256",
          "name": "shares",
          "type": "uint256"
        }
      ],
      "name": "previewMint",
      "outputs": [
        {
          "internalType": "uint256",
          "name": "",
          "type": "uint256"
        }
      ],
      "stateMutability": "view",
      "type": "function"
    },
    {
      "inputs": [
        {
          "internalType": "uint256",
          "name": "shares",
          "type": "uint256"
        }
      ],
      "name": "previewRedeem",
      "outputs": [
        {
          "internalType": "uint256",
          "name": "",
          "type": "uint256"
        }
      ],
      "stateMutability": "view",
      "type": "function"
    },
    {
      "inputs": [
        {
          "internalType": "uint256",
          "name": "assets",
          "type": "uint256"
        }
      ],
      "name": "previewWithdraw",
      "outputs": [
        {
          "internalType": "uint256",
          "name": "",
          "type": "uint256"
        }
      ],
      "stateMutability": "view",
      "type": "function"
    },
    {
      "inputs": [
        {
          "internalType": "uint256",
          "name": "shares",
          "type": "uint256"
        },
        {
          "internalType": "address",
          "name": "receiver",
          "type": "address"
        },
        {
          "internalType": "address",
          "name": "owner",
          "type": "address"
        }
      ],
      "name": "redeem",
      "outputs": [
        {
          "internalType": "uint256",
          "name": "",
          "type": "uint256"
        }
      ],
      "stateMutability": "nonpayable",
      "type": "function"
    },
    {
      "inputs": [
        {
          "internalType": "address",
          "name": "from",
          "type": "address"
        },
        {
          "internalType": "address",
          "name": "to",
          "type": "address"
        }
      ],
      "name": "redistributeLockedAmount",
      "outputs": [],
      "stateMutability": "nonpayable",
      "type": "function"
    },
    {
      "inputs": [
        {
          "internalType": "address",
          "name": "target",
          "type": "address"
        },
        {
          "internalType": "bool",
          "name": "isFullBlacklisting",
          "type": "bool"
        }
      ],
      "name": "removeFromBlacklist",
      "outputs": [],
      "stateMutability": "nonpayable",
      "type": "function"
    },
    {
      "inputs": [
        {
          "internalType": "bytes32",
          "name": "role",
          "type": "bytes32"
        },
        {
          "internalType": "address",
          "name": "account",
          "type": "address"
        }
      ],
      "name": "renounceRole",
      "outputs": [],
      "stateMutability": "nonpayable",
      "type": "function"
    },
    {
      "inputs": [
        {
          "internalType": "address",
          "name": "token",
          "type": "address"
        },
        {
          "internalType": "uint256",
          "name": "amount",
          "type": "uint256"
        },
        {
          "internalType": "address",
          "name": "to",
          "type": "address"
        }
      ],
      "name": "rescueTokens",
      "outputs": [],
      "stateMutability": "nonpayable",
      "type": "function"
    },
    {
      "inputs": [
        {
          "internalType": "bytes32",
          "name": "role",
          "type": "bytes32"
        },
        {
          "internalType": "address",
          "name": "account",
          "type": "address"
        }
      ],
      "name": "revokeRole",
      "outputs": [],
      "stateMutability": "nonpayable",
      "type": "function"
    },
    {
      "inputs": [
        {
          "internalType": "uint24",
          "name": "duration",
          "type": "uint24"
        }
      ],
      "name": "setCooldownDuration",
      "outputs": [],
      "stateMutability": "nonpayable",
      "type": "function"
    },
    {
      "inputs": [],
      "name": "silo",
      "outputs": [
        {
          "internalType": "contract nUSDSilo",
          "name": "",
          "type": "address"
        }
      ],
      "stateMutability": "view",
      "type": "function"
    },
    {
      "inputs": [
        {
          "internalType": "bytes4",
          "name": "interfaceId",
          "type": "bytes4"
        }
      ],
      "name": "supportsInterface",
      "outputs": [
        {
          "internalType": "bool",
          "name": "",
          "type": "bool"
        }
      ],
      "stateMutability": "view",
      "type": "function"
    },
    {
      "inputs": [],
      "name": "symbol",
      "outputs": [
        {
          "internalType": "string",
          "name": "",
          "type": "string"
        }
      ],
      "stateMutability": "view",
      "type": "function"
    },
    {
      "inputs": [],
      "name": "totalAssets",
      "outputs": [
        {
          "internalType": "uint256",
          "name": "",
          "type": "uint256"
        }
      ],
      "stateMutability": "view",
      "type": "function"
    },
    {
      "inputs": [],
      "name": "totalSupply",
      "outputs": [
        {
          "internalType": "uint256",
          "name": "",
          "type": "uint256"
        }
      ],
      "stateMutability": "view",
      "type": "function"
    },
    {
      "inputs": [
        {
          "internalType": "address",
          "name": "to",
          "type": "address"
        },
        {
          "internalType": "uint256",
          "name": "value",
          "type": "uint256"
        }
      ],
      "name": "transfer",
      "outputs": [
        {
          "internalType": "bool",
          "name": "",
          "type": "bool"
        }
      ],
      "stateMutability": "nonpayable",
      "type": "function"
    },
    {
      "inputs": [
        {
          "internalType": "address",
          "name": "from",
          "type": "address"
        },
        {
          "internalType": "address",
          "name": "to",
          "type": "address"
        },
        {
          "internalType": "uint256",
          "name": "value",
          "type": "uint256"
        }
      ],
      "name": "transferFrom",
      "outputs": [
        {
          "internalType": "bool",
          "name": "",
          "type": "bool"
        }
      ],
      "stateMutability": "nonpayable",
      "type": "function"
    },
    {
      "inputs": [
        {
          "internalType": "uint256",
          "name": "amount",
          "type": "uint256"
        }
      ],
      "name": "transferInRewards",
      "outputs": [],
      "stateMutability": "nonpayable",
      "type": "function"
    },
    {
      "inputs": [],
      "name": "unpause",
      "outputs": [],
      "stateMutability": "nonpayable",
      "type": "function"
    },
    {
      "inputs": [
        {
          "internalType": "address",
          "name": "receiver",
          "type": "address"
        }
      ],
      "name": "unstake",
      "outputs": [],
      "stateMutability": "nonpayable",
      "type": "function"
    },
    {
      "inputs": [],
      "name": "vestingAmount",
      "outputs": [
        {
          "internalType": "uint256",
          "name": "",
          "type": "uint256"
        }
      ],
      "stateMutability": "view",
      "type": "function"
    },
    {
      "inputs": [
        {
          "internalType": "uint256",
          "name": "assets",
          "type": "uint256"
        },
        {
          "internalType": "address",
          "name": "receiver",
          "type": "address"
        },
        {
          "internalType": "address",
          "name": "owner",
          "type": "address"
        }
      ],
      "name": "withdraw",
      "outputs": [
        {
          "internalType": "uint256",
          "name": "",
          "type": "uint256"
        }
      ],
      "stateMutability": "nonpayable",
      "type": "function"
    }
  ],
  "transactionHash": "0xc1d6ed343f345cf2f16c556f9fa1de82dae1d85c595319f01ff095732f90c0eb",
  "args": [
    "0x90183784bD1ceB7A8026CA9dFb7d447390451f28",
    "0xfd8b2FC9b759Db3bCb8f713224e17119Dd9d3671",
    "0xfd8b2FC9b759Db3bCb8f713224e17119Dd9d3671"
  ],
  "numDeployments": 1,
  "solcInputHash": "dd3d967af1c480cc86e84500cbc57605",
  "bytecode": "0x6101c06040523480156200001257600080fd5b5060405162003a5038038062003a5083398101604081905262000035916200050b565b6040805180820182526005808252641cdb9554d160da1b6020808401829052845180860186526001808252603160f81b8284015286518088018852600b81526a14dd185ad959081b9554d160aa1b8185015287518089019098528588529287019390935291805587948493620000ac838262000606565b506006620000bb828262000606565b50620000cd91508390506007620002cc565b61012052620000de816008620002cc565b61014052815160208084019190912060e052815190820120610100524660a0526200016c60e05161010051604080517f8b73c3c69bb8fe3d512ecc4cf759cc79239f7b179b0ffacaa9a75d522b39400f60208201529081019290925260608201524660808201523060a082015260009060c00160405160208183030381529060405280519060200120905090565b60805250503060c05250600080620001848362000305565b91509150816200019657601262000198565b805b60ff166101805250506001600160a01b039081166101605281161580620001c657506001600160a01b038216155b80620001d957506001600160a01b038316155b15620001f85760405163f6b2911f60e01b815260040160405180910390fd5b62000205600082620003ea565b50620002327fbeec13769b5f410b0584f69811bfd923818456d5edcf426b0e31cf90eed7a3f683620003ea565b506200025f7ff988e4fb62b8e14f4820fed03192306ddf4d7dbfa215595ba1c6ba4b76b369ee82620003ea565b5030836040516200027090620004e4565b6001600160a01b03928316815291166020820152604001604051809103906000f080158015620002a4573d6000803e3d6000fd5b506001600160a01b03166101a0525050600d805462ffffff19166276a700179055506200078a565b6000602083511015620002ec57620002e48362000498565b9050620002ff565b81620002f9848262000606565b5060ff90505b92915050565b60408051600481526024810182526020810180516001600160e01b031663313ce56760e01b17905290516000918291829182916001600160a01b038716916200034e91620006f8565b600060405180830381855afa9150503d80600081146200038b576040519150601f19603f3d011682016040523d82523d6000602084013e62000390565b606091505b5091509150818015620003a557506020815110155b15620003dd57600081806020019051810190620003c3919062000716565b905060ff8111620003db576001969095509350505050565b505b5060009485945092505050565b6000828152602081815260408083206001600160a01b038516845290915281205460ff166200048f576000838152602081815260408083206001600160a01b03861684529091529020805460ff19166001179055620004463390565b6001600160a01b0316826001600160a01b0316847f2f8788117e7eff1d82e926ec794901d17c78024a50270940304540a733656f0d60405160405180910390a4506001620002ff565b506000620002ff565b600080829050601f81511115620004cf578260405163305a27a960e01b8152600401620004c6919062000730565b60405180910390fd5b8051620004dc8262000765565b179392505050565b61027580620037db83390190565b6001600160a01b03811681146200050857600080fd5b50565b6000806000606084860312156200052157600080fd5b83516200052e81620004f2565b60208501519093506200054181620004f2565b60408501519092506200055481620004f2565b809150509250925092565b634e487b7160e01b600052604160045260246000fd5b600181811c908216806200058a57607f821691505b602082108103620005ab57634e487b7160e01b600052602260045260246000fd5b50919050565b601f82111562000601576000816000526020600020601f850160051c81016020861015620005dc5750805b601f850160051c820191505b81811015620005fd57828155600101620005e8565b5050505b505050565b81516001600160401b038111156200062257620006226200055f565b6200063a8162000633845462000575565b84620005b1565b602080601f831160018114620006725760008415620006595750858301515b600019600386901b1c1916600185901b178555620005fd565b600085815260208120601f198616915b82811015620006a35788860151825594840194600190910190840162000682565b5085821015620006c25787850151600019600388901b60f8161c191681555b5050505050600190811b01905550565b60005b83811015620006ef578181015183820152602001620006d5565b50506000910152565b600082516200070c818460208701620006d2565b9190910192915050565b6000602082840312156200072957600080fd5b5051919050565b602081526000825180602084015262000751816040850160208701620006d2565b601f01601f19169190910160400192915050565b80516020808301519190811015620005ab5760001960209190910360031b1b16919050565b60805160a05160c05160e05161010051610120516101405161016051610180516101a051612f92620008496000396000818161088b01528181610ecc015281816113a001526116ac015260005050600081816105aa015281816108df01528181610aa501528181610b8701528181611065015281816112420152818161229e015261243d01526000611cc501526000611c9801526000611aef01526000611ac701526000611a2201526000611a4c01526000611a760152612f926000f3fe608060405234801561001057600080fd5b50600436106103b95760003560e01c80638456cb59116101f4578063c336a0841161011a578063d547741f116100ad578063eb3beb291161007c578063eb3beb2914610886578063ef8b30f7146107ad578063f2888dbb146108ad578063f298f42c146108c057600080fd5b8063d547741f1461081f578063d905777e14610832578063dd62ed3e14610845578063e7c2a6081461087e57600080fd5b8063cdac52ed116100e9578063cdac52ed146107d3578063ce23eb3c146107e6578063ce96cb77146107f9578063d505accf1461080c57600080fd5b8063c336a0841461079a578063c63d75b6146105ea578063c6e6f592146107ad578063c80ef110146107c057600080fd5b8063a0776b8211610192578063b3d7f6b911610161578063b3d7f6b91461074c578063b460af941461075f578063b8d08b2c14610772578063ba0876521461078757600080fd5b8063a0776b821461070b578063a217fddf1461071e578063a9059cbb14610726578063b37fd1901461073957600080fd5b806391d14854116101ce57806391d14854146106ca5780639343d9e1146106dd57806394bf804d146106f057806395d89b411461070357600080fd5b80638456cb591461068057806384b0196e146106885780638580cf76146106a357600080fd5b8063248a9ca3116102e45780633f4ba83a116102775780635c975abb116102465780635c975abb146106265780636e553f651461063157806370a08231146106445780637ecebe001461066d57600080fd5b80633f4ba83a146105e2578063402d267d146105ea578063410b2424146105ff5780634cdad5061461048557600080fd5b806335269315116102b3578063352693151461057e5780633644e5151461058d57806336568abe1461059557806338d52e0f146105a857600080fd5b8063248a9ca3146105245780632638f09f146105475780632f2ff15d1461055c578063313ce5671461056f57600080fd5b8063085ce8d51161035c5780631e9049cf1161032b5780631e9049cf146104db5780631fcd3080146104f9578063209509331461050857806323b872dd1461051157600080fd5b8063085ce8d514610498578063095ea7b3146104ad5780630a28a477146104c057806318160ddd146104d357600080fd5b806301e1d1141161039857806301e1d1141461044557806301ffc9a71461044d57806306fdde031461047057806307a2d13a1461048557600080fd5b8062728f76146103be57806301320fe2146103da5780630197d9721461043c575b600080fd5b6103c7600b5481565b6040519081526020015b60405180910390f35b6104156103e836600461296a565b600e602052600090815260409020546001600160681b03811690600160681b90046001600160981b031682565b604080516001600160681b0390931683526001600160981b039091166020830152016103d1565b6103c761708081565b6103c76108d3565b61046061045b366004612985565b610977565b60405190151581526020016103d1565b6104786109ae565b6040516103d191906129f5565b6103c7610493366004612a08565b610a40565b6104ab6104a6366004612a08565b610a4d565b005b6104606104bb366004612a21565b610c54565b6103c76104ce366004612a08565b610c6c565b6004546103c7565b6104e56276a70081565b60405162ffffff90911681526020016103d1565b6103c7670de0b6b3a764000081565b6103c7600c5481565b61046061051f366004612a4b565b610c79565b6103c7610532366004612a08565b60009081526020819052604090206001015490565b6103c7600080516020612f3d83398151915281565b6104ab61056a366004612a87565b610c9f565b604051601281526020016103d1565b600d546104e59062ffffff1681565b6103c7610cca565b6104ab6105a3366004612a87565b610cd4565b7f00000000000000000000000000000000000000000000000000000000000000005b6040516001600160a01b0390911681526020016103d1565b6104ab610d00565b6103c76105f836600461296a565b5060001990565b6103c77ff988e4fb62b8e14f4820fed03192306ddf4d7dbfa215595ba1c6ba4b76b369ee81565b600a5460ff16610460565b6103c761063f366004612a87565b610d13565b6103c761065236600461296a565b6001600160a01b031660009081526002602052604090205490565b6103c761067b36600461296a565b610d47565b6104ab610d52565b610690610d65565b6040516103d19796959493929190612ab3565b6103c77fbeec13769b5f410b0584f69811bfd923818456d5edcf426b0e31cf90eed7a3f681565b6104606106d8366004612a87565b610dab565b6103c76106eb366004612a08565b610dd4565b6103c76106fe366004612a87565b610ef8565b610478610f16565b6104ab610719366004612b4c565b610f25565b6103c7600081565b610460610734366004612a21565b611042565b6104ab610747366004612b76565b611050565b6103c761075a366004612a08565b6110d8565b6103c761076d366004612bb2565b6110e5565b6103c7600080516020612f1d83398151915281565b6103c7610795366004612bb2565b611120565b6104ab6107a8366004612be5565b61115b565b6103c76107bb366004612a08565b6111c3565b6104ab6107ce366004612a08565b6111d0565b6103c76107e1366004612a08565b6112a8565b6104ab6107f4366004612c21565b6113c7565b6103c761080736600461296a565b611455565b6104ab61081a366004612c46565b611479565b6104ab61082d366004612a87565b6115b3565b6103c761084036600461296a565b6115d8565b6103c7610853366004612b4c565b6001600160a01b03918216600090815260036020908152604080832093909416825291909152205490565b6103c76115f6565b6105ca7f000000000000000000000000000000000000000000000000000000000000000081565b6104ab6108bb36600461296a565b61163f565b6104ab6108ce366004612be5565b611726565b60006108dd6115f6565b7f00000000000000000000000000000000000000000000000000000000000000006040516370a0823160e01b81523060048201526001600160a01b0391909116906370a0823190602401602060405180830381865afa158015610944573d6000803e3d6000fd5b505050506040513d601f19601f820116820180604052508101906109689190612cb9565b6109729190612ce8565b905090565b60006001600160e01b03198216637965db0b60e01b14806109a857506301ffc9a760e01b6001600160e01b03198316145b92915050565b6060600580546109bd90612cfb565b80601f01602080910402602001604051908101604052809291908181526020018280546109e990612cfb565b8015610a365780601f10610a0b57610100808354040283529160200191610a36565b820191906000526020600020905b815481529060010190602001808311610a1957829003601f168201915b5050505050905090565b60006109a88260006117b9565b610a556117f3565b7fbeec13769b5f410b0584f69811bfd923818456d5edcf426b0e31cf90eed7a3f6610a7f8161181d565b8180600003610aa15760405163162908e360e11b815260040160405180910390fd5b60007f00000000000000000000000000000000000000000000000000000000000000006040516370a0823160e01b81523060048201526001600160a01b0391909116906370a0823190602401602060405180830381865afa158015610b0a573d6000803e3d6000fd5b505050506040513d601f19601f82011682018060405250810190610b2e9190612cb9565b905083811015610b515760405163162908e360e11b815260040160405180910390fd5b670de0b6b3a7640000610b648583612ce8565b1015610b8357604051630e8276d560e31b815260040160405180910390fd5b60007f0000000000000000000000000000000000000000000000000000000000000000604051630852cd8d60e31b8152600481018790529091506001600160a01b038216906342966c6890602401600060405180830381600087803b158015610beb57600080fd5b505af1158015610bff573d6000803e3d6000fd5b505050507f9619cdcf8c4aad4d95caca78ae25ac581608d66186eba65033a49acbe95fd6d185604051610c3491815260200190565b60405180910390a1610c44611827565b50505050610c5160018055565b50565b600033610c62818585611881565b5060019392505050565b60006109a882600161188e565b600033610c878582856118be565b610c92858585611924565b60019150505b9392505050565b600082815260208190526040902060010154610cba8161181d565b610cc48383611983565b50505050565b6000610972611a15565b81610cf25760405163185b73b160e01b815260040160405180910390fd5b610cfc8282611b40565b5050565b6000610d0b8161181d565b610c51611b73565b6000600019610d26565b60405180910390fd5b6000610d31856111c3565b9050610d3f33858784611bac565b949350505050565b60006109a882611c73565b6000610d5d8161181d565b610c51611827565b600060608060008060006060610d79611c91565b610d81611cbe565b60408051600080825260208201909252600f60f81b9b939a50919850469750309650945092509050565b6000918252602082815260408084206001600160a01b0393909316845291905290205460ff1690565b6000610dde611ceb565b600d5462ffffff16600003610e0657604051637a851da960e11b815260040160405180910390fd5b610e0f336115d8565b821115610e2f57604051630c668a7160e31b815260040160405180910390fd5b610e3882610a40565b600d54909150610e4d9062ffffff1642612d56565b336000908152600e6020526040902080546cffffffffffffffffffffffffff19166001600160681b039290921691909117808255829190600d90610ea2908490600160681b90046001600160981b0316612d7d565b92506101000a8154816001600160981b0302191690836001600160981b03160217905550610ef3337f0000000000000000000000000000000000000000000000000000000000000000338486611d11565b919050565b60006000196000610f08856110d8565b9050610d3f33858388611bac565b6060600680546109bd90612cfb565b610f2d6117f3565b6000610f388161181d565b610f50600080516020612f3d83398151915284610dab565b8015610f715750610f6f600080516020612f3d83398151915283610dab565b155b1561101f576001600160a01b03831660009081526002602052604081205490610f9982610a40565b9050610fa58583611df7565b6001600160a01b038416610fc157610fbc81611e2d565b610fcb565b610fcb8483611e5e565b836001600160a01b0316856001600160a01b03167fb8ef21f2b52f8ca740012254a6b10f17d2fd6e589f97ebf401fde0e8b92189378460405161101091815260200190565b60405180910390a35050611038565b604051637a851da960e11b815260040160405180910390fd5b50610cfc60018055565b600033610c62818585611924565b6110586117f3565b60006110638161181d565b7f00000000000000000000000000000000000000000000000000000000000000006001600160a01b0316846001600160a01b0316036110b55760405163c1ab6dc160e01b815260040160405180910390fd5b6110c96001600160a01b0385168385611e94565b506110d360018055565b505050565b60006109a88260016117b9565b60006110ef611ceb565b600d5462ffffff161561111557604051637a851da960e11b815260040160405180910390fd5b610d3f848484611ef3565b600061112a611ceb565b600d5462ffffff161561115057604051637a851da960e11b815260040160405180910390fd5b610d3f848484611f4b565b7ff988e4fb62b8e14f4820fed03192306ddf4d7dbfa215595ba1c6ba4b76b369ee6111858161181d565b6000826111a057600080516020612f1d8339815191526111b0565b600080516020612f3d8339815191525b90506111bc8185611f9a565b5050505050565b60006109a882600061188e565b6111d86117f3565b6111e0611ceb565b7fbeec13769b5f410b0584f69811bfd923818456d5edcf426b0e31cf90eed7a3f661120a8161181d565b818060000361122c5760405163162908e360e11b815260040160405180910390fd5b61123583611e2d565b61126a6001600160a01b037f000000000000000000000000000000000000000000000000000000000000000016333086612005565b6040518381527fbb28dd7cd6be6f61828ea9158a04c5182c716a946a6d2f31f4864edb87471aa69060200160405180910390a15050610c5160018055565b60006112b2611ceb565b600d5462ffffff166000036112da57604051637a851da960e11b815260040160405180910390fd5b6112e333611455565b82111561130357604051636fa9eef160e11b815260040160405180910390fd5b61130c82610c6c565b600d549091506113219062ffffff1642612d56565b336000908152600e6020526040902080546cffffffffffffffffffffffffff19166001600160681b039290921691909117808255839190600d90611376908490600160681b90046001600160981b0316612d7d565b92506101000a8154816001600160981b0302191690836001600160981b03160217905550610ef3337f0000000000000000000000000000000000000000000000000000000000000000338585611d11565b60006113d28161181d565b6276a70062ffffff831611156113fb57604051637475d84d60e11b815260040160405180910390fd5b600d805462ffffff84811662ffffff1983168117909355604080519190921680825260208201939093527f180eacdf7dbaeecaa983d93173b4285db2f2c0de0044697e1f932bbbb73dcaa6910160405180910390a1505050565b6001600160a01b0381166000908152600260205260408120546109a89060006117b9565b8342111561149d5760405163313c898160e11b815260048101859052602401610d1d565b60007f6e71edae12b1b97f4d1f60370fef10105fa2faae0126114a169c64845d6126c98888886114ea8c6001600160a01b0316600090815260096020526040902080546001810190915590565b6040805160208101969096526001600160a01b0394851690860152929091166060840152608083015260a082015260c0810186905260e00160405160208183030381529060405280519060200120905060006115458261203e565b905060006115558287878761206b565b9050896001600160a01b0316816001600160a01b03161461159c576040516325c0072360e11b81526001600160a01b0380831660048301528b166024820152604401610d1d565b6115a78a8a8a611881565b50505050505050505050565b6000828152602081905260409020600101546115ce8161181d565b610cc48383611f9a565b6001600160a01b0381166000908152600260205260408120546109a8565b600080600c54426116079190612ce8565b9050617080811061161a57600091505090565b600b546170808281039161162e9083612d9d565b6116389190612dca565b9250505090565b336000908152600e6020526040902080546001600160981b03600160681b820416906001600160681b03164210158061167d5750600d5462ffffff16155b1561170d576000825560405163f3fef3a360e01b81526001600160a01b038481166004830152602482018390527f0000000000000000000000000000000000000000000000000000000000000000169063f3fef3a390604401600060405180830381600087803b1580156116f057600080fd5b505af1158015611704573d6000803e3d6000fd5b50505050505050565b604051637475d84d60e11b815260040160405180910390fd5b7ff988e4fb62b8e14f4820fed03192306ddf4d7dbfa215595ba1c6ba4b76b369ee6117508161181d565b8261175c600082610dab565b1561177a576040516303f9f15d60e61b815260040160405180910390fd5b60008361179557600080516020612f1d8339815191526117a5565b600080516020612f3d8339815191525b90506117b18186611983565b505050505050565b6000610c986117c66108d3565b6117d1906001612dde565b6117dd6000600a612ed5565b6004546117ea9190612dde565b85919085612099565b60026001540361181657604051633ee5aeb560e01b815260040160405180910390fd5b6002600155565b610c5181336120dd565b61182f611ceb565b600a805460ff191660011790557f62e78cea01bee320cd4e420270b5ea74000d11b0c9f74754ebdbfc544b05a2586118643390565b6040516001600160a01b03909116815260200160405180910390a1565b6110d38383836001612116565b6000610c9861189e82600a612ed5565b6004546118ab9190612dde565b6118b36108d3565b6117ea906001612dde565b6001600160a01b03838116600090815260036020908152604080832093861683529290522054600019811015610cc4578181101561191557828183604051637dc7a0d960e11b8152600401610d1d93929190612d35565b610cc484848484036000612116565b6001600160a01b03831661194e57604051634b637e8f60e11b815260006004820152602401610d1d565b6001600160a01b0382166119785760405163ec442f0560e01b815260006004820152602401610d1d565b6110d38383836121eb565b600061198f8383610dab565b611a0d576000838152602081815260408083206001600160a01b03861684529091529020805460ff191660011790556119c53390565b6001600160a01b0316826001600160a01b0316847f2f8788117e7eff1d82e926ec794901d17c78024a50270940304540a733656f0d60405160405180910390a45060016109a8565b5060006109a8565b6000306001600160a01b037f000000000000000000000000000000000000000000000000000000000000000016148015611a6e57507f000000000000000000000000000000000000000000000000000000000000000046145b15611a9857507f000000000000000000000000000000000000000000000000000000000000000090565b610972604080517f8b73c3c69bb8fe3d512ecc4cf759cc79239f7b179b0ffacaa9a75d522b39400f60208201527f0000000000000000000000000000000000000000000000000000000000000000918101919091527f000000000000000000000000000000000000000000000000000000000000000060608201524660808201523060a082015260009060c00160405160208183030381529060405280519060200120905090565b6001600160a01b0381163314611b695760405163334bd91960e11b815260040160405180910390fd5b6110d38282611f9a565b611b7b612276565b600a805460ff191690557f5db9ee0a495bf2e6ff9c91a7834c1ba4fdd244a5e8aa4e537bd38aeae4b073aa33611864565b611bb46117f3565b611bbc611ceb565b8180600003611bde5760405163162908e360e11b815260040160405180910390fd5b8180600003611c005760405163162908e360e11b815260040160405180910390fd5b611c18600080516020612f1d83398151915287610dab565b80611c365750611c36600080516020612f1d83398151915286610dab565b15611c5457604051637a851da960e11b815260040160405180910390fd5b611c6086868686612299565b611c6861231d565b5050610cc460018055565b6001600160a01b0381166000908152600960205260408120546109a8565b60606109727f0000000000000000000000000000000000000000000000000000000000000000600761235f565b60606109727f0000000000000000000000000000000000000000000000000000000000000000600861235f565b600a5460ff1615611d0f5760405163d93c066560e01b815260040160405180910390fd5b565b611d196117f3565b611d21611ceb565b8180600003611d435760405163162908e360e11b815260040160405180910390fd5b8180600003611d655760405163162908e360e11b815260040160405180910390fd5b611d7d600080516020612f3d83398151915288610dab565b80611d9b5750611d9b600080516020612f3d83398151915287610dab565b80611db95750611db9600080516020612f3d83398151915286610dab565b15611dd757604051637a851da960e11b815260040160405180910390fd5b611de4878787878761240a565b611dec61231d565b50506111bc60018055565b6001600160a01b038216611e2157604051634b637e8f60e11b815260006004820152602401610d1d565b610cfc826000836121eb565b6000611e376115f6565b1115611e5557604051628099ef60e11b815260040160405180910390fd5b600b5542600c55565b6001600160a01b038216611e885760405163ec442f0560e01b815260006004820152602401610d1d565b610cfc600083836121eb565b6040516001600160a01b038381166024830152604482018390526110d391859182169063a9059cbb906064015b604051602081830303815290604052915060e01b6020820180516001600160e01b0383818316178352505050506124ca565b600080611eff83611455565b905080851115611f2857828582604051633fa733bb60e21b8152600401610d1d93929190612d35565b6000611f3386610c6c565b9050611f423386868985611d11565b95945050505050565b600080611f57836115d8565b905080851115611f8057828582604051632e52afbb60e21b8152600401610d1d93929190612d35565b6000611f8b86610a40565b9050611f42338686848a611d11565b6000611fa68383610dab565b15611a0d576000838152602081815260408083206001600160a01b0386168085529252808320805460ff1916905551339286917ff6391f5c32d9c69d2a47ea670b442974b53935d1edc7fd64eb21e047a839171b9190a45060016109a8565b6040516001600160a01b038481166024830152838116604483015260648201839052610cc49186918216906323b872dd90608401611ec1565b60006109a861204b611a15565b8360405161190160f01b8152600281019290925260228201526042902090565b60008060008061207d8888888861253b565b92509250925061208d828261260a565b50909695505050505050565b60006120c86120a7836126c3565b80156120c35750600084806120be576120be612db4565b868809115b151590565b6120d38686866126f0565b611f429190612dde565b6120e78282610dab565b610cfc5760405163e2517d3f60e01b81526001600160a01b038216600482015260248101839052604401610d1d565b6001600160a01b0384166121405760405163e602df0560e01b815260006004820152602401610d1d565b6001600160a01b03831661216a57604051634a1406b160e11b815260006004820152602401610d1d565b6001600160a01b0380851660009081526003602090815260408083209387168352929052208290558015610cc457826001600160a01b0316846001600160a01b03167f8c5be1e5ebec7d5bd14f71427d1e84f3dd0314c0f7b2291e5b200ac8c7c3b925846040516121dd91815260200190565b60405180910390a350505050565b612203600080516020612f3d83398151915284610dab565b801561221757506001600160a01b03821615155b1561223557604051637a851da960e11b815260040160405180910390fd5b61224d600080516020612f3d83398151915283610dab565b1561226b57604051637a851da960e11b815260040160405180910390fd5b6110d38383836127a5565b600a5460ff16611d0f57604051638dfc202b60e01b815260040160405180910390fd5b6122c57f0000000000000000000000000000000000000000000000000000000000000000853085612005565b6122cf8382611e5e565b826001600160a01b0316846001600160a01b03167fdcbc1c05240f31ff3ad067ef1ee35ce4997762752e3a095284754544f4c709d784846040516121dd929190918252602082015260400190565b600061232860045490565b90506000811180156123415750670de0b6b3a764000081105b15610c5157604051635a5c1b5560e11b815260040160405180910390fd5b606060ff831461237957612372836128bc565b90506109a8565b81805461238590612cfb565b80601f01602080910402602001604051908101604052809291908181526020018280546123b190612cfb565b80156123fe5780601f106123d3576101008083540402835291602001916123fe565b820191906000526020600020905b8154815290600101906020018083116123e157829003601f168201915b505050505090506109a8565b826001600160a01b0316856001600160a01b03161461242e5761242e8386836118be565b6124388382611df7565b6124637f00000000000000000000000000000000000000000000000000000000000000008584611e94565b826001600160a01b0316846001600160a01b0316866001600160a01b03167ffbde797d201c681b91056529119e0b02407c7bb96a4a2c75c01fc9667232c8db85856040516124bb929190918252602082015260400190565b60405180910390a45050505050565b600080602060008451602086016000885af1806124ed576040513d6000823e3d81fd5b50506000513d91508115612505578060011415612512565b6001600160a01b0384163b155b15610cc457604051635274afe760e01b81526001600160a01b0385166004820152602401610d1d565b600080807f7fffffffffffffffffffffffffffffff5d576e7357a4501ddfe92f46681b20a08411156125765750600091506003905082612600565b604080516000808252602082018084528a905260ff891692820192909252606081018790526080810186905260019060a0016020604051602081039080840390855afa1580156125ca573d6000803e3d6000fd5b5050604051601f1901519150506001600160a01b0381166125f657506000925060019150829050612600565b9250600091508190505b9450945094915050565b600082600381111561261e5761261e612ee4565b03612627575050565b600182600381111561263b5761263b612ee4565b036126595760405163f645eedf60e01b815260040160405180910390fd5b600282600381111561266d5761266d612ee4565b0361268e5760405163fce698f760e01b815260048101829052602401610d1d565b60038260038111156126a2576126a2612ee4565b03610cfc576040516335e2f38360e21b815260048101829052602401610d1d565b600060028260038111156126d9576126d9612ee4565b6126e39190612efa565b60ff166001149050919050565b60008060006126ff86866128fb565b91509150816000036127245783818161271a5761271a612db4565b0492505050610c98565b81841161273b5761273b6003851502601118612919565b6000848688096000868103871696879004966002600389028118808a02820302808a02820302808a02820302808a02820302808a02820302808a02909103029181900381900460010185841190960395909502919093039390930492909217029150509392505050565b6001600160a01b0383166127d05780600460008282546127c59190612dde565b9091555061282f9050565b6001600160a01b038316600090815260026020526040902054818110156128105783818360405163391434e360e21b8152600401610d1d93929190612d35565b6001600160a01b03841660009081526002602052604090209082900390555b6001600160a01b03821661284b5760048054829003905561286a565b6001600160a01b03821660009081526002602052604090208054820190555b816001600160a01b0316836001600160a01b03167fddf252ad1be2c89b69c2b068fc378daa952ba7f163c4a11628f55a4df523b3ef836040516128af91815260200190565b60405180910390a3505050565b606060006128c98361292b565b604080516020808252818301909252919250600091906020820181803683375050509182525060208101929092525090565b60008060001983850993909202808410938190039390930393915050565b634e487b71600052806020526024601cfd5b600060ff8216601f8111156109a857604051632cd44ac360e21b815260040160405180910390fd5b80356001600160a01b0381168114610ef357600080fd5b60006020828403121561297c57600080fd5b610c9882612953565b60006020828403121561299757600080fd5b81356001600160e01b031981168114610c9857600080fd5b6000815180845260005b818110156129d5576020818501810151868301820152016129b9565b506000602082860101526020601f19601f83011685010191505092915050565b602081526000610c9860208301846129af565b600060208284031215612a1a57600080fd5b5035919050565b60008060408385031215612a3457600080fd5b612a3d83612953565b946020939093013593505050565b600080600060608486031215612a6057600080fd5b612a6984612953565b9250612a7760208501612953565b9150604084013590509250925092565b60008060408385031215612a9a57600080fd5b82359150612aaa60208401612953565b90509250929050565b60ff60f81b881681526000602060e06020840152612ad460e084018a6129af565b8381036040850152612ae6818a6129af565b606085018990526001600160a01b038816608086015260a0850187905284810360c08601528551808252602080880193509091019060005b81811015612b3a57835183529284019291840191600101612b1e565b50909c9b505050505050505050505050565b60008060408385031215612b5f57600080fd5b612b6883612953565b9150612aaa60208401612953565b600080600060608486031215612b8b57600080fd5b612b9484612953565b925060208401359150612ba960408501612953565b90509250925092565b600080600060608486031215612bc757600080fd5b83359250612bd760208501612953565b9150612ba960408501612953565b60008060408385031215612bf857600080fd5b612c0183612953565b915060208301358015158114612c1657600080fd5b809150509250929050565b600060208284031215612c3357600080fd5b813562ffffff81168114610c9857600080fd5b600080600080600080600060e0888a031215612c6157600080fd5b612c6a88612953565b9650612c7860208901612953565b95506040880135945060608801359350608088013560ff81168114612c9c57600080fd5b9699959850939692959460a0840135945060c09093013592915050565b600060208284031215612ccb57600080fd5b5051919050565b634e487b7160e01b600052601160045260246000fd5b818103818111156109a8576109a8612cd2565b600181811c90821680612d0f57607f821691505b602082108103612d2f57634e487b7160e01b600052602260045260246000fd5b50919050565b6001600160a01b039390931683526020830191909152604082015260600190565b6001600160681b03818116838216019080821115612d7657612d76612cd2565b5092915050565b6001600160981b03818116838216019080821115612d7657612d76612cd2565b80820281158282048414176109a8576109a8612cd2565b634e487b7160e01b600052601260045260246000fd5b600082612dd957612dd9612db4565b500490565b808201808211156109a8576109a8612cd2565b600181815b80851115612e2c578160001904821115612e1257612e12612cd2565b80851615612e1f57918102915b93841c9390800290612df6565b509250929050565b600082612e43575060016109a8565b81612e50575060006109a8565b8160018114612e665760028114612e7057612e8c565b60019150506109a8565b60ff841115612e8157612e81612cd2565b50506001821b6109a8565b5060208310610133831016604e8410600b8410161715612eaf575081810a6109a8565b612eb98383612df1565b8060001904821115612ecd57612ecd612cd2565b029392505050565b6000610c9860ff841683612e34565b634e487b7160e01b600052602160045260246000fd5b600060ff831680612f0d57612f0d612db4565b8060ff8416069150509291505056fe8f7080408a06296c6347c87c115ad99669141ae35eae974c12dff8bd01680cb60a4af4bcc1942295207d9f047442ebdae6170a6e324850f758b14cf99b65c3bda2646970667358221220eace90ca679155186060432b57957ebe7c20b42b8065ef46bdfde109f42f083764736f6c6343000816003360c060405234801561001057600080fd5b5060405161027538038061027583398101604081905261002f91610062565b6001600160a01b039182166080521660a052610095565b80516001600160a01b038116811461005d57600080fd5b919050565b6000806040838503121561007557600080fd5b61007e83610046565b915061008c60208401610046565b90509250929050565b60805160a0516101bd6100b8600039600060b401526000605001526101bd6000f3fe608060405234801561001057600080fd5b506004361061002b5760003560e01c8063f3fef3a314610030575b600080fd5b61004361003e366004610126565b610045565b005b336001600160a01b037f0000000000000000000000000000000000000000000000000000000000000000161461008e576040516317dd114560e01b815260040160405180910390fd5b60405163a9059cbb60e01b81526001600160a01b038381166004830152602482018390527f0000000000000000000000000000000000000000000000000000000000000000169063a9059cbb906044016020604051808303816000875af11580156100fd573d6000803e3d6000fd5b505050506040513d601f19601f82011682018060405250810190610121919061015e565b505050565b6000806040838503121561013957600080fd5b82356001600160a01b038116811461015057600080fd5b946020939093013593505050565b60006020828403121561017057600080fd5b8151801515811461018057600080fd5b939250505056fea26469706673582212206e4d24756785f5e99aee29b682e248316ab4ed3d8abbec64f0cb236446fd2c9164736f6c63430008160033",
  "devdoc": {
    "details": "Users stake nUSD tokens and earn rewards. The contract uses ERC4626 standard      for vault operations and can be integrated with LayerZero's OVault for omnichain functionality.      Rewards are distributed by REWARDER_ROLE and vest over time to prevent MEV attacks.If cooldown duration is set to zero, the StakednUSD behavior follows ERC4626 standard      and disables cooldownShares and cooldownAssets methods. If cooldown duration is greater      than zero, the ERC4626 withdrawal and redeem functions are disabled, breaking the ERC4626      standard, and enabling the cooldownShares and the cooldownAssets functions.",
    "errors": {
      "AccessControlBadConfirmation()": [
        {
          "details": "The caller of a function is not the expected one. NOTE: Don't confuse with {AccessControlUnauthorizedAccount}."
        }
      ],
      "AccessControlUnauthorizedAccount(address,bytes32)": [
        {
          "details": "The `account` is missing a role."
        }
      ],
      "ECDSAInvalidSignature()": [
        {
          "details": "The signature derives the `address(0)`."
        }
      ],
      "ECDSAInvalidSignatureLength(uint256)": [
        {
          "details": "The signature has an invalid length."
        }
      ],
      "ECDSAInvalidSignatureS(bytes32)": [
        {
          "details": "The signature has an S value that is in the upper half order."
        }
      ],
      "ERC20InsufficientAllowance(address,uint256,uint256)": [
        {
          "details": "Indicates a failure with the `spender`s `allowance`. Used in transfers.",
          "params": {
            "allowance": "Amount of tokens a `spender` is allowed to operate with.",
            "needed": "Minimum amount required to perform a transfer.",
            "spender": "Address that may be allowed to operate on tokens without being their owner."
          }
        }
      ],
      "ERC20InsufficientBalance(address,uint256,uint256)": [
        {
          "details": "Indicates an error related to the current `balance` of a `sender`. Used in transfers.",
          "params": {
            "balance": "Current balance for the interacting account.",
            "needed": "Minimum amount required to perform a transfer.",
            "sender": "Address whose tokens are being transferred."
          }
        }
      ],
      "ERC20InvalidApprover(address)": [
        {
          "details": "Indicates a failure with the `approver` of a token to be approved. Used in approvals.",
          "params": {
            "approver": "Address initiating an approval operation."
          }
        }
      ],
      "ERC20InvalidReceiver(address)": [
        {
          "details": "Indicates a failure with the token `receiver`. Used in transfers.",
          "params": {
            "receiver": "Address to which tokens are being transferred."
          }
        }
      ],
      "ERC20InvalidSender(address)": [
        {
          "details": "Indicates a failure with the token `sender`. Used in transfers.",
          "params": {
            "sender": "Address whose tokens are being transferred."
          }
        }
      ],
      "ERC20InvalidSpender(address)": [
        {
          "details": "Indicates a failure with the `spender` to be approved. Used in approvals.",
          "params": {
            "spender": "Address that may be allowed to operate on tokens without being their owner."
          }
        }
      ],
      "ERC2612ExpiredSignature(uint256)": [
        {
          "details": "Permit deadline has expired."
        }
      ],
      "ERC2612InvalidSigner(address,address)": [
        {
          "details": "Mismatched signature."
        }
      ],
      "ERC4626ExceededMaxDeposit(address,uint256,uint256)": [
        {
          "details": "Attempted to deposit more assets than the max amount for `receiver`."
        }
      ],
      "ERC4626ExceededMaxMint(address,uint256,uint256)": [
        {
          "details": "Attempted to mint more shares than the max amount for `receiver`."
        }
      ],
      "ERC4626ExceededMaxRedeem(address,uint256,uint256)": [
        {
          "details": "Attempted to redeem more shares than the max amount for `receiver`."
        }
      ],
      "ERC4626ExceededMaxWithdraw(address,uint256,uint256)": [
        {
          "details": "Attempted to withdraw more assets than the max amount for `receiver`."
        }
      ],
      "EnforcedPause()": [
        {
          "details": "The operation failed because the contract is paused."
        }
      ],
      "ExpectedPause()": [
        {
          "details": "The operation failed because the contract is not paused."
        }
      ],
      "InvalidAccountNonce(address,uint256)": [
        {
          "details": "The nonce used for an `account` is not the expected current nonce."
        }
      ],
      "ReentrancyGuardReentrantCall()": [
        {
          "details": "Unauthorized reentrant call."
        }
      ],
      "SafeERC20FailedOperation(address)": [
        {
          "details": "An operation with an ERC-20 token failed."
        }
      ]
    },
    "events": {
      "Approval(address,address,uint256)": {
        "details": "Emitted when the allowance of a `spender` for an `owner` is set by a call to {approve}. `value` is the new allowance."
      },
      "EIP712DomainChanged()": {
        "details": "MAY be emitted to signal that the domain could have changed."
      },
      "Paused(address)": {
        "details": "Emitted when the pause is triggered by `account`."
      },
      "RoleAdminChanged(bytes32,bytes32,bytes32)": {
        "details": "Emitted when `newAdminRole` is set as ``role``'s admin role, replacing `previousAdminRole` `DEFAULT_ADMIN_ROLE` is the starting admin for all roles, despite {RoleAdminChanged} not being emitted to signal this."
      },
      "RoleGranted(bytes32,address,address)": {
        "details": "Emitted when `account` is granted `role`. `sender` is the account that originated the contract call. This account bears the admin role (for the granted role). Expected in cases where the role was granted using the internal {AccessControl-_grantRole}."
      },
      "RoleRevoked(bytes32,address,address)": {
        "details": "Emitted when `account` is revoked `role`. `sender` is the account that originated the contract call:   - if using `revokeRole`, it is the admin role bearer   - if using `renounceRole`, it is the role bearer (i.e. `account`)"
      },
      "Transfer(address,address,uint256)": {
        "details": "Emitted when `value` tokens are moved from one account (`from`) to another (`to`). Note that `value` may be zero."
      },
      "Unpaused(address)": {
        "details": "Emitted when the pause is lifted by `account`."
      }
    },
    "kind": "dev",
    "methods": {
      "DOMAIN_SEPARATOR()": {
        "details": "Returns the domain separator used in the encoding of the signature for {permit}, as defined by {EIP712}."
      },
      "addToBlacklist(address,bool)": {
        "params": {
          "isFullBlacklisting": "Soft or full blacklisting level",
          "target": "The address to blacklist"
        }
      },
      "allowance(address,address)": {
        "details": "Returns the remaining number of tokens that `spender` will be allowed to spend on behalf of `owner` through {transferFrom}. This is zero by default. This value changes when {approve} or {transferFrom} are called."
      },
      "approve(address,uint256)": {
        "details": "See {IERC20-approve}. NOTE: If `value` is the maximum `uint256`, the allowance is not updated on `transferFrom`. This is semantically equivalent to an infinite approval. Requirements: - `spender` cannot be the zero address."
      },
      "asset()": {
        "details": "Returns the address of the underlying token used for the Vault for accounting, depositing, and withdrawing. - MUST be an ERC-20 token contract. - MUST NOT revert."
      },
      "balanceOf(address)": {
        "details": "Returns the value of tokens owned by `account`."
      },
      "burnAssets(uint256)": {
        "details": "This calls nUSD's burn function which burns both nUSD and underlying MCTCollateral stays in MCT, making remaining tokens more valuable (deflationary)Unlike transferInRewards, this happens instantly without vesting",
        "params": {
          "amount": "The amount of nUSD to burn"
        }
      },
      "constructor": {
        "params": {
          "_admin": "The address of the admin role",
          "_asset": "The address of the nUSD token",
          "_initialRewarder": "The address of the initial rewarder"
        }
      },
      "convertToAssets(uint256)": {
        "details": "Returns the amount of assets that the Vault would exchange for the amount of shares provided, in an ideal scenario where all the conditions are met. - MUST NOT be inclusive of any fees that are charged against assets in the Vault. - MUST NOT show any variations depending on the caller. - MUST NOT reflect slippage or other on-chain conditions, when performing the actual exchange. - MUST NOT revert. NOTE: This calculation MAY NOT reflect the per-user price-per-share, and instead should reflect the average-users price-per-share, meaning what the average user should expect to see when exchanging to and from."
      },
      "convertToShares(uint256)": {
        "details": "Returns the amount of shares that the Vault would exchange for the amount of assets provided, in an ideal scenario where all the conditions are met. - MUST NOT be inclusive of any fees that are charged against assets in the Vault. - MUST NOT show any variations depending on the caller. - MUST NOT reflect slippage or other on-chain conditions, when performing the actual exchange. - MUST NOT revert. NOTE: This calculation MAY NOT reflect the per-user price-per-share, and instead should reflect the average-users price-per-share, meaning what the average user should expect to see when exchanging to and from."
      },
      "cooldownAssets(uint256)": {
        "params": {
          "assets": "assets to redeem"
        }
      },
      "cooldownShares(uint256)": {
        "params": {
          "shares": "shares to redeem"
        }
      },
      "decimals()": {
        "details": "Necessary because both ERC20 (from ERC20Permit) and ERC4626 declare decimals()"
      },
      "deposit(uint256,address)": {
        "details": "Mints shares Vault shares to receiver by depositing exactly amount of underlying tokens. - MUST emit the Deposit event. - MAY support an additional flow in which the underlying tokens are owned by the Vault contract before the   deposit execution, and are accounted for during deposit. - MUST revert if all of assets cannot be deposited (due to deposit limit being reached, slippage, the user not   approving enough underlying tokens to the Vault contract, etc). NOTE: most implementations will require pre-approval of the Vault with the Vaults underlying asset token."
      },
      "eip712Domain()": {
        "details": "returns the fields and values that describe the domain separator used by this contract for EIP-712 signature."
      },
      "getRoleAdmin(bytes32)": {
        "details": "Returns the admin role that controls `role`. See {grantRole} and {revokeRole}. To change a role's admin, use {_setRoleAdmin}."
      },
      "getUnvestedAmount()": {
        "returns": {
          "_0": "The unvested amount"
        }
      },
      "grantRole(bytes32,address)": {
        "details": "Grants `role` to `account`. If `account` had not been already granted `role`, emits a {RoleGranted} event. Requirements: - the caller must have ``role``'s admin role. May emit a {RoleGranted} event."
      },
      "hasRole(bytes32,address)": {
        "details": "Returns `true` if `account` has been granted `role`."
      },
      "maxDeposit(address)": {
        "details": "Returns the maximum amount of the underlying asset that can be deposited into the Vault for the receiver, through a deposit call. - MUST return a limited value if receiver is subject to some deposit limit. - MUST return 2 ** 256 - 1 if there is no limit on the maximum amount of assets that may be deposited. - MUST NOT revert."
      },
      "maxMint(address)": {
        "details": "Returns the maximum amount of the Vault shares that can be minted for the receiver, through a mint call. - MUST return a limited value if receiver is subject to some mint limit. - MUST return 2 ** 256 - 1 if there is no limit on the maximum amount of shares that may be minted. - MUST NOT revert."
      },
      "maxRedeem(address)": {
        "details": "Returns the maximum amount of Vault shares that can be redeemed from the owner balance in the Vault, through a redeem call. - MUST return a limited value if owner is subject to some withdrawal limit or timelock. - MUST return balanceOf(owner) if owner is not subject to any withdrawal limit or timelock. - MUST NOT revert."
      },
      "maxWithdraw(address)": {
        "details": "Returns the maximum amount of the underlying asset that can be withdrawn from the owner balance in the Vault, through a withdraw call. - MUST return a limited value if owner is subject to some withdrawal limit or timelock. - MUST NOT revert."
      },
      "mint(uint256,address)": {
        "details": "Mints exactly shares Vault shares to receiver by depositing amount of underlying tokens. - MUST emit the Deposit event. - MAY support an additional flow in which the underlying tokens are owned by the Vault contract before the mint   execution, and are accounted for during mint. - MUST revert if all of shares cannot be minted (due to deposit limit being reached, slippage, the user not   approving enough underlying tokens to the Vault contract, etc). NOTE: most implementations will require pre-approval of the Vault with the Vaults underlying asset token."
      },
      "name()": {
        "details": "Returns the name of the token."
      },
      "nonces(address)": {
        "details": "Override nonces to resolve conflict between ERC20Permit and other base classes"
      },
      "paused()": {
        "details": "Returns true if the contract is paused, and false otherwise."
      },
      "permit(address,address,uint256,uint256,uint8,bytes32,bytes32)": {
        "details": "Sets `value` as the allowance of `spender` over ``owner``'s tokens, given ``owner``'s signed approval. IMPORTANT: The same issues {IERC20-approve} has related to transaction ordering also apply here. Emits an {Approval} event. Requirements: - `spender` cannot be the zero address. - `deadline` must be a timestamp in the future. - `v`, `r` and `s` must be a valid `secp256k1` signature from `owner` over the EIP712-formatted function arguments. - the signature must use ``owner``'s current nonce (see {nonces}). For more information on the signature format, see the https://eips.ethereum.org/EIPS/eip-2612#specification[relevant EIP section]. CAUTION: See Security Considerations above."
      },
      "previewDeposit(uint256)": {
        "details": "Allows an on-chain or off-chain user to simulate the effects of their deposit at the current block, given current on-chain conditions. - MUST return as close to and no more than the exact amount of Vault shares that would be minted in a deposit   call in the same transaction. I.e. deposit should return the same or more shares as previewDeposit if called   in the same transaction. - MUST NOT account for deposit limits like those returned from maxDeposit and should always act as though the   deposit would be accepted, regardless if the user has enough tokens approved, etc. - MUST be inclusive of deposit fees. Integrators should be aware of the existence of deposit fees. - MUST NOT revert. NOTE: any unfavorable discrepancy between convertToShares and previewDeposit SHOULD be considered slippage in share price or some other type of condition, meaning the depositor will lose assets by depositing."
      },
      "previewMint(uint256)": {
        "details": "Allows an on-chain or off-chain user to simulate the effects of their mint at the current block, given current on-chain conditions. - MUST return as close to and no fewer than the exact amount of assets that would be deposited in a mint call   in the same transaction. I.e. mint should return the same or fewer assets as previewMint if called in the   same transaction. - MUST NOT account for mint limits like those returned from maxMint and should always act as though the mint   would be accepted, regardless if the user has enough tokens approved, etc. - MUST be inclusive of deposit fees. Integrators should be aware of the existence of deposit fees. - MUST NOT revert. NOTE: any unfavorable discrepancy between convertToAssets and previewMint SHOULD be considered slippage in share price or some other type of condition, meaning the depositor will lose assets by minting."
      },
      "previewRedeem(uint256)": {
        "details": "Allows an on-chain or off-chain user to simulate the effects of their redemption at the current block, given current on-chain conditions. - MUST return as close to and no more than the exact amount of assets that would be withdrawn in a redeem call   in the same transaction. I.e. redeem should return the same or more assets as previewRedeem if called in the   same transaction. - MUST NOT account for redemption limits like those returned from maxRedeem and should always act as though the   redemption would be accepted, regardless if the user has enough shares, etc. - MUST be inclusive of withdrawal fees. Integrators should be aware of the existence of withdrawal fees. - MUST NOT revert. NOTE: any unfavorable discrepancy between convertToAssets and previewRedeem SHOULD be considered slippage in share price or some other type of condition, meaning the depositor will lose assets by redeeming."
      },
      "previewWithdraw(uint256)": {
        "details": "Allows an on-chain or off-chain user to simulate the effects of their withdrawal at the current block, given current on-chain conditions. - MUST return as close to and no fewer than the exact amount of Vault shares that would be burned in a withdraw   call in the same transaction. I.e. withdraw should return the same or fewer shares as previewWithdraw if   called   in the same transaction. - MUST NOT account for withdrawal limits like those returned from maxWithdraw and should always act as though   the withdrawal would be accepted, regardless if the user has enough shares, etc. - MUST be inclusive of withdrawal fees. Integrators should be aware of the existence of withdrawal fees. - MUST NOT revert. NOTE: any unfavorable discrepancy between convertToShares and previewWithdraw SHOULD be considered slippage in share price or some other type of condition, meaning the depositor will lose assets by depositing."
      },
      "redeem(uint256,address,address)": {
        "details": "See {IERC4626-redeem}."
      },
      "redistributeLockedAmount(address,address)": {
        "params": {
          "from": "The address to burn the entire balance from (must have FULL_RESTRICTED_STAKER_ROLE)",
          "to": "The address to mint the entire balance to (or address(0) to burn)"
        }
      },
      "removeFromBlacklist(address,bool)": {
        "params": {
          "isFullBlacklisting": "Soft or full blacklisting level",
          "target": "The address to un-blacklist"
        }
      },
      "renounceRole(bytes32,address)": {
        "details": "Prevent renouncing roles to maintain contract security"
      },
      "rescueTokens(address,uint256,address)": {
        "details": "Cannot rescue the underlying asset (nUSD)",
        "params": {
          "amount": "The amount of tokens to be rescued",
          "to": "Where to send rescued tokens",
          "token": "The token to be rescued"
        }
      },
      "revokeRole(bytes32,address)": {
        "details": "Revokes `role` from `account`. If `account` had been granted `role`, emits a {RoleRevoked} event. Requirements: - the caller must have ``role``'s admin role. May emit a {RoleRevoked} event."
      },
      "setCooldownDuration(uint24)": {
        "details": "If cooldown duration is set to zero, the behavior follows ERC4626 standard and disables      cooldownShares and cooldownAssets methods. If cooldown duration is greater than zero,      the ERC4626 withdrawal and redeem functions are disabled, breaking the ERC4626 standard,      and enabling the cooldownShares and the cooldownAssets functions.",
        "params": {
          "duration": "Duration of the cooldown"
        }
      },
      "supportsInterface(bytes4)": {
        "details": "Returns true if this contract implements the interface defined by `interfaceId`. See the corresponding https://eips.ethereum.org/EIPS/eip-165#how-interfaces-are-identified[ERC section] to learn more about how these ids are created. This function call must use less than 30 000 gas."
      },
      "symbol()": {
        "details": "Returns the symbol of the token, usually a shorter version of the name."
      },
      "totalAssets()": {
        "returns": {
          "_0": "The total vested assets"
        }
      },
      "totalSupply()": {
        "details": "Returns the value of tokens in existence."
      },
      "transfer(address,uint256)": {
        "details": "See {IERC20-transfer}. Requirements: - `to` cannot be the zero address. - the caller must have a balance of at least `value`."
      },
      "transferFrom(address,address,uint256)": {
        "details": "See {IERC20-transferFrom}. Skips emitting an {Approval} event indicating an allowance update. This is not required by the ERC. See {xref-ERC20-_approve-address-address-uint256-bool-}[_approve]. NOTE: Does not update the allowance if the current allowance is the maximum `uint256`. Requirements: - `from` and `to` cannot be the zero address. - `from` must have a balance of at least `value`. - the caller must have allowance for ``from``'s tokens of at least `value`."
      },
      "transferInRewards(uint256)": {
        "params": {
          "amount": "The amount of rewards to transfer"
        }
      },
      "unstake(address)": {
        "details": "unstake can be called after cooldown have been set to 0, to let accounts claim remaining assets locked at Silo",
        "params": {
          "receiver": "Address to send the assets by the staker"
        }
      },
      "withdraw(uint256,address,address)": {
        "details": "See {IERC4626-withdraw}."
      }
    },
    "title": "StakednUSD",
    "version": 1
  },
  "userdoc": {
    "errors": {
      "ExcessiveRedeemAmount()": [
        {
          "notice": "Error emitted when the shares amount to redeem is greater than the shares balance of the owner"
        }
      ],
      "ExcessiveWithdrawAmount()": [
        {
          "notice": "Error emitted when the shares amount to withdraw is greater than the shares balance of the owner"
        }
      ],
      "InvalidCooldown()": [
        {
          "notice": "Error emitted when cooldown value is invalid"
        }
      ]
    },
    "events": {
      "CooldownDurationUpdated(uint24,uint24)": {
        "notice": "Event emitted when cooldown duration updates"
      }
    },
    "kind": "user",
    "methods": {
      "BLACKLIST_MANAGER_ROLE()": {
        "notice": "Role that can blacklist and un-blacklist addresses"
      },
      "FULL_RESTRICTED_STAKER_ROLE()": {
        "notice": "Role that prevents an address from transferring, staking, or unstaking"
      },
      "MAX_COOLDOWN_DURATION()": {
        "notice": "Maximum cooldown duration (90 days)"
      },
      "MIN_SHARES()": {
        "notice": "Minimum non-zero shares to prevent donation attack"
      },
      "REWARDER_ROLE()": {
        "notice": "Role that can distribute rewards to this contract"
      },
      "SOFT_RESTRICTED_STAKER_ROLE()": {
        "notice": "Role that prevents an address from staking"
      },
      "VESTING_PERIOD()": {
        "notice": "Vesting period for rewards (8 hours)"
      },
      "addToBlacklist(address,bool)": {
        "notice": "Add an address to blacklist"
      },
      "burnAssets(uint256)": {
        "notice": "Burn nUSD from the contract to decrease snUSD exchange rate"
      },
      "constructor": {
        "notice": "Constructor for StakednUSD contract"
      },
      "cooldownAssets(uint256)": {
        "notice": "Redeem assets and starts a cooldown to claim the converted underlying asset"
      },
      "cooldownDuration()": {
        "notice": "Cooldown duration in seconds"
      },
      "cooldownShares(uint256)": {
        "notice": "Redeem shares into assets and starts a cooldown to claim the converted underlying asset"
      },
      "cooldowns(address)": {
        "notice": "Mapping of user addresses to their cooldown data"
      },
      "getUnvestedAmount()": {
        "notice": "Returns the amount of nUSD tokens that are unvested in the contract"
      },
      "lastDistributionTimestamp()": {
        "notice": "Timestamp of the last asset distribution"
      },
      "pause()": {
        "notice": "Pause all deposits, withdrawals, and cooldown operations"
      },
      "redeem(uint256,address,address)": {
        "notice": "Only enabled when cooldown is off"
      },
      "redistributeLockedAmount(address,address)": {
        "notice": "Redistribute locked amount from full restricted user"
      },
      "removeFromBlacklist(address,bool)": {
        "notice": "Remove an address from blacklist"
      },
      "rescueTokens(address,uint256,address)": {
        "notice": "Rescue tokens accidentally sent to the contract"
      },
      "setCooldownDuration(uint24)": {
        "notice": "Set cooldown duration"
      },
      "silo()": {
        "notice": "Silo contract for holding assets during cooldown"
      },
      "totalAssets()": {
        "notice": "Returns the amount of nUSD tokens that are vested in the contract"
      },
      "transferInRewards(uint256)": {
        "notice": "Transfer rewards from the rewarder into this contract"
      },
      "unpause()": {
        "notice": "Unpause all deposits, withdrawals, and cooldown operations"
      },
      "unstake(address)": {
        "notice": "Claim the staking amount after the cooldown has finished"
      },
      "vestingAmount()": {
        "notice": "Amount of the last asset distribution + unvested remainder"
      },
      "withdraw(uint256,address,address)": {
        "notice": "Only enabled when cooldown is off"
      }
    },
    "notice": "Staking contract for nUSD tokens with OVault integration and cooldown functionality (V2)",
    "version": 1
  },
  "storageLayout": {
    "storage": [
      {
        "astId": 2445,
        "contract": "contracts/staked-nusd/StakednUSD.sol:StakednUSD",
        "label": "_roles",
        "offset": 0,
        "slot": "0",
        "type": "t_mapping(t_bytes32,t_struct(RoleData)2440_storage)"
      },
      {
        "astId": 6745,
        "contract": "contracts/staked-nusd/StakednUSD.sol:StakednUSD",
        "label": "_status",
        "offset": 0,
        "slot": "1",
        "type": "t_uint256"
      },
      {
        "astId": 3476,
        "contract": "contracts/staked-nusd/StakednUSD.sol:StakednUSD",
        "label": "_balances",
        "offset": 0,
        "slot": "2",
        "type": "t_mapping(t_address,t_uint256)"
      },
      {
        "astId": 3482,
        "contract": "contracts/staked-nusd/StakednUSD.sol:StakednUSD",
        "label": "_allowances",
        "offset": 0,
        "slot": "3",
        "type": "t_mapping(t_address,t_mapping(t_address,t_uint256))"
      },
      {
        "astId": 3484,
        "contract": "contracts/staked-nusd/StakednUSD.sol:StakednUSD",
        "label": "_totalSupply",
        "offset": 0,
        "slot": "4",
        "type": "t_uint256"
      },
      {
        "astId": 3486,
        "contract": "contracts/staked-nusd/StakednUSD.sol:StakednUSD",
        "label": "_name",
        "offset": 0,
        "slot": "5",
        "type": "t_string_storage"
      },
      {
        "astId": 3488,
        "contract": "contracts/staked-nusd/StakednUSD.sol:StakednUSD",
        "label": "_symbol",
        "offset": 0,
        "slot": "6",
        "type": "t_string_storage"
      },
      {
        "astId": 9061,
        "contract": "contracts/staked-nusd/StakednUSD.sol:StakednUSD",
        "label": "_nameFallback",
        "offset": 0,
        "slot": "7",
        "type": "t_string_storage"
      },
      {
        "astId": 9063,
        "contract": "contracts/staked-nusd/StakednUSD.sol:StakednUSD",
        "label": "_versionFallback",
        "offset": 0,
        "slot": "8",
        "type": "t_string_storage"
      },
      {
        "astId": 6520,
        "contract": "contracts/staked-nusd/StakednUSD.sol:StakednUSD",
        "label": "_nonces",
        "offset": 0,
        "slot": "9",
        "type": "t_mapping(t_address,t_uint256)"
      },
      {
        "astId": 6635,
        "contract": "contracts/staked-nusd/StakednUSD.sol:StakednUSD",
        "label": "_paused",
        "offset": 0,
        "slot": "10",
        "type": "t_bool"
      },
      {
        "astId": 18505,
        "contract": "contracts/staked-nusd/StakednUSD.sol:StakednUSD",
        "label": "vestingAmount",
        "offset": 0,
        "slot": "11",
        "type": "t_uint256"
      },
      {
        "astId": 18508,
        "contract": "contracts/staked-nusd/StakednUSD.sol:StakednUSD",
        "label": "lastDistributionTimestamp",
        "offset": 0,
        "slot": "12",
        "type": "t_uint256"
      },
      {
        "astId": 18511,
        "contract": "contracts/staked-nusd/StakednUSD.sol:StakednUSD",
        "label": "cooldownDuration",
        "offset": 0,
        "slot": "13",
        "type": "t_uint24"
      },
      {
        "astId": 18517,
        "contract": "contracts/staked-nusd/StakednUSD.sol:StakednUSD",
        "label": "cooldowns",
        "offset": 0,
        "slot": "14",
        "type": "t_mapping(t_address,t_struct(UserCooldown)19875_storage)"
      }
    ],
    "types": {
      "t_address": {
        "encoding": "inplace",
        "label": "address",
        "numberOfBytes": "20"
      },
      "t_bool": {
        "encoding": "inplace",
        "label": "bool",
        "numberOfBytes": "1"
      },
      "t_bytes32": {
        "encoding": "inplace",
        "label": "bytes32",
        "numberOfBytes": "32"
      },
      "t_mapping(t_address,t_bool)": {
        "encoding": "mapping",
        "key": "t_address",
        "label": "mapping(address => bool)",
        "numberOfBytes": "32",
        "value": "t_bool"
      },
      "t_mapping(t_address,t_mapping(t_address,t_uint256))": {
        "encoding": "mapping",
        "key": "t_address",
        "label": "mapping(address => mapping(address => uint256))",
        "numberOfBytes": "32",
        "value": "t_mapping(t_address,t_uint256)"
      },
      "t_mapping(t_address,t_struct(UserCooldown)19875_storage)": {
        "encoding": "mapping",
        "key": "t_address",
        "label": "mapping(address => struct UserCooldown)",
        "numberOfBytes": "32",
        "value": "t_struct(UserCooldown)19875_storage"
      },
      "t_mapping(t_address,t_uint256)": {
        "encoding": "mapping",
        "key": "t_address",
        "label": "mapping(address => uint256)",
        "numberOfBytes": "32",
        "value": "t_uint256"
      },
      "t_mapping(t_bytes32,t_struct(RoleData)2440_storage)": {
        "encoding": "mapping",
        "key": "t_bytes32",
        "label": "mapping(bytes32 => struct AccessControl.RoleData)",
        "numberOfBytes": "32",
        "value": "t_struct(RoleData)2440_storage"
      },
      "t_string_storage": {
        "encoding": "bytes",
        "label": "string",
        "numberOfBytes": "32"
      },
      "t_struct(RoleData)2440_storage": {
        "encoding": "inplace",
        "label": "struct AccessControl.RoleData",
        "members": [
          {
            "astId": 2437,
            "contract": "contracts/staked-nusd/StakednUSD.sol:StakednUSD",
            "label": "hasRole",
            "offset": 0,
            "slot": "0",
            "type": "t_mapping(t_address,t_bool)"
          },
          {
            "astId": 2439,
            "contract": "contracts/staked-nusd/StakednUSD.sol:StakednUSD",
            "label": "adminRole",
            "offset": 0,
            "slot": "1",
            "type": "t_bytes32"
          }
        ],
        "numberOfBytes": "64"
      },
      "t_struct(UserCooldown)19875_storage": {
        "encoding": "inplace",
        "label": "struct UserCooldown",
        "members": [
          {
            "astId": 19872,
            "contract": "contracts/staked-nusd/StakednUSD.sol:StakednUSD",
            "label": "cooldownEnd",
            "offset": 0,
            "slot": "0",
            "type": "t_uint104"
          },
          {
            "astId": 19874,
            "contract": "contracts/staked-nusd/StakednUSD.sol:StakednUSD",
            "label": "underlyingAmount",
            "offset": 13,
            "slot": "0",
            "type": "t_uint152"
          }
        ],
        "numberOfBytes": "32"
      },
      "t_uint104": {
        "encoding": "inplace",
        "label": "uint104",
        "numberOfBytes": "13"
      },
      "t_uint152": {
        "encoding": "inplace",
        "label": "uint152",
        "numberOfBytes": "19"
      },
      "t_uint24": {
        "encoding": "inplace",
        "label": "uint24",
        "numberOfBytes": "3"
      },
      "t_uint256": {
        "encoding": "inplace",
        "label": "uint256",
        "numberOfBytes": "32"
      }
    }
  }
}