{
  "address": "0x75247Ec08e2df7f5A0bf0F56E347C86d3Fc80A7A",
  "abi": [
    {
      "inputs": [
        {
          "internalType": "contract MultiCollateralToken",
          "name": "_mct",
          "type": "address"
        },
        {
          "internalType": "address",
          "name": "admin",
          "type": "address"
        },
        {
          "internalType": "uint256",
          "name": "_maxMintPerBlock",
          "type": "uint256"
        },
        {
          "internalType": "uint256",
          "name": "_maxRedeemPerBlock",
          "type": "uint256"
        }
      ],
      "stateMutability": "nonpayable",
      "type": "constructor"
    },
    {
      "inputs": [],
      "name": "AccessControlBadConfirmation",
      "type": "error"
    },
    {
      "inputs": [
        {
          "internalType": "address",
          "name": "account",
          "type": "address"
        },
        {
          "internalType": "bytes32",
          "name": "neededRole",
          "type": "bytes32"
        }
      ],
      "name": "AccessControlUnauthorizedAccount",
      "type": "error"
    },
    {
      "inputs": [],
      "name": "CantRenounceOwnership",
      "type": "error"
    },
    {
      "inputs": [],
      "name": "CooldownNotFinished",
      "type": "error"
    },
    {
      "inputs": [],
      "name": "DelegationNotInitiated",
      "type": "error"
    },
    {
      "inputs": [],
      "name": "ECDSAInvalidSignature",
      "type": "error"
    },
    {
      "inputs": [
        {
          "internalType": "uint256",
          "name": "length",
          "type": "uint256"
        }
      ],
      "name": "ECDSAInvalidSignatureLength",
      "type": "error"
    },
    {
      "inputs": [
        {
          "internalType": "bytes32",
          "name": "s",
          "type": "bytes32"
        }
      ],
      "name": "ECDSAInvalidSignatureS",
      "type": "error"
    },
    {
      "inputs": [
        {
          "internalType": "address",
          "name": "spender",
          "type": "address"
        },
        {
          "internalType": "uint256",
          "name": "allowance",
          "type": "uint256"
        },
        {
          "internalType": "uint256",
          "name": "needed",
          "type": "uint256"
        }
      ],
      "name": "ERC20InsufficientAllowance",
      "type": "error"
    },
    {
      "inputs": [
        {
          "internalType": "address",
          "name": "sender",
          "type": "address"
        },
        {
          "internalType": "uint256",
          "name": "balance",
          "type": "uint256"
        },
        {
          "internalType": "uint256",
          "name": "needed",
          "type": "uint256"
        }
      ],
      "name": "ERC20InsufficientBalance",
      "type": "error"
    },
    {
      "inputs": [
        {
          "internalType": "address",
          "name": "approver",
          "type": "address"
        }
      ],
      "name": "ERC20InvalidApprover",
      "type": "error"
    },
    {
      "inputs": [
        {
          "internalType": "address",
          "name": "receiver",
          "type": "address"
        }
      ],
      "name": "ERC20InvalidReceiver",
      "type": "error"
    },
    {
      "inputs": [
        {
          "internalType": "address",
          "name": "sender",
          "type": "address"
        }
      ],
      "name": "ERC20InvalidSender",
      "type": "error"
    },
    {
      "inputs": [
        {
          "internalType": "address",
          "name": "spender",
          "type": "address"
        }
      ],
      "name": "ERC20InvalidSpender",
      "type": "error"
    },
    {
      "inputs": [
        {
          "internalType": "uint256",
          "name": "deadline",
          "type": "uint256"
        }
      ],
      "name": "ERC2612ExpiredSignature",
      "type": "error"
    },
    {
      "inputs": [
        {
          "internalType": "address",
          "name": "signer",
          "type": "address"
        },
        {
          "internalType": "address",
          "name": "owner",
          "type": "address"
        }
      ],
      "name": "ERC2612InvalidSigner",
      "type": "error"
    },
    {
      "inputs": [
        {
          "internalType": "address",
          "name": "receiver",
          "type": "address"
        },
        {
          "internalType": "uint256",
          "name": "assets",
          "type": "uint256"
        },
        {
          "internalType": "uint256",
          "name": "max",
          "type": "uint256"
        }
      ],
      "name": "ERC4626ExceededMaxDeposit",
      "type": "error"
    },
    {
      "inputs": [
        {
          "internalType": "address",
          "name": "receiver",
          "type": "address"
        },
        {
          "internalType": "uint256",
          "name": "shares",
          "type": "uint256"
        },
        {
          "internalType": "uint256",
          "name": "max",
          "type": "uint256"
        }
      ],
      "name": "ERC4626ExceededMaxMint",
      "type": "error"
    },
    {
      "inputs": [
        {
          "internalType": "address",
          "name": "owner",
          "type": "address"
        },
        {
          "internalType": "uint256",
          "name": "shares",
          "type": "uint256"
        },
        {
          "internalType": "uint256",
          "name": "max",
          "type": "uint256"
        }
      ],
      "name": "ERC4626ExceededMaxRedeem",
      "type": "error"
    },
    {
      "inputs": [
        {
          "internalType": "address",
          "name": "owner",
          "type": "address"
        },
        {
          "internalType": "uint256",
          "name": "assets",
          "type": "uint256"
        },
        {
          "internalType": "uint256",
          "name": "max",
          "type": "uint256"
        }
      ],
      "name": "ERC4626ExceededMaxWithdraw",
      "type": "error"
    },
    {
      "inputs": [],
      "name": "EnforcedPause",
      "type": "error"
    },
    {
      "inputs": [],
      "name": "ExistingRedemptionRequest",
      "type": "error"
    },
    {
      "inputs": [],
      "name": "ExpectedPause",
      "type": "error"
    },
    {
      "inputs": [
        {
          "internalType": "address",
          "name": "account",
          "type": "address"
        },
        {
          "internalType": "uint256",
          "name": "currentNonce",
          "type": "uint256"
        }
      ],
      "name": "InvalidAccountNonce",
      "type": "error"
    },
    {
      "inputs": [],
      "name": "InvalidAmount",
      "type": "error"
    },
    {
      "inputs": [],
      "name": "InvalidCooldown",
      "type": "error"
    },
    {
      "inputs": [],
      "name": "InvalidShortString",
      "type": "error"
    },
    {
      "inputs": [],
      "name": "InvalidSignature",
      "type": "error"
    },
    {
      "inputs": [],
      "name": "MaxMintPerBlockExceeded",
      "type": "error"
    },
    {
      "inputs": [],
      "name": "MaxRedeemPerBlockExceeded",
      "type": "error"
    },
    {
      "inputs": [],
      "name": "NoRedemptionRequest",
      "type": "error"
    },
    {
      "inputs": [],
      "name": "ReentrancyGuardReentrantCall",
      "type": "error"
    },
    {
      "inputs": [
        {
          "internalType": "address",
          "name": "token",
          "type": "address"
        }
      ],
      "name": "SafeERC20FailedOperation",
      "type": "error"
    },
    {
      "inputs": [
        {
          "internalType": "string",
          "name": "str",
          "type": "string"
        }
      ],
      "name": "StringTooLong",
      "type": "error"
    },
    {
      "inputs": [],
      "name": "UnsupportedAsset",
      "type": "error"
    },
    {
      "inputs": [],
      "name": "ZeroAddressException",
      "type": "error"
    },
    {
      "anonymous": false,
      "inputs": [
        {
          "indexed": true,
          "internalType": "address",
          "name": "owner",
          "type": "address"
        },
        {
          "indexed": true,
          "internalType": "address",
          "name": "spender",
          "type": "address"
        },
        {
          "indexed": false,
          "internalType": "uint256",
          "name": "value",
          "type": "uint256"
        }
      ],
      "name": "Approval",
      "type": "event"
    },
    {
      "anonymous": false,
      "inputs": [
        {
          "indexed": false,
          "internalType": "uint24",
          "name": "previousDuration",
          "type": "uint24"
        },
        {
          "indexed": false,
          "internalType": "uint24",
          "name": "newDuration",
          "type": "uint24"
        }
      ],
      "name": "CooldownDurationUpdated",
      "type": "event"
    },
    {
      "anonymous": false,
      "inputs": [
        {
          "indexed": true,
          "internalType": "address",
          "name": "signer",
          "type": "address"
        },
        {
          "indexed": true,
          "internalType": "address",
          "name": "delegatedBy",
          "type": "address"
        }
      ],
      "name": "DelegatedSignerAdded",
      "type": "event"
    },
    {
      "anonymous": false,
      "inputs": [
        {
          "indexed": true,
          "internalType": "address",
          "name": "delegateTo",
          "type": "address"
        },
        {
          "indexed": true,
          "internalType": "address",
          "name": "delegatedBy",
          "type": "address"
        }
      ],
      "name": "DelegatedSignerInitiated",
      "type": "event"
    },
    {
      "anonymous": false,
      "inputs": [
        {
          "indexed": true,
          "internalType": "address",
          "name": "signer",
          "type": "address"
        },
        {
          "indexed": true,
          "internalType": "address",
          "name": "delegatedBy",
          "type": "address"
        }
      ],
      "name": "DelegatedSignerRemoved",
      "type": "event"
    },
    {
      "anonymous": false,
      "inputs": [
        {
          "indexed": true,
          "internalType": "address",
          "name": "sender",
          "type": "address"
        },
        {
          "indexed": true,
          "internalType": "address",
          "name": "owner",
          "type": "address"
        },
        {
          "indexed": false,
          "internalType": "uint256",
          "name": "assets",
          "type": "uint256"
        },
        {
          "indexed": false,
          "internalType": "uint256",
          "name": "shares",
          "type": "uint256"
        }
      ],
      "name": "Deposit",
      "type": "event"
    },
    {
      "anonymous": false,
      "inputs": [],
      "name": "EIP712DomainChanged",
      "type": "event"
    },
    {
      "anonymous": false,
      "inputs": [
        {
          "indexed": false,
          "internalType": "uint256",
          "name": "oldMax",
          "type": "uint256"
        },
        {
          "indexed": false,
          "internalType": "uint256",
          "name": "newMax",
          "type": "uint256"
        }
      ],
      "name": "MaxMintPerBlockChanged",
      "type": "event"
    },
    {
      "anonymous": false,
      "inputs": [
        {
          "indexed": false,
          "internalType": "uint256",
          "name": "oldMax",
          "type": "uint256"
        },
        {
          "indexed": false,
          "internalType": "uint256",
          "name": "newMax",
          "type": "uint256"
        }
      ],
      "name": "MaxRedeemPerBlockChanged",
      "type": "event"
    },
    {
      "anonymous": false,
      "inputs": [
        {
          "indexed": true,
          "internalType": "address",
          "name": "beneficiary",
          "type": "address"
        },
        {
          "indexed": true,
          "internalType": "address",
          "name": "collateralAsset",
          "type": "address"
        },
        {
          "indexed": false,
          "internalType": "uint256",
          "name": "collateralAmount",
          "type": "uint256"
        },
        {
          "indexed": false,
          "internalType": "uint256",
          "name": "usdeAmount",
          "type": "uint256"
        }
      ],
      "name": "Mint",
      "type": "event"
    },
    {
      "anonymous": false,
      "inputs": [
        {
          "indexed": false,
          "internalType": "address",
          "name": "account",
          "type": "address"
        }
      ],
      "name": "Paused",
      "type": "event"
    },
    {
      "anonymous": false,
      "inputs": [
        {
          "indexed": true,
          "internalType": "address",
          "name": "beneficiary",
          "type": "address"
        },
        {
          "indexed": true,
          "internalType": "address",
          "name": "collateralAsset",
          "type": "address"
        },
        {
          "indexed": false,
          "internalType": "uint256",
          "name": "usdeAmount",
          "type": "uint256"
        },
        {
          "indexed": false,
          "internalType": "uint256",
          "name": "collateralAmount",
          "type": "uint256"
        }
      ],
      "name": "Redeem",
      "type": "event"
    },
    {
      "anonymous": false,
      "inputs": [
        {
          "indexed": true,
          "internalType": "address",
          "name": "user",
          "type": "address"
        },
        {
          "indexed": false,
          "internalType": "uint256",
          "name": "usdeAmount",
          "type": "uint256"
        }
      ],
      "name": "RedemptionCancelled",
      "type": "event"
    },
    {
      "anonymous": false,
      "inputs": [
        {
          "indexed": true,
          "internalType": "address",
          "name": "user",
          "type": "address"
        },
        {
          "indexed": false,
          "internalType": "uint256",
          "name": "usdeAmount",
          "type": "uint256"
        },
        {
          "indexed": true,
          "internalType": "address",
          "name": "collateralAsset",
          "type": "address"
        },
        {
          "indexed": false,
          "internalType": "uint256",
          "name": "collateralAmount",
          "type": "uint256"
        }
      ],
      "name": "RedemptionCompleted",
      "type": "event"
    },
    {
      "anonymous": false,
      "inputs": [
        {
          "indexed": true,
          "internalType": "address",
          "name": "user",
          "type": "address"
        },
        {
          "indexed": false,
          "internalType": "uint256",
          "name": "usdeAmount",
          "type": "uint256"
        },
        {
          "indexed": true,
          "internalType": "address",
          "name": "collateralAsset",
          "type": "address"
        },
        {
          "indexed": false,
          "internalType": "uint256",
          "name": "cooldownEnd",
          "type": "uint256"
        }
      ],
      "name": "RedemptionRequested",
      "type": "event"
    },
    {
      "anonymous": false,
      "inputs": [
        {
          "indexed": true,
          "internalType": "bytes32",
          "name": "role",
          "type": "bytes32"
        },
        {
          "indexed": true,
          "internalType": "bytes32",
          "name": "previousAdminRole",
          "type": "bytes32"
        },
        {
          "indexed": true,
          "internalType": "bytes32",
          "name": "newAdminRole",
          "type": "bytes32"
        }
      ],
      "name": "RoleAdminChanged",
      "type": "event"
    },
    {
      "anonymous": false,
      "inputs": [
        {
          "indexed": true,
          "internalType": "bytes32",
          "name": "role",
          "type": "bytes32"
        },
        {
          "indexed": true,
          "internalType": "address",
          "name": "account",
          "type": "address"
        },
        {
          "indexed": true,
          "internalType": "address",
          "name": "sender",
          "type": "address"
        }
      ],
      "name": "RoleGranted",
      "type": "event"
    },
    {
      "anonymous": false,
      "inputs": [
        {
          "indexed": true,
          "internalType": "bytes32",
          "name": "role",
          "type": "bytes32"
        },
        {
          "indexed": true,
          "internalType": "address",
          "name": "account",
          "type": "address"
        },
        {
          "indexed": true,
          "internalType": "address",
          "name": "sender",
          "type": "address"
        }
      ],
      "name": "RoleRevoked",
      "type": "event"
    },
    {
      "anonymous": false,
      "inputs": [
        {
          "indexed": true,
          "internalType": "address",
          "name": "from",
          "type": "address"
        },
        {
          "indexed": true,
          "internalType": "address",
          "name": "to",
          "type": "address"
        },
        {
          "indexed": false,
          "internalType": "uint256",
          "name": "value",
          "type": "uint256"
        }
      ],
      "name": "Transfer",
      "type": "event"
    },
    {
      "anonymous": false,
      "inputs": [
        {
          "indexed": false,
          "internalType": "address",
          "name": "account",
          "type": "address"
        }
      ],
      "name": "Unpaused",
      "type": "event"
    },
    {
      "anonymous": false,
      "inputs": [
        {
          "indexed": true,
          "internalType": "address",
          "name": "sender",
          "type": "address"
        },
        {
          "indexed": true,
          "internalType": "address",
          "name": "receiver",
          "type": "address"
        },
        {
          "indexed": true,
          "internalType": "address",
          "name": "owner",
          "type": "address"
        },
        {
          "indexed": false,
          "internalType": "uint256",
          "name": "assets",
          "type": "uint256"
        },
        {
          "indexed": false,
          "internalType": "uint256",
          "name": "shares",
          "type": "uint256"
        }
      ],
      "name": "Withdraw",
      "type": "event"
    },
    {
      "inputs": [],
      "name": "COLLATERAL_MANAGER_ROLE",
      "outputs": [
        {
          "internalType": "bytes32",
          "name": "",
          "type": "bytes32"
        }
      ],
      "stateMutability": "view",
      "type": "function"
    },
    {
      "inputs": [],
      "name": "DEFAULT_ADMIN_ROLE",
      "outputs": [
        {
          "internalType": "bytes32",
          "name": "",
          "type": "bytes32"
        }
      ],
      "stateMutability": "view",
      "type": "function"
    },
    {
      "inputs": [],
      "name": "DOMAIN_SEPARATOR",
      "outputs": [
        {
          "internalType": "bytes32",
          "name": "",
          "type": "bytes32"
        }
      ],
      "stateMutability": "view",
      "type": "function"
    },
    {
      "inputs": [],
      "name": "GATEKEEPER_ROLE",
      "outputs": [
        {
          "internalType": "bytes32",
          "name": "",
          "type": "bytes32"
        }
      ],
      "stateMutability": "view",
      "type": "function"
    },
    {
      "inputs": [],
      "name": "MAX_COOLDOWN_DURATION",
      "outputs": [
        {
          "internalType": "uint24",
          "name": "",
          "type": "uint24"
        }
      ],
      "stateMutability": "view",
      "type": "function"
    },
    {
      "inputs": [
        {
          "internalType": "address",
          "name": "owner",
          "type": "address"
        },
        {
          "internalType": "address",
          "name": "spender",
          "type": "address"
        }
      ],
      "name": "allowance",
      "outputs": [
        {
          "internalType": "uint256",
          "name": "",
          "type": "uint256"
        }
      ],
      "stateMutability": "view",
      "type": "function"
    },
    {
      "inputs": [
        {
          "internalType": "address",
          "name": "spender",
          "type": "address"
        },
        {
          "internalType": "uint256",
          "name": "value",
          "type": "uint256"
        }
      ],
      "name": "approve",
      "outputs": [
        {
          "internalType": "bool",
          "name": "",
          "type": "bool"
        }
      ],
      "stateMutability": "nonpayable",
      "type": "function"
    },
    {
      "inputs": [],
      "name": "asset",
      "outputs": [
        {
          "internalType": "address",
          "name": "",
          "type": "address"
        }
      ],
      "stateMutability": "view",
      "type": "function"
    },
    {
      "inputs": [
        {
          "internalType": "address",
          "name": "account",
          "type": "address"
        }
      ],
      "name": "balanceOf",
      "outputs": [
        {
          "internalType": "uint256",
          "name": "",
          "type": "uint256"
        }
      ],
      "stateMutability": "view",
      "type": "function"
    },
    {
      "inputs": [
        {
          "internalType": "uint256",
          "name": "amount",
          "type": "uint256"
        }
      ],
      "name": "burn",
      "outputs": [],
      "stateMutability": "nonpayable",
      "type": "function"
    },
    {
      "inputs": [],
      "name": "cancelRedeem",
      "outputs": [],
      "stateMutability": "nonpayable",
      "type": "function"
    },
    {
      "inputs": [],
      "name": "completeRedeem",
      "outputs": [
        {
          "internalType": "uint256",
          "name": "collateralAmount",
          "type": "uint256"
        }
      ],
      "stateMutability": "nonpayable",
      "type": "function"
    },
    {
      "inputs": [
        {
          "internalType": "address",
          "name": "_delegatedBy",
          "type": "address"
        }
      ],
      "name": "confirmDelegatedSigner",
      "outputs": [],
      "stateMutability": "nonpayable",
      "type": "function"
    },
    {
      "inputs": [
        {
          "internalType": "uint256",
          "name": "shares",
          "type": "uint256"
        }
      ],
      "name": "convertToAssets",
      "outputs": [
        {
          "internalType": "uint256",
          "name": "",
          "type": "uint256"
        }
      ],
      "stateMutability": "view",
      "type": "function"
    },
    {
      "inputs": [
        {
          "internalType": "uint256",
          "name": "assets",
          "type": "uint256"
        }
      ],
      "name": "convertToShares",
      "outputs": [
        {
          "internalType": "uint256",
          "name": "",
          "type": "uint256"
        }
      ],
      "stateMutability": "view",
      "type": "function"
    },
    {
      "inputs": [],
      "name": "cooldownDuration",
      "outputs": [
        {
          "internalType": "uint24",
          "name": "",
          "type": "uint24"
        }
      ],
      "stateMutability": "view",
      "type": "function"
    },
    {
      "inputs": [
        {
          "internalType": "address",
          "name": "collateralAsset",
          "type": "address"
        },
        {
          "internalType": "uint256",
          "name": "usdeAmount",
          "type": "uint256"
        }
      ],
      "name": "cooldownRedeem",
      "outputs": [],
      "stateMutability": "nonpayable",
      "type": "function"
    },
    {
      "inputs": [],
      "name": "decimals",
      "outputs": [
        {
          "internalType": "uint8",
          "name": "",
          "type": "uint8"
        }
      ],
      "stateMutability": "pure",
      "type": "function"
    },
    {
      "inputs": [
        {
          "internalType": "address",
          "name": "",
          "type": "address"
        },
        {
          "internalType": "address",
          "name": "",
          "type": "address"
        }
      ],
      "name": "delegatedSigner",
      "outputs": [
        {
          "internalType": "enum USDe.DelegatedSignerStatus",
          "name": "",
          "type": "uint8"
        }
      ],
      "stateMutability": "view",
      "type": "function"
    },
    {
      "inputs": [
        {
          "internalType": "uint256",
          "name": "assets",
          "type": "uint256"
        },
        {
          "internalType": "address",
          "name": "receiver",
          "type": "address"
        }
      ],
      "name": "deposit",
      "outputs": [
        {
          "internalType": "uint256",
          "name": "",
          "type": "uint256"
        }
      ],
      "stateMutability": "nonpayable",
      "type": "function"
    },
    {
      "inputs": [],
      "name": "disableMintRedeem",
      "outputs": [],
      "stateMutability": "nonpayable",
      "type": "function"
    },
    {
      "inputs": [],
      "name": "eip712Domain",
      "outputs": [
        {
          "internalType": "bytes1",
          "name": "fields",
          "type": "bytes1"
        },
        {
          "internalType": "string",
          "name": "name",
          "type": "string"
        },
        {
          "internalType": "string",
          "name": "version",
          "type": "string"
        },
        {
          "internalType": "uint256",
          "name": "chainId",
          "type": "uint256"
        },
        {
          "internalType": "address",
          "name": "verifyingContract",
          "type": "address"
        },
        {
          "internalType": "bytes32",
          "name": "salt",
          "type": "bytes32"
        },
        {
          "internalType": "uint256[]",
          "name": "extensions",
          "type": "uint256[]"
        }
      ],
      "stateMutability": "view",
      "type": "function"
    },
    {
      "inputs": [
        {
          "internalType": "bytes32",
          "name": "role",
          "type": "bytes32"
        }
      ],
      "name": "getRoleAdmin",
      "outputs": [
        {
          "internalType": "bytes32",
          "name": "",
          "type": "bytes32"
        }
      ],
      "stateMutability": "view",
      "type": "function"
    },
    {
      "inputs": [
        {
          "internalType": "bytes32",
          "name": "role",
          "type": "bytes32"
        },
        {
          "internalType": "address",
          "name": "account",
          "type": "address"
        }
      ],
      "name": "grantRole",
      "outputs": [],
      "stateMutability": "nonpayable",
      "type": "function"
    },
    {
      "inputs": [
        {
          "internalType": "bytes32",
          "name": "role",
          "type": "bytes32"
        },
        {
          "internalType": "address",
          "name": "account",
          "type": "address"
        }
      ],
      "name": "hasRole",
      "outputs": [
        {
          "internalType": "bool",
          "name": "",
          "type": "bool"
        }
      ],
      "stateMutability": "view",
      "type": "function"
    },
    {
      "inputs": [
        {
          "internalType": "address",
          "name": "",
          "type": "address"
        }
      ],
      "name": "maxDeposit",
      "outputs": [
        {
          "internalType": "uint256",
          "name": "",
          "type": "uint256"
        }
      ],
      "stateMutability": "view",
      "type": "function"
    },
    {
      "inputs": [
        {
          "internalType": "address",
          "name": "",
          "type": "address"
        }
      ],
      "name": "maxMint",
      "outputs": [
        {
          "internalType": "uint256",
          "name": "",
          "type": "uint256"
        }
      ],
      "stateMutability": "view",
      "type": "function"
    },
    {
      "inputs": [],
      "name": "maxMintPerBlock",
      "outputs": [
        {
          "internalType": "uint256",
          "name": "",
          "type": "uint256"
        }
      ],
      "stateMutability": "view",
      "type": "function"
    },
    {
      "inputs": [
        {
          "internalType": "address",
          "name": "owner",
          "type": "address"
        }
      ],
      "name": "maxRedeem",
      "outputs": [
        {
          "internalType": "uint256",
          "name": "",
          "type": "uint256"
        }
      ],
      "stateMutability": "view",
      "type": "function"
    },
    {
      "inputs": [],
      "name": "maxRedeemPerBlock",
      "outputs": [
        {
          "internalType": "uint256",
          "name": "",
          "type": "uint256"
        }
      ],
      "stateMutability": "view",
      "type": "function"
    },
    {
      "inputs": [
        {
          "internalType": "address",
          "name": "owner",
          "type": "address"
        }
      ],
      "name": "maxWithdraw",
      "outputs": [
        {
          "internalType": "uint256",
          "name": "",
          "type": "uint256"
        }
      ],
      "stateMutability": "view",
      "type": "function"
    },
    {
      "inputs": [],
      "name": "mct",
      "outputs": [
        {
          "internalType": "contract MultiCollateralToken",
          "name": "",
          "type": "address"
        }
      ],
      "stateMutability": "view",
      "type": "function"
    },
    {
      "inputs": [
        {
          "internalType": "uint256",
          "name": "shares",
          "type": "uint256"
        },
        {
          "internalType": "address",
          "name": "receiver",
          "type": "address"
        }
      ],
      "name": "mint",
      "outputs": [
        {
          "internalType": "uint256",
          "name": "",
          "type": "uint256"
        }
      ],
      "stateMutability": "nonpayable",
      "type": "function"
    },
    {
      "inputs": [
        {
          "internalType": "address",
          "name": "collateralAsset",
          "type": "address"
        },
        {
          "internalType": "uint256",
          "name": "collateralAmount",
          "type": "uint256"
        }
      ],
      "name": "mintWithCollateral",
      "outputs": [
        {
          "internalType": "uint256",
          "name": "usdeAmount",
          "type": "uint256"
        }
      ],
      "stateMutability": "nonpayable",
      "type": "function"
    },
    {
      "inputs": [
        {
          "internalType": "address",
          "name": "collateralAsset",
          "type": "address"
        },
        {
          "internalType": "uint256",
          "name": "collateralAmount",
          "type": "uint256"
        },
        {
          "internalType": "address",
          "name": "beneficiary",
          "type": "address"
        }
      ],
      "name": "mintWithCollateralFor",
      "outputs": [
        {
          "internalType": "uint256",
          "name": "usdeAmount",
          "type": "uint256"
        }
      ],
      "stateMutability": "nonpayable",
      "type": "function"
    },
    {
      "inputs": [
        {
          "internalType": "uint256",
          "name": "",
          "type": "uint256"
        }
      ],
      "name": "mintedPerBlock",
      "outputs": [
        {
          "internalType": "uint256",
          "name": "",
          "type": "uint256"
        }
      ],
      "stateMutability": "view",
      "type": "function"
    },
    {
      "inputs": [],
      "name": "name",
      "outputs": [
        {
          "internalType": "string",
          "name": "",
          "type": "string"
        }
      ],
      "stateMutability": "view",
      "type": "function"
    },
    {
      "inputs": [
        {
          "internalType": "address",
          "name": "owner",
          "type": "address"
        }
      ],
      "name": "nonces",
      "outputs": [
        {
          "internalType": "uint256",
          "name": "",
          "type": "uint256"
        }
      ],
      "stateMutability": "view",
      "type": "function"
    },
    {
      "inputs": [],
      "name": "pause",
      "outputs": [],
      "stateMutability": "nonpayable",
      "type": "function"
    },
    {
      "inputs": [],
      "name": "paused",
      "outputs": [
        {
          "internalType": "bool",
          "name": "",
          "type": "bool"
        }
      ],
      "stateMutability": "view",
      "type": "function"
    },
    {
      "inputs": [
        {
          "internalType": "address",
          "name": "owner",
          "type": "address"
        },
        {
          "internalType": "address",
          "name": "spender",
          "type": "address"
        },
        {
          "internalType": "uint256",
          "name": "value",
          "type": "uint256"
        },
        {
          "internalType": "uint256",
          "name": "deadline",
          "type": "uint256"
        },
        {
          "internalType": "uint8",
          "name": "v",
          "type": "uint8"
        },
        {
          "internalType": "bytes32",
          "name": "r",
          "type": "bytes32"
        },
        {
          "internalType": "bytes32",
          "name": "s",
          "type": "bytes32"
        }
      ],
      "name": "permit",
      "outputs": [],
      "stateMutability": "nonpayable",
      "type": "function"
    },
    {
      "inputs": [
        {
          "internalType": "uint256",
          "name": "assets",
          "type": "uint256"
        }
      ],
      "name": "previewDeposit",
      "outputs": [
        {
          "internalType": "uint256",
          "name": "",
          "type": "uint256"
        }
      ],
      "stateMutability": "view",
      "type": "function"
    },
    {
      "inputs": [
        {
          "internalType": "uint256",
          "name": "shares",
          "type": "uint256"
        }
      ],
      "name": "previewMint",
      "outputs": [
        {
          "internalType": "uint256",
          "name": "",
          "type": "uint256"
        }
      ],
      "stateMutability": "view",
      "type": "function"
    },
    {
      "inputs": [
        {
          "internalType": "uint256",
          "name": "shares",
          "type": "uint256"
        }
      ],
      "name": "previewRedeem",
      "outputs": [
        {
          "internalType": "uint256",
          "name": "",
          "type": "uint256"
        }
      ],
      "stateMutability": "view",
      "type": "function"
    },
    {
      "inputs": [
        {
          "internalType": "uint256",
          "name": "assets",
          "type": "uint256"
        }
      ],
      "name": "previewWithdraw",
      "outputs": [
        {
          "internalType": "uint256",
          "name": "",
          "type": "uint256"
        }
      ],
      "stateMutability": "view",
      "type": "function"
    },
    {
      "inputs": [
        {
          "internalType": "uint256",
          "name": "",
          "type": "uint256"
        },
        {
          "internalType": "address",
          "name": "",
          "type": "address"
        },
        {
          "internalType": "address",
          "name": "",
          "type": "address"
        }
      ],
      "name": "redeem",
      "outputs": [
        {
          "internalType": "uint256",
          "name": "",
          "type": "uint256"
        }
      ],
      "stateMutability": "pure",
      "type": "function"
    },
    {
      "inputs": [],
      "name": "redeemSilo",
      "outputs": [
        {
          "internalType": "contract USDeRedeemSilo",
          "name": "",
          "type": "address"
        }
      ],
      "stateMutability": "view",
      "type": "function"
    },
    {
      "inputs": [
        {
          "internalType": "uint256",
          "name": "",
          "type": "uint256"
        }
      ],
      "name": "redeemedPerBlock",
      "outputs": [
        {
          "internalType": "uint256",
          "name": "",
          "type": "uint256"
        }
      ],
      "stateMutability": "view",
      "type": "function"
    },
    {
      "inputs": [
        {
          "internalType": "address",
          "name": "",
          "type": "address"
        }
      ],
      "name": "redemptionRequests",
      "outputs": [
        {
          "internalType": "uint104",
          "name": "cooldownEnd",
          "type": "uint104"
        },
        {
          "internalType": "uint152",
          "name": "usdeAmount",
          "type": "uint152"
        },
        {
          "internalType": "address",
          "name": "collateralAsset",
          "type": "address"
        }
      ],
      "stateMutability": "view",
      "type": "function"
    },
    {
      "inputs": [
        {
          "internalType": "address",
          "name": "_removedSigner",
          "type": "address"
        }
      ],
      "name": "removeDelegatedSigner",
      "outputs": [],
      "stateMutability": "nonpayable",
      "type": "function"
    },
    {
      "inputs": [
        {
          "internalType": "bytes32",
          "name": "role",
          "type": "bytes32"
        },
        {
          "internalType": "address",
          "name": "account",
          "type": "address"
        }
      ],
      "name": "renounceRole",
      "outputs": [],
      "stateMutability": "nonpayable",
      "type": "function"
    },
    {
      "inputs": [
        {
          "internalType": "bytes32",
          "name": "role",
          "type": "bytes32"
        },
        {
          "internalType": "address",
          "name": "account",
          "type": "address"
        }
      ],
      "name": "revokeRole",
      "outputs": [],
      "stateMutability": "nonpayable",
      "type": "function"
    },
    {
      "inputs": [
        {
          "internalType": "uint24",
          "name": "duration",
          "type": "uint24"
        }
      ],
      "name": "setCooldownDuration",
      "outputs": [],
      "stateMutability": "nonpayable",
      "type": "function"
    },
    {
      "inputs": [
        {
          "internalType": "address",
          "name": "_delegateTo",
          "type": "address"
        }
      ],
      "name": "setDelegatedSigner",
      "outputs": [],
      "stateMutability": "nonpayable",
      "type": "function"
    },
    {
      "inputs": [
        {
          "internalType": "uint256",
          "name": "_maxMintPerBlock",
          "type": "uint256"
        }
      ],
      "name": "setMaxMintPerBlock",
      "outputs": [],
      "stateMutability": "nonpayable",
      "type": "function"
    },
    {
      "inputs": [
        {
          "internalType": "uint256",
          "name": "_maxRedeemPerBlock",
          "type": "uint256"
        }
      ],
      "name": "setMaxRedeemPerBlock",
      "outputs": [],
      "stateMutability": "nonpayable",
      "type": "function"
    },
    {
      "inputs": [
        {
          "internalType": "bytes4",
          "name": "interfaceId",
          "type": "bytes4"
        }
      ],
      "name": "supportsInterface",
      "outputs": [
        {
          "internalType": "bool",
          "name": "",
          "type": "bool"
        }
      ],
      "stateMutability": "view",
      "type": "function"
    },
    {
      "inputs": [],
      "name": "symbol",
      "outputs": [
        {
          "internalType": "string",
          "name": "",
          "type": "string"
        }
      ],
      "stateMutability": "view",
      "type": "function"
    },
    {
      "inputs": [],
      "name": "totalAssets",
      "outputs": [
        {
          "internalType": "uint256",
          "name": "",
          "type": "uint256"
        }
      ],
      "stateMutability": "view",
      "type": "function"
    },
    {
      "inputs": [],
      "name": "totalSupply",
      "outputs": [
        {
          "internalType": "uint256",
          "name": "",
          "type": "uint256"
        }
      ],
      "stateMutability": "view",
      "type": "function"
    },
    {
      "inputs": [
        {
          "internalType": "address",
          "name": "to",
          "type": "address"
        },
        {
          "internalType": "uint256",
          "name": "value",
          "type": "uint256"
        }
      ],
      "name": "transfer",
      "outputs": [
        {
          "internalType": "bool",
          "name": "",
          "type": "bool"
        }
      ],
      "stateMutability": "nonpayable",
      "type": "function"
    },
    {
      "inputs": [
        {
          "internalType": "address",
          "name": "from",
          "type": "address"
        },
        {
          "internalType": "address",
          "name": "to",
          "type": "address"
        },
        {
          "internalType": "uint256",
          "name": "value",
          "type": "uint256"
        }
      ],
      "name": "transferFrom",
      "outputs": [
        {
          "internalType": "bool",
          "name": "",
          "type": "bool"
        }
      ],
      "stateMutability": "nonpayable",
      "type": "function"
    },
    {
      "inputs": [],
      "name": "unpause",
      "outputs": [],
      "stateMutability": "nonpayable",
      "type": "function"
    },
    {
      "inputs": [
        {
          "internalType": "uint256",
          "name": "",
          "type": "uint256"
        },
        {
          "internalType": "address",
          "name": "",
          "type": "address"
        },
        {
          "internalType": "address",
          "name": "",
          "type": "address"
        }
      ],
      "name": "withdraw",
      "outputs": [
        {
          "internalType": "uint256",
          "name": "",
          "type": "uint256"
        }
      ],
      "stateMutability": "pure",
      "type": "function"
    }
  ],
  "transactionHash": "0x14df1a9ed36800005c01847ff5c61fd7ffc3f10bd8578394efa859978ede1b01",
  "args": [
    "0x4e91076E35b8fA9b4f80Ae0b7Bbb7C93dd9b8ca3",
    "0xfd8b2FC9b759Db3bCb8f713224e17119Dd9d3671",
    "1000000000000000000000000",
    "1000000000000000000000000"
  ],
  "numDeployments": 1,
  "solcInputHash": "459b37abfa166a2b793a0abe6ce6a3c5",
  "bytecode": "0x6101e06040523480156200001257600080fd5b5060405162003d9d38038062003d9d8339810160408190526200003591620005d7565b604051806040016040528060048152602001635553446560e01b81525080604051806040016040528060018152602001603160f81b81525086604051806040016040528060048152602001635553446560e01b815250604051806040016040528060048152602001635553446560e01b8152508160039081620000b99190620006cb565b506004620000c88282620006cb565b505050600080620000df836200030f60201b60201c565b9150915081620000f1576012620000f3565b805b60ff1660a05250506001600160a01b031660805262000114826005620003f4565b6101605262000125816006620003f4565b61018052815160208084019190912061012052815190820120610140524660e052620001b56101205161014051604080517f8b73c3c69bb8fe3d512ecc4cf759cc79239f7b179b0ffacaa9a75d522b39400f60208201529081019290925260608201524660808201523060a082015260009060c00160405160208183030381529060405280519060200120905090565b60c052505030610100525060016009556001600160a01b038416620001ed57604051635919af9760e11b815260040160405180910390fd5b6001600160a01b0383166200021557604051635919af9760e11b815260040160405180910390fd5b6001600160a01b0384166101a052620002306000846200042d565b506200025d7f3c63e605be3290ab6b04cfc46c6e1516e626d43236b034f09d7ede1d017beb0c846200042d565b506200028a7f85e8f2d6819d6b24108062d87ea08f54651bcb8960d98062d3faf96e7873b8b9846200042d565b506200029682620004df565b620002a18162000525565b3030604051620002b190620005b0565b6001600160a01b03928316815291166020820152604001604051809103906000f080158015620002e5573d6000803e3d6000fd5b506001600160a01b03166101c05250506010805462ffffff191662093a80179055506200084f9050565b60408051600481526024810182526020810180516001600160e01b031663313ce56760e01b17905290516000918291829182916001600160a01b038716916200035891620007bd565b600060405180830381855afa9150503d806000811462000395576040519150601f19603f3d011682016040523d82523d6000602084013e6200039a565b606091505b5091509150818015620003af57506020815110155b15620003e757600081806020019051810190620003cd9190620007db565b905060ff8111620003e5576001969095509350505050565b505b5060009485945092505050565b600060208351101562000414576200040c8362000564565b905062000427565b81620004218482620006cb565b5060ff90505b92915050565b60008281526008602090815260408083206001600160a01b038516845290915281205460ff16620004d65760008381526008602090815260408083206001600160a01b03861684529091529020805460ff191660011790556200048d3390565b6001600160a01b0316826001600160a01b0316847f2f8788117e7eff1d82e926ec794901d17c78024a50270940304540a733656f0d60405160405180910390a450600162000427565b50600062000427565b600d80549082905560408051828152602081018490527fb4a832eb73ba0066dc45acd0d1f4454cdee155b17bdb1ccbabb428cc39750ad191015b60405180910390a15050565b600e80549082905560408051828152602081018490527f6fd3eacad9328fdc902c323518cfef3a2f6a9da89c40a7b82428adc2370114c3910162000519565b600080829050601f815111156200059b578260405163305a27a960e01b8152600401620005929190620007f5565b60405180910390fd5b8051620005a8826200082a565b179392505050565b6102758062003b2883390190565b6001600160a01b0381168114620005d457600080fd5b50565b60008060008060808587031215620005ee57600080fd5b8451620005fb81620005be565b60208601519094506200060e81620005be565b6040860151606090960151949790965092505050565b634e487b7160e01b600052604160045260246000fd5b600181811c908216806200064f57607f821691505b6020821081036200067057634e487b7160e01b600052602260045260246000fd5b50919050565b601f821115620006c6576000816000526020600020601f850160051c81016020861015620006a15750805b601f850160051c820191505b81811015620006c257828155600101620006ad565b5050505b505050565b81516001600160401b03811115620006e757620006e762000624565b620006ff81620006f884546200063a565b8462000676565b602080601f8311600181146200073757600084156200071e5750858301515b600019600386901b1c1916600185901b178555620006c2565b600085815260208120601f198616915b82811015620007685788860151825594840194600190910190840162000747565b5085821015620007875787850151600019600388901b60f8161c191681555b5050505050600190811b01905550565b60005b83811015620007b45781810151838201526020016200079a565b50506000910152565b60008251620007d181846020870162000797565b9190910192915050565b600060208284031215620007ee57600080fd5b5051919050565b60208152600082518060208401526200081681604085016020870162000797565b601f01601f19169190910160400192915050565b80516020808301519190811015620006705760001960209190910360031b1b16919050565b60805160a05160c05160e05161010051610120516101405161016051610180516101a0516101c051613201620009276000396000818161071d01528181610ea2015281816115bc01526117770152600081816107a101528181610cd401528181610f1901528181610f78015281816116ab01528181611f220152818161202a015261207e015260006121c90152600061219c01526000611b5c01526000611b3401526000611a8f01526000611ab901526000611ae301526000505060008181610567015281816109590152611e1401526132016000f3fe608060405234801561001057600080fd5b50600436106103d05760003560e01c8063844452fa116101ff578063ba0876521161011a578063d547741f116100ad578063dd62ed3e1161007c578063dd62ed3e14610901578063e6a296661461093a578063e77b4c0f14610942578063ef8b30f71461082c57600080fd5b8063d547741f146108b3578063d6fd3175146108c6578063d8369d75146108db578063d905777e146108ee57600080fd5b8063ce23eb3c116100e9578063ce23eb3c1461083f578063ce96cb7714610852578063cf9cc76614610865578063d505accf146108a057600080fd5b8063ba087652146107f1578063c5ff38bd14610824578063c63d75b6146105a7578063c6e6f5921461082c57600080fd5b80639cd2913611610192578063a9059cbb11610161578063a9059cbb146107cb578063b3d7f6b9146107de578063b460af94146107f1578063b6c780631461080457600080fd5b80639cd29136146107765780639ebcc25214610789578063a0580fee1461079c578063a217fddf146107c357600080fd5b806391d14854116101ce57806391d148541461073f578063928907dd1461075257806394bf804d1461075b57806395d89b411461076e57600080fd5b8063844452fa146106ec5780638456cb59146106f557806384b0196e146106fd57806384be50e61461071857600080fd5b80633644e515116102ef57806353863613116102825780636e553f65116102515780636e553f651461068a57806370a082311461069d5780637c77a6e2146106c65780637ecebe00146106d957600080fd5b806353863613146105e25780635c975abb146105f55780635e4a9a6514610600578063695ae07d1461068257600080fd5b8063402d267d116102be578063402d267d146105a757806340e49216146105bc57806342966c68146105cf5780634cdad5061461042857600080fd5b80633644e5151461054a57806336568abe1461055257806338d52e0f146105655780633f4ba83a1461059f57600080fd5b80631e9049cf116103675780632e718ab7116103365780632e718ab7146104f25780632f2ff15d14610519578063313ce5671461052c578063352693151461053b57600080fd5b80631e9049cf1461047e57806323b872dd1461049c578063248a9ca3146104af5780632ba32991146104d257600080fd5b8063095ea7b3116103a3578063095ea7b31461043b5780630a28a4771461044e578063157a40281461046157806318160ddd1461047657600080fd5b806301e1d114146103d557806301ffc9a7146103f057806306fdde031461041357806307a2d13a14610428575b600080fd5b6103dd610955565b6040519081526020015b60405180910390f35b6104036103fe366004612c0b565b6109e7565b60405190151581526020016103e7565b61041b610a1e565b6040516103e79190612c7b565b6103dd610436366004612c8e565b610ab0565b610403610449366004612cc3565b610abd565b6103dd61045c366004612c8e565b610ad5565b61047461046f366004612ced565b610ae2565b005b6002546103dd565b6104886276a70081565b60405162ffffff90911681526020016103e7565b6104036104aa366004612d08565b610b93565b6103dd6104bd366004612c8e565b60009081526008602052604090206001015490565b6103dd6104e0366004612c8e565b600b6020526000908152604090205481565b6103dd7f85e8f2d6819d6b24108062d87ea08f54651bcb8960d98062d3faf96e7873b8b981565b610474610527366004612d44565b610bb9565b604051601281526020016103e7565b6010546104889062ffffff1681565b6103dd610be4565b610474610560366004612d44565b610bee565b7f00000000000000000000000000000000000000000000000000000000000000005b6040516001600160a01b0390911681526020016103e7565b610474610c1a565b6103dd6105b5366004612ced565b5060001990565b6104746105ca366004612ced565b610c3d565b6104746105dd366004612c8e565b610c93565b6104746105f0366004612ced565b610d3b565b600a5460ff16610403565b61064c61060e366004612ced565b601160205260009081526040902080546001909101546001600160681b03821691600160681b90046001600160981b0316906001600160a01b031683565b604080516001600160681b0390941684526001600160981b0390921660208401526001600160a01b0316908201526060016103e7565b6103dd610d94565b6103dd610698366004612d44565b611041565b6103dd6106ab366004612ced565b6001600160a01b031660009081526020819052604090205490565b6103dd6106d4366004612d70565b611075565b6103dd6106e7366004612ced565b6110f6565b6103dd600e5481565b610474611114565b610705611134565b6040516103e79796959493929190612dac565b6105877f000000000000000000000000000000000000000000000000000000000000000081565b61040361074d366004612d44565b61117a565b6103dd600d5481565b6103dd610769366004612d44565b6111a5565b61041b6111c3565b610474610784366004612c8e565b6111d2565b6103dd610797366004612cc3565b6111e6565b6105877f000000000000000000000000000000000000000000000000000000000000000081565b6103dd600081565b6104036107d9366004612cc3565b61120f565b6103dd6107ec366004612c8e565b61121d565b6103dd6107ff366004612e45565b61122a565b6103dd610812366004612c8e565b600c6020526000908152604090205481565b61047461126a565b6103dd61083a366004612c8e565b611296565b61047461084d366004612e78565b6112a3565b6103dd610860366004612ced565b611331565b610893610873366004612e9d565b600f60209081526000928352604080842090915290825290205460ff1681565b6040516103e79190612edd565b6104746108ae366004612f14565b611355565b6104746108c1366004612d44565b61148f565b6103dd6000805160206131ac83398151915281565b6104746108e9366004612c8e565b6114b4565b6103dd6108fc366004612ced565b6114c8565b6103dd61090f366004612e9d565b6001600160a01b03918216600090815260016020908152604080832093909416825291909152205490565b6104746114e6565b610474610950366004612cc3565b61165b565b60007f00000000000000000000000000000000000000000000000000000000000000006040516370a0823160e01b81523060048201526001600160a01b0391909116906370a0823190602401602060405180830381865afa1580156109be573d6000803e3d6000fd5b505050506040513d601f19601f820116820180604052508101906109e29190612f81565b905090565b60006001600160e01b03198216637965db0b60e01b1480610a1857506301ffc9a760e01b6001600160e01b03198316145b92915050565b606060038054610a2d90612f9a565b80601f0160208091040260200160405190810160405280929190818152602001828054610a5990612f9a565b8015610aa65780601f10610a7b57610100808354040283529160200191610aa6565b820191906000526020600020905b815481529060010190602001808311610a8957829003601f168201915b5050505050905090565b6000610a18826000611890565b600033610acb8185856118ca565b5060019392505050565b6000610a188260016118dc565b6001336000908152600f602090815260408083206001600160a01b038616845290915290205460ff166002811115610b1c57610b1c612ec7565b14610b3a57604051631ed6bf0360e21b815260040160405180910390fd5b336000818152600f602090815260408083206001600160a01b0386168085529252808320805460ff19166002179055519092917fed6a1f03e365a374bf7e9fe68b09cf74960528af699108cb461241efc5ded90991a350565b600033610ba185828561190c565b610bac858585611985565b60019150505b9392505050565b600082815260086020526040902060010154610bd4816119e4565b610bde83836119ee565b50505050565b60006109e2611a82565b81610c0c5760405163185b73b160e01b815260040160405180910390fd5b610c168282611bad565b5050565b6000805160206131ac833981519152610c32816119e4565b610c3a611be0565b50565b6001600160a01b0381166000818152600f60209081526040808320338085529252808320805460ff19169055519092917f97b59d736dc70ae61c6b68295c19a1311cc4a48cbb9eb25c4dabf18c7f650a8a91a350565b80600003610cb45760405163162908e360e11b815260040160405180910390fd5b610cbe3382611c32565b604051630852cd8d60e31b8152600481018290527f00000000000000000000000000000000000000000000000000000000000000006001600160a01b0316906342966c6890602401600060405180830381600087803b158015610d2057600080fd5b505af1158015610d34573d6000803e3d6000fd5b5050505050565b6001600160a01b0381166000818152600f60209081526040808320338085529252808320805460ff19166001179055519092917f769c75d94dacde64c18415b5a72f6d26e7f62b356387f8da812c4b0aa66a0f2591a350565b6000610d9e611c68565b610da6611c92565b336000908152601160209081526040808320815160608101835281546001600160681b0381168252600160681b90046001600160981b03169381018490526001909101546001600160a01b0316918101919091529103610e195760405163302d029360e01b815260040160405180910390fd5b80516001600160681b0316421015610e435760405162ea2d0d60e51b815260040160405180910390fd5b6020818101516040808401513360009081526011909452818420938455600190930180546001600160a01b03191690555163f3fef3a360e01b81523060048201526001600160981b039091166024820181905291906001600160a01b037f0000000000000000000000000000000000000000000000000000000000000000169063f3fef3a390604401600060405180830381600087803b158015610ee657600080fd5b505af1158015610efa573d6000803e3d6000fd5b50505050610f088183611cb6565b9350610f143083611c32565b610f497f00000000000000000000000000000000000000000000000000000000000000006001600160a01b0381169084611d85565b604051635c833bfd60e01b81526001600160a01b038281166004830152602482018490523360448301526000917f000000000000000000000000000000000000000000000000000000000000000090911690635c833bfd906064016020604051808303816000875af1158015610fc3573d6000803e3d6000fd5b505050506040513d601f19601f82011682018060405250810190610fe79190612f81565b60408051858152602081018390529192506001600160a01b0384169133917ffd418381fd385fa40c54005e4745aac73c2bc925bdbcf3ace12712373c8674a7910160405180910390a35050505061103e6001600955565b90565b6000600019611054565b60405180910390fd5b600061105f85611296565b905061106d33858784611e0f565b949350505050565b600061107f611c68565b611087611c92565b6002336000908152600f602090815260408083206001600160a01b038716845290915290205460ff1660028111156110c1576110c1612ec7565b146110df57604051638baa579f60e01b815260040160405180910390fd5b6110ea848484611ea1565b9050610bb26001600955565b6001600160a01b038116600090815260076020526040812054610a18565b6000805160206131ac83398151915261112c816119e4565b610c3a612158565b600060608060008060006060611148612195565b6111506121c2565b60408051600080825260208201909252600f60f81b9b939a50919850469750309650945092509050565b60009182526008602090815260408084206001600160a01b0393909316845291905290205460ff1690565b600060001960006111b58561121d565b905061106d33858388611e0f565b606060048054610a2d90612f9a565b60006111dd816119e4565b610c16826121ef565b60006111f0611c68565b6111f8611c92565b611203838333611ea1565b9050610a186001600955565b600033610acb818585611985565b6000610a18826001611890565b60405162461bcd60e51b815260206004820152601260248201527155736520636f6f6c646f776e52656465656d60701b604482015260009060640161104b565b6000805160206131ac833981519152611282816119e4565b61128c60006121ef565b610c3a6000612235565b6000610a188260006118dc565b60006112ae816119e4565b6276a70062ffffff831611156112d757604051637475d84d60e11b815260040160405180910390fd5b6010805462ffffff84811662ffffff1983168117909355604080519190921680825260208201939093527f180eacdf7dbaeecaa983d93173b4285db2f2c0de0044697e1f932bbbb73dcaa6910160405180910390a1505050565b6001600160a01b038116600090815260208190526040812054610a18906000611890565b834211156113795760405163313c898160e11b81526004810185905260240161104b565b60007f6e71edae12b1b97f4d1f60370fef10105fa2faae0126114a169c64845d6126c98888886113c68c6001600160a01b0316600090815260076020526040902080546001810190915590565b6040805160208101969096526001600160a01b0394851690860152929091166060840152608083015260a082015260c0810186905260e001604051602081830303815290604052805190602001209050600061142182612273565b90506000611431828787876122a0565b9050896001600160a01b0316816001600160a01b031614611478576040516325c0072360e11b81526001600160a01b0380831660048301528b16602482015260440161104b565b6114838a8a8a6118ca565b50505050505050505050565b6000828152600860205260409020600101546114aa816119e4565b610bde83836122ce565b60006114bf816119e4565b610c1682612235565b6001600160a01b038116600090815260208190526040812054610a18565b6114ee611c68565b336000908152601160209081526040808320815160608101835281546001600160681b0381168252600160681b90046001600160981b03169381018490526001909101546001600160a01b03169181019190915291036115615760405163302d029360e01b815260040160405180910390fd5b60208181015133600081815260119093526040808420938455600190930180546001600160a01b0319169055915163f3fef3a360e01b815260048101929092526001600160981b031660248201819052906001600160a01b037f0000000000000000000000000000000000000000000000000000000000000000169063f3fef3a390604401600060405180830381600087803b15801561160057600080fd5b505af1158015611614573d6000803e3d6000fd5b50506040518381523392507f9aec5cafc1451c1485e4a0099bd4dfb4c9d2bb972b4e5c798da07db8323deaa3915060200160405180910390a250506116596001600955565b565b611663611c68565b61166b611c92565b8060000361168c5760405163162908e360e11b815260040160405180910390fd5b604051634df48c7360e11b81526001600160a01b0383811660048301527f00000000000000000000000000000000000000000000000000000000000000001690639be918e690602401602060405180830381865afa1580156116f2573d6000803e3d6000fd5b505050506040513d601f19601f820116820180604052508101906117169190612fd4565b61173357604051630928045160e21b815260040160405180910390fd5b33600090815260116020526040902054600160681b90046001600160981b03161561177157604051631d761c8160e01b815260040160405180910390fd5b61179c337f000000000000000000000000000000000000000000000000000000000000000083611985565b604080516060810190915260105481906117bb9062ffffff164261300c565b6001600160681b0390811682526001600160981b038085166020808501919091526001600160a01b03808816604095860181905233600081815260118552879020885194890151909516600160681b0293909516929092178355949093015160019091018054919094166001600160a01b0319909116179092556010549091907fc036344f1c9bf874056dda112ca8fe6bcdaf77b9be2ef53968905f8391734dff90849061186e9062ffffff164261300c565b6040805192835260208301919091520160405180910390a3610c166001600955565b6000610bb261189d610955565b6118a890600161300c565b6118b46000600a613103565b6002546118c1919061300c565b8591908561233b565b6118d78383836001612388565b505050565b6000610bb26118ec82600a613103565b6002546118f9919061300c565b611901610955565b6118c190600161300c565b6001600160a01b03838116600090815260016020908152604080832093861683529290522054600019811015610bde578181101561197657604051637dc7a0d960e11b81526001600160a01b0384166004820152602481018290526044810183905260640161104b565b610bde84848484036000612388565b6001600160a01b0383166119af57604051634b637e8f60e11b81526000600482015260240161104b565b6001600160a01b0382166119d95760405163ec442f0560e01b81526000600482015260240161104b565b6118d783838361244f565b610c3a8133612579565b60006119fa838361117a565b611a7a5760008381526008602090815260408083206001600160a01b03861684529091529020805460ff19166001179055611a323390565b6001600160a01b0316826001600160a01b0316847f2f8788117e7eff1d82e926ec794901d17c78024a50270940304540a733656f0d60405160405180910390a4506001610a18565b506000610a18565b6000306001600160a01b037f000000000000000000000000000000000000000000000000000000000000000016148015611adb57507f000000000000000000000000000000000000000000000000000000000000000046145b15611b0557507f000000000000000000000000000000000000000000000000000000000000000090565b6109e2604080517f8b73c3c69bb8fe3d512ecc4cf759cc79239f7b179b0ffacaa9a75d522b39400f60208201527f0000000000000000000000000000000000000000000000000000000000000000918101919091527f000000000000000000000000000000000000000000000000000000000000000060608201524660808201523060a082015260009060c00160405160208183030381529060405280519060200120905090565b6001600160a01b0381163314611bd65760405163334bd91960e11b815260040160405180910390fd5b6118d782826122ce565b611be86125b2565b600a805460ff191690557f5db9ee0a495bf2e6ff9c91a7834c1ba4fdd244a5e8aa4e537bd38aeae4b073aa335b6040516001600160a01b03909116815260200160405180910390a1565b6001600160a01b038216611c5c57604051634b637e8f60e11b81526000600482015260240161104b565b610c168260008361244f565b600260095403611c8b57604051633ee5aeb560e01b815260040160405180910390fd5b6002600955565b600a5460ff16156116595760405163d93c066560e01b815260040160405180910390fd5b600080836001600160a01b031663313ce5676040518163ffffffff1660e01b8152600401602060405180830381865afa158015611cf7573d6000803e3d6000fd5b505050506040513d601f19601f82011682018060405250810190611d1b9190613112565b90508060ff16601203611d315782915050610a18565b60128160ff161015611d6557611d4881601261312f565b611d5390600a613103565b611d5d908461315e565b915050610a18565b611d7060128261312f565b611d7b90600a613103565b611d5d9084613172565b604051636eb1769f60e11b81523060048201526001600160a01b0383811660248301526000919085169063dd62ed3e90604401602060405180830381865afa158015611dd5573d6000803e3d6000fd5b505050506040513d601f19601f82011682018060405250810190611df99190612f81565b9050610bde8484611e0a858561300c565b6125d5565b611e3b7f0000000000000000000000000000000000000000000000000000000000000000853085612693565b611e4583826126cc565b826001600160a01b0316846001600160a01b03167fdcbc1c05240f31ff3ad067ef1ee35ce4997762752e3a095284754544f4c709d78484604051611e93929190918252602082015260400190565b60405180910390a350505050565b600d54436000908152600b602052604081205490918491611ec390839061300c565b1115611ee257604051630fbf0bc960e01b815260040160405180910390fd5b83600003611f035760405163162908e360e11b815260040160405180910390fd5b604051634df48c7360e11b81526001600160a01b0386811660048301527f00000000000000000000000000000000000000000000000000000000000000001690639be918e690602401602060405180830381865afa158015611f69573d6000803e3d6000fd5b505050506040513d601f19601f82011682018060405250810190611f8d9190612fd4565b611faa57604051630928045160e21b815260040160405180910390fd5b6001600160a01b038316611fd157604051635919af9760e11b815260040160405180910390fd5b611fdb8585612702565b915081600b60004381526020019081526020016000206000828254612000919061300c565b9091555061201b90506001600160a01b038616843087612693565b61204f6001600160a01b0386167f000000000000000000000000000000000000000000000000000000000000000086611d85565b604051630d4d151360e01b81526001600160a01b038681166004830152602482018690523060448301526000917f000000000000000000000000000000000000000000000000000000000000000090911690630d4d1513906064016020604051808303816000875af11580156120c9573d6000803e3d6000fd5b505050506040513d601f19601f820116820180604052508101906120ed9190612f81565b90506120f984826126cc565b856001600160a01b0316846001600160a01b03167f2f00e3cdd69a77be7ed215ec7b2a36784dd158f921fca79ac29deffa353fe6ee8786604051612147929190918252602082015260400190565b60405180910390a350509392505050565b612160611c92565b600a805460ff191660011790557f62e78cea01bee320cd4e420270b5ea74000d11b0c9f74754ebdbfc544b05a258611c153390565b60606109e27f0000000000000000000000000000000000000000000000000000000000000000600561279f565b60606109e27f0000000000000000000000000000000000000000000000000000000000000000600661279f565b600d80549082905560408051828152602081018490527fb4a832eb73ba0066dc45acd0d1f4454cdee155b17bdb1ccbabb428cc39750ad191015b60405180910390a15050565b600e80549082905560408051828152602081018490527f6fd3eacad9328fdc902c323518cfef3a2f6a9da89c40a7b82428adc2370114c39101612229565b6000610a18612280611a82565b8360405161190160f01b8152600281019290925260228201526042902090565b6000806000806122b28888888861284a565b9250925092506122c28282612919565b50909695505050505050565b60006122da838361117a565b15611a7a5760008381526008602090815260408083206001600160a01b0386168085529252808320805460ff1916905551339286917ff6391f5c32d9c69d2a47ea670b442974b53935d1edc7fd64eb21e047a839171b9190a4506001610a18565b600061236a612349836129d2565b801561236557506000848061236057612360613148565b868809115b151590565b6123758686866129ff565b61237f919061300c565b95945050505050565b6001600160a01b0384166123b25760405163e602df0560e01b81526000600482015260240161104b565b6001600160a01b0383166123dc57604051634a1406b160e11b81526000600482015260240161104b565b6001600160a01b0380851660009081526001602090815260408083209387168352929052208290558015610bde57826001600160a01b0316846001600160a01b03167f8c5be1e5ebec7d5bd14f71427d1e84f3dd0314c0f7b2291e5b200ac8c7c3b92584604051611e9391815260200190565b6001600160a01b03831661247a57806002600082825461246f919061300c565b909155506124ec9050565b6001600160a01b038316600090815260208190526040902054818110156124cd5760405163391434e360e21b81526001600160a01b0385166004820152602481018290526044810183905260640161104b565b6001600160a01b03841660009081526020819052604090209082900390555b6001600160a01b03821661250857600280548290039055612527565b6001600160a01b03821660009081526020819052604090208054820190555b816001600160a01b0316836001600160a01b03167fddf252ad1be2c89b69c2b068fc378daa952ba7f163c4a11628f55a4df523b3ef8360405161256c91815260200190565b60405180910390a3505050565b612583828261117a565b610c165760405163e2517d3f60e01b81526001600160a01b03821660048201526024810183905260440161104b565b600a5460ff1661165957604051638dfc202b60e01b815260040160405180910390fd5b604080516001600160a01b038416602482015260448082018490528251808303909101815260649091019091526020810180516001600160e01b031663095ea7b360e01b1790526126268482612ab4565b610bde576040516001600160a01b0384811660248301526000604483015261268991869182169063095ea7b3906064015b604051602081830303815290604052915060e01b6020820180516001600160e01b038381831617835250505050612b03565b610bde8482612b03565b6040516001600160a01b038481166024830152838116604483015260648201839052610bde9186918216906323b872dd90608401612657565b6001600160a01b0382166126f65760405163ec442f0560e01b81526000600482015260240161104b565b610c166000838361244f565b600080836001600160a01b031663313ce5676040518163ffffffff1660e01b8152600401602060405180830381865afa158015612743573d6000803e3d6000fd5b505050506040513d601f19601f820116820180604052508101906127679190613112565b90508060ff1660120361277d5782915050610a18565b60128160ff16101561279457611d7081601261312f565b611d4860128261312f565b606060ff83146127b9576127b283612b74565b9050610a18565b8180546127c590612f9a565b80601f01602080910402602001604051908101604052809291908181526020018280546127f190612f9a565b801561283e5780601f106128135761010080835404028352916020019161283e565b820191906000526020600020905b81548152906001019060200180831161282157829003601f168201915b50505050509050610a18565b600080807f7fffffffffffffffffffffffffffffff5d576e7357a4501ddfe92f46681b20a0841115612885575060009150600390508261290f565b604080516000808252602082018084528a905260ff891692820192909252606081018790526080810186905260019060a0016020604051602081039080840390855afa1580156128d9573d6000803e3d6000fd5b5050604051601f1901519150506001600160a01b0381166129055750600092506001915082905061290f565b9250600091508190505b9450945094915050565b600082600381111561292d5761292d612ec7565b03612936575050565b600182600381111561294a5761294a612ec7565b036129685760405163f645eedf60e01b815260040160405180910390fd5b600282600381111561297c5761297c612ec7565b0361299d5760405163fce698f760e01b81526004810182905260240161104b565b60038260038111156129b1576129b1612ec7565b03610c16576040516335e2f38360e21b81526004810182905260240161104b565b600060028260038111156129e8576129e8612ec7565b6129f29190613189565b60ff166001149050919050565b6000806000612a0e8686612bb3565b9150915081600003612a3357838181612a2957612a29613148565b0492505050610bb2565b818411612a4a57612a4a6003851502601118612bd1565b6000848688096000868103871696879004966002600389028118808a02820302808a02820302808a02820302808a02820302808a02820302808a02909103029181900381900460010185841190960395909502919093039390930492909217029150509392505050565b6000806000806020600086516020880160008a5af192503d91506000519050828015612af957508115612aea5780600114612af9565b6000866001600160a01b03163b115b9695505050505050565b600080602060008451602086016000885af180612b26576040513d6000823e3d81fd5b50506000513d91508115612b3e578060011415612b4b565b6001600160a01b0384163b155b15610bde57604051635274afe760e01b81526001600160a01b038516600482015260240161104b565b60606000612b8183612be3565b604080516020808252818301909252919250600091906020820181803683375050509182525060208101929092525090565b60008060001983850993909202808410938190039390930393915050565b634e487b71600052806020526024601cfd5b600060ff8216601f811115610a1857604051632cd44ac360e21b815260040160405180910390fd5b600060208284031215612c1d57600080fd5b81356001600160e01b031981168114610bb257600080fd5b6000815180845260005b81811015612c5b57602081850181015186830182015201612c3f565b506000602082860101526020601f19601f83011685010191505092915050565b602081526000610bb26020830184612c35565b600060208284031215612ca057600080fd5b5035919050565b80356001600160a01b0381168114612cbe57600080fd5b919050565b60008060408385031215612cd657600080fd5b612cdf83612ca7565b946020939093013593505050565b600060208284031215612cff57600080fd5b610bb282612ca7565b600080600060608486031215612d1d57600080fd5b612d2684612ca7565b9250612d3460208501612ca7565b9150604084013590509250925092565b60008060408385031215612d5757600080fd5b82359150612d6760208401612ca7565b90509250929050565b600080600060608486031215612d8557600080fd5b612d8e84612ca7565b925060208401359150612da360408501612ca7565b90509250925092565b60ff60f81b881681526000602060e06020840152612dcd60e084018a612c35565b8381036040850152612ddf818a612c35565b606085018990526001600160a01b038816608086015260a0850187905284810360c08601528551808252602080880193509091019060005b81811015612e3357835183529284019291840191600101612e17565b50909c9b505050505050505050505050565b600080600060608486031215612e5a57600080fd5b83359250612e6a60208501612ca7565b9150612da360408501612ca7565b600060208284031215612e8a57600080fd5b813562ffffff81168114610bb257600080fd5b60008060408385031215612eb057600080fd5b612eb983612ca7565b9150612d6760208401612ca7565b634e487b7160e01b600052602160045260246000fd5b6020810160038310612eff57634e487b7160e01b600052602160045260246000fd5b91905290565b60ff81168114610c3a57600080fd5b600080600080600080600060e0888a031215612f2f57600080fd5b612f3888612ca7565b9650612f4660208901612ca7565b955060408801359450606088013593506080880135612f6481612f05565b9699959850939692959460a0840135945060c09093013592915050565b600060208284031215612f9357600080fd5b5051919050565b600181811c90821680612fae57607f821691505b602082108103612fce57634e487b7160e01b600052602260045260246000fd5b50919050565b600060208284031215612fe657600080fd5b81518015158114610bb257600080fd5b634e487b7160e01b600052601160045260246000fd5b80820180821115610a1857610a18612ff6565b600181815b8085111561305a57816000190482111561304057613040612ff6565b8085161561304d57918102915b93841c9390800290613024565b509250929050565b60008261307157506001610a18565b8161307e57506000610a18565b8160018114613094576002811461309e576130ba565b6001915050610a18565b60ff8411156130af576130af612ff6565b50506001821b610a18565b5060208310610133831016604e8410600b84101617156130dd575081810a610a18565b6130e7838361301f565b80600019048211156130fb576130fb612ff6565b029392505050565b6000610bb260ff841683613062565b60006020828403121561312457600080fd5b8151610bb281612f05565b60ff8281168282160390811115610a1857610a18612ff6565b634e487b7160e01b600052601260045260246000fd5b60008261316d5761316d613148565b500490565b8082028115828204841417610a1857610a18612ff6565b600060ff83168061319c5761319c613148565b8060ff8416069150509291505056fe3c63e605be3290ab6b04cfc46c6e1516e626d43236b034f09d7ede1d017beb0ca2646970667358221220bff92949e7d5074fa4e888ac3819b26e1047254646a21641badfa75db30e9baa64736f6c6343000816003360c060405234801561001057600080fd5b5060405161027538038061027583398101604081905261002f91610062565b6001600160a01b039182166080521660a052610095565b80516001600160a01b038116811461005d57600080fd5b919050565b6000806040838503121561007557600080fd5b61007e83610046565b915061008c60208401610046565b90509250929050565b60805160a0516101bd6100b8600039600060b401526000605001526101bd6000f3fe608060405234801561001057600080fd5b506004361061002b5760003560e01c8063f3fef3a314610030575b600080fd5b61004361003e366004610126565b610045565b005b336001600160a01b037f0000000000000000000000000000000000000000000000000000000000000000161461008e57604051638d1af8bd60e01b815260040160405180910390fd5b60405163a9059cbb60e01b81526001600160a01b038381166004830152602482018390527f0000000000000000000000000000000000000000000000000000000000000000169063a9059cbb906044016020604051808303816000875af11580156100fd573d6000803e3d6000fd5b505050506040513d601f19601f82011682018060405250810190610121919061015e565b505050565b6000806040838503121561013957600080fd5b82356001600160a01b038116811461015057600080fd5b946020939093013593505050565b60006020828403121561017057600080fd5b8151801515811461018057600080fd5b939250505056fea26469706673582212205e764730c8818161e448a5a73fa7fcd30adce81469b335a6fe3c24523a5f830864736f6c63430008160033",
  "devdoc": {
    "details": "This contract combines ERC4626 vault with direct collateral minting - Underlying asset: MCT (MultiCollateralToken) - Exchange rate: 1:1 with MCT - Users can mint by depositing collateral (USDC, etc.) - Collateral is converted to MCT, then USDe shares are minted - Redemptions require cooldown: lock USDe  wait X days  redeem to collateral  release - Users can cancel redemption requests during cooldown period",
    "errors": {
      "AccessControlBadConfirmation()": [
        {
          "details": "The caller of a function is not the expected one. NOTE: Don't confuse with {AccessControlUnauthorizedAccount}."
        }
      ],
      "AccessControlUnauthorizedAccount(address,bytes32)": [
        {
          "details": "The `account` is missing a role."
        }
      ],
      "ECDSAInvalidSignature()": [
        {
          "details": "The signature derives the `address(0)`."
        }
      ],
      "ECDSAInvalidSignatureLength(uint256)": [
        {
          "details": "The signature has an invalid length."
        }
      ],
      "ECDSAInvalidSignatureS(bytes32)": [
        {
          "details": "The signature has an S value that is in the upper half order."
        }
      ],
      "ERC20InsufficientAllowance(address,uint256,uint256)": [
        {
          "details": "Indicates a failure with the `spender`s `allowance`. Used in transfers.",
          "params": {
            "allowance": "Amount of tokens a `spender` is allowed to operate with.",
            "needed": "Minimum amount required to perform a transfer.",
            "spender": "Address that may be allowed to operate on tokens without being their owner."
          }
        }
      ],
      "ERC20InsufficientBalance(address,uint256,uint256)": [
        {
          "details": "Indicates an error related to the current `balance` of a `sender`. Used in transfers.",
          "params": {
            "balance": "Current balance for the interacting account.",
            "needed": "Minimum amount required to perform a transfer.",
            "sender": "Address whose tokens are being transferred."
          }
        }
      ],
      "ERC20InvalidApprover(address)": [
        {
          "details": "Indicates a failure with the `approver` of a token to be approved. Used in approvals.",
          "params": {
            "approver": "Address initiating an approval operation."
          }
        }
      ],
      "ERC20InvalidReceiver(address)": [
        {
          "details": "Indicates a failure with the token `receiver`. Used in transfers.",
          "params": {
            "receiver": "Address to which tokens are being transferred."
          }
        }
      ],
      "ERC20InvalidSender(address)": [
        {
          "details": "Indicates a failure with the token `sender`. Used in transfers.",
          "params": {
            "sender": "Address whose tokens are being transferred."
          }
        }
      ],
      "ERC20InvalidSpender(address)": [
        {
          "details": "Indicates a failure with the `spender` to be approved. Used in approvals.",
          "params": {
            "spender": "Address that may be allowed to operate on tokens without being their owner."
          }
        }
      ],
      "ERC2612ExpiredSignature(uint256)": [
        {
          "details": "Permit deadline has expired."
        }
      ],
      "ERC2612InvalidSigner(address,address)": [
        {
          "details": "Mismatched signature."
        }
      ],
      "ERC4626ExceededMaxDeposit(address,uint256,uint256)": [
        {
          "details": "Attempted to deposit more assets than the max amount for `receiver`."
        }
      ],
      "ERC4626ExceededMaxMint(address,uint256,uint256)": [
        {
          "details": "Attempted to mint more shares than the max amount for `receiver`."
        }
      ],
      "ERC4626ExceededMaxRedeem(address,uint256,uint256)": [
        {
          "details": "Attempted to redeem more shares than the max amount for `receiver`."
        }
      ],
      "ERC4626ExceededMaxWithdraw(address,uint256,uint256)": [
        {
          "details": "Attempted to withdraw more assets than the max amount for `receiver`."
        }
      ],
      "EnforcedPause()": [
        {
          "details": "The operation failed because the contract is paused."
        }
      ],
      "ExpectedPause()": [
        {
          "details": "The operation failed because the contract is not paused."
        }
      ],
      "InvalidAccountNonce(address,uint256)": [
        {
          "details": "The nonce used for an `account` is not the expected current nonce."
        }
      ],
      "ReentrancyGuardReentrantCall()": [
        {
          "details": "Unauthorized reentrant call."
        }
      ],
      "SafeERC20FailedOperation(address)": [
        {
          "details": "An operation with an ERC-20 token failed."
        }
      ]
    },
    "events": {
      "Approval(address,address,uint256)": {
        "details": "Emitted when the allowance of a `spender` for an `owner` is set by a call to {approve}. `value` is the new allowance."
      },
      "EIP712DomainChanged()": {
        "details": "MAY be emitted to signal that the domain could have changed."
      },
      "Paused(address)": {
        "details": "Emitted when the pause is triggered by `account`."
      },
      "RoleAdminChanged(bytes32,bytes32,bytes32)": {
        "details": "Emitted when `newAdminRole` is set as ``role``'s admin role, replacing `previousAdminRole` `DEFAULT_ADMIN_ROLE` is the starting admin for all roles, despite {RoleAdminChanged} not being emitted to signal this."
      },
      "RoleGranted(bytes32,address,address)": {
        "details": "Emitted when `account` is granted `role`. `sender` is the account that originated the contract call. This account bears the admin role (for the granted role). Expected in cases where the role was granted using the internal {AccessControl-_grantRole}."
      },
      "RoleRevoked(bytes32,address,address)": {
        "details": "Emitted when `account` is revoked `role`. `sender` is the account that originated the contract call:   - if using `revokeRole`, it is the admin role bearer   - if using `renounceRole`, it is the role bearer (i.e. `account`)"
      },
      "Transfer(address,address,uint256)": {
        "details": "Emitted when `value` tokens are moved from one account (`from`) to another (`to`). Note that `value` may be zero."
      },
      "Unpaused(address)": {
        "details": "Emitted when the pause is lifted by `account`."
      }
    },
    "kind": "dev",
    "methods": {
      "DOMAIN_SEPARATOR()": {
        "details": "Returns the domain separator used in the encoding of the signature for {permit}, as defined by {EIP712}."
      },
      "allowance(address,address)": {
        "details": "Returns the remaining number of tokens that `spender` will be allowed to spend on behalf of `owner` through {transferFrom}. This is zero by default. This value changes when {approve} or {transferFrom} are called."
      },
      "approve(address,uint256)": {
        "details": "See {IERC20-approve}. NOTE: If `value` is the maximum `uint256`, the allowance is not updated on `transferFrom`. This is semantically equivalent to an infinite approval. Requirements: - `spender` cannot be the zero address."
      },
      "asset()": {
        "details": "Returns the address of the underlying token used for the Vault for accounting, depositing, and withdrawing. - MUST be an ERC-20 token contract. - MUST NOT revert."
      },
      "balanceOf(address)": {
        "details": "Returns the value of tokens owned by `account`."
      },
      "burn(uint256)": {
        "details": "This creates a deflationary effect: burns both USDe and MCT while keeping collateral in MCTBurns tokens from msg.sender only (caller must own the tokens)",
        "params": {
          "amount": "The amount of USDe to burn"
        }
      },
      "confirmDelegatedSigner(address)": {
        "params": {
          "_delegatedBy": "The address that initiated delegation"
        }
      },
      "convertToAssets(uint256)": {
        "details": "Returns the amount of assets that the Vault would exchange for the amount of shares provided, in an ideal scenario where all the conditions are met. - MUST NOT be inclusive of any fees that are charged against assets in the Vault. - MUST NOT show any variations depending on the caller. - MUST NOT reflect slippage or other on-chain conditions, when performing the actual exchange. - MUST NOT revert. NOTE: This calculation MAY NOT reflect the per-user price-per-share, and instead should reflect the average-users price-per-share, meaning what the average user should expect to see when exchanging to and from."
      },
      "convertToShares(uint256)": {
        "details": "Returns the amount of shares that the Vault would exchange for the amount of assets provided, in an ideal scenario where all the conditions are met. - MUST NOT be inclusive of any fees that are charged against assets in the Vault. - MUST NOT show any variations depending on the caller. - MUST NOT reflect slippage or other on-chain conditions, when performing the actual exchange. - MUST NOT revert. NOTE: This calculation MAY NOT reflect the per-user price-per-share, and instead should reflect the average-users price-per-share, meaning what the average user should expect to see when exchanging to and from."
      },
      "cooldownRedeem(address,uint256)": {
        "params": {
          "collateralAsset": "The collateral asset to receive after cooldown",
          "usdeAmount": "The amount of USDe to lock for redemption"
        }
      },
      "decimals()": {
        "details": "Override decimals to ensure 18 decimals"
      },
      "deposit(uint256,address)": {
        "details": "Mints shares Vault shares to receiver by depositing exactly amount of underlying tokens. - MUST emit the Deposit event. - MAY support an additional flow in which the underlying tokens are owned by the Vault contract before the   deposit execution, and are accounted for during deposit. - MUST revert if all of assets cannot be deposited (due to deposit limit being reached, slippage, the user not   approving enough underlying tokens to the Vault contract, etc). NOTE: most implementations will require pre-approval of the Vault with the Vaults underlying asset token."
      },
      "eip712Domain()": {
        "details": "returns the fields and values that describe the domain separator used by this contract for EIP-712 signature."
      },
      "getRoleAdmin(bytes32)": {
        "details": "Returns the admin role that controls `role`. See {grantRole} and {revokeRole}. To change a role's admin, use {_setRoleAdmin}."
      },
      "grantRole(bytes32,address)": {
        "details": "Grants `role` to `account`. If `account` had not been already granted `role`, emits a {RoleGranted} event. Requirements: - the caller must have ``role``'s admin role. May emit a {RoleGranted} event."
      },
      "hasRole(bytes32,address)": {
        "details": "Returns `true` if `account` has been granted `role`."
      },
      "maxDeposit(address)": {
        "details": "Returns the maximum amount of the underlying asset that can be deposited into the Vault for the receiver, through a deposit call. - MUST return a limited value if receiver is subject to some deposit limit. - MUST return 2 ** 256 - 1 if there is no limit on the maximum amount of assets that may be deposited. - MUST NOT revert."
      },
      "maxMint(address)": {
        "details": "Returns the maximum amount of the Vault shares that can be minted for the receiver, through a mint call. - MUST return a limited value if receiver is subject to some mint limit. - MUST return 2 ** 256 - 1 if there is no limit on the maximum amount of shares that may be minted. - MUST NOT revert."
      },
      "maxRedeem(address)": {
        "details": "Returns the maximum amount of Vault shares that can be redeemed from the owner balance in the Vault, through a redeem call. - MUST return a limited value if owner is subject to some withdrawal limit or timelock. - MUST return balanceOf(owner) if owner is not subject to any withdrawal limit or timelock. - MUST NOT revert."
      },
      "maxWithdraw(address)": {
        "details": "Returns the maximum amount of the underlying asset that can be withdrawn from the owner balance in the Vault, through a withdraw call. - MUST return a limited value if owner is subject to some withdrawal limit or timelock. - MUST NOT revert."
      },
      "mint(uint256,address)": {
        "details": "Mints exactly shares Vault shares to receiver by depositing amount of underlying tokens. - MUST emit the Deposit event. - MAY support an additional flow in which the underlying tokens are owned by the Vault contract before the mint   execution, and are accounted for during mint. - MUST revert if all of shares cannot be minted (due to deposit limit being reached, slippage, the user not   approving enough underlying tokens to the Vault contract, etc). NOTE: most implementations will require pre-approval of the Vault with the Vaults underlying asset token."
      },
      "mintWithCollateral(address,uint256)": {
        "params": {
          "collateralAmount": "The amount of collateral to deposit",
          "collateralAsset": "The collateral asset to deposit"
        },
        "returns": {
          "usdeAmount": "The amount of USDe minted"
        }
      },
      "mintWithCollateralFor(address,uint256,address)": {
        "params": {
          "beneficiary": "The address to receive minted USDe",
          "collateralAmount": "The amount of collateral to deposit",
          "collateralAsset": "The collateral asset to deposit"
        },
        "returns": {
          "usdeAmount": "The amount of USDe minted"
        }
      },
      "name()": {
        "details": "Returns the name of the token."
      },
      "nonces(address)": {
        "details": "Returns the current nonce for `owner`. This value must be included whenever a signature is generated for {permit}. Every successful call to {permit} increases ``owner``'s nonce by one. This prevents a signature from being used multiple times."
      },
      "paused()": {
        "details": "Returns true if the contract is paused, and false otherwise."
      },
      "permit(address,address,uint256,uint256,uint8,bytes32,bytes32)": {
        "details": "Sets `value` as the allowance of `spender` over ``owner``'s tokens, given ``owner``'s signed approval. IMPORTANT: The same issues {IERC20-approve} has related to transaction ordering also apply here. Emits an {Approval} event. Requirements: - `spender` cannot be the zero address. - `deadline` must be a timestamp in the future. - `v`, `r` and `s` must be a valid `secp256k1` signature from `owner` over the EIP712-formatted function arguments. - the signature must use ``owner``'s current nonce (see {nonces}). For more information on the signature format, see the https://eips.ethereum.org/EIPS/eip-2612#specification[relevant EIP section]. CAUTION: See Security Considerations above."
      },
      "previewDeposit(uint256)": {
        "details": "Allows an on-chain or off-chain user to simulate the effects of their deposit at the current block, given current on-chain conditions. - MUST return as close to and no more than the exact amount of Vault shares that would be minted in a deposit   call in the same transaction. I.e. deposit should return the same or more shares as previewDeposit if called   in the same transaction. - MUST NOT account for deposit limits like those returned from maxDeposit and should always act as though the   deposit would be accepted, regardless if the user has enough tokens approved, etc. - MUST be inclusive of deposit fees. Integrators should be aware of the existence of deposit fees. - MUST NOT revert. NOTE: any unfavorable discrepancy between convertToShares and previewDeposit SHOULD be considered slippage in share price or some other type of condition, meaning the depositor will lose assets by depositing."
      },
      "previewMint(uint256)": {
        "details": "Allows an on-chain or off-chain user to simulate the effects of their mint at the current block, given current on-chain conditions. - MUST return as close to and no fewer than the exact amount of assets that would be deposited in a mint call   in the same transaction. I.e. mint should return the same or fewer assets as previewMint if called in the   same transaction. - MUST NOT account for mint limits like those returned from maxMint and should always act as though the mint   would be accepted, regardless if the user has enough tokens approved, etc. - MUST be inclusive of deposit fees. Integrators should be aware of the existence of deposit fees. - MUST NOT revert. NOTE: any unfavorable discrepancy between convertToAssets and previewMint SHOULD be considered slippage in share price or some other type of condition, meaning the depositor will lose assets by minting."
      },
      "previewRedeem(uint256)": {
        "details": "Allows an on-chain or off-chain user to simulate the effects of their redemption at the current block, given current on-chain conditions. - MUST return as close to and no more than the exact amount of assets that would be withdrawn in a redeem call   in the same transaction. I.e. redeem should return the same or more assets as previewRedeem if called in the   same transaction. - MUST NOT account for redemption limits like those returned from maxRedeem and should always act as though the   redemption would be accepted, regardless if the user has enough shares, etc. - MUST be inclusive of withdrawal fees. Integrators should be aware of the existence of withdrawal fees. - MUST NOT revert. NOTE: any unfavorable discrepancy between convertToAssets and previewRedeem SHOULD be considered slippage in share price or some other type of condition, meaning the depositor will lose assets by redeeming."
      },
      "previewWithdraw(uint256)": {
        "details": "Allows an on-chain or off-chain user to simulate the effects of their withdrawal at the current block, given current on-chain conditions. - MUST return as close to and no fewer than the exact amount of Vault shares that would be burned in a withdraw   call in the same transaction. I.e. withdraw should return the same or fewer shares as previewWithdraw if   called   in the same transaction. - MUST NOT account for withdrawal limits like those returned from maxWithdraw and should always act as though   the withdrawal would be accepted, regardless if the user has enough shares, etc. - MUST be inclusive of withdrawal fees. Integrators should be aware of the existence of withdrawal fees. - MUST NOT revert. NOTE: any unfavorable discrepancy between convertToShares and previewWithdraw SHOULD be considered slippage in share price or some other type of condition, meaning the depositor will lose assets by depositing."
      },
      "redeem(uint256,address,address)": {
        "details": "Use cooldownRedeem/completeRedeem instead"
      },
      "removeDelegatedSigner(address)": {
        "params": {
          "_removedSigner": "The address to remove"
        }
      },
      "revokeRole(bytes32,address)": {
        "details": "Revokes `role` from `account`. If `account` had been granted `role`, emits a {RoleRevoked} event. Requirements: - the caller must have ``role``'s admin role. May emit a {RoleRevoked} event."
      },
      "setCooldownDuration(uint24)": {
        "params": {
          "duration": "New cooldown duration (max 90 days)"
        }
      },
      "setDelegatedSigner(address)": {
        "params": {
          "_delegateTo": "The address to delegate to"
        }
      },
      "setMaxMintPerBlock(uint256)": {
        "params": {
          "_maxMintPerBlock": "New max mint per block"
        }
      },
      "setMaxRedeemPerBlock(uint256)": {
        "params": {
          "_maxRedeemPerBlock": "New max redeem per block"
        }
      },
      "supportsInterface(bytes4)": {
        "details": "Returns true if this contract implements the interface defined by `interfaceId`. See the corresponding https://eips.ethereum.org/EIPS/eip-165#how-interfaces-are-identified[ERC section] to learn more about how these ids are created. This function call must use less than 30 000 gas."
      },
      "symbol()": {
        "details": "Returns the symbol of the token, usually a shorter version of the name."
      },
      "totalAssets()": {
        "details": "Returns the total amount of the underlying asset that is managed by Vault. - SHOULD include any compounding that occurs from yield. - MUST be inclusive of any fees that are charged against assets in the Vault. - MUST NOT revert."
      },
      "totalSupply()": {
        "details": "Returns the value of tokens in existence."
      },
      "transfer(address,uint256)": {
        "details": "See {IERC20-transfer}. Requirements: - `to` cannot be the zero address. - the caller must have a balance of at least `value`."
      },
      "transferFrom(address,address,uint256)": {
        "details": "See {IERC20-transferFrom}. Skips emitting an {Approval} event indicating an allowance update. This is not required by the ERC. See {xref-ERC20-_approve-address-address-uint256-bool-}[_approve]. NOTE: Does not update the allowance if the current allowance is the maximum `uint256`. Requirements: - `from` and `to` cannot be the zero address. - `from` must have a balance of at least `value`. - the caller must have allowance for ``from``'s tokens of at least `value`."
      },
      "withdraw(uint256,address,address)": {
        "details": "Use cooldownRedeem/completeRedeem instead"
      }
    },
    "title": "USDe",
    "version": 1
  },
  "userdoc": {
    "kind": "user",
    "methods": {
      "COLLATERAL_MANAGER_ROLE()": {
        "notice": "Role for managing collateral operations"
      },
      "GATEKEEPER_ROLE()": {
        "notice": "Role for emergency actions"
      },
      "MAX_COOLDOWN_DURATION()": {
        "notice": "Maximum cooldown duration (90 days)"
      },
      "burn(uint256)": {
        "notice": "Burn USDe tokens and underlying MCT without withdrawing collateral"
      },
      "cancelRedeem()": {
        "notice": "Cancel redemption request and return locked USDe to user"
      },
      "completeRedeem()": {
        "notice": "Complete redemption after cooldown period - redeems USDe for collateral"
      },
      "confirmDelegatedSigner(address)": {
        "notice": "Confirm delegation"
      },
      "cooldownDuration()": {
        "notice": "Cooldown duration in seconds for redemptions"
      },
      "cooldownRedeem(address,uint256)": {
        "notice": "Request redemption with cooldown - locks USDe and starts cooldown timer"
      },
      "delegatedSigner(address,address)": {
        "notice": "Delegated signer status for smart contracts"
      },
      "disableMintRedeem()": {
        "notice": "Disable mint and redeem in emergency"
      },
      "maxMintPerBlock()": {
        "notice": "Max minted USDe allowed per block"
      },
      "maxRedeemPerBlock()": {
        "notice": "Max redeemed USDe allowed per block"
      },
      "mct()": {
        "notice": "The MCT token (underlying asset)"
      },
      "mintWithCollateral(address,uint256)": {
        "notice": "Mint USDe by depositing collateral"
      },
      "mintWithCollateralFor(address,uint256,address)": {
        "notice": "Mint USDe on behalf of a beneficiary"
      },
      "mintedPerBlock(uint256)": {
        "notice": "USDe minted per block"
      },
      "pause()": {
        "notice": "Pause all mint and redeem operations"
      },
      "redeem(uint256,address,address)": {
        "notice": "Override ERC4626 redeem to enforce cooldown - disabled"
      },
      "redeemSilo()": {
        "notice": "Silo contract for holding locked USDe during cooldown"
      },
      "redeemedPerBlock(uint256)": {
        "notice": "USDe redeemed per block"
      },
      "redemptionRequests(address)": {
        "notice": "Mapping of user addresses to their redemption requests"
      },
      "removeDelegatedSigner(address)": {
        "notice": "Remove delegated signer"
      },
      "renounceRole(bytes32,address)": {
        "notice": "Prevent renouncing ownership"
      },
      "setCooldownDuration(uint24)": {
        "notice": "Set cooldown duration for redemptions"
      },
      "setDelegatedSigner(address)": {
        "notice": "Enable smart contracts to delegate signing"
      },
      "setMaxMintPerBlock(uint256)": {
        "notice": "Set max mint per block"
      },
      "setMaxRedeemPerBlock(uint256)": {
        "notice": "Set max redeem per block"
      },
      "unpause()": {
        "notice": "Unpause all mint and redeem operations"
      },
      "withdraw(uint256,address,address)": {
        "notice": "Override ERC4626 withdraw to enforce cooldown - disabled"
      }
    },
    "notice": "Omnichain vault version of USDe with integrated minting functionality and redemption cooldown",
    "version": 1
  },
  "storageLayout": {
    "storage": [
      {
        "astId": 1058,
        "contract": "contracts/usde/USDe.sol:USDe",
        "label": "_balances",
        "offset": 0,
        "slot": "0",
        "type": "t_mapping(t_address,t_uint256)"
      },
      {
        "astId": 1064,
        "contract": "contracts/usde/USDe.sol:USDe",
        "label": "_allowances",
        "offset": 0,
        "slot": "1",
        "type": "t_mapping(t_address,t_mapping(t_address,t_uint256))"
      },
      {
        "astId": 1066,
        "contract": "contracts/usde/USDe.sol:USDe",
        "label": "_totalSupply",
        "offset": 0,
        "slot": "2",
        "type": "t_uint256"
      },
      {
        "astId": 1068,
        "contract": "contracts/usde/USDe.sol:USDe",
        "label": "_name",
        "offset": 0,
        "slot": "3",
        "type": "t_string_storage"
      },
      {
        "astId": 1070,
        "contract": "contracts/usde/USDe.sol:USDe",
        "label": "_symbol",
        "offset": 0,
        "slot": "4",
        "type": "t_string_storage"
      },
      {
        "astId": 6643,
        "contract": "contracts/usde/USDe.sol:USDe",
        "label": "_nameFallback",
        "offset": 0,
        "slot": "5",
        "type": "t_string_storage"
      },
      {
        "astId": 6645,
        "contract": "contracts/usde/USDe.sol:USDe",
        "label": "_versionFallback",
        "offset": 0,
        "slot": "6",
        "type": "t_string_storage"
      },
      {
        "astId": 4102,
        "contract": "contracts/usde/USDe.sol:USDe",
        "label": "_nonces",
        "offset": 0,
        "slot": "7",
        "type": "t_mapping(t_address,t_uint256)"
      },
      {
        "astId": 27,
        "contract": "contracts/usde/USDe.sol:USDe",
        "label": "_roles",
        "offset": 0,
        "slot": "8",
        "type": "t_mapping(t_bytes32,t_struct(RoleData)22_storage)"
      },
      {
        "astId": 4327,
        "contract": "contracts/usde/USDe.sol:USDe",
        "label": "_status",
        "offset": 0,
        "slot": "9",
        "type": "t_uint256"
      },
      {
        "astId": 4217,
        "contract": "contracts/usde/USDe.sol:USDe",
        "label": "_paused",
        "offset": 0,
        "slot": "10",
        "type": "t_bool"
      },
      {
        "astId": 14617,
        "contract": "contracts/usde/USDe.sol:USDe",
        "label": "mintedPerBlock",
        "offset": 0,
        "slot": "11",
        "type": "t_mapping(t_uint256,t_uint256)"
      },
      {
        "astId": 14622,
        "contract": "contracts/usde/USDe.sol:USDe",
        "label": "redeemedPerBlock",
        "offset": 0,
        "slot": "12",
        "type": "t_mapping(t_uint256,t_uint256)"
      },
      {
        "astId": 14625,
        "contract": "contracts/usde/USDe.sol:USDe",
        "label": "maxMintPerBlock",
        "offset": 0,
        "slot": "13",
        "type": "t_uint256"
      },
      {
        "astId": 14628,
        "contract": "contracts/usde/USDe.sol:USDe",
        "label": "maxRedeemPerBlock",
        "offset": 0,
        "slot": "14",
        "type": "t_uint256"
      },
      {
        "astId": 14636,
        "contract": "contracts/usde/USDe.sol:USDe",
        "label": "delegatedSigner",
        "offset": 0,
        "slot": "15",
        "type": "t_mapping(t_address,t_mapping(t_address,t_enum(DelegatedSignerStatus)14653))"
      },
      {
        "astId": 14639,
        "contract": "contracts/usde/USDe.sol:USDe",
        "label": "cooldownDuration",
        "offset": 0,
        "slot": "16",
        "type": "t_uint24"
      },
      {
        "astId": 14645,
        "contract": "contracts/usde/USDe.sol:USDe",
        "label": "redemptionRequests",
        "offset": 0,
        "slot": "17",
        "type": "t_mapping(t_address,t_struct(RedemptionRequest)14608_storage)"
      }
    ],
    "types": {
      "t_address": {
        "encoding": "inplace",
        "label": "address",
        "numberOfBytes": "20"
      },
      "t_bool": {
        "encoding": "inplace",
        "label": "bool",
        "numberOfBytes": "1"
      },
      "t_bytes32": {
        "encoding": "inplace",
        "label": "bytes32",
        "numberOfBytes": "32"
      },
      "t_enum(DelegatedSignerStatus)14653": {
        "encoding": "inplace",
        "label": "enum USDe.DelegatedSignerStatus",
        "numberOfBytes": "1"
      },
      "t_mapping(t_address,t_bool)": {
        "encoding": "mapping",
        "key": "t_address",
        "label": "mapping(address => bool)",
        "numberOfBytes": "32",
        "value": "t_bool"
      },
      "t_mapping(t_address,t_enum(DelegatedSignerStatus)14653)": {
        "encoding": "mapping",
        "key": "t_address",
        "label": "mapping(address => enum USDe.DelegatedSignerStatus)",
        "numberOfBytes": "32",
        "value": "t_enum(DelegatedSignerStatus)14653"
      },
      "t_mapping(t_address,t_mapping(t_address,t_enum(DelegatedSignerStatus)14653))": {
        "encoding": "mapping",
        "key": "t_address",
        "label": "mapping(address => mapping(address => enum USDe.DelegatedSignerStatus))",
        "numberOfBytes": "32",
        "value": "t_mapping(t_address,t_enum(DelegatedSignerStatus)14653)"
      },
      "t_mapping(t_address,t_mapping(t_address,t_uint256))": {
        "encoding": "mapping",
        "key": "t_address",
        "label": "mapping(address => mapping(address => uint256))",
        "numberOfBytes": "32",
        "value": "t_mapping(t_address,t_uint256)"
      },
      "t_mapping(t_address,t_struct(RedemptionRequest)14608_storage)": {
        "encoding": "mapping",
        "key": "t_address",
        "label": "mapping(address => struct USDe.RedemptionRequest)",
        "numberOfBytes": "32",
        "value": "t_struct(RedemptionRequest)14608_storage"
      },
      "t_mapping(t_address,t_uint256)": {
        "encoding": "mapping",
        "key": "t_address",
        "label": "mapping(address => uint256)",
        "numberOfBytes": "32",
        "value": "t_uint256"
      },
      "t_mapping(t_bytes32,t_struct(RoleData)22_storage)": {
        "encoding": "mapping",
        "key": "t_bytes32",
        "label": "mapping(bytes32 => struct AccessControl.RoleData)",
        "numberOfBytes": "32",
        "value": "t_struct(RoleData)22_storage"
      },
      "t_mapping(t_uint256,t_uint256)": {
        "encoding": "mapping",
        "key": "t_uint256",
        "label": "mapping(uint256 => uint256)",
        "numberOfBytes": "32",
        "value": "t_uint256"
      },
      "t_string_storage": {
        "encoding": "bytes",
        "label": "string",
        "numberOfBytes": "32"
      },
      "t_struct(RedemptionRequest)14608_storage": {
        "encoding": "inplace",
        "label": "struct USDe.RedemptionRequest",
        "members": [
          {
            "astId": 14603,
            "contract": "contracts/usde/USDe.sol:USDe",
            "label": "cooldownEnd",
            "offset": 0,
            "slot": "0",
            "type": "t_uint104"
          },
          {
            "astId": 14605,
            "contract": "contracts/usde/USDe.sol:USDe",
            "label": "usdeAmount",
            "offset": 13,
            "slot": "0",
            "type": "t_uint152"
          },
          {
            "astId": 14607,
            "contract": "contracts/usde/USDe.sol:USDe",
            "label": "collateralAsset",
            "offset": 0,
            "slot": "1",
            "type": "t_address"
          }
        ],
        "numberOfBytes": "64"
      },
      "t_struct(RoleData)22_storage": {
        "encoding": "inplace",
        "label": "struct AccessControl.RoleData",
        "members": [
          {
            "astId": 19,
            "contract": "contracts/usde/USDe.sol:USDe",
            "label": "hasRole",
            "offset": 0,
            "slot": "0",
            "type": "t_mapping(t_address,t_bool)"
          },
          {
            "astId": 21,
            "contract": "contracts/usde/USDe.sol:USDe",
            "label": "adminRole",
            "offset": 0,
            "slot": "1",
            "type": "t_bytes32"
          }
        ],
        "numberOfBytes": "64"
      },
      "t_uint104": {
        "encoding": "inplace",
        "label": "uint104",
        "numberOfBytes": "13"
      },
      "t_uint152": {
        "encoding": "inplace",
        "label": "uint152",
        "numberOfBytes": "19"
      },
      "t_uint24": {
        "encoding": "inplace",
        "label": "uint24",
        "numberOfBytes": "3"
      },
      "t_uint256": {
        "encoding": "inplace",
        "label": "uint256",
        "numberOfBytes": "32"
      }
    }
  }
}