{
  "address": "0x5Ea77E679e98762F6ea79ad4835FEf394db06B33",
  "abi": [
    {
      "inputs": [
        {
          "internalType": "contract MultiCollateralToken",
          "name": "_mct",
          "type": "address"
        },
        {
          "internalType": "address",
          "name": "admin",
          "type": "address"
        },
        {
          "internalType": "uint256",
          "name": "_maxMintPerBlock",
          "type": "uint256"
        },
        {
          "internalType": "uint256",
          "name": "_maxRedeemPerBlock",
          "type": "uint256"
        }
      ],
      "stateMutability": "nonpayable",
      "type": "constructor"
    },
    {
      "inputs": [],
      "name": "AccessControlBadConfirmation",
      "type": "error"
    },
    {
      "inputs": [
        {
          "internalType": "address",
          "name": "account",
          "type": "address"
        },
        {
          "internalType": "bytes32",
          "name": "neededRole",
          "type": "bytes32"
        }
      ],
      "name": "AccessControlUnauthorizedAccount",
      "type": "error"
    },
    {
      "inputs": [],
      "name": "BelowMinimumAmount",
      "type": "error"
    },
    {
      "inputs": [],
      "name": "CantBlacklistOwner",
      "type": "error"
    },
    {
      "inputs": [],
      "name": "CantRenounceOwnership",
      "type": "error"
    },
    {
      "inputs": [],
      "name": "CooldownNotFinished",
      "type": "error"
    },
    {
      "inputs": [],
      "name": "DelegationNotInitiated",
      "type": "error"
    },
    {
      "inputs": [],
      "name": "ECDSAInvalidSignature",
      "type": "error"
    },
    {
      "inputs": [
        {
          "internalType": "uint256",
          "name": "length",
          "type": "uint256"
        }
      ],
      "name": "ECDSAInvalidSignatureLength",
      "type": "error"
    },
    {
      "inputs": [
        {
          "internalType": "bytes32",
          "name": "s",
          "type": "bytes32"
        }
      ],
      "name": "ECDSAInvalidSignatureS",
      "type": "error"
    },
    {
      "inputs": [
        {
          "internalType": "address",
          "name": "spender",
          "type": "address"
        },
        {
          "internalType": "uint256",
          "name": "allowance",
          "type": "uint256"
        },
        {
          "internalType": "uint256",
          "name": "needed",
          "type": "uint256"
        }
      ],
      "name": "ERC20InsufficientAllowance",
      "type": "error"
    },
    {
      "inputs": [
        {
          "internalType": "address",
          "name": "sender",
          "type": "address"
        },
        {
          "internalType": "uint256",
          "name": "balance",
          "type": "uint256"
        },
        {
          "internalType": "uint256",
          "name": "needed",
          "type": "uint256"
        }
      ],
      "name": "ERC20InsufficientBalance",
      "type": "error"
    },
    {
      "inputs": [
        {
          "internalType": "address",
          "name": "approver",
          "type": "address"
        }
      ],
      "name": "ERC20InvalidApprover",
      "type": "error"
    },
    {
      "inputs": [
        {
          "internalType": "address",
          "name": "receiver",
          "type": "address"
        }
      ],
      "name": "ERC20InvalidReceiver",
      "type": "error"
    },
    {
      "inputs": [
        {
          "internalType": "address",
          "name": "sender",
          "type": "address"
        }
      ],
      "name": "ERC20InvalidSender",
      "type": "error"
    },
    {
      "inputs": [
        {
          "internalType": "address",
          "name": "spender",
          "type": "address"
        }
      ],
      "name": "ERC20InvalidSpender",
      "type": "error"
    },
    {
      "inputs": [
        {
          "internalType": "uint256",
          "name": "deadline",
          "type": "uint256"
        }
      ],
      "name": "ERC2612ExpiredSignature",
      "type": "error"
    },
    {
      "inputs": [
        {
          "internalType": "address",
          "name": "signer",
          "type": "address"
        },
        {
          "internalType": "address",
          "name": "owner",
          "type": "address"
        }
      ],
      "name": "ERC2612InvalidSigner",
      "type": "error"
    },
    {
      "inputs": [
        {
          "internalType": "address",
          "name": "receiver",
          "type": "address"
        },
        {
          "internalType": "uint256",
          "name": "assets",
          "type": "uint256"
        },
        {
          "internalType": "uint256",
          "name": "max",
          "type": "uint256"
        }
      ],
      "name": "ERC4626ExceededMaxDeposit",
      "type": "error"
    },
    {
      "inputs": [
        {
          "internalType": "address",
          "name": "receiver",
          "type": "address"
        },
        {
          "internalType": "uint256",
          "name": "shares",
          "type": "uint256"
        },
        {
          "internalType": "uint256",
          "name": "max",
          "type": "uint256"
        }
      ],
      "name": "ERC4626ExceededMaxMint",
      "type": "error"
    },
    {
      "inputs": [
        {
          "internalType": "address",
          "name": "owner",
          "type": "address"
        },
        {
          "internalType": "uint256",
          "name": "shares",
          "type": "uint256"
        },
        {
          "internalType": "uint256",
          "name": "max",
          "type": "uint256"
        }
      ],
      "name": "ERC4626ExceededMaxRedeem",
      "type": "error"
    },
    {
      "inputs": [
        {
          "internalType": "address",
          "name": "owner",
          "type": "address"
        },
        {
          "internalType": "uint256",
          "name": "assets",
          "type": "uint256"
        },
        {
          "internalType": "uint256",
          "name": "max",
          "type": "uint256"
        }
      ],
      "name": "ERC4626ExceededMaxWithdraw",
      "type": "error"
    },
    {
      "inputs": [],
      "name": "EnforcedPause",
      "type": "error"
    },
    {
      "inputs": [],
      "name": "ExistingRedemptionRequest",
      "type": "error"
    },
    {
      "inputs": [],
      "name": "ExpectedPause",
      "type": "error"
    },
    {
      "inputs": [],
      "name": "InsufficientCollateral",
      "type": "error"
    },
    {
      "inputs": [
        {
          "internalType": "address",
          "name": "account",
          "type": "address"
        },
        {
          "internalType": "uint256",
          "name": "currentNonce",
          "type": "uint256"
        }
      ],
      "name": "InvalidAccountNonce",
      "type": "error"
    },
    {
      "inputs": [],
      "name": "InvalidAmount",
      "type": "error"
    },
    {
      "inputs": [],
      "name": "InvalidCooldown",
      "type": "error"
    },
    {
      "inputs": [],
      "name": "InvalidFee",
      "type": "error"
    },
    {
      "inputs": [],
      "name": "InvalidShortString",
      "type": "error"
    },
    {
      "inputs": [],
      "name": "InvalidSignature",
      "type": "error"
    },
    {
      "inputs": [],
      "name": "InvalidToken",
      "type": "error"
    },
    {
      "inputs": [
        {
          "internalType": "address",
          "name": "account",
          "type": "address"
        }
      ],
      "name": "KeyringCredentialInvalid",
      "type": "error"
    },
    {
      "inputs": [],
      "name": "MaxMintPerBlockExceeded",
      "type": "error"
    },
    {
      "inputs": [],
      "name": "MaxRedeemPerBlockExceeded",
      "type": "error"
    },
    {
      "inputs": [],
      "name": "NoRedemptionRequest",
      "type": "error"
    },
    {
      "inputs": [],
      "name": "OperationNotAllowed",
      "type": "error"
    },
    {
      "inputs": [],
      "name": "ReentrancyGuardReentrantCall",
      "type": "error"
    },
    {
      "inputs": [
        {
          "internalType": "address",
          "name": "token",
          "type": "address"
        }
      ],
      "name": "SafeERC20FailedOperation",
      "type": "error"
    },
    {
      "inputs": [
        {
          "internalType": "string",
          "name": "str",
          "type": "string"
        }
      ],
      "name": "StringTooLong",
      "type": "error"
    },
    {
      "inputs": [],
      "name": "UnsupportedAsset",
      "type": "error"
    },
    {
      "inputs": [],
      "name": "ZeroAddressException",
      "type": "error"
    },
    {
      "anonymous": false,
      "inputs": [
        {
          "indexed": true,
          "internalType": "address",
          "name": "owner",
          "type": "address"
        },
        {
          "indexed": true,
          "internalType": "address",
          "name": "spender",
          "type": "address"
        },
        {
          "indexed": false,
          "internalType": "uint256",
          "name": "value",
          "type": "uint256"
        }
      ],
      "name": "Approval",
      "type": "event"
    },
    {
      "anonymous": false,
      "inputs": [
        {
          "indexed": false,
          "internalType": "uint24",
          "name": "previousDuration",
          "type": "uint24"
        },
        {
          "indexed": false,
          "internalType": "uint24",
          "name": "newDuration",
          "type": "uint24"
        }
      ],
      "name": "CooldownDurationUpdated",
      "type": "event"
    },
    {
      "anonymous": false,
      "inputs": [
        {
          "indexed": true,
          "internalType": "address",
          "name": "signer",
          "type": "address"
        },
        {
          "indexed": true,
          "internalType": "address",
          "name": "delegatedBy",
          "type": "address"
        }
      ],
      "name": "DelegatedSignerAdded",
      "type": "event"
    },
    {
      "anonymous": false,
      "inputs": [
        {
          "indexed": true,
          "internalType": "address",
          "name": "delegateTo",
          "type": "address"
        },
        {
          "indexed": true,
          "internalType": "address",
          "name": "delegatedBy",
          "type": "address"
        }
      ],
      "name": "DelegatedSignerInitiated",
      "type": "event"
    },
    {
      "anonymous": false,
      "inputs": [
        {
          "indexed": true,
          "internalType": "address",
          "name": "signer",
          "type": "address"
        },
        {
          "indexed": true,
          "internalType": "address",
          "name": "delegatedBy",
          "type": "address"
        }
      ],
      "name": "DelegatedSignerRemoved",
      "type": "event"
    },
    {
      "anonymous": false,
      "inputs": [
        {
          "indexed": true,
          "internalType": "address",
          "name": "sender",
          "type": "address"
        },
        {
          "indexed": true,
          "internalType": "address",
          "name": "owner",
          "type": "address"
        },
        {
          "indexed": false,
          "internalType": "uint256",
          "name": "assets",
          "type": "uint256"
        },
        {
          "indexed": false,
          "internalType": "uint256",
          "name": "shares",
          "type": "uint256"
        }
      ],
      "name": "Deposit",
      "type": "event"
    },
    {
      "anonymous": false,
      "inputs": [],
      "name": "EIP712DomainChanged",
      "type": "event"
    },
    {
      "anonymous": false,
      "inputs": [
        {
          "indexed": true,
          "internalType": "address",
          "name": "treasury",
          "type": "address"
        },
        {
          "indexed": false,
          "internalType": "uint256",
          "name": "feeAmount",
          "type": "uint256"
        },
        {
          "indexed": false,
          "internalType": "bool",
          "name": "isMintFee",
          "type": "bool"
        }
      ],
      "name": "FeeCollected",
      "type": "event"
    },
    {
      "anonymous": false,
      "inputs": [
        {
          "indexed": true,
          "internalType": "address",
          "name": "oldTreasury",
          "type": "address"
        },
        {
          "indexed": true,
          "internalType": "address",
          "name": "newTreasury",
          "type": "address"
        }
      ],
      "name": "FeeTreasuryUpdated",
      "type": "event"
    },
    {
      "anonymous": false,
      "inputs": [
        {
          "indexed": true,
          "internalType": "address",
          "name": "keyringAddress",
          "type": "address"
        },
        {
          "indexed": false,
          "internalType": "uint256",
          "name": "policyId",
          "type": "uint256"
        }
      ],
      "name": "KeyringConfigUpdated",
      "type": "event"
    },
    {
      "anonymous": false,
      "inputs": [
        {
          "indexed": true,
          "internalType": "address",
          "name": "account",
          "type": "address"
        },
        {
          "indexed": false,
          "internalType": "bool",
          "name": "status",
          "type": "bool"
        }
      ],
      "name": "KeyringWhitelistUpdated",
      "type": "event"
    },
    {
      "anonymous": false,
      "inputs": [
        {
          "indexed": true,
          "internalType": "address",
          "name": "from",
          "type": "address"
        },
        {
          "indexed": true,
          "internalType": "address",
          "name": "to",
          "type": "address"
        },
        {
          "indexed": false,
          "internalType": "uint256",
          "name": "amount",
          "type": "uint256"
        }
      ],
      "name": "LockedAmountRedistributed",
      "type": "event"
    },
    {
      "anonymous": false,
      "inputs": [
        {
          "indexed": false,
          "internalType": "uint256",
          "name": "oldMax",
          "type": "uint256"
        },
        {
          "indexed": false,
          "internalType": "uint256",
          "name": "newMax",
          "type": "uint256"
        }
      ],
      "name": "MaxMintPerBlockChanged",
      "type": "event"
    },
    {
      "anonymous": false,
      "inputs": [
        {
          "indexed": false,
          "internalType": "uint256",
          "name": "oldMax",
          "type": "uint256"
        },
        {
          "indexed": false,
          "internalType": "uint256",
          "name": "newMax",
          "type": "uint256"
        }
      ],
      "name": "MaxRedeemPerBlockChanged",
      "type": "event"
    },
    {
      "anonymous": false,
      "inputs": [
        {
          "indexed": false,
          "internalType": "uint256",
          "name": "oldAmount",
          "type": "uint256"
        },
        {
          "indexed": false,
          "internalType": "uint256",
          "name": "newAmount",
          "type": "uint256"
        }
      ],
      "name": "MinMintAmountUpdated",
      "type": "event"
    },
    {
      "anonymous": false,
      "inputs": [
        {
          "indexed": false,
          "internalType": "uint256",
          "name": "oldAmount",
          "type": "uint256"
        },
        {
          "indexed": false,
          "internalType": "uint256",
          "name": "newAmount",
          "type": "uint256"
        }
      ],
      "name": "MinMintFeeAmountUpdated",
      "type": "event"
    },
    {
      "anonymous": false,
      "inputs": [
        {
          "indexed": false,
          "internalType": "uint256",
          "name": "oldAmount",
          "type": "uint256"
        },
        {
          "indexed": false,
          "internalType": "uint256",
          "name": "newAmount",
          "type": "uint256"
        }
      ],
      "name": "MinRedeemAmountUpdated",
      "type": "event"
    },
    {
      "anonymous": false,
      "inputs": [
        {
          "indexed": false,
          "internalType": "uint256",
          "name": "oldAmount",
          "type": "uint256"
        },
        {
          "indexed": false,
          "internalType": "uint256",
          "name": "newAmount",
          "type": "uint256"
        }
      ],
      "name": "MinRedeemFeeAmountUpdated",
      "type": "event"
    },
    {
      "anonymous": false,
      "inputs": [
        {
          "indexed": true,
          "internalType": "address",
          "name": "beneficiary",
          "type": "address"
        },
        {
          "indexed": true,
          "internalType": "address",
          "name": "collateralAsset",
          "type": "address"
        },
        {
          "indexed": false,
          "internalType": "uint256",
          "name": "collateralAmount",
          "type": "uint256"
        },
        {
          "indexed": false,
          "internalType": "uint256",
          "name": "naraUSDAmount",
          "type": "uint256"
        }
      ],
      "name": "Mint",
      "type": "event"
    },
    {
      "anonymous": false,
      "inputs": [
        {
          "indexed": false,
          "internalType": "uint16",
          "name": "oldFeeBps",
          "type": "uint16"
        },
        {
          "indexed": false,
          "internalType": "uint16",
          "name": "newFeeBps",
          "type": "uint16"
        }
      ],
      "name": "MintFeeUpdated",
      "type": "event"
    },
    {
      "anonymous": false,
      "inputs": [
        {
          "indexed": false,
          "internalType": "address",
          "name": "account",
          "type": "address"
        }
      ],
      "name": "Paused",
      "type": "event"
    },
    {
      "anonymous": false,
      "inputs": [
        {
          "indexed": true,
          "internalType": "address",
          "name": "beneficiary",
          "type": "address"
        },
        {
          "indexed": true,
          "internalType": "address",
          "name": "collateralAsset",
          "type": "address"
        },
        {
          "indexed": false,
          "internalType": "uint256",
          "name": "naraUSDAmount",
          "type": "uint256"
        },
        {
          "indexed": false,
          "internalType": "uint256",
          "name": "collateralAmount",
          "type": "uint256"
        }
      ],
      "name": "Redeem",
      "type": "event"
    },
    {
      "anonymous": false,
      "inputs": [
        {
          "indexed": false,
          "internalType": "uint16",
          "name": "oldFeeBps",
          "type": "uint16"
        },
        {
          "indexed": false,
          "internalType": "uint16",
          "name": "newFeeBps",
          "type": "uint16"
        }
      ],
      "name": "RedeemFeeUpdated",
      "type": "event"
    },
    {
      "anonymous": false,
      "inputs": [
        {
          "indexed": true,
          "internalType": "address",
          "name": "user",
          "type": "address"
        },
        {
          "indexed": false,
          "internalType": "uint256",
          "name": "naraUSDAmount",
          "type": "uint256"
        }
      ],
      "name": "RedemptionCancelled",
      "type": "event"
    },
    {
      "anonymous": false,
      "inputs": [
        {
          "indexed": true,
          "internalType": "address",
          "name": "user",
          "type": "address"
        },
        {
          "indexed": false,
          "internalType": "uint256",
          "name": "naraUSDAmount",
          "type": "uint256"
        },
        {
          "indexed": true,
          "internalType": "address",
          "name": "collateralAsset",
          "type": "address"
        },
        {
          "indexed": false,
          "internalType": "uint256",
          "name": "collateralAmount",
          "type": "uint256"
        }
      ],
      "name": "RedemptionCompleted",
      "type": "event"
    },
    {
      "anonymous": false,
      "inputs": [
        {
          "indexed": true,
          "internalType": "address",
          "name": "user",
          "type": "address"
        },
        {
          "indexed": false,
          "internalType": "uint256",
          "name": "naraUSDAmount",
          "type": "uint256"
        },
        {
          "indexed": true,
          "internalType": "address",
          "name": "collateralAsset",
          "type": "address"
        }
      ],
      "name": "RedemptionRequested",
      "type": "event"
    },
    {
      "anonymous": false,
      "inputs": [
        {
          "indexed": true,
          "internalType": "bytes32",
          "name": "role",
          "type": "bytes32"
        },
        {
          "indexed": true,
          "internalType": "bytes32",
          "name": "previousAdminRole",
          "type": "bytes32"
        },
        {
          "indexed": true,
          "internalType": "bytes32",
          "name": "newAdminRole",
          "type": "bytes32"
        }
      ],
      "name": "RoleAdminChanged",
      "type": "event"
    },
    {
      "anonymous": false,
      "inputs": [
        {
          "indexed": true,
          "internalType": "bytes32",
          "name": "role",
          "type": "bytes32"
        },
        {
          "indexed": true,
          "internalType": "address",
          "name": "account",
          "type": "address"
        },
        {
          "indexed": true,
          "internalType": "address",
          "name": "sender",
          "type": "address"
        }
      ],
      "name": "RoleGranted",
      "type": "event"
    },
    {
      "anonymous": false,
      "inputs": [
        {
          "indexed": true,
          "internalType": "bytes32",
          "name": "role",
          "type": "bytes32"
        },
        {
          "indexed": true,
          "internalType": "address",
          "name": "account",
          "type": "address"
        },
        {
          "indexed": true,
          "internalType": "address",
          "name": "sender",
          "type": "address"
        }
      ],
      "name": "RoleRevoked",
      "type": "event"
    },
    {
      "anonymous": false,
      "inputs": [
        {
          "indexed": true,
          "internalType": "address",
          "name": "from",
          "type": "address"
        },
        {
          "indexed": true,
          "internalType": "address",
          "name": "to",
          "type": "address"
        },
        {
          "indexed": false,
          "internalType": "uint256",
          "name": "value",
          "type": "uint256"
        }
      ],
      "name": "Transfer",
      "type": "event"
    },
    {
      "anonymous": false,
      "inputs": [
        {
          "indexed": false,
          "internalType": "address",
          "name": "account",
          "type": "address"
        }
      ],
      "name": "Unpaused",
      "type": "event"
    },
    {
      "anonymous": false,
      "inputs": [
        {
          "indexed": true,
          "internalType": "address",
          "name": "sender",
          "type": "address"
        },
        {
          "indexed": true,
          "internalType": "address",
          "name": "receiver",
          "type": "address"
        },
        {
          "indexed": true,
          "internalType": "address",
          "name": "owner",
          "type": "address"
        },
        {
          "indexed": false,
          "internalType": "uint256",
          "name": "assets",
          "type": "uint256"
        },
        {
          "indexed": false,
          "internalType": "uint256",
          "name": "shares",
          "type": "uint256"
        }
      ],
      "name": "Withdraw",
      "type": "event"
    },
    {
      "inputs": [],
      "name": "BLACKLIST_MANAGER_ROLE",
      "outputs": [
        {
          "internalType": "bytes32",
          "name": "",
          "type": "bytes32"
        }
      ],
      "stateMutability": "view",
      "type": "function"
    },
    {
      "inputs": [],
      "name": "BPS_DENOMINATOR",
      "outputs": [
        {
          "internalType": "uint16",
          "name": "",
          "type": "uint16"
        }
      ],
      "stateMutability": "view",
      "type": "function"
    },
    {
      "inputs": [],
      "name": "COLLATERAL_MANAGER_ROLE",
      "outputs": [
        {
          "internalType": "bytes32",
          "name": "",
          "type": "bytes32"
        }
      ],
      "stateMutability": "view",
      "type": "function"
    },
    {
      "inputs": [],
      "name": "DEFAULT_ADMIN_ROLE",
      "outputs": [
        {
          "internalType": "bytes32",
          "name": "",
          "type": "bytes32"
        }
      ],
      "stateMutability": "view",
      "type": "function"
    },
    {
      "inputs": [],
      "name": "DOMAIN_SEPARATOR",
      "outputs": [
        {
          "internalType": "bytes32",
          "name": "",
          "type": "bytes32"
        }
      ],
      "stateMutability": "view",
      "type": "function"
    },
    {
      "inputs": [],
      "name": "FULL_RESTRICTED_ROLE",
      "outputs": [
        {
          "internalType": "bytes32",
          "name": "",
          "type": "bytes32"
        }
      ],
      "stateMutability": "view",
      "type": "function"
    },
    {
      "inputs": [],
      "name": "GATEKEEPER_ROLE",
      "outputs": [
        {
          "internalType": "bytes32",
          "name": "",
          "type": "bytes32"
        }
      ],
      "stateMutability": "view",
      "type": "function"
    },
    {
      "inputs": [],
      "name": "MAX_COOLDOWN_DURATION",
      "outputs": [
        {
          "internalType": "uint24",
          "name": "",
          "type": "uint24"
        }
      ],
      "stateMutability": "view",
      "type": "function"
    },
    {
      "inputs": [],
      "name": "MAX_FEE_BPS",
      "outputs": [
        {
          "internalType": "uint16",
          "name": "",
          "type": "uint16"
        }
      ],
      "stateMutability": "view",
      "type": "function"
    },
    {
      "inputs": [],
      "name": "MINTER_ROLE",
      "outputs": [
        {
          "internalType": "bytes32",
          "name": "",
          "type": "bytes32"
        }
      ],
      "stateMutability": "view",
      "type": "function"
    },
    {
      "inputs": [
        {
          "internalType": "address",
          "name": "target",
          "type": "address"
        }
      ],
      "name": "addToBlacklist",
      "outputs": [],
      "stateMutability": "nonpayable",
      "type": "function"
    },
    {
      "inputs": [
        {
          "internalType": "address",
          "name": "owner",
          "type": "address"
        },
        {
          "internalType": "address",
          "name": "spender",
          "type": "address"
        }
      ],
      "name": "allowance",
      "outputs": [
        {
          "internalType": "uint256",
          "name": "",
          "type": "uint256"
        }
      ],
      "stateMutability": "view",
      "type": "function"
    },
    {
      "inputs": [
        {
          "internalType": "address",
          "name": "spender",
          "type": "address"
        },
        {
          "internalType": "uint256",
          "name": "value",
          "type": "uint256"
        }
      ],
      "name": "approve",
      "outputs": [
        {
          "internalType": "bool",
          "name": "",
          "type": "bool"
        }
      ],
      "stateMutability": "nonpayable",
      "type": "function"
    },
    {
      "inputs": [],
      "name": "asset",
      "outputs": [
        {
          "internalType": "address",
          "name": "",
          "type": "address"
        }
      ],
      "stateMutability": "view",
      "type": "function"
    },
    {
      "inputs": [
        {
          "internalType": "address",
          "name": "account",
          "type": "address"
        }
      ],
      "name": "balanceOf",
      "outputs": [
        {
          "internalType": "uint256",
          "name": "",
          "type": "uint256"
        }
      ],
      "stateMutability": "view",
      "type": "function"
    },
    {
      "inputs": [
        {
          "internalType": "address[]",
          "name": "users",
          "type": "address[]"
        }
      ],
      "name": "bulkCompleteRedeem",
      "outputs": [],
      "stateMutability": "nonpayable",
      "type": "function"
    },
    {
      "inputs": [
        {
          "internalType": "uint256",
          "name": "amount",
          "type": "uint256"
        }
      ],
      "name": "burn",
      "outputs": [],
      "stateMutability": "nonpayable",
      "type": "function"
    },
    {
      "inputs": [],
      "name": "cancelRedeem",
      "outputs": [],
      "stateMutability": "nonpayable",
      "type": "function"
    },
    {
      "inputs": [],
      "name": "completeRedeem",
      "outputs": [
        {
          "internalType": "uint256",
          "name": "collateralAmount",
          "type": "uint256"
        }
      ],
      "stateMutability": "nonpayable",
      "type": "function"
    },
    {
      "inputs": [
        {
          "internalType": "address",
          "name": "_delegatedBy",
          "type": "address"
        }
      ],
      "name": "confirmDelegatedSigner",
      "outputs": [],
      "stateMutability": "nonpayable",
      "type": "function"
    },
    {
      "inputs": [
        {
          "internalType": "uint256",
          "name": "shares",
          "type": "uint256"
        }
      ],
      "name": "convertToAssets",
      "outputs": [
        {
          "internalType": "uint256",
          "name": "",
          "type": "uint256"
        }
      ],
      "stateMutability": "view",
      "type": "function"
    },
    {
      "inputs": [
        {
          "internalType": "uint256",
          "name": "assets",
          "type": "uint256"
        }
      ],
      "name": "convertToShares",
      "outputs": [
        {
          "internalType": "uint256",
          "name": "",
          "type": "uint256"
        }
      ],
      "stateMutability": "view",
      "type": "function"
    },
    {
      "inputs": [],
      "name": "cooldownDuration",
      "outputs": [
        {
          "internalType": "uint24",
          "name": "",
          "type": "uint24"
        }
      ],
      "stateMutability": "view",
      "type": "function"
    },
    {
      "inputs": [],
      "name": "decimals",
      "outputs": [
        {
          "internalType": "uint8",
          "name": "",
          "type": "uint8"
        }
      ],
      "stateMutability": "pure",
      "type": "function"
    },
    {
      "inputs": [
        {
          "internalType": "address",
          "name": "",
          "type": "address"
        },
        {
          "internalType": "address",
          "name": "",
          "type": "address"
        }
      ],
      "name": "delegatedSigner",
      "outputs": [
        {
          "internalType": "enum NaraUSD.DelegatedSignerStatus",
          "name": "",
          "type": "uint8"
        }
      ],
      "stateMutability": "view",
      "type": "function"
    },
    {
      "inputs": [
        {
          "internalType": "uint256",
          "name": "assets",
          "type": "uint256"
        },
        {
          "internalType": "address",
          "name": "receiver",
          "type": "address"
        }
      ],
      "name": "deposit",
      "outputs": [
        {
          "internalType": "uint256",
          "name": "",
          "type": "uint256"
        }
      ],
      "stateMutability": "nonpayable",
      "type": "function"
    },
    {
      "inputs": [],
      "name": "disableMintRedeem",
      "outputs": [],
      "stateMutability": "nonpayable",
      "type": "function"
    },
    {
      "inputs": [],
      "name": "eip712Domain",
      "outputs": [
        {
          "internalType": "bytes1",
          "name": "fields",
          "type": "bytes1"
        },
        {
          "internalType": "string",
          "name": "name",
          "type": "string"
        },
        {
          "internalType": "string",
          "name": "version",
          "type": "string"
        },
        {
          "internalType": "uint256",
          "name": "chainId",
          "type": "uint256"
        },
        {
          "internalType": "address",
          "name": "verifyingContract",
          "type": "address"
        },
        {
          "internalType": "bytes32",
          "name": "salt",
          "type": "bytes32"
        },
        {
          "internalType": "uint256[]",
          "name": "extensions",
          "type": "uint256[]"
        }
      ],
      "stateMutability": "view",
      "type": "function"
    },
    {
      "inputs": [],
      "name": "feeTreasury",
      "outputs": [
        {
          "internalType": "address",
          "name": "",
          "type": "address"
        }
      ],
      "stateMutability": "view",
      "type": "function"
    },
    {
      "inputs": [
        {
          "internalType": "bytes32",
          "name": "role",
          "type": "bytes32"
        }
      ],
      "name": "getRoleAdmin",
      "outputs": [
        {
          "internalType": "bytes32",
          "name": "",
          "type": "bytes32"
        }
      ],
      "stateMutability": "view",
      "type": "function"
    },
    {
      "inputs": [
        {
          "internalType": "bytes32",
          "name": "role",
          "type": "bytes32"
        },
        {
          "internalType": "address",
          "name": "account",
          "type": "address"
        }
      ],
      "name": "grantRole",
      "outputs": [],
      "stateMutability": "nonpayable",
      "type": "function"
    },
    {
      "inputs": [
        {
          "internalType": "bytes32",
          "name": "role",
          "type": "bytes32"
        },
        {
          "internalType": "address",
          "name": "account",
          "type": "address"
        }
      ],
      "name": "hasRole",
      "outputs": [
        {
          "internalType": "bool",
          "name": "",
          "type": "bool"
        }
      ],
      "stateMutability": "view",
      "type": "function"
    },
    {
      "inputs": [
        {
          "internalType": "address",
          "name": "account",
          "type": "address"
        }
      ],
      "name": "hasValidCredentials",
      "outputs": [
        {
          "internalType": "bool",
          "name": "",
          "type": "bool"
        }
      ],
      "stateMutability": "view",
      "type": "function"
    },
    {
      "inputs": [
        {
          "internalType": "address",
          "name": "account",
          "type": "address"
        }
      ],
      "name": "isBlacklisted",
      "outputs": [
        {
          "internalType": "bool",
          "name": "",
          "type": "bool"
        }
      ],
      "stateMutability": "view",
      "type": "function"
    },
    {
      "inputs": [],
      "name": "keyringAddress",
      "outputs": [
        {
          "internalType": "address",
          "name": "",
          "type": "address"
        }
      ],
      "stateMutability": "view",
      "type": "function"
    },
    {
      "inputs": [],
      "name": "keyringPolicyId",
      "outputs": [
        {
          "internalType": "uint256",
          "name": "",
          "type": "uint256"
        }
      ],
      "stateMutability": "view",
      "type": "function"
    },
    {
      "inputs": [
        {
          "internalType": "address",
          "name": "",
          "type": "address"
        }
      ],
      "name": "keyringWhitelist",
      "outputs": [
        {
          "internalType": "bool",
          "name": "",
          "type": "bool"
        }
      ],
      "stateMutability": "view",
      "type": "function"
    },
    {
      "inputs": [
        {
          "internalType": "address",
          "name": "",
          "type": "address"
        }
      ],
      "name": "maxDeposit",
      "outputs": [
        {
          "internalType": "uint256",
          "name": "",
          "type": "uint256"
        }
      ],
      "stateMutability": "view",
      "type": "function"
    },
    {
      "inputs": [
        {
          "internalType": "address",
          "name": "",
          "type": "address"
        }
      ],
      "name": "maxMint",
      "outputs": [
        {
          "internalType": "uint256",
          "name": "",
          "type": "uint256"
        }
      ],
      "stateMutability": "view",
      "type": "function"
    },
    {
      "inputs": [],
      "name": "maxMintPerBlock",
      "outputs": [
        {
          "internalType": "uint256",
          "name": "",
          "type": "uint256"
        }
      ],
      "stateMutability": "view",
      "type": "function"
    },
    {
      "inputs": [
        {
          "internalType": "address",
          "name": "owner",
          "type": "address"
        }
      ],
      "name": "maxRedeem",
      "outputs": [
        {
          "internalType": "uint256",
          "name": "",
          "type": "uint256"
        }
      ],
      "stateMutability": "view",
      "type": "function"
    },
    {
      "inputs": [],
      "name": "maxRedeemPerBlock",
      "outputs": [
        {
          "internalType": "uint256",
          "name": "",
          "type": "uint256"
        }
      ],
      "stateMutability": "view",
      "type": "function"
    },
    {
      "inputs": [
        {
          "internalType": "address",
          "name": "owner",
          "type": "address"
        }
      ],
      "name": "maxWithdraw",
      "outputs": [
        {
          "internalType": "uint256",
          "name": "",
          "type": "uint256"
        }
      ],
      "stateMutability": "view",
      "type": "function"
    },
    {
      "inputs": [],
      "name": "mct",
      "outputs": [
        {
          "internalType": "contract MultiCollateralToken",
          "name": "",
          "type": "address"
        }
      ],
      "stateMutability": "view",
      "type": "function"
    },
    {
      "inputs": [],
      "name": "minMintAmount",
      "outputs": [
        {
          "internalType": "uint256",
          "name": "",
          "type": "uint256"
        }
      ],
      "stateMutability": "view",
      "type": "function"
    },
    {
      "inputs": [],
      "name": "minMintFeeAmount",
      "outputs": [
        {
          "internalType": "uint256",
          "name": "",
          "type": "uint256"
        }
      ],
      "stateMutability": "view",
      "type": "function"
    },
    {
      "inputs": [],
      "name": "minRedeemAmount",
      "outputs": [
        {
          "internalType": "uint256",
          "name": "",
          "type": "uint256"
        }
      ],
      "stateMutability": "view",
      "type": "function"
    },
    {
      "inputs": [],
      "name": "minRedeemFeeAmount",
      "outputs": [
        {
          "internalType": "uint256",
          "name": "",
          "type": "uint256"
        }
      ],
      "stateMutability": "view",
      "type": "function"
    },
    {
      "inputs": [
        {
          "internalType": "address",
          "name": "to",
          "type": "address"
        },
        {
          "internalType": "uint256",
          "name": "amount",
          "type": "uint256"
        }
      ],
      "name": "mint",
      "outputs": [],
      "stateMutability": "nonpayable",
      "type": "function"
    },
    {
      "inputs": [
        {
          "internalType": "uint256",
          "name": "shares",
          "type": "uint256"
        },
        {
          "internalType": "address",
          "name": "receiver",
          "type": "address"
        }
      ],
      "name": "mint",
      "outputs": [
        {
          "internalType": "uint256",
          "name": "",
          "type": "uint256"
        }
      ],
      "stateMutability": "nonpayable",
      "type": "function"
    },
    {
      "inputs": [],
      "name": "mintFeeBps",
      "outputs": [
        {
          "internalType": "uint16",
          "name": "",
          "type": "uint16"
        }
      ],
      "stateMutability": "view",
      "type": "function"
    },
    {
      "inputs": [
        {
          "internalType": "address",
          "name": "collateralAsset",
          "type": "address"
        },
        {
          "internalType": "uint256",
          "name": "collateralAmount",
          "type": "uint256"
        }
      ],
      "name": "mintWithCollateral",
      "outputs": [
        {
          "internalType": "uint256",
          "name": "naraUSDAmount",
          "type": "uint256"
        }
      ],
      "stateMutability": "nonpayable",
      "type": "function"
    },
    {
      "inputs": [
        {
          "internalType": "address",
          "name": "collateralAsset",
          "type": "address"
        },
        {
          "internalType": "uint256",
          "name": "collateralAmount",
          "type": "uint256"
        },
        {
          "internalType": "address",
          "name": "beneficiary",
          "type": "address"
        }
      ],
      "name": "mintWithCollateralFor",
      "outputs": [
        {
          "internalType": "uint256",
          "name": "naraUSDAmount",
          "type": "uint256"
        }
      ],
      "stateMutability": "nonpayable",
      "type": "function"
    },
    {
      "inputs": [
        {
          "internalType": "uint256",
          "name": "",
          "type": "uint256"
        }
      ],
      "name": "mintedPerBlock",
      "outputs": [
        {
          "internalType": "uint256",
          "name": "",
          "type": "uint256"
        }
      ],
      "stateMutability": "view",
      "type": "function"
    },
    {
      "inputs": [],
      "name": "name",
      "outputs": [
        {
          "internalType": "string",
          "name": "",
          "type": "string"
        }
      ],
      "stateMutability": "view",
      "type": "function"
    },
    {
      "inputs": [
        {
          "internalType": "address",
          "name": "owner",
          "type": "address"
        }
      ],
      "name": "nonces",
      "outputs": [
        {
          "internalType": "uint256",
          "name": "",
          "type": "uint256"
        }
      ],
      "stateMutability": "view",
      "type": "function"
    },
    {
      "inputs": [],
      "name": "pause",
      "outputs": [],
      "stateMutability": "nonpayable",
      "type": "function"
    },
    {
      "inputs": [],
      "name": "paused",
      "outputs": [
        {
          "internalType": "bool",
          "name": "",
          "type": "bool"
        }
      ],
      "stateMutability": "view",
      "type": "function"
    },
    {
      "inputs": [
        {
          "internalType": "address",
          "name": "owner",
          "type": "address"
        },
        {
          "internalType": "address",
          "name": "spender",
          "type": "address"
        },
        {
          "internalType": "uint256",
          "name": "value",
          "type": "uint256"
        },
        {
          "internalType": "uint256",
          "name": "deadline",
          "type": "uint256"
        },
        {
          "internalType": "uint8",
          "name": "v",
          "type": "uint8"
        },
        {
          "internalType": "bytes32",
          "name": "r",
          "type": "bytes32"
        },
        {
          "internalType": "bytes32",
          "name": "s",
          "type": "bytes32"
        }
      ],
      "name": "permit",
      "outputs": [],
      "stateMutability": "nonpayable",
      "type": "function"
    },
    {
      "inputs": [
        {
          "internalType": "uint256",
          "name": "assets",
          "type": "uint256"
        }
      ],
      "name": "previewDeposit",
      "outputs": [
        {
          "internalType": "uint256",
          "name": "shares",
          "type": "uint256"
        }
      ],
      "stateMutability": "view",
      "type": "function"
    },
    {
      "inputs": [
        {
          "internalType": "uint256",
          "name": "shares",
          "type": "uint256"
        }
      ],
      "name": "previewMint",
      "outputs": [
        {
          "internalType": "uint256",
          "name": "assets",
          "type": "uint256"
        }
      ],
      "stateMutability": "view",
      "type": "function"
    },
    {
      "inputs": [
        {
          "internalType": "uint256",
          "name": "shares",
          "type": "uint256"
        }
      ],
      "name": "previewRedeem",
      "outputs": [
        {
          "internalType": "uint256",
          "name": "assets",
          "type": "uint256"
        }
      ],
      "stateMutability": "view",
      "type": "function"
    },
    {
      "inputs": [
        {
          "internalType": "uint256",
          "name": "assets",
          "type": "uint256"
        }
      ],
      "name": "previewWithdraw",
      "outputs": [
        {
          "internalType": "uint256",
          "name": "shares",
          "type": "uint256"
        }
      ],
      "stateMutability": "view",
      "type": "function"
    },
    {
      "inputs": [
        {
          "internalType": "address",
          "name": "collateralAsset",
          "type": "address"
        },
        {
          "internalType": "uint256",
          "name": "naraUSDAmount",
          "type": "uint256"
        },
        {
          "internalType": "bool",
          "name": "allowQueue",
          "type": "bool"
        }
      ],
      "name": "redeem",
      "outputs": [
        {
          "internalType": "bool",
          "name": "wasQueued",
          "type": "bool"
        }
      ],
      "stateMutability": "nonpayable",
      "type": "function"
    },
    {
      "inputs": [
        {
          "internalType": "uint256",
          "name": "",
          "type": "uint256"
        },
        {
          "internalType": "address",
          "name": "",
          "type": "address"
        },
        {
          "internalType": "address",
          "name": "",
          "type": "address"
        }
      ],
      "name": "redeem",
      "outputs": [
        {
          "internalType": "uint256",
          "name": "",
          "type": "uint256"
        }
      ],
      "stateMutability": "pure",
      "type": "function"
    },
    {
      "inputs": [],
      "name": "redeemFeeBps",
      "outputs": [
        {
          "internalType": "uint16",
          "name": "",
          "type": "uint16"
        }
      ],
      "stateMutability": "view",
      "type": "function"
    },
    {
      "inputs": [],
      "name": "redeemSilo",
      "outputs": [
        {
          "internalType": "contract NaraUSDRedeemSilo",
          "name": "",
          "type": "address"
        }
      ],
      "stateMutability": "view",
      "type": "function"
    },
    {
      "inputs": [
        {
          "internalType": "uint256",
          "name": "",
          "type": "uint256"
        }
      ],
      "name": "redeemedPerBlock",
      "outputs": [
        {
          "internalType": "uint256",
          "name": "",
          "type": "uint256"
        }
      ],
      "stateMutability": "view",
      "type": "function"
    },
    {
      "inputs": [
        {
          "internalType": "address",
          "name": "",
          "type": "address"
        }
      ],
      "name": "redemptionRequests",
      "outputs": [
        {
          "internalType": "uint152",
          "name": "naraUSDAmount",
          "type": "uint152"
        },
        {
          "internalType": "address",
          "name": "collateralAsset",
          "type": "address"
        }
      ],
      "stateMutability": "view",
      "type": "function"
    },
    {
      "inputs": [
        {
          "internalType": "address",
          "name": "from",
          "type": "address"
        },
        {
          "internalType": "address",
          "name": "to",
          "type": "address"
        }
      ],
      "name": "redistributeLockedAmount",
      "outputs": [],
      "stateMutability": "nonpayable",
      "type": "function"
    },
    {
      "inputs": [
        {
          "internalType": "address",
          "name": "_removedSigner",
          "type": "address"
        }
      ],
      "name": "removeDelegatedSigner",
      "outputs": [],
      "stateMutability": "nonpayable",
      "type": "function"
    },
    {
      "inputs": [
        {
          "internalType": "address",
          "name": "target",
          "type": "address"
        }
      ],
      "name": "removeFromBlacklist",
      "outputs": [],
      "stateMutability": "nonpayable",
      "type": "function"
    },
    {
      "inputs": [
        {
          "internalType": "bytes32",
          "name": "role",
          "type": "bytes32"
        },
        {
          "internalType": "address",
          "name": "account",
          "type": "address"
        }
      ],
      "name": "renounceRole",
      "outputs": [],
      "stateMutability": "nonpayable",
      "type": "function"
    },
    {
      "inputs": [
        {
          "internalType": "address",
          "name": "token",
          "type": "address"
        },
        {
          "internalType": "uint256",
          "name": "amount",
          "type": "uint256"
        },
        {
          "internalType": "address",
          "name": "to",
          "type": "address"
        }
      ],
      "name": "rescueTokens",
      "outputs": [],
      "stateMutability": "nonpayable",
      "type": "function"
    },
    {
      "inputs": [
        {
          "internalType": "bytes32",
          "name": "role",
          "type": "bytes32"
        },
        {
          "internalType": "address",
          "name": "account",
          "type": "address"
        }
      ],
      "name": "revokeRole",
      "outputs": [],
      "stateMutability": "nonpayable",
      "type": "function"
    },
    {
      "inputs": [
        {
          "internalType": "uint24",
          "name": "duration",
          "type": "uint24"
        }
      ],
      "name": "setCooldownDuration",
      "outputs": [],
      "stateMutability": "nonpayable",
      "type": "function"
    },
    {
      "inputs": [
        {
          "internalType": "address",
          "name": "_delegateTo",
          "type": "address"
        }
      ],
      "name": "setDelegatedSigner",
      "outputs": [],
      "stateMutability": "nonpayable",
      "type": "function"
    },
    {
      "inputs": [
        {
          "internalType": "address",
          "name": "_feeTreasury",
          "type": "address"
        }
      ],
      "name": "setFeeTreasury",
      "outputs": [],
      "stateMutability": "nonpayable",
      "type": "function"
    },
    {
      "inputs": [
        {
          "internalType": "address",
          "name": "_keyringAddress",
          "type": "address"
        },
        {
          "internalType": "uint256",
          "name": "_policyId",
          "type": "uint256"
        }
      ],
      "name": "setKeyringConfig",
      "outputs": [],
      "stateMutability": "nonpayable",
      "type": "function"
    },
    {
      "inputs": [
        {
          "internalType": "address",
          "name": "account",
          "type": "address"
        },
        {
          "internalType": "bool",
          "name": "status",
          "type": "bool"
        }
      ],
      "name": "setKeyringWhitelist",
      "outputs": [],
      "stateMutability": "nonpayable",
      "type": "function"
    },
    {
      "inputs": [
        {
          "internalType": "uint256",
          "name": "_maxMintPerBlock",
          "type": "uint256"
        }
      ],
      "name": "setMaxMintPerBlock",
      "outputs": [],
      "stateMutability": "nonpayable",
      "type": "function"
    },
    {
      "inputs": [
        {
          "internalType": "uint256",
          "name": "_maxRedeemPerBlock",
          "type": "uint256"
        }
      ],
      "name": "setMaxRedeemPerBlock",
      "outputs": [],
      "stateMutability": "nonpayable",
      "type": "function"
    },
    {
      "inputs": [
        {
          "internalType": "uint256",
          "name": "_minMintAmount",
          "type": "uint256"
        }
      ],
      "name": "setMinMintAmount",
      "outputs": [],
      "stateMutability": "nonpayable",
      "type": "function"
    },
    {
      "inputs": [
        {
          "internalType": "uint256",
          "name": "_minMintFeeAmount",
          "type": "uint256"
        }
      ],
      "name": "setMinMintFeeAmount",
      "outputs": [],
      "stateMutability": "nonpayable",
      "type": "function"
    },
    {
      "inputs": [
        {
          "internalType": "uint256",
          "name": "_minRedeemAmount",
          "type": "uint256"
        }
      ],
      "name": "setMinRedeemAmount",
      "outputs": [],
      "stateMutability": "nonpayable",
      "type": "function"
    },
    {
      "inputs": [
        {
          "internalType": "uint256",
          "name": "_minRedeemFeeAmount",
          "type": "uint256"
        }
      ],
      "name": "setMinRedeemFeeAmount",
      "outputs": [],
      "stateMutability": "nonpayable",
      "type": "function"
    },
    {
      "inputs": [
        {
          "internalType": "uint16",
          "name": "_mintFeeBps",
          "type": "uint16"
        }
      ],
      "name": "setMintFee",
      "outputs": [],
      "stateMutability": "nonpayable",
      "type": "function"
    },
    {
      "inputs": [
        {
          "internalType": "uint16",
          "name": "_redeemFeeBps",
          "type": "uint16"
        }
      ],
      "name": "setRedeemFee",
      "outputs": [],
      "stateMutability": "nonpayable",
      "type": "function"
    },
    {
      "inputs": [
        {
          "internalType": "bytes4",
          "name": "interfaceId",
          "type": "bytes4"
        }
      ],
      "name": "supportsInterface",
      "outputs": [
        {
          "internalType": "bool",
          "name": "",
          "type": "bool"
        }
      ],
      "stateMutability": "view",
      "type": "function"
    },
    {
      "inputs": [],
      "name": "symbol",
      "outputs": [
        {
          "internalType": "string",
          "name": "",
          "type": "string"
        }
      ],
      "stateMutability": "view",
      "type": "function"
    },
    {
      "inputs": [],
      "name": "totalAssets",
      "outputs": [
        {
          "internalType": "uint256",
          "name": "",
          "type": "uint256"
        }
      ],
      "stateMutability": "view",
      "type": "function"
    },
    {
      "inputs": [],
      "name": "totalSupply",
      "outputs": [
        {
          "internalType": "uint256",
          "name": "",
          "type": "uint256"
        }
      ],
      "stateMutability": "view",
      "type": "function"
    },
    {
      "inputs": [
        {
          "internalType": "address",
          "name": "to",
          "type": "address"
        },
        {
          "internalType": "uint256",
          "name": "value",
          "type": "uint256"
        }
      ],
      "name": "transfer",
      "outputs": [
        {
          "internalType": "bool",
          "name": "",
          "type": "bool"
        }
      ],
      "stateMutability": "nonpayable",
      "type": "function"
    },
    {
      "inputs": [
        {
          "internalType": "address",
          "name": "from",
          "type": "address"
        },
        {
          "internalType": "address",
          "name": "to",
          "type": "address"
        },
        {
          "internalType": "uint256",
          "name": "value",
          "type": "uint256"
        }
      ],
      "name": "transferFrom",
      "outputs": [
        {
          "internalType": "bool",
          "name": "",
          "type": "bool"
        }
      ],
      "stateMutability": "nonpayable",
      "type": "function"
    },
    {
      "inputs": [],
      "name": "unpause",
      "outputs": [],
      "stateMutability": "nonpayable",
      "type": "function"
    },
    {
      "inputs": [
        {
          "internalType": "uint256",
          "name": "newAmount",
          "type": "uint256"
        }
      ],
      "name": "updateRedemptionRequest",
      "outputs": [],
      "stateMutability": "nonpayable",
      "type": "function"
    },
    {
      "inputs": [
        {
          "internalType": "uint256",
          "name": "",
          "type": "uint256"
        },
        {
          "internalType": "address",
          "name": "",
          "type": "address"
        },
        {
          "internalType": "address",
          "name": "",
          "type": "address"
        }
      ],
      "name": "withdraw",
      "outputs": [
        {
          "internalType": "uint256",
          "name": "",
          "type": "uint256"
        }
      ],
      "stateMutability": "pure",
      "type": "function"
    }
  ],
  "transactionHash": "0xb69e159bd467c805271ba73551bd29bae08484f6492110fde732ecf5290f8eb9",
  "args": [
    "0x9CAA664fA72df5138c6918Ceda62df6aBE080857",
    "0xfd8b2FC9b759Db3bCb8f713224e17119Dd9d3671",
    "1000000000000000000000000",
    "1000000000000000000000000"
  ],
  "numDeployments": 1,
  "solcInputHash": "773187d6365ea9ddda1964bfc87c85ff",
  "bytecode": "0x6101e06040523480156200001257600080fd5b50604051620058a6380380620058a683398101604081905262000035916200063b565b604051806040016040528060078152602001661b985c985554d160ca1b81525080604051806040016040528060018152602001603160f81b815250866040518060400160405280600881526020016713985c98481554d160c21b815250604051806040016040528060078152602001661b985c985554d160ca1b8152508160039081620000c391906200072f565b506004620000d282826200072f565b505050600080620000e9836200037360201b60201c565b9150915081620000fb576012620000fd565b805b60ff1660a05250506001600160a01b03166080526200011e82600562000458565b610160526200012f81600662000458565b61018052815160208084019190912061012052815190820120610140524660e052620001bf6101205161014051604080517f8b73c3c69bb8fe3d512ecc4cf759cc79239f7b179b0ffacaa9a75d522b39400f60208201529081019290925260608201524660808201523060a082015260009060c00160405160208183030381529060405280519060200120905090565b60c052505030610100525060016009556001600160a01b038416620001f757604051635919af9760e11b815260040160405180910390fd5b6001600160a01b0383166200021f57604051635919af9760e11b815260040160405180910390fd5b6001600160a01b0384166101a0526200023a60008462000491565b50620002677f3c63e605be3290ab6b04cfc46c6e1516e626d43236b034f09d7ede1d017beb0c8462000491565b50620002947f85e8f2d6819d6b24108062d87ea08f54651bcb8960d98062d3faf96e7873b8b98462000491565b50620002c17f9f2df0fed2c77648de5860a4cc508cd0818c85b8b8a1ab4ceeef8d981c8956a68462000491565b50620002ee7ff988e4fb62b8e14f4820fed03192306ddf4d7dbfa215595ba1c6ba4b76b369ee8462000491565b50620002fa8262000543565b620003058162000589565b3030604051620003159062000614565b6001600160a01b03928316815291166020820152604001604051809103906000f08015801562000349573d6000803e3d6000fd5b506001600160a01b03166101c05250506012805462ffffff191662093a8017905550620008b39050565b60408051600481526024810182526020810180516001600160e01b031663313ce56760e01b17905290516000918291829182916001600160a01b03871691620003bc9162000821565b600060405180830381855afa9150503d8060008114620003f9576040519150601f19603f3d011682016040523d82523d6000602084013e620003fe565b606091505b50915091508180156200041357506020815110155b156200044b576000818060200190518101906200043191906200083f565b905060ff811162000449576001969095509350505050565b505b5060009485945092505050565b600060208351101562000478576200047083620005c8565b90506200048b565b816200048584826200072f565b5060ff90505b92915050565b60008281526008602090815260408083206001600160a01b038516845290915281205460ff166200053a5760008381526008602090815260408083206001600160a01b03861684529091529020805460ff19166001179055620004f13390565b6001600160a01b0316826001600160a01b0316847f2f8788117e7eff1d82e926ec794901d17c78024a50270940304540a733656f0d60405160405180910390a45060016200048b565b5060006200048b565b600d80549082905560408051828152602081018490527fb4a832eb73ba0066dc45acd0d1f4454cdee155b17bdb1ccbabb428cc39750ad191015b60405180910390a15050565b600e80549082905560408051828152602081018490527f6fd3eacad9328fdc902c323518cfef3a2f6a9da89c40a7b82428adc2370114c391016200057d565b600080829050601f81511115620005ff578260405163305a27a960e01b8152600401620005f6919062000859565b60405180910390fd5b80516200060c826200088e565b179392505050565b610275806200563183390190565b6001600160a01b03811681146200063857600080fd5b50565b600080600080608085870312156200065257600080fd5b84516200065f8162000622565b6020860151909450620006728162000622565b6040860151606090960151949790965092505050565b634e487b7160e01b600052604160045260246000fd5b600181811c90821680620006b357607f821691505b602082108103620006d457634e487b7160e01b600052602260045260246000fd5b50919050565b601f8211156200072a576000816000526020600020601f850160051c81016020861015620007055750805b601f850160051c820191505b81811015620007265782815560010162000711565b5050505b505050565b81516001600160401b038111156200074b576200074b62000688565b62000763816200075c84546200069e565b84620006da565b602080601f8311600181146200079b5760008415620007825750858301515b600019600386901b1c1916600185901b17855562000726565b600085815260208120601f198616915b82811015620007cc57888601518255948401946001909101908401620007ab565b5085821015620007eb5787850151600019600388901b60f8161c191681555b5050505050600190811b01905550565b60005b8381101562000818578181015183820152602001620007fe565b50506000910152565b6000825162000835818460208701620007fb565b9190910192915050565b6000602082840312156200085257600080fd5b5051919050565b60208152600082518060208401526200087a816040850160208701620007fb565b601f01601f19169190910160400192915050565b80516020808301519190811015620006d45760001960209190910360031b1b16919050565b60805160a05160c05160e05161010051610120516101405161016051610180516101a0516101c051614c75620009bc600039600081816109b3015281816118e001528181611a0801528181611a66015281816127b601528181613064015261345d015260008181610a80015281816112d9015281816113d9015281816114de015281816115f8015281816117bd015281816121480152818161319a0152818161360e01528181613827015261387b015260006139ca0152600061399d01526000612c8d01526000612c6501526000612bc001526000612bea01526000612c140152600050506000818161074a01528181610d64015281816120f601526135350152614c756000f3fe608060405234801561001057600080fd5b506004361061054b5760003560e01c80638456cb59116102ca578063bd0d9cbd1161018d578063d55be8c6116100f4578063e18a4ef5116100ad578063e6dee91011610087578063e6dee91014610d14578063eccddaff14610d27578063ef8b30f714610d3a578063fe575a8714610d4d57600080fd5b8063e18a4ef514610cfa578063e1a4521814610d03578063e6a2966614610d0c57600080fd5b8063d55be8c614610c74578063d636b05f14610c7d578063d6fd317514610c86578063d8369d7514610c9b578063d905777e14610cae578063dd62ed3e14610cc157600080fd5b8063ce23eb3c11610146578063ce23eb3c14610bc6578063ce96cb7714610bd9578063cf9cc76614610bec578063d505accf14610c27578063d539139314610c3a578063d547741f14610c6157600080fd5b8063bd0d9cbd14610b72578063bfa37e3714610b85578063c5ff38bd14610b98578063c63d75b61461079d578063c6e6f59214610ba0578063c755755814610bb357600080fd5b80639ebcc25211610231578063acea6c1a116101ea578063acea6c1a14610ae3578063b37fd19014610b06578063b3d7f6b914610b19578063b460af9414610b2c578063b6c7806314610b3f578063ba08765214610b5f57600080fd5b80639ebcc25214610a68578063a0580fee14610a7b578063a0776b8214610aa2578063a217fddf14610ab5578063a9059cbb14610abd578063ab7d5a1414610ad057600080fd5b8063928907dd11610283578063928907dd14610a0e57806394bf804d14610a1757806395d89b4114610a2a57806397c8bcc114610a3257806398ba843414610a405780639cd2913614610a5557600080fd5b80638456cb591461098b57806384b0196e1461099357806384be50e6146109ae57806389e6f5ca146109d557806391c022a5146109e857806391d14854146109fb57600080fd5b806338d52e0f11610412578063537df3b611610379578063695ae07d11610332578063695ae07d146109185780636e553f651461092057806370a08231146109335780637c77a6e21461095c5780637ecebe001461096f578063844452fa1461098257600080fd5b8063537df3b61461085e578063538636131461087157806353f77ed1146108845780635c975abb146108975780635e4a9a65146108a257806360dc23401461090557600080fd5b8063410b2424116103cb578063410b2424146107d857806342966c68146107ff57806344337ea1146108125780634458a14c146108255780634b3d36fe146108385780634cdad5061461084b57600080fd5b806338d52e0f146107485780633e3679d3146107825780633f4ba83a14610795578063402d267d1461079d57806340c10f19146107b257806340e49216146107c557600080fd5b80631d85d796116104b65780632e718ab71161046f5780632e718ab7146106d55780632f2ff15d146106fc578063313ce5671461070f578063352693151461071e5780633644e5151461072d57806336568abe1461073557600080fd5b80631d85d7961461063b5780631e9049cf1461064e57806323b872dd1461066c578063248a9ca31461067f57806329b6320d146106a25780632ba32991146106b557600080fd5b8063095ea7b311610508578063095ea7b3146105c857806309f6442c146105db5780630a28a477146106025780630cfde3fa14610615578063157a40281461061e57806318160ddd1461063357600080fd5b806301e1d1141461055057806301e9d7571461056b57806301ffc9a71461057457806306fdde031461059757806307a2d13a146105ac5780630912ae6d146105bf575b600080fd5b610558610d60565b6040519081526020015b60405180910390f35b610558600f5481565b61058761058236600461450a565b610df2565b6040519015158152602001610562565b61059f610e29565b604051610562919061457a565b6105586105ba36600461458d565b610ebb565b61055860105481565b6105876105d63660046145c2565b610ec8565b6014546105ef9062010000900461ffff1681565b60405161ffff9091168152602001610562565b61055861061036600461458d565b610ee0565b61055860155481565b61063161062c3660046145ec565b610fc3565b005b600254610558565b61063161064936600461458d565b611074565b6106586276a70081565b60405162ffffff9091168152602001610562565b61058761067a366004614607565b6110c6565b61055861068d36600461458d565b60009081526008602052604090206001015490565b6106316106b0366004614643565b6110ea565b6105586106c336600461458d565b600b6020526000908152604090205481565b6105587f85e8f2d6819d6b24108062d87ea08f54651bcb8960d98062d3faf96e7873b8b981565b61063161070a366004614667565b61116c565b60405160128152602001610562565b6012546106589062ffffff1681565b610558611197565b610631610743366004614667565b6111a1565b7f00000000000000000000000000000000000000000000000000000000000000005b6040516001600160a01b039091168152602001610562565b61063161079036600461458d565b6111cd565b610631611216565b6105586107ab3660046145ec565b5060001990565b6106316107c03660046145c2565b611239565b6106316107d33660046145ec565b611342565b6105587ff988e4fb62b8e14f4820fed03192306ddf4d7dbfa215595ba1c6ba4b76b369ee81565b61063161080d36600461458d565b611398565b6106316108203660046145ec565b611440565b6105876108333660046146a1565b61148c565b61063161084636600461458d565b6116bd565b61055861085936600461458d565b611b44565b61063161086c3660046145ec565b611b81565b61063161087f3660046145ec565b611bc8565b60185461076a906001600160a01b031681565b600a5460ff16610587565b6108de6108b03660046145ec565b601360205260009081526040902080546001909101546001600160981b03909116906001600160a01b031682565b604080516001600160981b0390931683526001600160a01b03909116602083015201610562565b60175461076a906001600160a01b031681565b610558611c21565b61055861092e366004614667565b611c4b565b6105586109413660046145ec565b6001600160a01b031660009081526020819052604090205490565b61055861096a3660046146e1565b611c77565b61055861097d3660046145ec565b611cf8565b610558600e5481565b610631611d16565b61099b611d36565b604051610562979695949392919061471d565b61076a7f000000000000000000000000000000000000000000000000000000000000000081565b6105876109e33660046145ec565b611d7c565b6106316109f6366004614643565b611e3b565b610587610a09366004614667565b611ec9565b610558600d5481565b610558610a25366004614667565b611ef4565b61059f611f12565b6014546105ef9061ffff1681565b610558600080516020614c0083398151915281565b610631610a6336600461458d565b611f21565b610558610a763660046145c2565b611f35565b61076a7f000000000000000000000000000000000000000000000000000000000000000081565b610631610ab03660046147b6565b611f5e565b610558600081565b610587610acb3660046145c2565b612048565b610631610ade3660046147e0565b612056565b610587610af13660046145ec565b601a6020526000908152604090205460ff1681565b610631610b143660046146e1565b6120e1565b610558610b2736600461458d565b6121b7565b610558610b3a366004614855565b61227b565b610558610b4d36600461458d565b600c6020526000908152604090205481565b610558610b6d366004614855565b6122b5565b610631610b803660046145c2565b61231f565b610631610b933660046145ec565b612386565b61063161240b565b610558610bae36600461458d565b612437565b610631610bc136600461458d565b612444565b610631610bd4366004614888565b61248d565b610558610be73660046145ec565b612513565b610c1a610bfa3660046147b6565b601160209081526000928352604080842090915290825290205460ff1681565b60405161056291906148c3565b610631610c353660046148fa565b612537565b6105587f9f2df0fed2c77648de5860a4cc508cd0818c85b8b8a1ab4ceeef8d981c8956a681565b610631610c6f366004614667565b612671565b6105ef6103e881565b61055860195481565b610558600080516020614c2083398151915281565b610631610ca936600461458d565b612696565b610558610cbc3660046145ec565b6126aa565b610558610ccf3660046147b6565b6001600160a01b03918216600090815260016020908152604080832093909416825291909152205490565b61055860165481565b6105ef61271081565b6106316126c8565b610631610d22366004614967565b612855565b610631610d3536600461458d565b6128b8565b610558610d4836600461458d565b612901565b610587610d5b3660046145ec565b61291c565b60007f00000000000000000000000000000000000000000000000000000000000000006040516370a0823160e01b81523060048201526001600160a01b0391909116906370a0823190602401602060405180830381865afa158015610dc9573d6000803e3d6000fd5b505050506040513d601f19601f82011682018060405250810190610ded919061499e565b905090565b60006001600160e01b03198216637965db0b60e01b1480610e2357506301ffc9a760e01b6001600160e01b03198316145b92915050565b606060038054610e38906149b7565b80601f0160208091040260200160405190810160405280929190818152602001828054610e64906149b7565b8015610eb15780601f10610e8657610100808354040283529160200191610eb1565b820191906000526020600020905b815481529060010190602001808311610e9457829003601f168201915b5050505050905090565b6000610e23826000612927565b600033610ed6818585612961565b5060019392505050565b60175460009082906001600160a01b031615610fb15760145462010000900461ffff1615610f9957601454600090610f249062010000900461ffff16612710614a07565b61ffff169050610f3f610f3961271086614a22565b8261296e565b91506000610f4c836129a4565b60145490915060009061271090610f6d9062010000900461ffff1686614a22565b610f779190614a4f565b905080821115610f9157601654610f8e9087614a63565b93505b505050610fb1565b60165415610fb157601654610fae9084614a63565b90505b610fbc816001612a0d565b9392505050565b60013360009081526011602090815260408083206001600160a01b038616845290915290205460ff166002811115610ffd57610ffd6148ad565b1461101b57604051631ed6bf0360e21b815260040160405180910390fd5b3360008181526011602090815260408083206001600160a01b0386168085529252808320805460ff19166002179055519092917fed6a1f03e365a374bf7e9fe68b09cf74960528af699108cb461241efc5ded90991a350565b600061107f81612a3d565b600f80549083905560408051828152602081018590527fa9d547bad523b2016561d73c8b6f0de927b53e678d07b339173ea7b469ec896991015b60405180910390a1505050565b6000336110d4858285612a47565b6110df858585612ac0565b506001949350505050565b60006110f581612a3d565b6103e861ffff8316111561111c576040516358d620b360e01b815260040160405180910390fd5b6014805461ffff84811661ffff1983168117909355604080519190921680825260208201939093527f3819eecd18a690739c45cc31dd950f987f756141913ef399a6319f6e232c449191016110b9565b60008281526008602052604090206001015461118781612a3d565b6111918383612b1f565b50505050565b6000610ded612bb3565b816111bf5760405163185b73b160e01b815260040160405180910390fd5b6111c98282612cde565b5050565b60006111d881612a3d565b601080549083905560408051828152602081018590527f4907c47f25fae2d61aebd707efafc14370bd6a07453c1c215ef0399c6b7866ed91016110b9565b600080516020614c2083398151915261122e81612a3d565b611236612d11565b50565b7f9f2df0fed2c77648de5860a4cc508cd0818c85b8b8a1ab4ceeef8d981c8956a661126381612a3d565b61126b612d63565b6001600160a01b03831661129257604051635919af9760e11b815260040160405180910390fd5b816000036112b35760405163162908e360e11b815260040160405180910390fd5b6112bd8383612d87565b6040516355313a7b60e01b8152306004820152602481018390527f00000000000000000000000000000000000000000000000000000000000000006001600160a01b0316906355313a7b90604401600060405180830381600087803b15801561132557600080fd5b505af1158015611339573d6000803e3d6000fd5b50505050505050565b6001600160a01b0381166000818152601160209081526040808320338085529252808320805460ff19169055519092917f97b59d736dc70ae61c6b68295c19a1311cc4a48cbb9eb25c4dabf18c7f650a8a91a350565b806000036113b95760405163162908e360e11b815260040160405180910390fd5b6113c33382612dbd565b604051630852cd8d60e31b8152600481018290527f00000000000000000000000000000000000000000000000000000000000000006001600160a01b0316906342966c6890602401600060405180830381600087803b15801561142557600080fd5b505af1158015611439573d6000803e3d6000fd5b5050505050565b7ff988e4fb62b8e14f4820fed03192306ddf4d7dbfa215595ba1c6ba4b76b369ee61146a81612a3d565b8161147481612df3565b611191600080516020614c0083398151915284612b1f565b6000611496612e1c565b61149e612d63565b826000036114bf5760405163162908e360e11b815260040160405180910390fd5b604051634df48c7360e11b81526001600160a01b0385811660048301527f00000000000000000000000000000000000000000000000000000000000000001690639be918e690602401602060405180830381865afa158015611525573d6000803e3d6000fd5b505050506040513d601f19601f820116820180604052508101906115499190614a76565b61156657604051630928045160e21b815260040160405180910390fd5b6000601054118015611579575060105483105b156115975760405163839e718d60e01b815260040160405180910390fd5b6115a033612e46565b156115be57604051637a851da960e11b815260040160405180910390fd5b6115c733612e60565b60006115d38585612ea2565b604051630286fca160e61b81526001600160a01b0387811660048301529192506000917f0000000000000000000000000000000000000000000000000000000000000000169063a1bf284090602401602060405180830381865afa15801561163f573d6000803e3d6000fd5b505050506040513d601f19601f82011682018060405250810190611663919061499e565b905081811061168357611677338787612f78565b506000925050506116b3565b836116a157604051633a23d82560e01b815260040160405180910390fd5b6116ac33878761301e565b6001925050505b610fbc6001600955565b6116c5612e1c565b6116cd612d63565b336000908152601360209081526040808320815180830190925280546001600160981b03168083526001909101546001600160a01b031692820192909252910361172a5760405163302d029360e01b815260040160405180910390fd5b8160000361174b5760405163162908e360e11b815260040160405180910390fd5b600060105411801561175e575060105482105b1561177c5760405163839e718d60e01b815260040160405180910390fd5b602081015181516001600160981b031660006117988386612ea2565b604051630286fca160e61b81526001600160a01b0385811660048301529192506000917f0000000000000000000000000000000000000000000000000000000000000000169063a1bf284090602401602060405180830381865afa158015611804573d6000803e3d6000fd5b505050506040513d601f19601f82011682018060405250810190611828919061499e565b90508181106119ec5761183a33612e46565b1561185857604051637a851da960e11b815260040160405180910390fd5b61186133612e60565b61186a8661312c565b436000908152600c602052604081208054889290611889908490614a63565b9091555050336000908152601360205260409081902080546001600160981b031916815560010180546001600160a01b03191690555163f3fef3a360e01b8152306004820152602481018490526001600160a01b037f0000000000000000000000000000000000000000000000000000000000000000169063f3fef3a390604401600060405180830381600087803b15801561192457600080fd5b505af1158015611938573d6000803e3d6000fd5b50505050828611156119635760006119508488614a93565b905061195d333083612ac0565b50611986565b828610156119865760006119778785614a93565b9050611984303383612ac0565b505b6119903087612dbd565b600061199d338689613169565b60408051898152602081018390529192506001600160a01b0387169133917ffd418381fd385fa40c54005e4745aac73c2bc925bdbcf3ace12712373c8674a7910160405180910390a350611b35565b82861115611a33576000611a008488614a93565b9050611a2d337f000000000000000000000000000000000000000000000000000000000000000083612ac0565b50611acc565b82861015611acc576000611a478785614a93565b60405163f3fef3a360e01b8152336004820152602481018290529091507f00000000000000000000000000000000000000000000000000000000000000006001600160a01b03169063f3fef3a390604401600060405180830381600087803b158015611ab257600080fd5b505af1158015611ac6573d6000803e3d6000fd5b50505050505b3360008181526013602090815260409182902080546001600160981b0319166001600160981b038b1617905590518881526001600160a01b03871692917f8d0908d1d11edf5a4765510881f4dff18059c349b11512f1ebcd72a942eabddb910160405180910390a35b50505050506112366001600955565b600080611b52836000612927565b90506000611b5f826129a4565b9050808211611b6f576000611b79565b611b798183614a93565b949350505050565b7ff988e4fb62b8e14f4820fed03192306ddf4d7dbfa215595ba1c6ba4b76b369ee611bab81612a3d565b611bc3600080516020614c00833981519152836132c9565b505050565b6001600160a01b0381166000818152601160209081526040808320338085529252808320805460ff19166001179055519092917f769c75d94dacde64c18415b5a72f6d26e7f62b356387f8da812c4b0aa66a0f2591a350565b6000611c2b612e1c565b611c33612d63565b611c3c33613336565b9050611c486001600955565b90565b6000600019611c5e565b60405180910390fd5b6000611c6985612901565b9050611b7933858784613530565b6000611c81612e1c565b611c89612d63565b60023360009081526011602090815260408083206001600160a01b038716845290915290205460ff166002811115611cc357611cc36148ad565b14611ce157604051638baa579f60e01b815260040160405180910390fd5b611cec8484846135c2565b9050610fbc6001600955565b6001600160a01b038116600090815260076020526040812054610e23565b600080516020614c20833981519152611d2e81612a3d565b611236613959565b600060608060008060006060611d4a613996565b611d526139c3565b60408051600080825260208201909252600f60f81b9b939a50919850469750309650945092509050565b6018546000906001600160a01b0316611d9757506001919050565b6001600160a01b0382166000908152601a602052604090205460ff1615611dc057506001919050565b60185460195460405163043bb58960e51b815260048101919091526001600160a01b038481166024830152909116908190638776b12090604401602060405180830381865afa158015611e17573d6000803e3d6000fd5b505050506040513d601f19601f82011682018060405250810190610fbc9190614a76565b6000611e4681612a3d565b6103e861ffff83161115611e6d576040516358d620b360e01b815260040160405180910390fd5b6014805461ffff8481166201000081810263ffff00001985161790945560408051949093049091168084526020840191909152917f16593e74d00085e90c98de5e8f055f08527ac848f1f8ef1d3b3ec7c4f4e819ff91016110b9565b60009182526008602090815260408084206001600160a01b0393909316845291905290205460ff1690565b60006000196000611f04856121b7565b9050611b7933858388613530565b606060048054610e38906149b7565b6000611f2c81612a3d565b6111c9826139f0565b6000611f3f612e1c565b611f47612d63565b611f528383336135c2565b9050610e236001600955565b611f66612e1c565b6000611f7181612a3d565b611f7a83612e46565b8015611f8c5750611f8a82612e46565b155b15612024576001600160a01b0383166000908152602081905260408120549050611fb884600083613a36565b6001600160a01b03831615611fd157611fd18382612d87565b826001600160a01b0316846001600160a01b03167fb8ef21f2b52f8ca740012254a6b10f17d2fd6e589f97ebf401fde0e8b92189378360405161201691815260200190565b60405180910390a35061203d565b604051637a851da960e11b815260040160405180910390fd5b506111c96001600955565b600033610ed6818585612ac0565b61205e612e1c565b612066612d63565b7f85e8f2d6819d6b24108062d87ea08f54651bcb8960d98062d3faf96e7873b8b961209081612a3d565b8160005b818110156120d4576120cb8585838181106120b1576120b1614aa6565b90506020020160208101906120c691906145ec565b613336565b50600101612094565b5050506111c96001600955565b6120e9612e1c565b60006120f481612a3d565b7f00000000000000000000000000000000000000000000000000000000000000006001600160a01b0316846001600160a01b0316036121465760405163c1ab6dc160e01b815260040160405180910390fd5b7f00000000000000000000000000000000000000000000000000000000000000006001600160a01b0316846001600160a01b0316036121985760405163c1ab6dc160e01b815260040160405180910390fd5b6121ac6001600160a01b0385168385613b53565b50611bc36001600955565b60175460009082906001600160a01b0316156122705760145461ffff1615612258576014546000906121ef9061ffff16612710614a07565b61ffff169050612204610f3961271086614a22565b9150600061221183613bb2565b6014549091506000906127109061222c9061ffff1686614a22565b6122369190614a4f565b9050808211156122505760155461224d9087614a63565b93505b505050612270565b601554156122705760155461226d9084614a63565b90505b610fbc816001612927565b60405162461bcd60e51b815260206004820152600c60248201526b5573652072656465656d282960a01b6044820152600090606401611c55565b60405162461bcd60e51b815260206004820152603660248201527f5573652072656465656d28636f6c6c61746572616c41737365742c206e617261604482015275555344416d6f756e742c20616c6c6f7751756575652960501b6064820152600090608401611c55565b600061232a81612a3d565b601880546001600160a01b0319166001600160a01b03851690811790915560198390556040518381527fdd311e842d0dd0d276250faf64c7c9bed12bf94d1e4c1e33b304102684994fc8906020015b60405180910390a2505050565b600061239181612a3d565b6001600160a01b0382166123b857604051635919af9760e11b815260040160405180910390fd5b601780546001600160a01b038481166001600160a01b0319831681179093556040519116919082907fb213ad27ce6db647182439e573968415546e6db3ebfb04b3e84d6b0412025d4190600090a3505050565b600080516020614c2083398151915261242381612a3d565b61242d60006139f0565b6112366000613c0f565b6000610e23826000612a0d565b600061244f81612a3d565b601580549083905560408051828152602081018590527f749708f5939028d9de02f3535e896e06e7ace158d378eb5306169d46c06ead1491016110b9565b600061249881612a3d565b6276a70062ffffff831611156124c157604051637475d84d60e11b815260040160405180910390fd5b6012805462ffffff84811662ffffff1983168117909355604080519190921680825260208201939093527f180eacdf7dbaeecaa983d93173b4285db2f2c0de0044697e1f932bbbb73dcaa691016110b9565b6001600160a01b038116600090815260208190526040812054610e23906000612927565b8342111561255b5760405163313c898160e11b815260048101859052602401611c55565b60007f6e71edae12b1b97f4d1f60370fef10105fa2faae0126114a169c64845d6126c98888886125a88c6001600160a01b0316600090815260076020526040902080546001810190915590565b6040805160208101969096526001600160a01b0394851690860152929091166060840152608083015260a082015260c0810186905260e001604051602081830303815290604052805190602001209050600061260382613c4d565b9050600061261382878787613c7a565b9050896001600160a01b0316816001600160a01b03161461265a576040516325c0072360e11b81526001600160a01b0380831660048301528b166024820152604401611c55565b6126658a8a8a612961565b50505050505050505050565b60008281526008602052604090206001015461268c81612a3d565b61119183836132c9565b60006126a181612a3d565b6111c982613c0f565b6001600160a01b038116600090815260208190526040812054610e23565b6126d0612e1c565b6126d933612e46565b156126f757604051637a851da960e11b815260040160405180910390fd5b336000908152601360209081526040808320815180830190925280546001600160981b03168083526001909101546001600160a01b03169282019290925291036127545760405163302d029360e01b815260040160405180910390fd5b8051336000818152601360205260409081902080546001600160981b031916815560010180546001600160a01b03191690555163f3fef3a360e01b815260048101919091526001600160981b0390911660248201819052906001600160a01b037f0000000000000000000000000000000000000000000000000000000000000000169063f3fef3a390604401600060405180830381600087803b1580156127fa57600080fd5b505af115801561280e573d6000803e3d6000fd5b50506040518381523392507f9aec5cafc1451c1485e4a0099bd4dfb4c9d2bb972b4e5c798da07db8323deaa3915060200160405180910390a250506128536001600955565b565b600061286081612a3d565b6001600160a01b0383166000818152601a6020908152604091829020805460ff191686151590811790915591519182527f8c3adfde14eadcbc1e3834471b73f01eeff0dd863c272b46a8bc3d1b9491479b9101612379565b60006128c381612a3d565b601680549083905560408051828152602081018590527fe21b33d6a9a21894898f8e5b39990ee75d78531fd0ca982a252d1df52565703f91016110b9565b60008061290f836000612a0d565b90506000611b5f82613bb2565b6000610e2382612e46565b6000610fbc612934610d60565b61293f906001614a63565b61294b6000600a614b98565b6002546129589190614a63565b85919085613ca8565b611bc38383836001613cf5565b600081600003612982576129826012613dbc565b81600184038161299457612994614a39565b046001018315155b029392505050565b6017546000906001600160a01b03166129bf57506000919050565b60145460009062010000900461ffff16156129fc57601454612710906129ef9062010000900461ffff1685614a22565b6129f99190614a4f565b90505b6016548111610e2357601654610fbc565b6000610fbc612a1d82600a614b98565b600254612a2a9190614a63565b612a32610d60565b612958906001614a63565b6112368133613dce565b6001600160a01b038381166000908152600160209081526040808320938616835292905220546000198110156111915781811015612ab157604051637dc7a0d960e11b81526001600160a01b03841660048201526024810182905260448101839052606401611c55565b61119184848484036000613cf5565b6001600160a01b038316612aea57604051634b637e8f60e11b815260006004820152602401611c55565b6001600160a01b038216612b145760405163ec442f0560e01b815260006004820152602401611c55565b611bc3838383613e07565b6000612b2b8383611ec9565b612bab5760008381526008602090815260408083206001600160a01b03861684529091529020805460ff19166001179055612b633390565b6001600160a01b0316826001600160a01b0316847f2f8788117e7eff1d82e926ec794901d17c78024a50270940304540a733656f0d60405160405180910390a4506001610e23565b506000610e23565b6000306001600160a01b037f000000000000000000000000000000000000000000000000000000000000000016148015612c0c57507f000000000000000000000000000000000000000000000000000000000000000046145b15612c3657507f000000000000000000000000000000000000000000000000000000000000000090565b610ded604080517f8b73c3c69bb8fe3d512ecc4cf759cc79239f7b179b0ffacaa9a75d522b39400f60208201527f0000000000000000000000000000000000000000000000000000000000000000918101919091527f000000000000000000000000000000000000000000000000000000000000000060608201524660808201523060a082015260009060c00160405160208183030381529060405280519060200120905090565b6001600160a01b0381163314612d075760405163334bd91960e11b815260040160405180910390fd5b611bc382826132c9565b612d19613e60565b600a805460ff191690557f5db9ee0a495bf2e6ff9c91a7834c1ba4fdd244a5e8aa4e537bd38aeae4b073aa335b6040516001600160a01b03909116815260200160405180910390a1565b600a5460ff16156128535760405163d93c066560e01b815260040160405180910390fd5b6001600160a01b038216612db15760405163ec442f0560e01b815260006004820152602401611c55565b6111c960008383613e07565b6001600160a01b038216612de757604051634b637e8f60e11b815260006004820152602401611c55565b6111c982600083613e07565b612dfe600082611ec9565b15611236576040516303f9f15d60e61b815260040160405180910390fd5b600260095403612e3f57604051633ee5aeb560e01b815260040160405180910390fd5b6002600955565b6000610e23600080516020614c0083398151915283611ec9565b6001600160a01b038116612e715750565b612e7a81611d7c565b61123657604051637eba2cb760e11b81526001600160a01b0382166004820152602401611c55565b600080836001600160a01b031663313ce5676040518163ffffffff1660e01b8152600401602060405180830381865afa158015612ee3573d6000803e3d6000fd5b505050506040513d601f19601f82011682018060405250810190612f079190614ba7565b90508060ff16601203612f1d5782915050610e23565b60128160ff161015612f5157612f34816012614bc4565b612f3f90600a614b98565b612f499084614a4f565b915050610e23565b612f5c601282614bc4565b612f6790600a614b98565b612f499084614a22565b5092915050565b600081612f848161312c565b436000908152600c602052604081208054859290612fa3908490614a63565b90915550612fb390508584612dbd565b612fbe858585613169565b9150836001600160a01b0316856001600160a01b03167f3f693fff038bb8a046aa76d9516190ac7444f7d69cf952c4cbdc086fdef2d6fc858560405161300e929190918252602082015260400190565b60405180910390a3509392505050565b6001600160a01b0383166000908152601360205260409020546001600160981b03161561305e57604051631d761c8160e01b815260040160405180910390fd5b613089837f000000000000000000000000000000000000000000000000000000000000000083612ac0565b6040805180820182526001600160981b0383811682526001600160a01b038581166020808501828152898416600081815260138452889020965187546001600160981b031916961695909517865551600190950180546001600160a01b0319169590931694909417909155925184815290917f8d0908d1d11edf5a4765510881f4dff18059c349b11512f1ebcd72a942eabddb91015b60405180910390a3505050565b600e54436000908152600c602052604090205461314a908390614a63565b1115611236576040516326a753e760e11b815260040160405180910390fd5b604051635c833bfd60e01b81526001600160a01b0383811660048301526024820183905230604483015260009182917f00000000000000000000000000000000000000000000000000000000000000001690635c833bfd906064016020604051808303816000875af11580156131e3573d6000803e3d6000fd5b505050506040513d601f19601f82011682018060405250810190613207919061499e565b905060006132158583613e83565b90506000613222826129a4565b90508281156132aa5760006132378884612ea2565b90506132438186614a93565b601754909250613260906001600160a01b038a8116911683613b53565b60175460408051838152600060208201526001600160a01b03909216917f050d44233876ac1dc2b309a53c450bc5e76aa2cdd273ca707147c242f0cad6c6910160405180910390a2505b6132be6001600160a01b0388168983613b53565b979650505050505050565b60006132d58383611ec9565b15612bab5760008381526008602090815260408083206001600160a01b0386168085529252808320805460ff1916905551339286917ff6391f5c32d9c69d2a47ea670b442974b53935d1edc7fd64eb21e047a839171b9190a4506001610e23565b6001600160a01b038082166000908152601360209081526040808320815180830190925280546001600160981b031680835260019091015490941691810191909152909182036133995760405163302d029360e01b815260040160405180910390fd5b6133a283612e46565b156133c057604051637a851da960e11b815260040160405180910390fd5b6133c983612e60565b805160208201516001600160981b03909116906133e58261312c565b436000908152600c602052604081208054849290613404908490614a63565b90915550506001600160a01b038581166000908152601360205260409081902080546001600160981b031916815560010180546001600160a01b03191690555163f3fef3a360e01b8152306004820152602481018490527f00000000000000000000000000000000000000000000000000000000000000009091169063f3fef3a390604401600060405180830381600087803b1580156134a357600080fd5b505af11580156134b7573d6000803e3d6000fd5b505050506134c53083612dbd565b6134d0858284613169565b9350806001600160a01b0316856001600160a01b03167ffd418381fd385fa40c54005e4745aac73c2bc925bdbcf3ace12712373c8674a78487604051613520929190918252602082015260400190565b60405180910390a3505050919050565b61355c7f0000000000000000000000000000000000000000000000000000000000000000853085613f20565b6135668382612d87565b826001600160a01b0316846001600160a01b03167fdcbc1c05240f31ff3ad067ef1ee35ce4997762752e3a095284754544f4c709d784846040516135b4929190918252602082015260400190565b60405180910390a350505050565b6000826135ce81613f59565b836000036135ef5760405163162908e360e11b815260040160405180910390fd5b604051634df48c7360e11b81526001600160a01b0386811660048301527f00000000000000000000000000000000000000000000000000000000000000001690639be918e690602401602060405180830381865afa158015613655573d6000803e3d6000fd5b505050506040513d601f19601f820116820180604052508101906136799190614a76565b61369657604051630928045160e21b815260040160405180910390fd5b6001600160a01b0383166136bd57604051635919af9760e11b815260040160405180910390fd5b6136c633612e46565b806136d557506136d583612e46565b156136f357604051637a851da960e11b815260040160405180910390fd5b6136fc33612e60565b6137068585613e83565b91506000600f5411801561371b5750600f5482105b156137395760405163839e718d60e01b815260040160405180910390fd5b436000908152600b602052604081208054849290613758908490614a63565b9091555061377390506001600160a01b038616843087613f20565b600061377f8686613e83565b9050600061378c82613bb2565b9050858082156138185760006137a28a85612ea2565b90506137ae818a614a93565b6017549093508392506137ce906001600160a01b038c8116911683613b53565b60175460408051838152600160208201526001600160a01b03909216917f050d44233876ac1dc2b309a53c450bc5e76aa2cdd273ca707147c242f0cad6c6910160405180910390a2505b61384c6001600160a01b038a167f000000000000000000000000000000000000000000000000000000000000000083613f96565b604051630d4d151360e01b81526001600160a01b038a81166004830152602482018390523060448301526000917f000000000000000000000000000000000000000000000000000000000000000090911690630d4d1513906064016020604051808303816000875af11580156138c6573d6000803e3d6000fd5b505050506040513d601f19601f820116820180604052508101906138ea919061499e565b90506138f68882612d87565b896001600160a01b0316886001600160a01b03167f2f00e3cdd69a77be7ed215ec7b2a36784dd158f921fca79ac29deffa353fe6ee8b84604051613944929190918252602082015260400190565b60405180910390a39998505050505050505050565b613961612d63565b600a805460ff191660011790557f62e78cea01bee320cd4e420270b5ea74000d11b0c9f74754ebdbfc544b05a258612d463390565b6060610ded7f00000000000000000000000000000000000000000000000000000000000000006005614020565b6060610ded7f00000000000000000000000000000000000000000000000000000000000000006006614020565b600d80549082905560408051828152602081018490527fb4a832eb73ba0066dc45acd0d1f4454cdee155b17bdb1ccbabb428cc39750ad191015b60405180910390a15050565b6001600160a01b038316613a61578060026000828254613a569190614a63565b90915550613ad39050565b6001600160a01b03831660009081526020819052604090205481811015613ab45760405163391434e360e21b81526001600160a01b03851660048201526024810182905260448101839052606401611c55565b6001600160a01b03841660009081526020819052604090209082900390555b6001600160a01b038216613aef57600280548290039055613b0e565b6001600160a01b03821660009081526020819052604090208054820190555b816001600160a01b0316836001600160a01b03167fddf252ad1be2c89b69c2b068fc378daa952ba7f163c4a11628f55a4df523b3ef8360405161311f91815260200190565b6040516001600160a01b03838116602483015260448201839052611bc391859182169063a9059cbb906064015b604051602081830303815290604052915060e01b6020820180516001600160e01b0383818316178352505050506140cb565b6017546000906001600160a01b0316613bcd57506000919050565b60145460009061ffff1615613bfe5760145461271090613bf19061ffff1685614a22565b613bfb9190614a4f565b90505b6015548111610e2357601554610fbc565b600e80549082905560408051828152602081018490527f6fd3eacad9328fdc902c323518cfef3a2f6a9da89c40a7b82428adc2370114c39101613a2a565b6000610e23613c5a612bb3565b8360405161190160f01b8152600281019290925260228201526042902090565b600080600080613c8c8888888861413c565b925092509250613c9c828261420b565b50909695505050505050565b6000613cd7613cb6836142c4565b8015613cd2575060008480613ccd57613ccd614a39565b868809115b151590565b613ce28686866142f1565b613cec9190614a63565b95945050505050565b6001600160a01b038416613d1f5760405163e602df0560e01b815260006004820152602401611c55565b6001600160a01b038316613d4957604051634a1406b160e11b815260006004820152602401611c55565b6001600160a01b038085166000908152600160209081526040808320938716835292905220829055801561119157826001600160a01b0316846001600160a01b03167f8c5be1e5ebec7d5bd14f71427d1e84f3dd0314c0f7b2291e5b200ac8c7c3b925846040516135b491815260200190565b634e487b71600052806020526024601cfd5b613dd88282611ec9565b6111c95760405163e2517d3f60e01b81526001600160a01b038216600482015260248101839052604401611c55565b613e1083612e46565b15613e2e57604051637a851da960e11b815260040160405180910390fd5b613e3782612e46565b15613e5557604051637a851da960e11b815260040160405180910390fd5b611bc3838383613a36565b600a5460ff1661285357604051638dfc202b60e01b815260040160405180910390fd5b600080836001600160a01b031663313ce5676040518163ffffffff1660e01b8152600401602060405180830381865afa158015613ec4573d6000803e3d6000fd5b505050506040513d601f19601f82011682018060405250810190613ee89190614ba7565b90508060ff16601203613efe5782915050610e23565b60128160ff161015613f1557612f5c816012614bc4565b612f34601282614bc4565b6040516001600160a01b0384811660248301528381166044830152606482018390526111919186918216906323b872dd90608401613b80565b600d54436000908152600b6020526040902054613f77908390614a63565b111561123657604051630fbf0bc960e01b815260040160405180910390fd5b604051636eb1769f60e11b81523060048201526001600160a01b0383811660248301526000919085169063dd62ed3e90604401602060405180830381865afa158015613fe6573d6000803e3d6000fd5b505050506040513d601f19601f8201168201806040525081019061400a919061499e565b9050611191848461401b8585614a63565b6143a6565b606060ff831461403a5761403383614436565b9050610e23565b818054614046906149b7565b80601f0160208091040260200160405190810160405280929190818152602001828054614072906149b7565b80156140bf5780601f10614094576101008083540402835291602001916140bf565b820191906000526020600020905b8154815290600101906020018083116140a257829003601f168201915b50505050509050610e23565b600080602060008451602086016000885af1806140ee576040513d6000823e3d81fd5b50506000513d91508115614106578060011415614113565b6001600160a01b0384163b155b1561119157604051635274afe760e01b81526001600160a01b0385166004820152602401611c55565b600080807f7fffffffffffffffffffffffffffffff5d576e7357a4501ddfe92f46681b20a08411156141775750600091506003905082614201565b604080516000808252602082018084528a905260ff891692820192909252606081018790526080810186905260019060a0016020604051602081039080840390855afa1580156141cb573d6000803e3d6000fd5b5050604051601f1901519150506001600160a01b0381166141f757506000925060019150829050614201565b9250600091508190505b9450945094915050565b600082600381111561421f5761421f6148ad565b03614228575050565b600182600381111561423c5761423c6148ad565b0361425a5760405163f645eedf60e01b815260040160405180910390fd5b600282600381111561426e5761426e6148ad565b0361428f5760405163fce698f760e01b815260048101829052602401611c55565b60038260038111156142a3576142a36148ad565b036111c9576040516335e2f38360e21b815260048101829052602401611c55565b600060028260038111156142da576142da6148ad565b6142e49190614bdd565b60ff166001149050919050565b60008060006143008686614475565b91509150816000036143255783818161431b5761431b614a39565b0492505050610fbc565b81841161433c5761433c6003851502601118613dbc565b6000848688096000868103871696879004966002600389028118808a02820302808a02820302808a02820302808a02820302808a02820302808a02909103029181900381900460010185841190960395909502919093039390930492909217029150509392505050565b604080516001600160a01b038416602482015260448082018490528251808303909101815260649091019091526020810180516001600160e01b031663095ea7b360e01b1790526143f78482614493565b611191576040516001600160a01b0384811660248301526000604483015261442c91869182169063095ea7b390606401613b80565b61119184826140cb565b60606000614443836144e2565b604080516020808252818301909252919250600091906020820181803683375050509182525060208101929092525090565b60008060001983850993909202808410938190039390930393915050565b6000806000806020600086516020880160008a5af192503d915060005190508280156144d8575081156144c957806001146144d8565b6000866001600160a01b03163b115b9695505050505050565b600060ff8216601f811115610e2357604051632cd44ac360e21b815260040160405180910390fd5b60006020828403121561451c57600080fd5b81356001600160e01b031981168114610fbc57600080fd5b6000815180845260005b8181101561455a5760208185018101518683018201520161453e565b506000602082860101526020601f19601f83011685010191505092915050565b602081526000610fbc6020830184614534565b60006020828403121561459f57600080fd5b5035919050565b80356001600160a01b03811681146145bd57600080fd5b919050565b600080604083850312156145d557600080fd5b6145de836145a6565b946020939093013593505050565b6000602082840312156145fe57600080fd5b610fbc826145a6565b60008060006060848603121561461c57600080fd5b614625846145a6565b9250614633602085016145a6565b9150604084013590509250925092565b60006020828403121561465557600080fd5b813561ffff81168114610fbc57600080fd5b6000806040838503121561467a57600080fd5b8235915061468a602084016145a6565b90509250929050565b801515811461123657600080fd5b6000806000606084860312156146b657600080fd5b6146bf846145a6565b92506020840135915060408401356146d681614693565b809150509250925092565b6000806000606084860312156146f657600080fd5b6146ff846145a6565b925060208401359150614714604085016145a6565b90509250925092565b60ff60f81b881681526000602060e0602084015261473e60e084018a614534565b8381036040850152614750818a614534565b606085018990526001600160a01b038816608086015260a0850187905284810360c08601528551808252602080880193509091019060005b818110156147a457835183529284019291840191600101614788565b50909c9b505050505050505050505050565b600080604083850312156147c957600080fd5b6147d2836145a6565b915061468a602084016145a6565b600080602083850312156147f357600080fd5b823567ffffffffffffffff8082111561480b57600080fd5b818501915085601f83011261481f57600080fd5b81358181111561482e57600080fd5b8660208260051b850101111561484357600080fd5b60209290920196919550909350505050565b60008060006060848603121561486a57600080fd5b8335925061487a602085016145a6565b9150614714604085016145a6565b60006020828403121561489a57600080fd5b813562ffffff81168114610fbc57600080fd5b634e487b7160e01b600052602160045260246000fd5b60208101600383106148e557634e487b7160e01b600052602160045260246000fd5b91905290565b60ff8116811461123657600080fd5b600080600080600080600060e0888a03121561491557600080fd5b61491e886145a6565b965061492c602089016145a6565b95506040880135945060608801359350608088013561494a816148eb565b9699959850939692959460a0840135945060c09093013592915050565b6000806040838503121561497a57600080fd5b614983836145a6565b9150602083013561499381614693565b809150509250929050565b6000602082840312156149b057600080fd5b5051919050565b600181811c908216806149cb57607f821691505b6020821081036149eb57634e487b7160e01b600052602260045260246000fd5b50919050565b634e487b7160e01b600052601160045260246000fd5b61ffff828116828216039080821115612f7157612f716149f1565b8082028115828204841417610e2357610e236149f1565b634e487b7160e01b600052601260045260246000fd5b600082614a5e57614a5e614a39565b500490565b80820180821115610e2357610e236149f1565b600060208284031215614a8857600080fd5b8151610fbc81614693565b81810381811115610e2357610e236149f1565b634e487b7160e01b600052603260045260246000fd5b600181815b80851115614af7578160001904821115614add57614add6149f1565b80851615614aea57918102915b93841c9390800290614ac1565b509250929050565b600082614b0e57506001610e23565b81614b1b57506000610e23565b8160018114614b315760028114614b3b57614b57565b6001915050610e23565b60ff841115614b4c57614b4c6149f1565b50506001821b610e23565b5060208310610133831016604e8410600b8410161715614b7a575081810a610e23565b614b848383614abc565b806000190482111561299c5761299c6149f1565b6000610fbc60ff841683614aff565b600060208284031215614bb957600080fd5b8151610fbc816148eb565b60ff8281168282160390811115610e2357610e236149f1565b600060ff831680614bf057614bf0614a39565b8060ff8416069150509291505056fefc196a27c7414e5845212a78cf1a68bfb0b8fdeac0072e3066ecccd5b30fbd353c63e605be3290ab6b04cfc46c6e1516e626d43236b034f09d7ede1d017beb0ca2646970667358221220a68893315ef490c5ad2d9bfa07a47a069b688daa0918d97a1c17d0092cec4ae464736f6c6343000816003360c060405234801561001057600080fd5b5060405161027538038061027583398101604081905261002f91610062565b6001600160a01b039182166080521660a052610095565b80516001600160a01b038116811461005d57600080fd5b919050565b6000806040838503121561007557600080fd5b61007e83610046565b915061008c60208401610046565b90509250929050565b60805160a0516101bd6100b8600039600060b401526000605001526101bd6000f3fe608060405234801561001057600080fd5b506004361061002b5760003560e01c8063f3fef3a314610030575b600080fd5b61004361003e366004610126565b610045565b005b336001600160a01b037f0000000000000000000000000000000000000000000000000000000000000000161461008e57604051638d1af8bd60e01b815260040160405180910390fd5b60405163a9059cbb60e01b81526001600160a01b038381166004830152602482018390527f0000000000000000000000000000000000000000000000000000000000000000169063a9059cbb906044016020604051808303816000875af11580156100fd573d6000803e3d6000fd5b505050506040513d601f19601f82011682018060405250810190610121919061015e565b505050565b6000806040838503121561013957600080fd5b82356001600160a01b038116811461015057600080fd5b946020939093013593505050565b60006020828403121561017057600080fd5b8151801515811461018057600080fd5b939250505056fea2646970667358221220db872478ca1893f4bf29097003ef62899308fa815b1cc4ff6c4a982f4853634564736f6c63430008160033",
  "devdoc": {
    "details": "This contract combines ERC4626 vault with direct collateral minting - Underlying asset: MCT (MultiCollateralToken) - Exchange rate: 1:1 with MCT - Users can mint by depositing collateral (USDC, etc.) - Collateral is converted to MCT, then naraUSD shares are minted - Redemptions: instant if liquidity available, otherwise queued for solver execution - Users can cancel queued redemption requests anytime",
    "errors": {
      "AccessControlBadConfirmation()": [
        {
          "details": "The caller of a function is not the expected one. NOTE: Don't confuse with {AccessControlUnauthorizedAccount}."
        }
      ],
      "AccessControlUnauthorizedAccount(address,bytes32)": [
        {
          "details": "The `account` is missing a role."
        }
      ],
      "ECDSAInvalidSignature()": [
        {
          "details": "The signature derives the `address(0)`."
        }
      ],
      "ECDSAInvalidSignatureLength(uint256)": [
        {
          "details": "The signature has an invalid length."
        }
      ],
      "ECDSAInvalidSignatureS(bytes32)": [
        {
          "details": "The signature has an S value that is in the upper half order."
        }
      ],
      "ERC20InsufficientAllowance(address,uint256,uint256)": [
        {
          "details": "Indicates a failure with the `spender`s `allowance`. Used in transfers.",
          "params": {
            "allowance": "Amount of tokens a `spender` is allowed to operate with.",
            "needed": "Minimum amount required to perform a transfer.",
            "spender": "Address that may be allowed to operate on tokens without being their owner."
          }
        }
      ],
      "ERC20InsufficientBalance(address,uint256,uint256)": [
        {
          "details": "Indicates an error related to the current `balance` of a `sender`. Used in transfers.",
          "params": {
            "balance": "Current balance for the interacting account.",
            "needed": "Minimum amount required to perform a transfer.",
            "sender": "Address whose tokens are being transferred."
          }
        }
      ],
      "ERC20InvalidApprover(address)": [
        {
          "details": "Indicates a failure with the `approver` of a token to be approved. Used in approvals.",
          "params": {
            "approver": "Address initiating an approval operation."
          }
        }
      ],
      "ERC20InvalidReceiver(address)": [
        {
          "details": "Indicates a failure with the token `receiver`. Used in transfers.",
          "params": {
            "receiver": "Address to which tokens are being transferred."
          }
        }
      ],
      "ERC20InvalidSender(address)": [
        {
          "details": "Indicates a failure with the token `sender`. Used in transfers.",
          "params": {
            "sender": "Address whose tokens are being transferred."
          }
        }
      ],
      "ERC20InvalidSpender(address)": [
        {
          "details": "Indicates a failure with the `spender` to be approved. Used in approvals.",
          "params": {
            "spender": "Address that may be allowed to operate on tokens without being their owner."
          }
        }
      ],
      "ERC2612ExpiredSignature(uint256)": [
        {
          "details": "Permit deadline has expired."
        }
      ],
      "ERC2612InvalidSigner(address,address)": [
        {
          "details": "Mismatched signature."
        }
      ],
      "ERC4626ExceededMaxDeposit(address,uint256,uint256)": [
        {
          "details": "Attempted to deposit more assets than the max amount for `receiver`."
        }
      ],
      "ERC4626ExceededMaxMint(address,uint256,uint256)": [
        {
          "details": "Attempted to mint more shares than the max amount for `receiver`."
        }
      ],
      "ERC4626ExceededMaxRedeem(address,uint256,uint256)": [
        {
          "details": "Attempted to redeem more shares than the max amount for `receiver`."
        }
      ],
      "ERC4626ExceededMaxWithdraw(address,uint256,uint256)": [
        {
          "details": "Attempted to withdraw more assets than the max amount for `receiver`."
        }
      ],
      "EnforcedPause()": [
        {
          "details": "The operation failed because the contract is paused."
        }
      ],
      "ExpectedPause()": [
        {
          "details": "The operation failed because the contract is not paused."
        }
      ],
      "InvalidAccountNonce(address,uint256)": [
        {
          "details": "The nonce used for an `account` is not the expected current nonce."
        }
      ],
      "ReentrancyGuardReentrantCall()": [
        {
          "details": "Unauthorized reentrant call."
        }
      ],
      "SafeERC20FailedOperation(address)": [
        {
          "details": "An operation with an ERC-20 token failed."
        }
      ]
    },
    "events": {
      "Approval(address,address,uint256)": {
        "details": "Emitted when the allowance of a `spender` for an `owner` is set by a call to {approve}. `value` is the new allowance."
      },
      "EIP712DomainChanged()": {
        "details": "MAY be emitted to signal that the domain could have changed."
      },
      "Paused(address)": {
        "details": "Emitted when the pause is triggered by `account`."
      },
      "RoleAdminChanged(bytes32,bytes32,bytes32)": {
        "details": "Emitted when `newAdminRole` is set as ``role``'s admin role, replacing `previousAdminRole` `DEFAULT_ADMIN_ROLE` is the starting admin for all roles, despite {RoleAdminChanged} not being emitted to signal this."
      },
      "RoleGranted(bytes32,address,address)": {
        "details": "Emitted when `account` is granted `role`. `sender` is the account that originated the contract call. This account bears the admin role (for the granted role). Expected in cases where the role was granted using the internal {AccessControl-_grantRole}."
      },
      "RoleRevoked(bytes32,address,address)": {
        "details": "Emitted when `account` is revoked `role`. `sender` is the account that originated the contract call:   - if using `revokeRole`, it is the admin role bearer   - if using `renounceRole`, it is the role bearer (i.e. `account`)"
      },
      "Transfer(address,address,uint256)": {
        "details": "Emitted when `value` tokens are moved from one account (`from`) to another (`to`). Note that `value` may be zero."
      },
      "Unpaused(address)": {
        "details": "Emitted when the pause is lifted by `account`."
      }
    },
    "kind": "dev",
    "methods": {
      "DOMAIN_SEPARATOR()": {
        "details": "Returns the domain separator used in the encoding of the signature for {permit}, as defined by {EIP712}."
      },
      "addToBlacklist(address)": {
        "params": {
          "target": "The address to blacklist"
        }
      },
      "allowance(address,address)": {
        "details": "Returns the remaining number of tokens that `spender` will be allowed to spend on behalf of `owner` through {transferFrom}. This is zero by default. This value changes when {approve} or {transferFrom} are called."
      },
      "approve(address,uint256)": {
        "details": "See {IERC20-approve}. NOTE: If `value` is the maximum `uint256`, the allowance is not updated on `transferFrom`. This is semantically equivalent to an infinite approval. Requirements: - `spender` cannot be the zero address."
      },
      "asset()": {
        "details": "Returns the address of the underlying token used for the Vault for accounting, depositing, and withdrawing. - MUST be an ERC-20 token contract. - MUST NOT revert."
      },
      "balanceOf(address)": {
        "details": "Returns the value of tokens owned by `account`."
      },
      "bulkCompleteRedeem(address[])": {
        "details": "Callable by collateral manager to act as a \"bulk solver\" for escrowed redemption requests",
        "params": {
          "users": "Array of user addresses whose redemptions should be completed"
        }
      },
      "burn(uint256)": {
        "details": "This creates a deflationary effect: burns both naraUSD and MCT while keeping collateral in MCTBurns tokens from msg.sender only (caller must own the tokens)",
        "params": {
          "amount": "The amount of naraUSD to burn"
        }
      },
      "confirmDelegatedSigner(address)": {
        "params": {
          "_delegatedBy": "The address that initiated delegation"
        }
      },
      "convertToAssets(uint256)": {
        "details": "Returns the amount of assets that the Vault would exchange for the amount of shares provided, in an ideal scenario where all the conditions are met. - MUST NOT be inclusive of any fees that are charged against assets in the Vault. - MUST NOT show any variations depending on the caller. - MUST NOT reflect slippage or other on-chain conditions, when performing the actual exchange. - MUST NOT revert. NOTE: This calculation MAY NOT reflect the per-user price-per-share, and instead should reflect the average-users price-per-share, meaning what the average user should expect to see when exchanging to and from."
      },
      "convertToShares(uint256)": {
        "details": "Returns the amount of shares that the Vault would exchange for the amount of assets provided, in an ideal scenario where all the conditions are met. - MUST NOT be inclusive of any fees that are charged against assets in the Vault. - MUST NOT show any variations depending on the caller. - MUST NOT reflect slippage or other on-chain conditions, when performing the actual exchange. - MUST NOT revert. NOTE: This calculation MAY NOT reflect the per-user price-per-share, and instead should reflect the average-users price-per-share, meaning what the average user should expect to see when exchanging to and from."
      },
      "decimals()": {
        "details": "Override decimals to ensure 18 decimals"
      },
      "deposit(uint256,address)": {
        "details": "Mints shares Vault shares to receiver by depositing exactly amount of underlying tokens. - MUST emit the Deposit event. - MAY support an additional flow in which the underlying tokens are owned by the Vault contract before the   deposit execution, and are accounted for during deposit. - MUST revert if all of assets cannot be deposited (due to deposit limit being reached, slippage, the user not   approving enough underlying tokens to the Vault contract, etc). NOTE: most implementations will require pre-approval of the Vault with the Vaults underlying asset token."
      },
      "eip712Domain()": {
        "details": "returns the fields and values that describe the domain separator used by this contract for EIP-712 signature."
      },
      "getRoleAdmin(bytes32)": {
        "details": "Returns the admin role that controls `role`. See {grantRole} and {revokeRole}. To change a role's admin, use {_setRoleAdmin}."
      },
      "grantRole(bytes32,address)": {
        "details": "Grants `role` to `account`. If `account` had not been already granted `role`, emits a {RoleGranted} event. Requirements: - the caller must have ``role``'s admin role. May emit a {RoleGranted} event."
      },
      "hasRole(bytes32,address)": {
        "details": "Returns `true` if `account` has been granted `role`."
      },
      "hasValidCredentials(address)": {
        "details": "Returns true if:      - Keyring is not configured (keyringAddress == address(0))      - Account is whitelisted      - Account has valid credentials in Keyring",
        "params": {
          "account": "The address to check"
        },
        "returns": {
          "_0": "bool True if account has credentials or Keyring is disabled"
        }
      },
      "isBlacklisted(address)": {
        "params": {
          "account": "The address to check"
        },
        "returns": {
          "_0": "bool True if account has FULL_RESTRICTED_ROLE"
        }
      },
      "maxDeposit(address)": {
        "details": "Returns the maximum amount of the underlying asset that can be deposited into the Vault for the receiver, through a deposit call. - MUST return a limited value if receiver is subject to some deposit limit. - MUST return 2 ** 256 - 1 if there is no limit on the maximum amount of assets that may be deposited. - MUST NOT revert."
      },
      "maxMint(address)": {
        "details": "Returns the maximum amount of the Vault shares that can be minted for the receiver, through a mint call. - MUST return a limited value if receiver is subject to some mint limit. - MUST return 2 ** 256 - 1 if there is no limit on the maximum amount of shares that may be minted. - MUST NOT revert."
      },
      "maxRedeem(address)": {
        "details": "Returns the maximum amount of Vault shares that can be redeemed from the owner balance in the Vault, through a redeem call. - MUST return a limited value if owner is subject to some withdrawal limit or timelock. - MUST return balanceOf(owner) if owner is not subject to any withdrawal limit or timelock. - MUST NOT revert."
      },
      "maxWithdraw(address)": {
        "details": "Returns the maximum amount of the underlying asset that can be withdrawn from the owner balance in the Vault, through a withdraw call. - MUST return a limited value if owner is subject to some withdrawal limit or timelock. - MUST NOT revert."
      },
      "mint(address,uint256)": {
        "details": "Intended for protocol-controlled operations such as incentive programs",
        "params": {
          "amount": "The amount of naraUSD to mint",
          "to": "The address to receive freshly minted naraUSD"
        }
      },
      "mint(uint256,address)": {
        "details": "Mints exactly shares Vault shares to receiver by depositing amount of underlying tokens. - MUST emit the Deposit event. - MAY support an additional flow in which the underlying tokens are owned by the Vault contract before the mint   execution, and are accounted for during mint. - MUST revert if all of shares cannot be minted (due to deposit limit being reached, slippage, the user not   approving enough underlying tokens to the Vault contract, etc). NOTE: most implementations will require pre-approval of the Vault with the Vaults underlying asset token."
      },
      "mintWithCollateral(address,uint256)": {
        "params": {
          "collateralAmount": "The amount of collateral to deposit",
          "collateralAsset": "The collateral asset to deposit"
        },
        "returns": {
          "naraUSDAmount": "The amount of naraUSD minted"
        }
      },
      "mintWithCollateralFor(address,uint256,address)": {
        "params": {
          "beneficiary": "The address to receive minted naraUSD",
          "collateralAmount": "The amount of collateral to deposit",
          "collateralAsset": "The collateral asset to deposit"
        },
        "returns": {
          "naraUSDAmount": "The amount of naraUSD minted"
        }
      },
      "name()": {
        "details": "Returns the name of the token."
      },
      "nonces(address)": {
        "details": "Returns the current nonce for `owner`. This value must be included whenever a signature is generated for {permit}. Every successful call to {permit} increases ``owner``'s nonce by one. This prevents a signature from being used multiple times."
      },
      "paused()": {
        "details": "Returns true if the contract is paused, and false otherwise."
      },
      "permit(address,address,uint256,uint256,uint8,bytes32,bytes32)": {
        "details": "Sets `value` as the allowance of `spender` over ``owner``'s tokens, given ``owner``'s signed approval. IMPORTANT: The same issues {IERC20-approve} has related to transaction ordering also apply here. Emits an {Approval} event. Requirements: - `spender` cannot be the zero address. - `deadline` must be a timestamp in the future. - `v`, `r` and `s` must be a valid `secp256k1` signature from `owner` over the EIP712-formatted function arguments. - the signature must use ``owner``'s current nonce (see {nonces}). For more information on the signature format, see the https://eips.ethereum.org/EIPS/eip-2612#specification[relevant EIP section]. CAUTION: See Security Considerations above."
      },
      "previewDeposit(uint256)": {
        "details": "MUST be inclusive of deposit fees per ERC4626 standardFee is calculated on MCT amount, then shares are minted 1:1 with remaining MCT",
        "params": {
          "assets": "The amount of assets (MCT) to deposit"
        },
        "returns": {
          "shares": "The amount of shares (naraUSD) that would be minted to the receiver after fees"
        }
      },
      "previewMint(uint256)": {
        "details": "MUST be inclusive of deposit fees per ERC4626 standardTo get 'shares' after fee, we need more MCT assets",
        "params": {
          "shares": "The amount of shares (naraUSD) to mint"
        },
        "returns": {
          "assets": "The amount of assets (MCT) needed to mint shares (inclusive of fees)"
        }
      },
      "previewRedeem(uint256)": {
        "details": "MUST be inclusive of withdrawal fees per ERC4626 standardNote: Actual redeem fee is on collateral, but for ERC4626 we apply it to MCT (1:1 equivalent)",
        "params": {
          "shares": "The amount of shares (naraUSD) to redeem"
        },
        "returns": {
          "assets": "The amount of assets (MCT) that would be received after fees"
        }
      },
      "previewWithdraw(uint256)": {
        "details": "MUST be inclusive of withdrawal fees per ERC4626 standardTo get 'assets' after fee, we need to redeem more shares",
        "params": {
          "assets": "The amount of assets (MCT) to withdraw"
        },
        "returns": {
          "shares": "The amount of shares (naraUSD) needed to withdraw assets (inclusive of fees)"
        }
      },
      "redeem(address,uint256,bool)": {
        "params": {
          "allowQueue": "If false, reverts when insufficient liquidity; if true, queues the request",
          "collateralAsset": "The collateral asset to receive",
          "naraUSDAmount": "The amount of naraUSD to redeem"
        },
        "returns": {
          "wasQueued": "True if request was queued, false if executed instantly"
        }
      },
      "redeem(uint256,address,address)": {
        "details": "The ERC4626 redeem(shares, receiver, owner) is replaced by our custom      redeem(collateralAsset, naraUSDAmount, allowQueue) function"
      },
      "redistributeLockedAmount(address,address)": {
        "params": {
          "from": "The address to burn the entire balance from (must have FULL_RESTRICTED_ROLE)",
          "to": "The address to mint the entire balance to (or address(0) to burn)"
        }
      },
      "removeDelegatedSigner(address)": {
        "params": {
          "_removedSigner": "The address to remove"
        }
      },
      "removeFromBlacklist(address)": {
        "params": {
          "target": "The address to un-blacklist"
        }
      },
      "rescueTokens(address,uint256,address)": {
        "details": "Cannot rescue MCT (the underlying asset) to prevent breaking the vault",
        "params": {
          "amount": "The amount of tokens to be rescued",
          "to": "Where to send rescued tokens",
          "token": "The token to be rescued"
        }
      },
      "revokeRole(bytes32,address)": {
        "details": "Revokes `role` from `account`. If `account` had been granted `role`, emits a {RoleRevoked} event. Requirements: - the caller must have ``role``'s admin role. May emit a {RoleRevoked} event."
      },
      "setCooldownDuration(uint24)": {
        "params": {
          "duration": "New cooldown duration (max 90 days)"
        }
      },
      "setDelegatedSigner(address)": {
        "params": {
          "_delegateTo": "The address to delegate to"
        }
      },
      "setFeeTreasury(address)": {
        "params": {
          "_feeTreasury": "New treasury address"
        }
      },
      "setKeyringConfig(address,uint256)": {
        "params": {
          "_keyringAddress": "Address of the Keyring contract (set to address(0) to disable)",
          "_policyId": "The policy ID to check credentials against"
        }
      },
      "setKeyringWhitelist(address,bool)": {
        "details": "Whitelisted addresses bypass Keyring checks (useful for AMM pools, smart contracts)",
        "params": {
          "account": "The address to update whitelist status for",
          "status": "True to whitelist, false to remove from whitelist"
        }
      },
      "setMaxMintPerBlock(uint256)": {
        "params": {
          "_maxMintPerBlock": "New max mint per block"
        }
      },
      "setMaxRedeemPerBlock(uint256)": {
        "params": {
          "_maxRedeemPerBlock": "New max redeem per block"
        }
      },
      "setMinMintAmount(uint256)": {
        "params": {
          "_minMintAmount": "New minimum mint amount (18 decimals)"
        }
      },
      "setMinMintFeeAmount(uint256)": {
        "params": {
          "_minMintFeeAmount": "New minimum mint fee amount (18 decimals)"
        }
      },
      "setMinRedeemAmount(uint256)": {
        "params": {
          "_minRedeemAmount": "New minimum redeem amount (18 decimals)"
        }
      },
      "setMinRedeemFeeAmount(uint256)": {
        "params": {
          "_minRedeemFeeAmount": "New minimum redeem fee amount (18 decimals)"
        }
      },
      "setMintFee(uint16)": {
        "params": {
          "_mintFeeBps": "New mint fee in basis points (max 10%)"
        }
      },
      "setRedeemFee(uint16)": {
        "params": {
          "_redeemFeeBps": "New redeem fee in basis points (max 10%)"
        }
      },
      "supportsInterface(bytes4)": {
        "details": "Returns true if this contract implements the interface defined by `interfaceId`. See the corresponding https://eips.ethereum.org/EIPS/eip-165#how-interfaces-are-identified[ERC section] to learn more about how these ids are created. This function call must use less than 30 000 gas."
      },
      "symbol()": {
        "details": "Returns the symbol of the token, usually a shorter version of the name."
      },
      "totalAssets()": {
        "details": "Returns the total amount of the underlying asset that is managed by Vault. - SHOULD include any compounding that occurs from yield. - MUST be inclusive of any fees that are charged against assets in the Vault. - MUST NOT revert."
      },
      "totalSupply()": {
        "details": "Returns the value of tokens in existence."
      },
      "transfer(address,uint256)": {
        "details": "See {IERC20-transfer}. Requirements: - `to` cannot be the zero address. - the caller must have a balance of at least `value`."
      },
      "transferFrom(address,address,uint256)": {
        "details": "See {IERC20-transferFrom}. Skips emitting an {Approval} event indicating an allowance update. This is not required by the ERC. See {xref-ERC20-_approve-address-address-uint256-bool-}[_approve]. NOTE: Does not update the allowance if the current allowance is the maximum `uint256`. Requirements: - `from` and `to` cannot be the zero address. - `from` must have a balance of at least `value`. - the caller must have allowance for ``from``'s tokens of at least `value`."
      },
      "updateRedemptionRequest(uint256)": {
        "details": "If liquidity is now available, automatically executes instant redemption instead of keeping queued",
        "params": {
          "newAmount": "The new amount of naraUSD to redeem"
        }
      },
      "withdraw(uint256,address,address)": {
        "details": "Use redeem() with instant/queue logic instead"
      }
    },
    "title": "NaraUSD",
    "version": 1
  },
  "userdoc": {
    "kind": "user",
    "methods": {
      "BLACKLIST_MANAGER_ROLE()": {
        "notice": "Role that can blacklist and un-blacklist addresses"
      },
      "BPS_DENOMINATOR()": {
        "notice": "Basis points denominator (100% = 10000 bps)"
      },
      "COLLATERAL_MANAGER_ROLE()": {
        "notice": "Role for managing collateral operations"
      },
      "FULL_RESTRICTED_ROLE()": {
        "notice": "Role that prevents an address from transferring, minting, or redeeming"
      },
      "GATEKEEPER_ROLE()": {
        "notice": "Role for emergency actions"
      },
      "MAX_COOLDOWN_DURATION()": {
        "notice": "Maximum cooldown duration (90 days)"
      },
      "MAX_FEE_BPS()": {
        "notice": "Maximum fee in basis points (10% = 1000 bps)"
      },
      "MINTER_ROLE()": {
        "notice": "Role allowed to mint naraUSD without collateral backing"
      },
      "addToBlacklist(address)": {
        "notice": "Add an address to blacklist"
      },
      "bulkCompleteRedeem(address[])": {
        "notice": "Bulk-complete redemptions for multiple users after cooldown"
      },
      "burn(uint256)": {
        "notice": "Burn naraUSD tokens and underlying MCT without withdrawing collateral"
      },
      "cancelRedeem()": {
        "notice": "Cancel redemption request and return locked naraUSD to user"
      },
      "completeRedeem()": {
        "notice": "Complete redemption after cooldown period - redeems naraUSD for collateral"
      },
      "confirmDelegatedSigner(address)": {
        "notice": "Confirm delegation"
      },
      "cooldownDuration()": {
        "notice": "Cooldown duration in seconds for redemptions"
      },
      "delegatedSigner(address,address)": {
        "notice": "Delegated signer status for smart contracts"
      },
      "disableMintRedeem()": {
        "notice": "Disable mint and redeem in emergency"
      },
      "feeTreasury()": {
        "notice": "Treasury address to receive fees"
      },
      "hasValidCredentials(address)": {
        "notice": "Check if an address has valid Keyring credentials (public view)"
      },
      "isBlacklisted(address)": {
        "notice": "Public view helper to check if an address is blacklisted"
      },
      "keyringAddress()": {
        "notice": "Address of the Keyring contract for credential checking"
      },
      "keyringPolicyId()": {
        "notice": "ID of the Keyring policy to check against"
      },
      "keyringWhitelist(address)": {
        "notice": "Mapping to track whitelist status of addresses (for contracts like AMM pools)"
      },
      "maxMintPerBlock()": {
        "notice": "Max minted naraUSD allowed per block"
      },
      "maxRedeemPerBlock()": {
        "notice": "Max redeemed naraUSD allowed per block"
      },
      "mct()": {
        "notice": "The MCT token (underlying asset)"
      },
      "minMintAmount()": {
        "notice": "Minimum naraUSD amount required for minting (18 decimals)"
      },
      "minMintFeeAmount()": {
        "notice": "Minimum mint fee amount (18 decimals)"
      },
      "minRedeemAmount()": {
        "notice": "Minimum naraUSD amount required for redemption (18 decimals)"
      },
      "minRedeemFeeAmount()": {
        "notice": "Minimum redeem fee amount (18 decimals)"
      },
      "mint(address,uint256)": {
        "notice": "Mint naraUSD without collateral backing (admin-controlled)"
      },
      "mintFeeBps()": {
        "notice": "Mint fee in basis points (e.g., 10 = 0.1%)"
      },
      "mintWithCollateral(address,uint256)": {
        "notice": "Mint naraUSD by depositing collateral"
      },
      "mintWithCollateralFor(address,uint256,address)": {
        "notice": "Mint naraUSD on behalf of a beneficiary"
      },
      "mintedPerBlock(uint256)": {
        "notice": "naraUSD minted per block"
      },
      "pause()": {
        "notice": "Pause all mint and redeem operations"
      },
      "previewDeposit(uint256)": {
        "notice": "Override previewDeposit to account for mint fees"
      },
      "previewMint(uint256)": {
        "notice": "Override previewMint to account for mint fees"
      },
      "previewRedeem(uint256)": {
        "notice": "Override previewRedeem to account for redeem fees"
      },
      "previewWithdraw(uint256)": {
        "notice": "Override previewWithdraw to account for redeem fees"
      },
      "redeem(address,uint256,bool)": {
        "notice": "Redeem naraUSD for collateral - instant if liquidity available, otherwise queued"
      },
      "redeem(uint256,address,address)": {
        "notice": "Override ERC4626 redeem - disabled in favor of custom redeem flow"
      },
      "redeemFeeBps()": {
        "notice": "Redeem fee in basis points (e.g., 10 = 0.1%)"
      },
      "redeemSilo()": {
        "notice": "Silo contract for holding locked naraUSD during cooldown"
      },
      "redeemedPerBlock(uint256)": {
        "notice": "naraUSD redeemed per block"
      },
      "redemptionRequests(address)": {
        "notice": "Mapping of user addresses to their redemption requests"
      },
      "redistributeLockedAmount(address,address)": {
        "notice": "Redistribute locked amount from full restricted user"
      },
      "removeDelegatedSigner(address)": {
        "notice": "Remove delegated signer"
      },
      "removeFromBlacklist(address)": {
        "notice": "Remove an address from blacklist"
      },
      "renounceRole(bytes32,address)": {
        "notice": "Prevent renouncing ownership"
      },
      "rescueTokens(address,uint256,address)": {
        "notice": "Rescue tokens accidentally sent to the contract"
      },
      "setCooldownDuration(uint24)": {
        "notice": "Set cooldown duration for redemptions"
      },
      "setDelegatedSigner(address)": {
        "notice": "Enable smart contracts to delegate signing"
      },
      "setFeeTreasury(address)": {
        "notice": "Set fee treasury address"
      },
      "setKeyringConfig(address,uint256)": {
        "notice": "Set Keyring contract address and policy ID"
      },
      "setKeyringWhitelist(address,bool)": {
        "notice": "Add or remove an address from the Keyring whitelist"
      },
      "setMaxMintPerBlock(uint256)": {
        "notice": "Set max mint per block"
      },
      "setMaxRedeemPerBlock(uint256)": {
        "notice": "Set max redeem per block"
      },
      "setMinMintAmount(uint256)": {
        "notice": "Set minimum mint amount"
      },
      "setMinMintFeeAmount(uint256)": {
        "notice": "Set minimum mint fee amount"
      },
      "setMinRedeemAmount(uint256)": {
        "notice": "Set minimum redeem amount"
      },
      "setMinRedeemFeeAmount(uint256)": {
        "notice": "Set minimum redeem fee amount"
      },
      "setMintFee(uint16)": {
        "notice": "Set mint fee"
      },
      "setRedeemFee(uint16)": {
        "notice": "Set redeem fee"
      },
      "unpause()": {
        "notice": "Unpause all mint and redeem operations"
      },
      "updateRedemptionRequest(uint256)": {
        "notice": "Update queued redemption request amount"
      },
      "withdraw(uint256,address,address)": {
        "notice": "Override ERC4626 withdraw - disabled in favor of custom redeem flow"
      }
    },
    "notice": "Omnichain vault version of naraUSD with integrated minting functionality and redemption queue",
    "version": 1
  },
  "storageLayout": {
    "storage": [
      {
        "astId": 1058,
        "contract": "contracts/narausd/NaraUSD.sol:NaraUSD",
        "label": "_balances",
        "offset": 0,
        "slot": "0",
        "type": "t_mapping(t_address,t_uint256)"
      },
      {
        "astId": 1064,
        "contract": "contracts/narausd/NaraUSD.sol:NaraUSD",
        "label": "_allowances",
        "offset": 0,
        "slot": "1",
        "type": "t_mapping(t_address,t_mapping(t_address,t_uint256))"
      },
      {
        "astId": 1066,
        "contract": "contracts/narausd/NaraUSD.sol:NaraUSD",
        "label": "_totalSupply",
        "offset": 0,
        "slot": "2",
        "type": "t_uint256"
      },
      {
        "astId": 1068,
        "contract": "contracts/narausd/NaraUSD.sol:NaraUSD",
        "label": "_name",
        "offset": 0,
        "slot": "3",
        "type": "t_string_storage"
      },
      {
        "astId": 1070,
        "contract": "contracts/narausd/NaraUSD.sol:NaraUSD",
        "label": "_symbol",
        "offset": 0,
        "slot": "4",
        "type": "t_string_storage"
      },
      {
        "astId": 6643,
        "contract": "contracts/narausd/NaraUSD.sol:NaraUSD",
        "label": "_nameFallback",
        "offset": 0,
        "slot": "5",
        "type": "t_string_storage"
      },
      {
        "astId": 6645,
        "contract": "contracts/narausd/NaraUSD.sol:NaraUSD",
        "label": "_versionFallback",
        "offset": 0,
        "slot": "6",
        "type": "t_string_storage"
      },
      {
        "astId": 4102,
        "contract": "contracts/narausd/NaraUSD.sol:NaraUSD",
        "label": "_nonces",
        "offset": 0,
        "slot": "7",
        "type": "t_mapping(t_address,t_uint256)"
      },
      {
        "astId": 27,
        "contract": "contracts/narausd/NaraUSD.sol:NaraUSD",
        "label": "_roles",
        "offset": 0,
        "slot": "8",
        "type": "t_mapping(t_bytes32,t_struct(RoleData)22_storage)"
      },
      {
        "astId": 4327,
        "contract": "contracts/narausd/NaraUSD.sol:NaraUSD",
        "label": "_status",
        "offset": 0,
        "slot": "9",
        "type": "t_uint256"
      },
      {
        "astId": 4217,
        "contract": "contracts/narausd/NaraUSD.sol:NaraUSD",
        "label": "_paused",
        "offset": 0,
        "slot": "10",
        "type": "t_bool"
      },
      {
        "astId": 13522,
        "contract": "contracts/narausd/NaraUSD.sol:NaraUSD",
        "label": "mintedPerBlock",
        "offset": 0,
        "slot": "11",
        "type": "t_mapping(t_uint256,t_uint256)"
      },
      {
        "astId": 13527,
        "contract": "contracts/narausd/NaraUSD.sol:NaraUSD",
        "label": "redeemedPerBlock",
        "offset": 0,
        "slot": "12",
        "type": "t_mapping(t_uint256,t_uint256)"
      },
      {
        "astId": 13530,
        "contract": "contracts/narausd/NaraUSD.sol:NaraUSD",
        "label": "maxMintPerBlock",
        "offset": 0,
        "slot": "13",
        "type": "t_uint256"
      },
      {
        "astId": 13533,
        "contract": "contracts/narausd/NaraUSD.sol:NaraUSD",
        "label": "maxRedeemPerBlock",
        "offset": 0,
        "slot": "14",
        "type": "t_uint256"
      },
      {
        "astId": 13536,
        "contract": "contracts/narausd/NaraUSD.sol:NaraUSD",
        "label": "minMintAmount",
        "offset": 0,
        "slot": "15",
        "type": "t_uint256"
      },
      {
        "astId": 13539,
        "contract": "contracts/narausd/NaraUSD.sol:NaraUSD",
        "label": "minRedeemAmount",
        "offset": 0,
        "slot": "16",
        "type": "t_uint256"
      },
      {
        "astId": 13547,
        "contract": "contracts/narausd/NaraUSD.sol:NaraUSD",
        "label": "delegatedSigner",
        "offset": 0,
        "slot": "17",
        "type": "t_mapping(t_address,t_mapping(t_address,t_enum(DelegatedSignerStatus)13590))"
      },
      {
        "astId": 13550,
        "contract": "contracts/narausd/NaraUSD.sol:NaraUSD",
        "label": "cooldownDuration",
        "offset": 0,
        "slot": "18",
        "type": "t_uint24"
      },
      {
        "astId": 13556,
        "contract": "contracts/narausd/NaraUSD.sol:NaraUSD",
        "label": "redemptionRequests",
        "offset": 0,
        "slot": "19",
        "type": "t_mapping(t_address,t_struct(RedemptionRequest)13513_storage)"
      },
      {
        "astId": 13563,
        "contract": "contracts/narausd/NaraUSD.sol:NaraUSD",
        "label": "mintFeeBps",
        "offset": 0,
        "slot": "20",
        "type": "t_uint16"
      },
      {
        "astId": 13566,
        "contract": "contracts/narausd/NaraUSD.sol:NaraUSD",
        "label": "redeemFeeBps",
        "offset": 2,
        "slot": "20",
        "type": "t_uint16"
      },
      {
        "astId": 13569,
        "contract": "contracts/narausd/NaraUSD.sol:NaraUSD",
        "label": "minMintFeeAmount",
        "offset": 0,
        "slot": "21",
        "type": "t_uint256"
      },
      {
        "astId": 13572,
        "contract": "contracts/narausd/NaraUSD.sol:NaraUSD",
        "label": "minRedeemFeeAmount",
        "offset": 0,
        "slot": "22",
        "type": "t_uint256"
      },
      {
        "astId": 13575,
        "contract": "contracts/narausd/NaraUSD.sol:NaraUSD",
        "label": "feeTreasury",
        "offset": 0,
        "slot": "23",
        "type": "t_address"
      },
      {
        "astId": 13578,
        "contract": "contracts/narausd/NaraUSD.sol:NaraUSD",
        "label": "keyringAddress",
        "offset": 0,
        "slot": "24",
        "type": "t_address"
      },
      {
        "astId": 13581,
        "contract": "contracts/narausd/NaraUSD.sol:NaraUSD",
        "label": "keyringPolicyId",
        "offset": 0,
        "slot": "25",
        "type": "t_uint256"
      },
      {
        "astId": 13586,
        "contract": "contracts/narausd/NaraUSD.sol:NaraUSD",
        "label": "keyringWhitelist",
        "offset": 0,
        "slot": "26",
        "type": "t_mapping(t_address,t_bool)"
      }
    ],
    "types": {
      "t_address": {
        "encoding": "inplace",
        "label": "address",
        "numberOfBytes": "20"
      },
      "t_bool": {
        "encoding": "inplace",
        "label": "bool",
        "numberOfBytes": "1"
      },
      "t_bytes32": {
        "encoding": "inplace",
        "label": "bytes32",
        "numberOfBytes": "32"
      },
      "t_enum(DelegatedSignerStatus)13590": {
        "encoding": "inplace",
        "label": "enum NaraUSD.DelegatedSignerStatus",
        "numberOfBytes": "1"
      },
      "t_mapping(t_address,t_bool)": {
        "encoding": "mapping",
        "key": "t_address",
        "label": "mapping(address => bool)",
        "numberOfBytes": "32",
        "value": "t_bool"
      },
      "t_mapping(t_address,t_enum(DelegatedSignerStatus)13590)": {
        "encoding": "mapping",
        "key": "t_address",
        "label": "mapping(address => enum NaraUSD.DelegatedSignerStatus)",
        "numberOfBytes": "32",
        "value": "t_enum(DelegatedSignerStatus)13590"
      },
      "t_mapping(t_address,t_mapping(t_address,t_enum(DelegatedSignerStatus)13590))": {
        "encoding": "mapping",
        "key": "t_address",
        "label": "mapping(address => mapping(address => enum NaraUSD.DelegatedSignerStatus))",
        "numberOfBytes": "32",
        "value": "t_mapping(t_address,t_enum(DelegatedSignerStatus)13590)"
      },
      "t_mapping(t_address,t_mapping(t_address,t_uint256))": {
        "encoding": "mapping",
        "key": "t_address",
        "label": "mapping(address => mapping(address => uint256))",
        "numberOfBytes": "32",
        "value": "t_mapping(t_address,t_uint256)"
      },
      "t_mapping(t_address,t_struct(RedemptionRequest)13513_storage)": {
        "encoding": "mapping",
        "key": "t_address",
        "label": "mapping(address => struct NaraUSD.RedemptionRequest)",
        "numberOfBytes": "32",
        "value": "t_struct(RedemptionRequest)13513_storage"
      },
      "t_mapping(t_address,t_uint256)": {
        "encoding": "mapping",
        "key": "t_address",
        "label": "mapping(address => uint256)",
        "numberOfBytes": "32",
        "value": "t_uint256"
      },
      "t_mapping(t_bytes32,t_struct(RoleData)22_storage)": {
        "encoding": "mapping",
        "key": "t_bytes32",
        "label": "mapping(bytes32 => struct AccessControl.RoleData)",
        "numberOfBytes": "32",
        "value": "t_struct(RoleData)22_storage"
      },
      "t_mapping(t_uint256,t_uint256)": {
        "encoding": "mapping",
        "key": "t_uint256",
        "label": "mapping(uint256 => uint256)",
        "numberOfBytes": "32",
        "value": "t_uint256"
      },
      "t_string_storage": {
        "encoding": "bytes",
        "label": "string",
        "numberOfBytes": "32"
      },
      "t_struct(RedemptionRequest)13513_storage": {
        "encoding": "inplace",
        "label": "struct NaraUSD.RedemptionRequest",
        "members": [
          {
            "astId": 13510,
            "contract": "contracts/narausd/NaraUSD.sol:NaraUSD",
            "label": "naraUSDAmount",
            "offset": 0,
            "slot": "0",
            "type": "t_uint152"
          },
          {
            "astId": 13512,
            "contract": "contracts/narausd/NaraUSD.sol:NaraUSD",
            "label": "collateralAsset",
            "offset": 0,
            "slot": "1",
            "type": "t_address"
          }
        ],
        "numberOfBytes": "64"
      },
      "t_struct(RoleData)22_storage": {
        "encoding": "inplace",
        "label": "struct AccessControl.RoleData",
        "members": [
          {
            "astId": 19,
            "contract": "contracts/narausd/NaraUSD.sol:NaraUSD",
            "label": "hasRole",
            "offset": 0,
            "slot": "0",
            "type": "t_mapping(t_address,t_bool)"
          },
          {
            "astId": 21,
            "contract": "contracts/narausd/NaraUSD.sol:NaraUSD",
            "label": "adminRole",
            "offset": 0,
            "slot": "1",
            "type": "t_bytes32"
          }
        ],
        "numberOfBytes": "64"
      },
      "t_uint152": {
        "encoding": "inplace",
        "label": "uint152",
        "numberOfBytes": "19"
      },
      "t_uint16": {
        "encoding": "inplace",
        "label": "uint16",
        "numberOfBytes": "2"
      },
      "t_uint24": {
        "encoding": "inplace",
        "label": "uint24",
        "numberOfBytes": "3"
      },
      "t_uint256": {
        "encoding": "inplace",
        "label": "uint256",
        "numberOfBytes": "32"
      }
    }
  }
}